{
	"contracts/GovernorElection.sol": {
		"GovernorElection": {
			"abi": [
				{
					"inputs": [],
					"stateMutability": "nonpayable",
					"type": "constructor"
				},
				{
					"anonymous": false,
					"inputs": [
						{
							"indexed": true,
							"internalType": "address",
							"name": "previousOwner",
							"type": "address"
						},
						{
							"indexed": true,
							"internalType": "address",
							"name": "newOwner",
							"type": "address"
						}
					],
					"name": "OwnershipTransferred",
					"type": "event"
				},
				{
					"inputs": [
						{
							"internalType": "string",
							"name": "name",
							"type": "string"
						},
						{
							"internalType": "string",
							"name": "description",
							"type": "string"
						}
					],
					"name": "applyAsCandidate",
					"outputs": [],
					"stateMutability": "nonpayable",
					"type": "function"
				},
				{
					"inputs": [
						{
							"internalType": "uint256",
							"name": "",
							"type": "uint256"
						}
					],
					"name": "candidateVotes",
					"outputs": [
						{
							"internalType": "uint256",
							"name": "",
							"type": "uint256"
						}
					],
					"stateMutability": "view",
					"type": "function"
				},
				{
					"inputs": [
						{
							"internalType": "uint256",
							"name": "",
							"type": "uint256"
						}
					],
					"name": "elections",
					"outputs": [
						{
							"internalType": "uint256",
							"name": "electionStartsAt",
							"type": "uint256"
						},
						{
							"internalType": "uint256",
							"name": "electionEndsAt",
							"type": "uint256"
						}
					],
					"stateMutability": "view",
					"type": "function"
				},
				{
					"inputs": [],
					"name": "endCurrentElectionAndStartANewOne",
					"outputs": [],
					"stateMutability": "nonpayable",
					"type": "function"
				},
				{
					"inputs": [],
					"name": "getCurrentElection",
					"outputs": [
						{
							"components": [
								{
									"internalType": "uint256",
									"name": "electionStartsAt",
									"type": "uint256"
								},
								{
									"internalType": "uint256",
									"name": "electionEndsAt",
									"type": "uint256"
								},
								{
									"components": [
										{
											"internalType": "uint256",
											"name": "id",
											"type": "uint256"
										},
										{
											"internalType": "string",
											"name": "name",
											"type": "string"
										},
										{
											"internalType": "string",
											"name": "description",
											"type": "string"
										},
										{
											"internalType": "address",
											"name": "owner",
											"type": "address"
										}
									],
									"internalType": "struct GovernorElection.Candidate[]",
									"name": "candidates",
									"type": "tuple[]"
								},
								{
									"internalType": "address[]",
									"name": "alreadyVoted",
									"type": "address[]"
								}
							],
							"internalType": "struct GovernorElection.Election",
							"name": "",
							"type": "tuple"
						}
					],
					"stateMutability": "view",
					"type": "function"
				},
				{
					"inputs": [
						{
							"internalType": "address",
							"name": "addr",
							"type": "address"
						}
					],
					"name": "hasAddressAlreadyVoted",
					"outputs": [
						{
							"internalType": "bool",
							"name": "",
							"type": "bool"
						}
					],
					"stateMutability": "view",
					"type": "function"
				},
				{
					"inputs": [
						{
							"internalType": "address",
							"name": "addr",
							"type": "address"
						}
					],
					"name": "hasCandidateByAddress",
					"outputs": [
						{
							"internalType": "bool",
							"name": "",
							"type": "bool"
						}
					],
					"stateMutability": "view",
					"type": "function"
				},
				{
					"inputs": [],
					"name": "owner",
					"outputs": [
						{
							"internalType": "address",
							"name": "",
							"type": "address"
						}
					],
					"stateMutability": "view",
					"type": "function"
				},
				{
					"inputs": [],
					"name": "renounceOwnership",
					"outputs": [],
					"stateMutability": "nonpayable",
					"type": "function"
				},
				{
					"inputs": [
						{
							"internalType": "uint256",
							"name": "electionLastsFor",
							"type": "uint256"
						}
					],
					"name": "setElectionLastsFor",
					"outputs": [],
					"stateMutability": "nonpayable",
					"type": "function"
				},
				{
					"inputs": [
						{
							"internalType": "uint256",
							"name": "electionStartIn",
							"type": "uint256"
						}
					],
					"name": "setElectionStartIn",
					"outputs": [],
					"stateMutability": "nonpayable",
					"type": "function"
				},
				{
					"inputs": [
						{
							"internalType": "address",
							"name": "newOwner",
							"type": "address"
						}
					],
					"name": "transferOwnership",
					"outputs": [],
					"stateMutability": "nonpayable",
					"type": "function"
				},
				{
					"inputs": [
						{
							"internalType": "uint256",
							"name": "voteForId",
							"type": "uint256"
						}
					],
					"name": "vote",
					"outputs": [],
					"stateMutability": "nonpayable",
					"type": "function"
				}
			],
			"devdoc": {
				"kind": "dev",
				"methods": {
					"owner()": {
						"details": "Returns the address of the current owner."
					},
					"renounceOwnership()": {
						"details": "Leaves the contract without owner. It will not be possible to call `onlyOwner` functions anymore. Can only be called by the current owner. NOTE: Renouncing ownership will leave the contract without an owner, thereby removing any functionality that is only available to the owner."
					},
					"transferOwnership(address)": {
						"details": "Transfers ownership of the contract to a new account (`newOwner`). Can only be called by the current owner."
					}
				},
				"version": 1
			},
			"evm": {
				"assembly": "    /* \"contracts/GovernorElection.sol\":130:6535  contract GovernorElection is Ownable {\r... */\n  mstore(0x40, 0x80)\n    /* \"contracts/GovernorElection.sol\":863:873  60*60*24*1 */\n  0x015180\n    /* \"contracts/GovernorElection.sol\":838:873  uint ELECTION_START_IN = 60*60*24*1 */\n  0x01\n  sstore\n    /* \"contracts/GovernorElection.sol\":916:926  60*60*24*7 */\n  0x093a80\n    /* \"contracts/GovernorElection.sol\":890:926  uint ELECTION_LASTS_FOR = 60*60*24*7 */\n  0x02\n  sstore\n    /* \"contracts/GovernorElection.sol\":1169:1170  0 */\n  0x00\n    /* \"contracts/GovernorElection.sol\":1146:1170  uint256 candidateNum = 0 */\n  0x03\n  sstore\n    /* \"contracts/GovernorElection.sol\":1617:1962  constructor() {\r... */\n  callvalue\n  dup1\n  iszero\n  tag_1\n  jumpi\n  0x00\n  dup1\n  revert\ntag_1:\n  pop\n    /* \"@openzeppelin/contracts/access/Ownable.sol\":921:953  _transferOwnership(_msgSender()) */\n  tag_5\n    /* \"@openzeppelin/contracts/access/Ownable.sol\":940:952  _msgSender() */\n  tag_6\n    /* \"@openzeppelin/contracts/access/Ownable.sol\":940:950  _msgSender */\n  shl(0x20, tag_7)\n    /* \"@openzeppelin/contracts/access/Ownable.sol\":940:952  _msgSender() */\n  0x20\n  shr\n  jump\t// in\ntag_6:\n    /* \"@openzeppelin/contracts/access/Ownable.sol\":921:939  _transferOwnership */\n  shl(0x20, tag_8)\n    /* \"@openzeppelin/contracts/access/Ownable.sol\":921:953  _transferOwnership(_msgSender()) */\n  0x20\n  shr\n  jump\t// in\ntag_5:\n    /* \"contracts/GovernorElection.sol\":1642:1667  Election storage election */\n  0x00\n    /* \"contracts/GovernorElection.sol\":1670:1679  elections */\n  0x06\n    /* \"contracts/GovernorElection.sol\":1670:1694  elections[electionNum++] */\n  0x00\n    /* \"contracts/GovernorElection.sol\":1680:1691  electionNum */\n  0x05\n  0x00\n    /* \"contracts/GovernorElection.sol\":1680:1693  electionNum++ */\n  dup2\n  sload\n  dup1\n  swap3\n  swap2\n  swap1\n  tag_10\n  swap1\n  tag_11\n  jump\t// in\ntag_10:\n  swap2\n  swap1\n  pop\n  sstore\n    /* \"contracts/GovernorElection.sol\":1670:1694  elections[electionNum++] */\n  dup2\n  mstore\n  0x20\n  add\n  swap1\n  dup2\n  mstore\n  0x20\n  add\n  0x00\n  keccak256\n    /* \"contracts/GovernorElection.sol\":1642:1694  Election storage election = elections[electionNum++] */\n  swap1\n  pop\n    /* \"contracts/GovernorElection.sol\":1751:1768  ELECTION_START_IN */\n  sload(0x01)\n    /* \"contracts/GovernorElection.sol\":1733:1748  block.timestamp */\n  timestamp\n    /* \"contracts/GovernorElection.sol\":1733:1768  block.timestamp + ELECTION_START_IN */\n  tag_12\n  swap2\n  swap1\n  tag_13\n  jump\t// in\ntag_12:\n    /* \"contracts/GovernorElection.sol\":1705:1713  election */\n  dup2\n    /* \"contracts/GovernorElection.sol\":1705:1730  election.electionStartsAt */\n  0x00\n  add\n    /* \"contracts/GovernorElection.sol\":1705:1768  election.electionStartsAt = block.timestamp + ELECTION_START_IN */\n  dup2\n  swap1\n  sstore\n  pop\n    /* \"contracts/GovernorElection.sol\":1894:1912  ELECTION_LASTS_FOR */\n  sload(0x02)\n    /* \"contracts/GovernorElection.sol\":1876:1893  ELECTION_START_IN */\n  sload(0x01)\n    /* \"contracts/GovernorElection.sol\":1876:1912  ELECTION_START_IN+ELECTION_LASTS_FOR */\n  tag_14\n  swap2\n  swap1\n  tag_13\n  jump\t// in\ntag_14:\n    /* \"contracts/GovernorElection.sol\":1857:1872  block.timestamp */\n  timestamp\n    /* \"contracts/GovernorElection.sol\":1857:1913  block.timestamp + (ELECTION_START_IN+ELECTION_LASTS_FOR) */\n  tag_15\n  swap2\n  swap1\n  tag_13\n  jump\t// in\ntag_15:\n    /* \"contracts/GovernorElection.sol\":1831:1839  election */\n  dup2\n    /* \"contracts/GovernorElection.sol\":1831:1854  election.electionEndsAt */\n  0x01\n  add\n    /* \"contracts/GovernorElection.sol\":1831:1913  election.electionEndsAt = block.timestamp + (ELECTION_START_IN+ELECTION_LASTS_FOR) */\n  dup2\n  swap1\n  sstore\n  pop\n    /* \"contracts/GovernorElection.sol\":1631:1962  {\r... */\n  pop\n    /* \"contracts/GovernorElection.sol\":130:6535  contract GovernorElection is Ownable {\r... */\n  jump(tag_16)\n    /* \"@openzeppelin/contracts/utils/Context.sol\":640:736  function _msgSender() internal view virtual returns (address) {... */\ntag_7:\n    /* \"@openzeppelin/contracts/utils/Context.sol\":693:700  address */\n  0x00\n    /* \"@openzeppelin/contracts/utils/Context.sol\":719:729  msg.sender */\n  caller\n    /* \"@openzeppelin/contracts/utils/Context.sol\":712:729  return msg.sender */\n  swap1\n  pop\n    /* \"@openzeppelin/contracts/utils/Context.sol\":640:736  function _msgSender() internal view virtual returns (address) {... */\n  swap1\n  jump\t// out\n    /* \"@openzeppelin/contracts/access/Ownable.sol\":2270:2457  function _transferOwnership(address newOwner) internal virtual {... */\ntag_8:\n    /* \"@openzeppelin/contracts/access/Ownable.sol\":2343:2359  address oldOwner */\n  0x00\n    /* \"@openzeppelin/contracts/access/Ownable.sol\":2362:2368  _owner */\n  dup1\n  0x00\n  swap1\n  sload\n  swap1\n  0x0100\n  exp\n  swap1\n  div\n  0xffffffffffffffffffffffffffffffffffffffff\n  and\n    /* \"@openzeppelin/contracts/access/Ownable.sol\":2343:2368  address oldOwner = _owner */\n  swap1\n  pop\n    /* \"@openzeppelin/contracts/access/Ownable.sol\":2387:2395  newOwner */\n  dup2\n    /* \"@openzeppelin/contracts/access/Ownable.sol\":2378:2384  _owner */\n  0x00\n  dup1\n    /* \"@openzeppelin/contracts/access/Ownable.sol\":2378:2395  _owner = newOwner */\n  0x0100\n  exp\n  dup2\n  sload\n  dup2\n  0xffffffffffffffffffffffffffffffffffffffff\n  mul\n  not\n  and\n  swap1\n  dup4\n  0xffffffffffffffffffffffffffffffffffffffff\n  and\n  mul\n  or\n  swap1\n  sstore\n  pop\n    /* \"@openzeppelin/contracts/access/Ownable.sol\":2441:2449  newOwner */\n  dup2\n    /* \"@openzeppelin/contracts/access/Ownable.sol\":2410:2450  OwnershipTransferred(oldOwner, newOwner) */\n  0xffffffffffffffffffffffffffffffffffffffff\n  and\n    /* \"@openzeppelin/contracts/access/Ownable.sol\":2431:2439  oldOwner */\n  dup2\n    /* \"@openzeppelin/contracts/access/Ownable.sol\":2410:2450  OwnershipTransferred(oldOwner, newOwner) */\n  0xffffffffffffffffffffffffffffffffffffffff\n  and\n  0x8be0079c531659141344cd1fd0a4f28419497f9722a3daafe3b4186f6b6457e0\n  mload(0x40)\n  mload(0x40)\n  dup1\n  swap2\n  sub\n  swap1\n  log3\n    /* \"@openzeppelin/contracts/access/Ownable.sol\":2333:2457  {... */\n  pop\n    /* \"@openzeppelin/contracts/access/Ownable.sol\":2270:2457  function _transferOwnership(address newOwner) internal virtual {... */\n  pop\n  jump\t// out\n    /* \"#utility.yul\":7:312   */\ntag_13:\n    /* \"#utility.yul\":47:50   */\n  0x00\n    /* \"#utility.yul\":66:86   */\n  tag_21\n    /* \"#utility.yul\":84:85   */\n  dup3\n    /* \"#utility.yul\":66:86   */\n  tag_22\n  jump\t// in\ntag_21:\n    /* \"#utility.yul\":61:86   */\n  swap2\n  pop\n    /* \"#utility.yul\":100:120   */\n  tag_23\n    /* \"#utility.yul\":118:119   */\n  dup4\n    /* \"#utility.yul\":100:120   */\n  tag_22\n  jump\t// in\ntag_23:\n    /* \"#utility.yul\":95:120   */\n  swap3\n  pop\n    /* \"#utility.yul\":254:255   */\n  dup3\n    /* \"#utility.yul\":186:252   */\n  0xffffffffffffffffffffffffffffffffffffffffffffffffffffffffffffffff\n    /* \"#utility.yul\":182:256   */\n  sub\n    /* \"#utility.yul\":179:180   */\n  dup3\n    /* \"#utility.yul\":176:257   */\n  gt\n    /* \"#utility.yul\":173:280   */\n  iszero\n  tag_24\n  jumpi\n    /* \"#utility.yul\":260:278   */\n  tag_25\n  tag_26\n  jump\t// in\ntag_25:\n    /* \"#utility.yul\":173:280   */\ntag_24:\n    /* \"#utility.yul\":304:305   */\n  dup3\n    /* \"#utility.yul\":301:302   */\n  dup3\n    /* \"#utility.yul\":297:306   */\n  add\n    /* \"#utility.yul\":290:306   */\n  swap1\n  pop\n    /* \"#utility.yul\":7:312   */\n  swap3\n  swap2\n  pop\n  pop\n  jump\t// out\n    /* \"#utility.yul\":318:395   */\ntag_22:\n    /* \"#utility.yul\":355:362   */\n  0x00\n    /* \"#utility.yul\":384:389   */\n  dup2\n    /* \"#utility.yul\":373:389   */\n  swap1\n  pop\n    /* \"#utility.yul\":318:395   */\n  swap2\n  swap1\n  pop\n  jump\t// out\n    /* \"#utility.yul\":401:634   */\ntag_11:\n    /* \"#utility.yul\":440:443   */\n  0x00\n    /* \"#utility.yul\":463:487   */\n  tag_29\n    /* \"#utility.yul\":481:486   */\n  dup3\n    /* \"#utility.yul\":463:487   */\n  tag_22\n  jump\t// in\ntag_29:\n    /* \"#utility.yul\":454:487   */\n  swap2\n  pop\n    /* \"#utility.yul\":509:575   */\n  0xffffffffffffffffffffffffffffffffffffffffffffffffffffffffffffffff\n    /* \"#utility.yul\":502:507   */\n  dup3\n    /* \"#utility.yul\":499:576   */\n  eq\n    /* \"#utility.yul\":496:599   */\n  iszero\n  tag_30\n  jumpi\n    /* \"#utility.yul\":579:597   */\n  tag_31\n  tag_26\n  jump\t// in\ntag_31:\n    /* \"#utility.yul\":496:599   */\ntag_30:\n    /* \"#utility.yul\":626:627   */\n  0x01\n    /* \"#utility.yul\":619:624   */\n  dup3\n    /* \"#utility.yul\":615:628   */\n  add\n    /* \"#utility.yul\":608:628   */\n  swap1\n  pop\n    /* \"#utility.yul\":401:634   */\n  swap2\n  swap1\n  pop\n  jump\t// out\n    /* \"#utility.yul\":640:820   */\ntag_26:\n    /* \"#utility.yul\":688:765   */\n  0x4e487b7100000000000000000000000000000000000000000000000000000000\n    /* \"#utility.yul\":685:686   */\n  0x00\n    /* \"#utility.yul\":678:766   */\n  mstore\n    /* \"#utility.yul\":785:789   */\n  0x11\n    /* \"#utility.yul\":782:783   */\n  0x04\n    /* \"#utility.yul\":775:790   */\n  mstore\n    /* \"#utility.yul\":809:813   */\n  0x24\n    /* \"#utility.yul\":806:807   */\n  0x00\n    /* \"#utility.yul\":799:814   */\n  revert\n    /* \"contracts/GovernorElection.sol\":130:6535  contract GovernorElection is Ownable {\r... */\ntag_16:\n  dataSize(sub_0)\n  dup1\n  dataOffset(sub_0)\n  0x00\n  codecopy\n  0x00\n  return\nstop\n\nsub_0: assembly {\n        /* \"contracts/GovernorElection.sol\":130:6535  contract GovernorElection is Ownable {\r... */\n      mstore(0x40, 0x80)\n      callvalue\n      dup1\n      iszero\n      tag_1\n      jumpi\n      0x00\n      dup1\n      revert\n    tag_1:\n      pop\n      jumpi(tag_2, lt(calldatasize, 0x04))\n      shr(0xe0, calldataload(0x00))\n      dup1\n      0x9690382e\n      gt\n      tag_16\n      jumpi\n      dup1\n      0xeff41bb3\n      gt\n      tag_17\n      jumpi\n      dup1\n      0xeff41bb3\n      eq\n      tag_12\n      jumpi\n      dup1\n      0xf2fde38b\n      eq\n      tag_13\n      jumpi\n      dup1\n      0xf49e323e\n      eq\n      tag_14\n      jumpi\n      dup1\n      0xf7ae7015\n      eq\n      tag_15\n      jumpi\n      jump(tag_2)\n    tag_17:\n      dup1\n      0x9690382e\n      eq\n      tag_9\n      jumpi\n      dup1\n      0xb0b0e68d\n      eq\n      tag_10\n      jumpi\n      dup1\n      0xe22712e8\n      eq\n      tag_11\n      jumpi\n      jump(tag_2)\n    tag_16:\n      dup1\n      0x0121b93f\n      eq\n      tag_3\n      jumpi\n      dup1\n      0x33c5226b\n      eq\n      tag_4\n      jumpi\n      dup1\n      0x5e6fef01\n      eq\n      tag_5\n      jumpi\n      dup1\n      0x5ed3291d\n      eq\n      tag_6\n      jumpi\n      dup1\n      0x715018a6\n      eq\n      tag_7\n      jumpi\n      dup1\n      0x8da5cb5b\n      eq\n      tag_8\n      jumpi\n    tag_2:\n      0x00\n      dup1\n      revert\n        /* \"contracts/GovernorElection.sol\":4177:4376  function vote(uint256 voteForId) public onlyWhenElectionIsActive onlyWhenEligibleToVote {\r... */\n    tag_3:\n      tag_18\n      0x04\n      dup1\n      calldatasize\n      sub\n      dup2\n      add\n      swap1\n      tag_19\n      swap2\n      swap1\n      tag_20\n      jump\t// in\n    tag_19:\n      tag_21\n      jump\t// in\n    tag_18:\n      stop\n        /* \"contracts/GovernorElection.sol\":3083:3396  function hasCandidateByAddress(address addr) public view returns (bool) {\r... */\n    tag_4:\n      tag_22\n      0x04\n      dup1\n      calldatasize\n      sub\n      dup2\n      add\n      swap1\n      tag_23\n      swap2\n      swap1\n      tag_24\n      jump\t// in\n    tag_23:\n      tag_25\n      jump\t// in\n    tag_22:\n      mload(0x40)\n      tag_26\n      swap2\n      swap1\n      tag_27\n      jump\t// in\n    tag_26:\n      mload(0x40)\n      dup1\n      swap2\n      sub\n      swap1\n      return\n        /* \"contracts/GovernorElection.sol\":1252:1297  mapping(uint256 => Election) public elections */\n    tag_5:\n      tag_28\n      0x04\n      dup1\n      calldatasize\n      sub\n      dup2\n      add\n      swap1\n      tag_29\n      swap2\n      swap1\n      tag_20\n      jump\t// in\n    tag_29:\n      tag_30\n      jump\t// in\n    tag_28:\n      mload(0x40)\n      tag_31\n      swap3\n      swap2\n      swap1\n      tag_32\n      jump\t// in\n    tag_31:\n      mload(0x40)\n      dup1\n      swap2\n      sub\n      swap1\n      return\n        /* \"contracts/GovernorElection.sol\":5955:6156  function setElectionStartIn(uint256 electionStartIn) onlyOwner public{\r... */\n    tag_6:\n      tag_33\n      0x04\n      dup1\n      calldatasize\n      sub\n      dup2\n      add\n      swap1\n      tag_34\n      swap2\n      swap1\n      tag_20\n      jump\t// in\n    tag_34:\n      tag_35\n      jump\t// in\n    tag_33:\n      stop\n        /* \"@openzeppelin/contracts/access/Ownable.sol\":1668:1769  function renounceOwnership() public virtual onlyOwner {... */\n    tag_7:\n      tag_36\n      tag_37\n      jump\t// in\n    tag_36:\n      stop\n        /* \"@openzeppelin/contracts/access/Ownable.sol\":1036:1121  function owner() public view virtual returns (address) {... */\n    tag_8:\n      tag_38\n      tag_39\n      jump\t// in\n    tag_38:\n      mload(0x40)\n      tag_40\n      swap2\n      swap1\n      tag_41\n      jump\t// in\n    tag_40:\n      mload(0x40)\n      dup1\n      swap2\n      sub\n      swap1\n      return\n        /* \"contracts/GovernorElection.sol\":5753:5947  function setElectionLastsFor(uint256 electionLastsFor) onlyOwner public{\r... */\n    tag_9:\n      tag_42\n      0x04\n      dup1\n      calldatasize\n      sub\n      dup2\n      add\n      swap1\n      tag_43\n      swap2\n      swap1\n      tag_20\n      jump\t// in\n    tag_43:\n      tag_44\n      jump\t// in\n    tag_42:\n      stop\n        /* \"contracts/GovernorElection.sol\":4384:4547  function getCurrentElection() public view returns(Election memory) {\r... */\n    tag_10:\n      tag_45\n      tag_46\n      jump\t// in\n    tag_45:\n      mload(0x40)\n      tag_47\n      swap2\n      swap1\n      tag_48\n      jump\t// in\n    tag_47:\n      mload(0x40)\n      dup1\n      swap2\n      sub\n      swap1\n      return\n        /* \"contracts/GovernorElection.sol\":6164:6532  function endCurrentElectionAndStartANewOne() onlyOwner public{\r... */\n    tag_11:\n      tag_49\n      tag_50\n      jump\t// in\n    tag_49:\n      stop\n        /* \"contracts/GovernorElection.sol\":3404:3716  function hasAddressAlreadyVoted(address addr) public view returns (bool) {\r... */\n    tag_12:\n      tag_51\n      0x04\n      dup1\n      calldatasize\n      sub\n      dup2\n      add\n      swap1\n      tag_52\n      swap2\n      swap1\n      tag_24\n      jump\t// in\n    tag_52:\n      tag_53\n      jump\t// in\n    tag_51:\n      mload(0x40)\n      tag_54\n      swap2\n      swap1\n      tag_27\n      jump\t// in\n    tag_54:\n      mload(0x40)\n      dup1\n      swap2\n      sub\n      swap1\n      return\n        /* \"@openzeppelin/contracts/access/Ownable.sol\":1918:2116  function transferOwnership(address newOwner) public virtual onlyOwner {... */\n    tag_13:\n      tag_55\n      0x04\n      dup1\n      calldatasize\n      sub\n      dup2\n      add\n      swap1\n      tag_56\n      swap2\n      swap1\n      tag_24\n      jump\t// in\n    tag_56:\n      tag_57\n      jump\t// in\n    tag_55:\n      stop\n        /* \"contracts/GovernorElection.sol\":1369:1412  mapping(uint => uint) public candidateVotes */\n    tag_14:\n      tag_58\n      0x04\n      dup1\n      calldatasize\n      sub\n      dup2\n      add\n      swap1\n      tag_59\n      swap2\n      swap1\n      tag_20\n      jump\t// in\n    tag_59:\n      tag_60\n      jump\t// in\n    tag_58:\n      mload(0x40)\n      tag_61\n      swap2\n      swap1\n      tag_62\n      jump\t// in\n    tag_61:\n      mload(0x40)\n      dup1\n      swap2\n      sub\n      swap1\n      return\n        /* \"contracts/GovernorElection.sol\":3724:4169  function applyAsCandidate(string memory name, string memory description) public onlyWhenElectionIsNotActive {\r... */\n    tag_15:\n      tag_63\n      0x04\n      dup1\n      calldatasize\n      sub\n      dup2\n      add\n      swap1\n      tag_64\n      swap2\n      swap1\n      tag_65\n      jump\t// in\n    tag_64:\n      tag_66\n      jump\t// in\n    tag_63:\n      stop\n        /* \"contracts/GovernorElection.sol\":4177:4376  function vote(uint256 voteForId) public onlyWhenElectionIsActive onlyWhenEligibleToVote {\r... */\n    tag_21:\n        /* \"contracts/GovernorElection.sol\":2262:2277  block.timestamp */\n      timestamp\n        /* \"contracts/GovernorElection.sol\":2217:2226  elections */\n      0x06\n        /* \"contracts/GovernorElection.sol\":2217:2241  elections[electionNum-1] */\n      0x00\n        /* \"contracts/GovernorElection.sol\":2239:2240  1 */\n      0x01\n        /* \"contracts/GovernorElection.sol\":2227:2238  electionNum */\n      sload(0x05)\n        /* \"contracts/GovernorElection.sol\":2227:2240  electionNum-1 */\n      tag_68\n      swap2\n      swap1\n      tag_69\n      jump\t// in\n    tag_68:\n        /* \"contracts/GovernorElection.sol\":2217:2241  elections[electionNum-1] */\n      dup2\n      mstore\n      0x20\n      add\n      swap1\n      dup2\n      mstore\n      0x20\n      add\n      0x00\n      keccak256\n        /* \"contracts/GovernorElection.sol\":2217:2258  elections[electionNum-1].electionStartsAt */\n      0x00\n      add\n      sload\n        /* \"contracts/GovernorElection.sol\":2217:2277  elections[electionNum-1].electionStartsAt <= block.timestamp */\n      gt\n      iszero\n        /* \"contracts/GovernorElection.sol\":2217:2339  elections[electionNum-1].electionStartsAt <= block.timestamp && elections[electionNum-1].electionEndsAt >= block.timestamp */\n      dup1\n      iszero\n      tag_70\n      jumpi\n      pop\n        /* \"contracts/GovernorElection.sol\":2324:2339  block.timestamp */\n      timestamp\n        /* \"contracts/GovernorElection.sol\":2281:2290  elections */\n      0x06\n        /* \"contracts/GovernorElection.sol\":2281:2305  elections[electionNum-1] */\n      0x00\n        /* \"contracts/GovernorElection.sol\":2303:2304  1 */\n      0x01\n        /* \"contracts/GovernorElection.sol\":2291:2302  electionNum */\n      sload(0x05)\n        /* \"contracts/GovernorElection.sol\":2291:2304  electionNum-1 */\n      tag_71\n      swap2\n      swap1\n      tag_69\n      jump\t// in\n    tag_71:\n        /* \"contracts/GovernorElection.sol\":2281:2305  elections[electionNum-1] */\n      dup2\n      mstore\n      0x20\n      add\n      swap1\n      dup2\n      mstore\n      0x20\n      add\n      0x00\n      keccak256\n        /* \"contracts/GovernorElection.sol\":2281:2320  elections[electionNum-1].electionEndsAt */\n      0x01\n      add\n      sload\n        /* \"contracts/GovernorElection.sol\":2281:2339  elections[electionNum-1].electionEndsAt >= block.timestamp */\n      lt\n      iszero\n        /* \"contracts/GovernorElection.sol\":2217:2339  elections[electionNum-1].electionStartsAt <= block.timestamp && elections[electionNum-1].electionEndsAt >= block.timestamp */\n    tag_70:\n        /* \"contracts/GovernorElection.sol\":2209:2366  require(elections[electionNum-1].electionStartsAt <= block.timestamp && elections[electionNum-1].electionEndsAt >= block.timestamp, \"Election is not active\") */\n      tag_72\n      jumpi\n      mload(0x40)\n      0x08c379a000000000000000000000000000000000000000000000000000000000\n      dup2\n      mstore\n      0x04\n      add\n      tag_73\n      swap1\n      tag_74\n      jump\t// in\n    tag_73:\n      mload(0x40)\n      dup1\n      swap2\n      sub\n      swap1\n      revert\n    tag_72:\n        /* \"contracts/GovernorElection.sol\":2713:2718  false */\n      0x00\n        /* \"contracts/GovernorElection.sol\":2676:2718  hasCandidateByAddress(msg.sender) == false */\n      iszero\n      iszero\n        /* \"contracts/GovernorElection.sol\":2676:2709  hasCandidateByAddress(msg.sender) */\n      tag_76\n        /* \"contracts/GovernorElection.sol\":2698:2708  msg.sender */\n      caller\n        /* \"contracts/GovernorElection.sol\":2676:2697  hasCandidateByAddress */\n      tag_25\n        /* \"contracts/GovernorElection.sol\":2676:2709  hasCandidateByAddress(msg.sender) */\n      jump\t// in\n    tag_76:\n        /* \"contracts/GovernorElection.sol\":2676:2718  hasCandidateByAddress(msg.sender) == false */\n      iszero\n      iszero\n      eq\n        /* \"contracts/GovernorElection.sol\":2668:2780  require(hasCandidateByAddress(msg.sender) == false, \"You are not eligible to vote, because you are a candidate\") */\n      tag_77\n      jumpi\n      mload(0x40)\n      0x08c379a000000000000000000000000000000000000000000000000000000000\n      dup2\n      mstore\n      0x04\n      add\n      tag_78\n      swap1\n      tag_79\n      jump\t// in\n    tag_78:\n      mload(0x40)\n      dup1\n      swap2\n      sub\n      swap1\n      revert\n    tag_77:\n        /* \"contracts/GovernorElection.sol\":2837:2842  false */\n      0x00\n        /* \"contracts/GovernorElection.sol\":2799:2842  hasAddressAlreadyVoted(msg.sender) == false */\n      iszero\n      iszero\n        /* \"contracts/GovernorElection.sol\":2799:2833  hasAddressAlreadyVoted(msg.sender) */\n      tag_80\n        /* \"contracts/GovernorElection.sol\":2822:2832  msg.sender */\n      caller\n        /* \"contracts/GovernorElection.sol\":2799:2821  hasAddressAlreadyVoted */\n      tag_53\n        /* \"contracts/GovernorElection.sol\":2799:2833  hasAddressAlreadyVoted(msg.sender) */\n      jump\t// in\n    tag_80:\n        /* \"contracts/GovernorElection.sol\":2799:2842  hasAddressAlreadyVoted(msg.sender) == false */\n      iszero\n      iszero\n      eq\n        /* \"contracts/GovernorElection.sol\":2791:2869  require(hasAddressAlreadyVoted(msg.sender) == false, \"You have already voted\") */\n      tag_81\n      jumpi\n      mload(0x40)\n      0x08c379a000000000000000000000000000000000000000000000000000000000\n      dup2\n      mstore\n      0x04\n      add\n      tag_82\n      swap1\n      tag_83\n      jump\t// in\n    tag_82:\n      mload(0x40)\n      dup1\n      swap2\n      sub\n      swap1\n      revert\n    tag_81:\n        /* \"contracts/GovernorElection.sol\":4276:4290  candidateVotes */\n      0x07\n        /* \"contracts/GovernorElection.sol\":4276:4301  candidateVotes[voteForId] */\n      0x00\n        /* \"contracts/GovernorElection.sol\":4291:4300  voteForId */\n      dup3\n        /* \"contracts/GovernorElection.sol\":4276:4301  candidateVotes[voteForId] */\n      dup2\n      mstore\n      0x20\n      add\n      swap1\n      dup2\n      mstore\n      0x20\n      add\n      0x00\n      keccak256\n      0x00\n        /* \"contracts/GovernorElection.sol\":4276:4303  candidateVotes[voteForId]++ */\n      dup2\n      sload\n      dup1\n      swap3\n      swap2\n      swap1\n      tag_85\n      swap1\n      tag_86\n      jump\t// in\n    tag_85:\n      swap2\n      swap1\n      pop\n      sstore\n      pop\n        /* \"contracts/GovernorElection.sol\":4314:4323  elections */\n      0x06\n        /* \"contracts/GovernorElection.sol\":4314:4338  elections[electionNum-1] */\n      0x00\n        /* \"contracts/GovernorElection.sol\":4336:4337  1 */\n      0x01\n        /* \"contracts/GovernorElection.sol\":4324:4335  electionNum */\n      sload(0x05)\n        /* \"contracts/GovernorElection.sol\":4324:4337  electionNum-1 */\n      tag_87\n      swap2\n      swap1\n      tag_69\n      jump\t// in\n    tag_87:\n        /* \"contracts/GovernorElection.sol\":4314:4338  elections[electionNum-1] */\n      dup2\n      mstore\n      0x20\n      add\n      swap1\n      dup2\n      mstore\n      0x20\n      add\n      0x00\n      keccak256\n        /* \"contracts/GovernorElection.sol\":4314:4351  elections[electionNum-1].alreadyVoted */\n      0x03\n      add\n        /* \"contracts/GovernorElection.sol\":4357:4367  msg.sender */\n      caller\n        /* \"contracts/GovernorElection.sol\":4314:4368  elections[electionNum-1].alreadyVoted.push(msg.sender) */\n      swap1\n      dup1\n      0x01\n      dup2\n      sload\n      add\n      dup1\n      dup3\n      sstore\n      dup1\n      swap2\n      pop\n      pop\n      0x01\n      swap1\n      sub\n      swap1\n      0x00\n      mstore\n      keccak256(0x00, 0x20)\n      add\n      0x00\n      swap1\n      swap2\n      swap1\n      swap2\n      swap1\n      swap2\n      0x0100\n      exp\n      dup2\n      sload\n      dup2\n      0xffffffffffffffffffffffffffffffffffffffff\n      mul\n      not\n      and\n      swap1\n      dup4\n      0xffffffffffffffffffffffffffffffffffffffff\n      and\n      mul\n      or\n      swap1\n      sstore\n      pop\n        /* \"contracts/GovernorElection.sol\":4177:4376  function vote(uint256 voteForId) public onlyWhenElectionIsActive onlyWhenEligibleToVote {\r... */\n      pop\n      jump\t// out\n        /* \"contracts/GovernorElection.sol\":3083:3396  function hasCandidateByAddress(address addr) public view returns (bool) {\r... */\n    tag_25:\n        /* \"contracts/GovernorElection.sol\":3149:3153  bool */\n      0x00\n        /* \"contracts/GovernorElection.sol\":3171:3177  uint i */\n      dup1\n        /* \"contracts/GovernorElection.sol\":3180:3181  0 */\n      0x00\n        /* \"contracts/GovernorElection.sol\":3171:3181  uint i = 0 */\n      swap1\n      pop\n        /* \"contracts/GovernorElection.sol\":3166:3366  for (uint i = 0; i < elections[electionNum-1].candidates.length; i++) {\r... */\n    tag_90:\n        /* \"contracts/GovernorElection.sol\":3187:3196  elections */\n      0x06\n        /* \"contracts/GovernorElection.sol\":3187:3211  elections[electionNum-1] */\n      0x00\n        /* \"contracts/GovernorElection.sol\":3209:3210  1 */\n      0x01\n        /* \"contracts/GovernorElection.sol\":3197:3208  electionNum */\n      sload(0x05)\n        /* \"contracts/GovernorElection.sol\":3197:3210  electionNum-1 */\n      tag_93\n      swap2\n      swap1\n      tag_69\n      jump\t// in\n    tag_93:\n        /* \"contracts/GovernorElection.sol\":3187:3211  elections[electionNum-1] */\n      dup2\n      mstore\n      0x20\n      add\n      swap1\n      dup2\n      mstore\n      0x20\n      add\n      0x00\n      keccak256\n        /* \"contracts/GovernorElection.sol\":3187:3222  elections[electionNum-1].candidates */\n      0x02\n      add\n        /* \"contracts/GovernorElection.sol\":3187:3229  elections[electionNum-1].candidates.length */\n      dup1\n      sload\n      swap1\n      pop\n        /* \"contracts/GovernorElection.sol\":3183:3184  i */\n      dup2\n        /* \"contracts/GovernorElection.sol\":3183:3229  i < elections[electionNum-1].candidates.length */\n      lt\n        /* \"contracts/GovernorElection.sol\":3166:3366  for (uint i = 0; i < elections[electionNum-1].candidates.length; i++) {\r... */\n      iszero\n      tag_91\n      jumpi\n        /* \"contracts/GovernorElection.sol\":3303:3307  addr */\n      dup3\n        /* \"contracts/GovernorElection.sol\":3255:3307  elections[electionNum-1].candidates[i].owner == addr */\n      0xffffffffffffffffffffffffffffffffffffffff\n      and\n        /* \"contracts/GovernorElection.sol\":3255:3264  elections */\n      0x06\n        /* \"contracts/GovernorElection.sol\":3255:3279  elections[electionNum-1] */\n      0x00\n        /* \"contracts/GovernorElection.sol\":3277:3278  1 */\n      0x01\n        /* \"contracts/GovernorElection.sol\":3265:3276  electionNum */\n      sload(0x05)\n        /* \"contracts/GovernorElection.sol\":3265:3278  electionNum-1 */\n      tag_94\n      swap2\n      swap1\n      tag_69\n      jump\t// in\n    tag_94:\n        /* \"contracts/GovernorElection.sol\":3255:3279  elections[electionNum-1] */\n      dup2\n      mstore\n      0x20\n      add\n      swap1\n      dup2\n      mstore\n      0x20\n      add\n      0x00\n      keccak256\n        /* \"contracts/GovernorElection.sol\":3255:3290  elections[electionNum-1].candidates */\n      0x02\n      add\n        /* \"contracts/GovernorElection.sol\":3291:3292  i */\n      dup3\n        /* \"contracts/GovernorElection.sol\":3255:3293  elections[electionNum-1].candidates[i] */\n      dup2\n      sload\n      dup2\n      lt\n      tag_95\n      jumpi\n      tag_96\n      tag_97\n      jump\t// in\n    tag_96:\n    tag_95:\n      swap1\n      0x00\n      mstore\n      keccak256(0x00, 0x20)\n      swap1\n      0x04\n      mul\n      add\n        /* \"contracts/GovernorElection.sol\":3255:3299  elections[electionNum-1].candidates[i].owner */\n      0x03\n      add\n      0x00\n      swap1\n      sload\n      swap1\n      0x0100\n      exp\n      swap1\n      div\n      0xffffffffffffffffffffffffffffffffffffffff\n      and\n        /* \"contracts/GovernorElection.sol\":3255:3307  elections[electionNum-1].candidates[i].owner == addr */\n      0xffffffffffffffffffffffffffffffffffffffff\n      and\n      eq\n        /* \"contracts/GovernorElection.sol\":3251:3355  if (elections[electionNum-1].candidates[i].owner == addr) {\r... */\n      iszero\n      tag_99\n      jumpi\n        /* \"contracts/GovernorElection.sol\":3335:3339  true */\n      0x01\n        /* \"contracts/GovernorElection.sol\":3328:3339  return true */\n      swap2\n      pop\n      pop\n      jump(tag_89)\n        /* \"contracts/GovernorElection.sol\":3251:3355  if (elections[electionNum-1].candidates[i].owner == addr) {\r... */\n    tag_99:\n        /* \"contracts/GovernorElection.sol\":3231:3234  i++ */\n      dup1\n      dup1\n      tag_100\n      swap1\n      tag_86\n      jump\t// in\n    tag_100:\n      swap2\n      pop\n      pop\n        /* \"contracts/GovernorElection.sol\":3166:3366  for (uint i = 0; i < elections[electionNum-1].candidates.length; i++) {\r... */\n      jump(tag_90)\n    tag_91:\n      pop\n        /* \"contracts/GovernorElection.sol\":3383:3388  false */\n      0x00\n        /* \"contracts/GovernorElection.sol\":3376:3388  return false */\n      swap1\n      pop\n        /* \"contracts/GovernorElection.sol\":3083:3396  function hasCandidateByAddress(address addr) public view returns (bool) {\r... */\n    tag_89:\n      swap2\n      swap1\n      pop\n      jump\t// out\n        /* \"contracts/GovernorElection.sol\":1252:1297  mapping(uint256 => Election) public elections */\n    tag_30:\n      mstore(0x20, 0x06)\n      dup1\n      0x00\n      mstore\n      keccak256(0x00, 0x40)\n      0x00\n      swap2\n      pop\n      swap1\n      pop\n      dup1\n      0x00\n      add\n      sload\n      swap1\n      dup1\n      0x01\n      add\n      sload\n      swap1\n      pop\n      dup3\n      jump\t// out\n        /* \"contracts/GovernorElection.sol\":5955:6156  function setElectionStartIn(uint256 electionStartIn) onlyOwner public{\r... */\n    tag_35:\n        /* \"@openzeppelin/contracts/access/Ownable.sol\":1259:1271  _msgSender() */\n      tag_102\n        /* \"@openzeppelin/contracts/access/Ownable.sol\":1259:1269  _msgSender */\n      tag_103\n        /* \"@openzeppelin/contracts/access/Ownable.sol\":1259:1271  _msgSender() */\n      jump\t// in\n    tag_102:\n        /* \"@openzeppelin/contracts/access/Ownable.sol\":1248:1271  owner() == _msgSender() */\n      0xffffffffffffffffffffffffffffffffffffffff\n      and\n        /* \"@openzeppelin/contracts/access/Ownable.sol\":1248:1255  owner() */\n      tag_104\n        /* \"@openzeppelin/contracts/access/Ownable.sol\":1248:1253  owner */\n      tag_39\n        /* \"@openzeppelin/contracts/access/Ownable.sol\":1248:1255  owner() */\n      jump\t// in\n    tag_104:\n        /* \"@openzeppelin/contracts/access/Ownable.sol\":1248:1271  owner() == _msgSender() */\n      0xffffffffffffffffffffffffffffffffffffffff\n      and\n      eq\n        /* \"@openzeppelin/contracts/access/Ownable.sol\":1240:1308  require(owner() == _msgSender(), \"Ownable: caller is not the owner\") */\n      tag_105\n      jumpi\n      mload(0x40)\n      0x08c379a000000000000000000000000000000000000000000000000000000000\n      dup2\n      mstore\n      0x04\n      add\n      tag_106\n      swap1\n      tag_107\n      jump\t// in\n    tag_106:\n      mload(0x40)\n      dup1\n      swap2\n      sub\n      swap1\n      revert\n    tag_105:\n        /* \"contracts/GovernorElection.sol\":6133:6148  electionStartIn */\n      dup1\n        /* \"contracts/GovernorElection.sol\":6112:6130  ELECTION_LASTS_FOR */\n      0x02\n        /* \"contracts/GovernorElection.sol\":6112:6148  ELECTION_LASTS_FOR = electionStartIn */\n      dup2\n      swap1\n      sstore\n      pop\n        /* \"contracts/GovernorElection.sol\":5955:6156  function setElectionStartIn(uint256 electionStartIn) onlyOwner public{\r... */\n      pop\n      jump\t// out\n        /* \"@openzeppelin/contracts/access/Ownable.sol\":1668:1769  function renounceOwnership() public virtual onlyOwner {... */\n    tag_37:\n        /* \"@openzeppelin/contracts/access/Ownable.sol\":1259:1271  _msgSender() */\n      tag_110\n        /* \"@openzeppelin/contracts/access/Ownable.sol\":1259:1269  _msgSender */\n      tag_103\n        /* \"@openzeppelin/contracts/access/Ownable.sol\":1259:1271  _msgSender() */\n      jump\t// in\n    tag_110:\n        /* \"@openzeppelin/contracts/access/Ownable.sol\":1248:1271  owner() == _msgSender() */\n      0xffffffffffffffffffffffffffffffffffffffff\n      and\n        /* \"@openzeppelin/contracts/access/Ownable.sol\":1248:1255  owner() */\n      tag_111\n        /* \"@openzeppelin/contracts/access/Ownable.sol\":1248:1253  owner */\n      tag_39\n        /* \"@openzeppelin/contracts/access/Ownable.sol\":1248:1255  owner() */\n      jump\t// in\n    tag_111:\n        /* \"@openzeppelin/contracts/access/Ownable.sol\":1248:1271  owner() == _msgSender() */\n      0xffffffffffffffffffffffffffffffffffffffff\n      and\n      eq\n        /* \"@openzeppelin/contracts/access/Ownable.sol\":1240:1308  require(owner() == _msgSender(), \"Ownable: caller is not the owner\") */\n      tag_112\n      jumpi\n      mload(0x40)\n      0x08c379a000000000000000000000000000000000000000000000000000000000\n      dup2\n      mstore\n      0x04\n      add\n      tag_113\n      swap1\n      tag_107\n      jump\t// in\n    tag_113:\n      mload(0x40)\n      dup1\n      swap2\n      sub\n      swap1\n      revert\n    tag_112:\n        /* \"@openzeppelin/contracts/access/Ownable.sol\":1732:1762  _transferOwnership(address(0)) */\n      tag_115\n        /* \"@openzeppelin/contracts/access/Ownable.sol\":1759:1760  0 */\n      0x00\n        /* \"@openzeppelin/contracts/access/Ownable.sol\":1732:1750  _transferOwnership */\n      tag_116\n        /* \"@openzeppelin/contracts/access/Ownable.sol\":1732:1762  _transferOwnership(address(0)) */\n      jump\t// in\n    tag_115:\n        /* \"@openzeppelin/contracts/access/Ownable.sol\":1668:1769  function renounceOwnership() public virtual onlyOwner {... */\n      jump\t// out\n        /* \"@openzeppelin/contracts/access/Ownable.sol\":1036:1121  function owner() public view virtual returns (address) {... */\n    tag_39:\n        /* \"@openzeppelin/contracts/access/Ownable.sol\":1082:1089  address */\n      0x00\n        /* \"@openzeppelin/contracts/access/Ownable.sol\":1108:1114  _owner */\n      dup1\n      0x00\n      swap1\n      sload\n      swap1\n      0x0100\n      exp\n      swap1\n      div\n      0xffffffffffffffffffffffffffffffffffffffff\n      and\n        /* \"@openzeppelin/contracts/access/Ownable.sol\":1101:1114  return _owner */\n      swap1\n      pop\n        /* \"@openzeppelin/contracts/access/Ownable.sol\":1036:1121  function owner() public view virtual returns (address) {... */\n      swap1\n      jump\t// out\n        /* \"contracts/GovernorElection.sol\":5753:5947  function setElectionLastsFor(uint256 electionLastsFor) onlyOwner public{\r... */\n    tag_44:\n        /* \"@openzeppelin/contracts/access/Ownable.sol\":1259:1271  _msgSender() */\n      tag_119\n        /* \"@openzeppelin/contracts/access/Ownable.sol\":1259:1269  _msgSender */\n      tag_103\n        /* \"@openzeppelin/contracts/access/Ownable.sol\":1259:1271  _msgSender() */\n      jump\t// in\n    tag_119:\n        /* \"@openzeppelin/contracts/access/Ownable.sol\":1248:1271  owner() == _msgSender() */\n      0xffffffffffffffffffffffffffffffffffffffff\n      and\n        /* \"@openzeppelin/contracts/access/Ownable.sol\":1248:1255  owner() */\n      tag_120\n        /* \"@openzeppelin/contracts/access/Ownable.sol\":1248:1253  owner */\n      tag_39\n        /* \"@openzeppelin/contracts/access/Ownable.sol\":1248:1255  owner() */\n      jump\t// in\n    tag_120:\n        /* \"@openzeppelin/contracts/access/Ownable.sol\":1248:1271  owner() == _msgSender() */\n      0xffffffffffffffffffffffffffffffffffffffff\n      and\n      eq\n        /* \"@openzeppelin/contracts/access/Ownable.sol\":1240:1308  require(owner() == _msgSender(), \"Ownable: caller is not the owner\") */\n      tag_121\n      jumpi\n      mload(0x40)\n      0x08c379a000000000000000000000000000000000000000000000000000000000\n      dup2\n      mstore\n      0x04\n      add\n      tag_122\n      swap1\n      tag_107\n      jump\t// in\n    tag_122:\n      mload(0x40)\n      dup1\n      swap2\n      sub\n      swap1\n      revert\n    tag_121:\n        /* \"contracts/GovernorElection.sol\":5923:5939  electionLastsFor */\n      dup1\n        /* \"contracts/GovernorElection.sol\":5902:5920  ELECTION_LASTS_FOR */\n      0x02\n        /* \"contracts/GovernorElection.sol\":5902:5939  ELECTION_LASTS_FOR = electionLastsFor */\n      dup2\n      swap1\n      sstore\n      pop\n        /* \"contracts/GovernorElection.sol\":5753:5947  function setElectionLastsFor(uint256 electionLastsFor) onlyOwner public{\r... */\n      pop\n      jump\t// out\n        /* \"contracts/GovernorElection.sol\":4384:4547  function getCurrentElection() public view returns(Election memory) {\r... */\n    tag_46:\n        /* \"contracts/GovernorElection.sol\":4434:4449  Election memory */\n      tag_124\n      tag_125\n      jump\t// in\n    tag_124:\n        /* \"contracts/GovernorElection.sol\":4462:4486  Election memory election */\n      0x00\n        /* \"contracts/GovernorElection.sol\":4489:4498  elections */\n      0x06\n        /* \"contracts/GovernorElection.sol\":4489:4513  elections[electionNum-1] */\n      0x00\n        /* \"contracts/GovernorElection.sol\":4511:4512  1 */\n      0x01\n        /* \"contracts/GovernorElection.sol\":4499:4510  electionNum */\n      sload(0x05)\n        /* \"contracts/GovernorElection.sol\":4499:4512  electionNum-1 */\n      tag_127\n      swap2\n      swap1\n      tag_69\n      jump\t// in\n    tag_127:\n        /* \"contracts/GovernorElection.sol\":4489:4513  elections[electionNum-1] */\n      dup2\n      mstore\n      0x20\n      add\n      swap1\n      dup2\n      mstore\n      0x20\n      add\n      0x00\n      keccak256\n        /* \"contracts/GovernorElection.sol\":4462:4513  Election memory election = elections[electionNum-1] */\n      mload(0x40)\n      dup1\n      0x80\n      add\n      0x40\n      mstore\n      swap1\n      dup2\n      0x00\n      dup3\n      add\n      sload\n      dup2\n      mstore\n      0x20\n      add\n      0x01\n      dup3\n      add\n      sload\n      dup2\n      mstore\n      0x20\n      add\n      0x02\n      dup3\n      add\n      dup1\n      sload\n      dup1\n      0x20\n      mul\n      0x20\n      add\n      mload(0x40)\n      swap1\n      dup2\n      add\n      0x40\n      mstore\n      dup1\n      swap3\n      swap2\n      swap1\n      dup2\n      dup2\n      mstore\n      0x20\n      add\n      0x00\n      swap1\n    tag_128:\n      dup3\n      dup3\n      lt\n      iszero\n      tag_129\n      jumpi\n      dup4\n      dup3\n      swap1\n      0x00\n      mstore\n      keccak256(0x00, 0x20)\n      swap1\n      0x04\n      mul\n      add\n      mload(0x40)\n      dup1\n      0x80\n      add\n      0x40\n      mstore\n      swap1\n      dup2\n      0x00\n      dup3\n      add\n      sload\n      dup2\n      mstore\n      0x20\n      add\n      0x01\n      dup3\n      add\n      dup1\n      sload\n      tag_131\n      swap1\n      tag_132\n      jump\t// in\n    tag_131:\n      dup1\n      0x1f\n      add\n      0x20\n      dup1\n      swap2\n      div\n      mul\n      0x20\n      add\n      mload(0x40)\n      swap1\n      dup2\n      add\n      0x40\n      mstore\n      dup1\n      swap3\n      swap2\n      swap1\n      dup2\n      dup2\n      mstore\n      0x20\n      add\n      dup3\n      dup1\n      sload\n      tag_133\n      swap1\n      tag_132\n      jump\t// in\n    tag_133:\n      dup1\n      iszero\n      tag_134\n      jumpi\n      dup1\n      0x1f\n      lt\n      tag_135\n      jumpi\n      0x0100\n      dup1\n      dup4\n      sload\n      div\n      mul\n      dup4\n      mstore\n      swap2\n      0x20\n      add\n      swap2\n      jump(tag_134)\n    tag_135:\n      dup3\n      add\n      swap2\n      swap1\n      0x00\n      mstore\n      keccak256(0x00, 0x20)\n      swap1\n    tag_136:\n      dup2\n      sload\n      dup2\n      mstore\n      swap1\n      0x01\n      add\n      swap1\n      0x20\n      add\n      dup1\n      dup4\n      gt\n      tag_136\n      jumpi\n      dup3\n      swap1\n      sub\n      0x1f\n      and\n      dup3\n      add\n      swap2\n    tag_134:\n      pop\n      pop\n      pop\n      pop\n      pop\n      dup2\n      mstore\n      0x20\n      add\n      0x02\n      dup3\n      add\n      dup1\n      sload\n      tag_137\n      swap1\n      tag_132\n      jump\t// in\n    tag_137:\n      dup1\n      0x1f\n      add\n      0x20\n      dup1\n      swap2\n      div\n      mul\n      0x20\n      add\n      mload(0x40)\n      swap1\n      dup2\n      add\n      0x40\n      mstore\n      dup1\n      swap3\n      swap2\n      swap1\n      dup2\n      dup2\n      mstore\n      0x20\n      add\n      dup3\n      dup1\n      sload\n      tag_138\n      swap1\n      tag_132\n      jump\t// in\n    tag_138:\n      dup1\n      iszero\n      tag_139\n      jumpi\n      dup1\n      0x1f\n      lt\n      tag_140\n      jumpi\n      0x0100\n      dup1\n      dup4\n      sload\n      div\n      mul\n      dup4\n      mstore\n      swap2\n      0x20\n      add\n      swap2\n      jump(tag_139)\n    tag_140:\n      dup3\n      add\n      swap2\n      swap1\n      0x00\n      mstore\n      keccak256(0x00, 0x20)\n      swap1\n    tag_141:\n      dup2\n      sload\n      dup2\n      mstore\n      swap1\n      0x01\n      add\n      swap1\n      0x20\n      add\n      dup1\n      dup4\n      gt\n      tag_141\n      jumpi\n      dup3\n      swap1\n      sub\n      0x1f\n      and\n      dup3\n      add\n      swap2\n    tag_139:\n      pop\n      pop\n      pop\n      pop\n      pop\n      dup2\n      mstore\n      0x20\n      add\n      0x03\n      dup3\n      add\n      0x00\n      swap1\n      sload\n      swap1\n      0x0100\n      exp\n      swap1\n      div\n      0xffffffffffffffffffffffffffffffffffffffff\n      and\n      0xffffffffffffffffffffffffffffffffffffffff\n      and\n      0xffffffffffffffffffffffffffffffffffffffff\n      and\n      dup2\n      mstore\n      pop\n      pop\n      dup2\n      mstore\n      0x20\n      add\n      swap1\n      0x01\n      add\n      swap1\n      jump(tag_128)\n    tag_129:\n      pop\n      pop\n      pop\n      pop\n      dup2\n      mstore\n      0x20\n      add\n      0x03\n      dup3\n      add\n      dup1\n      sload\n      dup1\n      0x20\n      mul\n      0x20\n      add\n      mload(0x40)\n      swap1\n      dup2\n      add\n      0x40\n      mstore\n      dup1\n      swap3\n      swap2\n      swap1\n      dup2\n      dup2\n      mstore\n      0x20\n      add\n      dup3\n      dup1\n      sload\n      dup1\n      iszero\n      tag_142\n      jumpi\n      0x20\n      mul\n      dup3\n      add\n      swap2\n      swap1\n      0x00\n      mstore\n      keccak256(0x00, 0x20)\n      swap1\n    tag_143:\n      dup2\n      0x00\n      swap1\n      sload\n      swap1\n      0x0100\n      exp\n      swap1\n      div\n      0xffffffffffffffffffffffffffffffffffffffff\n      and\n      0xffffffffffffffffffffffffffffffffffffffff\n      and\n      dup2\n      mstore\n      0x20\n      add\n      swap1\n      0x01\n      add\n      swap1\n      dup1\n      dup4\n      gt\n      tag_143\n      jumpi\n    tag_142:\n      pop\n      pop\n      pop\n      pop\n      pop\n      dup2\n      mstore\n      pop\n      pop\n      swap1\n      pop\n        /* \"contracts/GovernorElection.sol\":4531:4539  election */\n      dup1\n        /* \"contracts/GovernorElection.sol\":4524:4539  return election */\n      swap2\n      pop\n      pop\n        /* \"contracts/GovernorElection.sol\":4384:4547  function getCurrentElection() public view returns(Election memory) {\r... */\n      swap1\n      jump\t// out\n        /* \"contracts/GovernorElection.sol\":6164:6532  function endCurrentElectionAndStartANewOne() onlyOwner public{\r... */\n    tag_50:\n        /* \"@openzeppelin/contracts/access/Ownable.sol\":1259:1271  _msgSender() */\n      tag_145\n        /* \"@openzeppelin/contracts/access/Ownable.sol\":1259:1269  _msgSender */\n      tag_103\n        /* \"@openzeppelin/contracts/access/Ownable.sol\":1259:1271  _msgSender() */\n      jump\t// in\n    tag_145:\n        /* \"@openzeppelin/contracts/access/Ownable.sol\":1248:1271  owner() == _msgSender() */\n      0xffffffffffffffffffffffffffffffffffffffff\n      and\n        /* \"@openzeppelin/contracts/access/Ownable.sol\":1248:1255  owner() */\n      tag_146\n        /* \"@openzeppelin/contracts/access/Ownable.sol\":1248:1253  owner */\n      tag_39\n        /* \"@openzeppelin/contracts/access/Ownable.sol\":1248:1255  owner() */\n      jump\t// in\n    tag_146:\n        /* \"@openzeppelin/contracts/access/Ownable.sol\":1248:1271  owner() == _msgSender() */\n      0xffffffffffffffffffffffffffffffffffffffff\n      and\n      eq\n        /* \"@openzeppelin/contracts/access/Ownable.sol\":1240:1308  require(owner() == _msgSender(), \"Ownable: caller is not the owner\") */\n      tag_147\n      jumpi\n      mload(0x40)\n      0x08c379a000000000000000000000000000000000000000000000000000000000\n      dup2\n      mstore\n      0x04\n      add\n      tag_148\n      swap1\n      tag_107\n      jump\t// in\n    tag_148:\n      mload(0x40)\n      dup1\n      swap2\n      sub\n      swap1\n      revert\n    tag_147:\n        /* \"contracts/GovernorElection.sol\":6303:6328  Election storage election */\n      0x00\n        /* \"contracts/GovernorElection.sol\":6331:6340  elections */\n      0x06\n        /* \"contracts/GovernorElection.sol\":6331:6355  elections[electionNum++] */\n      0x00\n        /* \"contracts/GovernorElection.sol\":6341:6352  electionNum */\n      0x05\n      0x00\n        /* \"contracts/GovernorElection.sol\":6341:6354  electionNum++ */\n      dup2\n      sload\n      dup1\n      swap3\n      swap2\n      swap1\n      tag_150\n      swap1\n      tag_86\n      jump\t// in\n    tag_150:\n      swap2\n      swap1\n      pop\n      sstore\n        /* \"contracts/GovernorElection.sol\":6331:6355  elections[electionNum++] */\n      dup2\n      mstore\n      0x20\n      add\n      swap1\n      dup2\n      mstore\n      0x20\n      add\n      0x00\n      keccak256\n        /* \"contracts/GovernorElection.sol\":6303:6355  Election storage election = elections[electionNum++] */\n      swap1\n      pop\n        /* \"contracts/GovernorElection.sol\":6414:6431  ELECTION_START_IN */\n      sload(0x01)\n        /* \"contracts/GovernorElection.sol\":6396:6411  block.timestamp */\n      timestamp\n        /* \"contracts/GovernorElection.sol\":6396:6431  block.timestamp + ELECTION_START_IN */\n      tag_151\n      swap2\n      swap1\n      tag_152\n      jump\t// in\n    tag_151:\n        /* \"contracts/GovernorElection.sol\":6368:6376  election */\n      dup2\n        /* \"contracts/GovernorElection.sol\":6368:6393  election.electionStartsAt */\n      0x00\n      add\n        /* \"contracts/GovernorElection.sol\":6368:6431  election.electionStartsAt = block.timestamp + ELECTION_START_IN */\n      dup2\n      swap1\n      sstore\n      pop\n        /* \"contracts/GovernorElection.sol\":6505:6523  ELECTION_LASTS_FOR */\n      sload(0x02)\n        /* \"contracts/GovernorElection.sol\":6487:6504  ELECTION_START_IN */\n      sload(0x01)\n        /* \"contracts/GovernorElection.sol\":6487:6523  ELECTION_START_IN+ELECTION_LASTS_FOR */\n      tag_153\n      swap2\n      swap1\n      tag_152\n      jump\t// in\n    tag_153:\n        /* \"contracts/GovernorElection.sol\":6468:6483  block.timestamp */\n      timestamp\n        /* \"contracts/GovernorElection.sol\":6468:6524  block.timestamp + (ELECTION_START_IN+ELECTION_LASTS_FOR) */\n      tag_154\n      swap2\n      swap1\n      tag_152\n      jump\t// in\n    tag_154:\n        /* \"contracts/GovernorElection.sol\":6442:6450  election */\n      dup2\n        /* \"contracts/GovernorElection.sol\":6442:6465  election.electionEndsAt */\n      0x01\n      add\n        /* \"contracts/GovernorElection.sol\":6442:6524  election.electionEndsAt = block.timestamp + (ELECTION_START_IN+ELECTION_LASTS_FOR) */\n      dup2\n      swap1\n      sstore\n      pop\n        /* \"contracts/GovernorElection.sol\":6225:6532  {\r... */\n      pop\n        /* \"contracts/GovernorElection.sol\":6164:6532  function endCurrentElectionAndStartANewOne() onlyOwner public{\r... */\n      jump\t// out\n        /* \"contracts/GovernorElection.sol\":3404:3716  function hasAddressAlreadyVoted(address addr) public view returns (bool) {\r... */\n    tag_53:\n        /* \"contracts/GovernorElection.sol\":3471:3475  bool */\n      0x00\n        /* \"contracts/GovernorElection.sol\":3493:3499  uint i */\n      dup1\n        /* \"contracts/GovernorElection.sol\":3502:3503  0 */\n      0x00\n        /* \"contracts/GovernorElection.sol\":3493:3503  uint i = 0 */\n      swap1\n      pop\n        /* \"contracts/GovernorElection.sol\":3488:3686  for (uint i = 0; i < elections[electionNum-1].alreadyVoted.length; i++) {\r... */\n    tag_156:\n        /* \"contracts/GovernorElection.sol\":3509:3518  elections */\n      0x06\n        /* \"contracts/GovernorElection.sol\":3509:3533  elections[electionNum-1] */\n      0x00\n        /* \"contracts/GovernorElection.sol\":3531:3532  1 */\n      0x01\n        /* \"contracts/GovernorElection.sol\":3519:3530  electionNum */\n      sload(0x05)\n        /* \"contracts/GovernorElection.sol\":3519:3532  electionNum-1 */\n      tag_159\n      swap2\n      swap1\n      tag_69\n      jump\t// in\n    tag_159:\n        /* \"contracts/GovernorElection.sol\":3509:3533  elections[electionNum-1] */\n      dup2\n      mstore\n      0x20\n      add\n      swap1\n      dup2\n      mstore\n      0x20\n      add\n      0x00\n      keccak256\n        /* \"contracts/GovernorElection.sol\":3509:3546  elections[electionNum-1].alreadyVoted */\n      0x03\n      add\n        /* \"contracts/GovernorElection.sol\":3509:3553  elections[electionNum-1].alreadyVoted.length */\n      dup1\n      sload\n      swap1\n      pop\n        /* \"contracts/GovernorElection.sol\":3505:3506  i */\n      dup2\n        /* \"contracts/GovernorElection.sol\":3505:3553  i < elections[electionNum-1].alreadyVoted.length */\n      lt\n        /* \"contracts/GovernorElection.sol\":3488:3686  for (uint i = 0; i < elections[electionNum-1].alreadyVoted.length; i++) {\r... */\n      iszero\n      tag_157\n      jumpi\n        /* \"contracts/GovernorElection.sol\":3623:3627  addr */\n      dup3\n        /* \"contracts/GovernorElection.sol\":3579:3627  elections[electionNum-1].alreadyVoted[i] == addr */\n      0xffffffffffffffffffffffffffffffffffffffff\n      and\n        /* \"contracts/GovernorElection.sol\":3579:3588  elections */\n      0x06\n        /* \"contracts/GovernorElection.sol\":3579:3603  elections[electionNum-1] */\n      0x00\n        /* \"contracts/GovernorElection.sol\":3601:3602  1 */\n      0x01\n        /* \"contracts/GovernorElection.sol\":3589:3600  electionNum */\n      sload(0x05)\n        /* \"contracts/GovernorElection.sol\":3589:3602  electionNum-1 */\n      tag_160\n      swap2\n      swap1\n      tag_69\n      jump\t// in\n    tag_160:\n        /* \"contracts/GovernorElection.sol\":3579:3603  elections[electionNum-1] */\n      dup2\n      mstore\n      0x20\n      add\n      swap1\n      dup2\n      mstore\n      0x20\n      add\n      0x00\n      keccak256\n        /* \"contracts/GovernorElection.sol\":3579:3616  elections[electionNum-1].alreadyVoted */\n      0x03\n      add\n        /* \"contracts/GovernorElection.sol\":3617:3618  i */\n      dup3\n        /* \"contracts/GovernorElection.sol\":3579:3619  elections[electionNum-1].alreadyVoted[i] */\n      dup2\n      sload\n      dup2\n      lt\n      tag_161\n      jumpi\n      tag_162\n      tag_97\n      jump\t// in\n    tag_162:\n    tag_161:\n      swap1\n      0x00\n      mstore\n      keccak256(0x00, 0x20)\n      add\n      0x00\n      swap1\n      sload\n      swap1\n      0x0100\n      exp\n      swap1\n      div\n      0xffffffffffffffffffffffffffffffffffffffff\n      and\n        /* \"contracts/GovernorElection.sol\":3579:3627  elections[electionNum-1].alreadyVoted[i] == addr */\n      0xffffffffffffffffffffffffffffffffffffffff\n      and\n      eq\n        /* \"contracts/GovernorElection.sol\":3575:3675  if (elections[electionNum-1].alreadyVoted[i] == addr) {\r... */\n      iszero\n      tag_164\n      jumpi\n        /* \"contracts/GovernorElection.sol\":3655:3659  true */\n      0x01\n        /* \"contracts/GovernorElection.sol\":3648:3659  return true */\n      swap2\n      pop\n      pop\n      jump(tag_155)\n        /* \"contracts/GovernorElection.sol\":3575:3675  if (elections[electionNum-1].alreadyVoted[i] == addr) {\r... */\n    tag_164:\n        /* \"contracts/GovernorElection.sol\":3555:3558  i++ */\n      dup1\n      dup1\n      tag_165\n      swap1\n      tag_86\n      jump\t// in\n    tag_165:\n      swap2\n      pop\n      pop\n        /* \"contracts/GovernorElection.sol\":3488:3686  for (uint i = 0; i < elections[electionNum-1].alreadyVoted.length; i++) {\r... */\n      jump(tag_156)\n    tag_157:\n      pop\n        /* \"contracts/GovernorElection.sol\":3703:3708  false */\n      0x00\n        /* \"contracts/GovernorElection.sol\":3696:3708  return false */\n      swap1\n      pop\n        /* \"contracts/GovernorElection.sol\":3404:3716  function hasAddressAlreadyVoted(address addr) public view returns (bool) {\r... */\n    tag_155:\n      swap2\n      swap1\n      pop\n      jump\t// out\n        /* \"@openzeppelin/contracts/access/Ownable.sol\":1918:2116  function transferOwnership(address newOwner) public virtual onlyOwner {... */\n    tag_57:\n        /* \"@openzeppelin/contracts/access/Ownable.sol\":1259:1271  _msgSender() */\n      tag_167\n        /* \"@openzeppelin/contracts/access/Ownable.sol\":1259:1269  _msgSender */\n      tag_103\n        /* \"@openzeppelin/contracts/access/Ownable.sol\":1259:1271  _msgSender() */\n      jump\t// in\n    tag_167:\n        /* \"@openzeppelin/contracts/access/Ownable.sol\":1248:1271  owner() == _msgSender() */\n      0xffffffffffffffffffffffffffffffffffffffff\n      and\n        /* \"@openzeppelin/contracts/access/Ownable.sol\":1248:1255  owner() */\n      tag_168\n        /* \"@openzeppelin/contracts/access/Ownable.sol\":1248:1253  owner */\n      tag_39\n        /* \"@openzeppelin/contracts/access/Ownable.sol\":1248:1255  owner() */\n      jump\t// in\n    tag_168:\n        /* \"@openzeppelin/contracts/access/Ownable.sol\":1248:1271  owner() == _msgSender() */\n      0xffffffffffffffffffffffffffffffffffffffff\n      and\n      eq\n        /* \"@openzeppelin/contracts/access/Ownable.sol\":1240:1308  require(owner() == _msgSender(), \"Ownable: caller is not the owner\") */\n      tag_169\n      jumpi\n      mload(0x40)\n      0x08c379a000000000000000000000000000000000000000000000000000000000\n      dup2\n      mstore\n      0x04\n      add\n      tag_170\n      swap1\n      tag_107\n      jump\t// in\n    tag_170:\n      mload(0x40)\n      dup1\n      swap2\n      sub\n      swap1\n      revert\n    tag_169:\n        /* \"@openzeppelin/contracts/access/Ownable.sol\":2026:2027  0 */\n      0x00\n        /* \"@openzeppelin/contracts/access/Ownable.sol\":2006:2028  newOwner != address(0) */\n      0xffffffffffffffffffffffffffffffffffffffff\n      and\n        /* \"@openzeppelin/contracts/access/Ownable.sol\":2006:2014  newOwner */\n      dup2\n        /* \"@openzeppelin/contracts/access/Ownable.sol\":2006:2028  newOwner != address(0) */\n      0xffffffffffffffffffffffffffffffffffffffff\n      and\n      eq\n      iszero\n        /* \"@openzeppelin/contracts/access/Ownable.sol\":1998:2071  require(newOwner != address(0), \"Ownable: new owner is the zero address\") */\n      tag_172\n      jumpi\n      mload(0x40)\n      0x08c379a000000000000000000000000000000000000000000000000000000000\n      dup2\n      mstore\n      0x04\n      add\n      tag_173\n      swap1\n      tag_174\n      jump\t// in\n    tag_173:\n      mload(0x40)\n      dup1\n      swap2\n      sub\n      swap1\n      revert\n    tag_172:\n        /* \"@openzeppelin/contracts/access/Ownable.sol\":2081:2109  _transferOwnership(newOwner) */\n      tag_175\n        /* \"@openzeppelin/contracts/access/Ownable.sol\":2100:2108  newOwner */\n      dup2\n        /* \"@openzeppelin/contracts/access/Ownable.sol\":2081:2099  _transferOwnership */\n      tag_116\n        /* \"@openzeppelin/contracts/access/Ownable.sol\":2081:2109  _transferOwnership(newOwner) */\n      jump\t// in\n    tag_175:\n        /* \"@openzeppelin/contracts/access/Ownable.sol\":1918:2116  function transferOwnership(address newOwner) public virtual onlyOwner {... */\n      pop\n      jump\t// out\n        /* \"contracts/GovernorElection.sol\":1369:1412  mapping(uint => uint) public candidateVotes */\n    tag_60:\n      mstore(0x20, 0x07)\n      dup1\n      0x00\n      mstore\n      keccak256(0x00, 0x40)\n      0x00\n      swap2\n      pop\n      swap1\n      pop\n      sload\n      dup2\n      jump\t// out\n        /* \"contracts/GovernorElection.sol\":3724:4169  function applyAsCandidate(string memory name, string memory description) public onlyWhenElectionIsNotActive {\r... */\n    tag_66:\n        /* \"contracts/GovernorElection.sol\":2496:2511  block.timestamp */\n      timestamp\n        /* \"contracts/GovernorElection.sol\":2452:2461  elections */\n      0x06\n        /* \"contracts/GovernorElection.sol\":2452:2476  elections[electionNum-1] */\n      0x00\n        /* \"contracts/GovernorElection.sol\":2474:2475  1 */\n      0x01\n        /* \"contracts/GovernorElection.sol\":2462:2473  electionNum */\n      sload(0x05)\n        /* \"contracts/GovernorElection.sol\":2462:2475  electionNum-1 */\n      tag_177\n      swap2\n      swap1\n      tag_69\n      jump\t// in\n    tag_177:\n        /* \"contracts/GovernorElection.sol\":2452:2476  elections[electionNum-1] */\n      dup2\n      mstore\n      0x20\n      add\n      swap1\n      dup2\n      mstore\n      0x20\n      add\n      0x00\n      keccak256\n        /* \"contracts/GovernorElection.sol\":2452:2493  elections[electionNum-1].electionStartsAt */\n      0x00\n      add\n      sload\n        /* \"contracts/GovernorElection.sol\":2452:2511  elections[electionNum-1].electionStartsAt > block.timestamp */\n      gt\n        /* \"contracts/GovernorElection.sol\":2452:2572  elections[electionNum-1].electionStartsAt > block.timestamp || elections[electionNum-1].electionEndsAt < block.timestamp */\n      dup1\n      tag_178\n      jumpi\n      pop\n        /* \"contracts/GovernorElection.sol\":2557:2572  block.timestamp */\n      timestamp\n        /* \"contracts/GovernorElection.sol\":2515:2524  elections */\n      0x06\n        /* \"contracts/GovernorElection.sol\":2515:2539  elections[electionNum-1] */\n      0x00\n        /* \"contracts/GovernorElection.sol\":2537:2538  1 */\n      0x01\n        /* \"contracts/GovernorElection.sol\":2525:2536  electionNum */\n      sload(0x05)\n        /* \"contracts/GovernorElection.sol\":2525:2538  electionNum-1 */\n      tag_179\n      swap2\n      swap1\n      tag_69\n      jump\t// in\n    tag_179:\n        /* \"contracts/GovernorElection.sol\":2515:2539  elections[electionNum-1] */\n      dup2\n      mstore\n      0x20\n      add\n      swap1\n      dup2\n      mstore\n      0x20\n      add\n      0x00\n      keccak256\n        /* \"contracts/GovernorElection.sol\":2515:2554  elections[electionNum-1].electionEndsAt */\n      0x01\n      add\n      sload\n        /* \"contracts/GovernorElection.sol\":2515:2572  elections[electionNum-1].electionEndsAt < block.timestamp */\n      lt\n        /* \"contracts/GovernorElection.sol\":2452:2572  elections[electionNum-1].electionStartsAt > block.timestamp || elections[electionNum-1].electionEndsAt < block.timestamp */\n    tag_178:\n        /* \"contracts/GovernorElection.sol\":2444:2595  require(elections[electionNum-1].electionStartsAt > block.timestamp || elections[electionNum-1].electionEndsAt < block.timestamp, \"Election is active\") */\n      tag_180\n      jumpi\n      mload(0x40)\n      0x08c379a000000000000000000000000000000000000000000000000000000000\n      dup2\n      mstore\n      0x04\n      add\n      tag_181\n      swap1\n      tag_182\n      jump\t// in\n    tag_181:\n      mload(0x40)\n      dup1\n      swap2\n      sub\n      swap1\n      revert\n    tag_180:\n        /* \"contracts/GovernorElection.sol\":3843:3872  Candidate memory newCandidate */\n      0x00\n        /* \"contracts/GovernorElection.sol\":3875:4026  Candidate({\r... */\n      mload(0x40)\n      dup1\n      0x80\n      add\n      0x40\n      mstore\n      dup1\n        /* \"contracts/GovernorElection.sol\":3904:3916  candidateNum */\n      0x03\n      0x00\n        /* \"contracts/GovernorElection.sol\":3904:3918  candidateNum++ */\n      dup2\n      sload\n      dup1\n      swap3\n      swap2\n      swap1\n      tag_184\n      swap1\n      tag_86\n      jump\t// in\n    tag_184:\n      swap2\n      swap1\n      pop\n      sstore\n        /* \"contracts/GovernorElection.sol\":3875:4026  Candidate({\r... */\n      dup2\n      mstore\n      0x20\n      add\n        /* \"contracts/GovernorElection.sol\":3939:3943  name */\n      dup5\n        /* \"contracts/GovernorElection.sol\":3875:4026  Candidate({\r... */\n      dup2\n      mstore\n      0x20\n      add\n        /* \"contracts/GovernorElection.sol\":3971:3982  description */\n      dup4\n        /* \"contracts/GovernorElection.sol\":3875:4026  Candidate({\r... */\n      dup2\n      mstore\n      0x20\n      add\n        /* \"contracts/GovernorElection.sol\":4004:4014  msg.sender */\n      caller\n        /* \"contracts/GovernorElection.sol\":3875:4026  Candidate({\r... */\n      0xffffffffffffffffffffffffffffffffffffffff\n      and\n      dup2\n      mstore\n      pop\n        /* \"contracts/GovernorElection.sol\":3843:4026  Candidate memory newCandidate = Candidate({\r... */\n      swap1\n      pop\n        /* \"contracts/GovernorElection.sol\":4069:4081  newCandidate */\n      dup1\n        /* \"contracts/GovernorElection.sol\":4039:4049  candidates */\n      0x04\n        /* \"contracts/GovernorElection.sol\":4039:4066  candidates[newCandidate.id] */\n      0x00\n        /* \"contracts/GovernorElection.sol\":4050:4062  newCandidate */\n      dup4\n        /* \"contracts/GovernorElection.sol\":4050:4065  newCandidate.id */\n      0x00\n      add\n      mload\n        /* \"contracts/GovernorElection.sol\":4039:4066  candidates[newCandidate.id] */\n      dup2\n      mstore\n      0x20\n      add\n      swap1\n      dup2\n      mstore\n      0x20\n      add\n      0x00\n      keccak256\n        /* \"contracts/GovernorElection.sol\":4039:4081  candidates[newCandidate.id] = newCandidate */\n      0x00\n      dup3\n      add\n      mload\n      dup2\n      0x00\n      add\n      sstore\n      0x20\n      dup3\n      add\n      mload\n      dup2\n      0x01\n      add\n      swap1\n      dup1\n      mload\n      swap1\n      0x20\n      add\n      swap1\n      tag_185\n      swap3\n      swap2\n      swap1\n      tag_186\n      jump\t// in\n    tag_185:\n      pop\n      0x40\n      dup3\n      add\n      mload\n      dup2\n      0x02\n      add\n      swap1\n      dup1\n      mload\n      swap1\n      0x20\n      add\n      swap1\n      tag_187\n      swap3\n      swap2\n      swap1\n      tag_186\n      jump\t// in\n    tag_187:\n      pop\n      0x60\n      dup3\n      add\n      mload\n      dup2\n      0x03\n      add\n      exp(0x0100, 0x00)\n      dup2\n      sload\n      dup2\n      0xffffffffffffffffffffffffffffffffffffffff\n      mul\n      not\n      and\n      swap1\n      dup4\n      0xffffffffffffffffffffffffffffffffffffffff\n      and\n      mul\n      or\n      swap1\n      sstore\n      pop\n      swap1\n      pop\n      pop\n        /* \"contracts/GovernorElection.sol\":4092:4101  elections */\n      0x06\n        /* \"contracts/GovernorElection.sol\":4092:4116  elections[electionNum-1] */\n      0x00\n        /* \"contracts/GovernorElection.sol\":4114:4115  1 */\n      0x01\n        /* \"contracts/GovernorElection.sol\":4102:4113  electionNum */\n      sload(0x05)\n        /* \"contracts/GovernorElection.sol\":4102:4115  electionNum-1 */\n      tag_188\n      swap2\n      swap1\n      tag_69\n      jump\t// in\n    tag_188:\n        /* \"contracts/GovernorElection.sol\":4092:4116  elections[electionNum-1] */\n      dup2\n      mstore\n      0x20\n      add\n      swap1\n      dup2\n      mstore\n      0x20\n      add\n      0x00\n      keccak256\n        /* \"contracts/GovernorElection.sol\":4092:4127  elections[electionNum-1].candidates */\n      0x02\n      add\n        /* \"contracts/GovernorElection.sol\":4133:4143  candidates */\n      0x04\n        /* \"contracts/GovernorElection.sol\":4133:4160  candidates[newCandidate.id] */\n      0x00\n        /* \"contracts/GovernorElection.sol\":4144:4156  newCandidate */\n      dup4\n        /* \"contracts/GovernorElection.sol\":4144:4159  newCandidate.id */\n      0x00\n      add\n      mload\n        /* \"contracts/GovernorElection.sol\":4133:4160  candidates[newCandidate.id] */\n      dup2\n      mstore\n      0x20\n      add\n      swap1\n      dup2\n      mstore\n      0x20\n      add\n      0x00\n      keccak256\n        /* \"contracts/GovernorElection.sol\":4092:4161  elections[electionNum-1].candidates.push(candidates[newCandidate.id]) */\n      swap1\n      dup1\n      0x01\n      dup2\n      sload\n      add\n      dup1\n      dup3\n      sstore\n      dup1\n      swap2\n      pop\n      pop\n      0x01\n      swap1\n      sub\n      swap1\n      0x00\n      mstore\n      keccak256(0x00, 0x20)\n      swap1\n      0x04\n      mul\n      add\n      0x00\n      swap1\n      swap2\n      swap1\n      swap2\n      swap1\n      swap2\n      pop\n      0x00\n      dup3\n      add\n      sload\n      dup2\n      0x00\n      add\n      sstore\n      0x01\n      dup3\n      add\n      dup2\n      0x01\n      add\n      swap1\n      dup1\n      sload\n      tag_190\n      swap1\n      tag_132\n      jump\t// in\n    tag_190:\n      tag_191\n      swap3\n      swap2\n      swap1\n      tag_192\n      jump\t// in\n    tag_191:\n      pop\n      0x02\n      dup3\n      add\n      dup2\n      0x02\n      add\n      swap1\n      dup1\n      sload\n      tag_193\n      swap1\n      tag_132\n      jump\t// in\n    tag_193:\n      tag_194\n      swap3\n      swap2\n      swap1\n      tag_192\n      jump\t// in\n    tag_194:\n      pop\n      0x03\n      dup3\n      add\n      0x00\n      swap1\n      sload\n      swap1\n      0x0100\n      exp\n      swap1\n      div\n      0xffffffffffffffffffffffffffffffffffffffff\n      and\n      dup2\n      0x03\n      add\n      exp(0x0100, 0x00)\n      dup2\n      sload\n      dup2\n      0xffffffffffffffffffffffffffffffffffffffff\n      mul\n      not\n      and\n      swap1\n      dup4\n      0xffffffffffffffffffffffffffffffffffffffff\n      and\n      mul\n      or\n      swap1\n      sstore\n      pop\n      pop\n      pop\n        /* \"contracts/GovernorElection.sol\":3832:4169  {\r... */\n      pop\n        /* \"contracts/GovernorElection.sol\":3724:4169  function applyAsCandidate(string memory name, string memory description) public onlyWhenElectionIsNotActive {\r... */\n      pop\n      pop\n      jump\t// out\n        /* \"@openzeppelin/contracts/utils/Context.sol\":640:736  function _msgSender() internal view virtual returns (address) {... */\n    tag_103:\n        /* \"@openzeppelin/contracts/utils/Context.sol\":693:700  address */\n      0x00\n        /* \"@openzeppelin/contracts/utils/Context.sol\":719:729  msg.sender */\n      caller\n        /* \"@openzeppelin/contracts/utils/Context.sol\":712:729  return msg.sender */\n      swap1\n      pop\n        /* \"@openzeppelin/contracts/utils/Context.sol\":640:736  function _msgSender() internal view virtual returns (address) {... */\n      swap1\n      jump\t// out\n        /* \"@openzeppelin/contracts/access/Ownable.sol\":2270:2457  function _transferOwnership(address newOwner) internal virtual {... */\n    tag_116:\n        /* \"@openzeppelin/contracts/access/Ownable.sol\":2343:2359  address oldOwner */\n      0x00\n        /* \"@openzeppelin/contracts/access/Ownable.sol\":2362:2368  _owner */\n      dup1\n      0x00\n      swap1\n      sload\n      swap1\n      0x0100\n      exp\n      swap1\n      div\n      0xffffffffffffffffffffffffffffffffffffffff\n      and\n        /* \"@openzeppelin/contracts/access/Ownable.sol\":2343:2368  address oldOwner = _owner */\n      swap1\n      pop\n        /* \"@openzeppelin/contracts/access/Ownable.sol\":2387:2395  newOwner */\n      dup2\n        /* \"@openzeppelin/contracts/access/Ownable.sol\":2378:2384  _owner */\n      0x00\n      dup1\n        /* \"@openzeppelin/contracts/access/Ownable.sol\":2378:2395  _owner = newOwner */\n      0x0100\n      exp\n      dup2\n      sload\n      dup2\n      0xffffffffffffffffffffffffffffffffffffffff\n      mul\n      not\n      and\n      swap1\n      dup4\n      0xffffffffffffffffffffffffffffffffffffffff\n      and\n      mul\n      or\n      swap1\n      sstore\n      pop\n        /* \"@openzeppelin/contracts/access/Ownable.sol\":2441:2449  newOwner */\n      dup2\n        /* \"@openzeppelin/contracts/access/Ownable.sol\":2410:2450  OwnershipTransferred(oldOwner, newOwner) */\n      0xffffffffffffffffffffffffffffffffffffffff\n      and\n        /* \"@openzeppelin/contracts/access/Ownable.sol\":2431:2439  oldOwner */\n      dup2\n        /* \"@openzeppelin/contracts/access/Ownable.sol\":2410:2450  OwnershipTransferred(oldOwner, newOwner) */\n      0xffffffffffffffffffffffffffffffffffffffff\n      and\n      0x8be0079c531659141344cd1fd0a4f28419497f9722a3daafe3b4186f6b6457e0\n      mload(0x40)\n      mload(0x40)\n      dup1\n      swap2\n      sub\n      swap1\n      log3\n        /* \"@openzeppelin/contracts/access/Ownable.sol\":2333:2457  {... */\n      pop\n        /* \"@openzeppelin/contracts/access/Ownable.sol\":2270:2457  function _transferOwnership(address newOwner) internal virtual {... */\n      pop\n      jump\t// out\n    tag_125:\n      mload(0x40)\n      dup1\n      0x80\n      add\n      0x40\n      mstore\n      dup1\n      0x00\n      dup2\n      mstore\n      0x20\n      add\n      0x00\n      dup2\n      mstore\n      0x20\n      add\n      0x60\n      dup2\n      mstore\n      0x20\n      add\n      0x60\n      dup2\n      mstore\n      pop\n      swap1\n      jump\t// out\n    tag_186:\n      dup3\n      dup1\n      sload\n      tag_197\n      swap1\n      tag_132\n      jump\t// in\n    tag_197:\n      swap1\n      0x00\n      mstore\n      keccak256(0x00, 0x20)\n      swap1\n      0x1f\n      add\n      0x20\n      swap1\n      div\n      dup2\n      add\n      swap3\n      dup3\n      tag_199\n      jumpi\n      0x00\n      dup6\n      sstore\n      jump(tag_198)\n    tag_199:\n      dup3\n      0x1f\n      lt\n      tag_200\n      jumpi\n      dup1\n      mload\n      not(0xff)\n      and\n      dup4\n      dup1\n      add\n      or\n      dup6\n      sstore\n      jump(tag_198)\n    tag_200:\n      dup3\n      dup1\n      add\n      0x01\n      add\n      dup6\n      sstore\n      dup3\n      iszero\n      tag_198\n      jumpi\n      swap2\n      dup3\n      add\n    tag_201:\n      dup3\n      dup2\n      gt\n      iszero\n      tag_202\n      jumpi\n      dup3\n      mload\n      dup3\n      sstore\n      swap2\n      0x20\n      add\n      swap2\n      swap1\n      0x01\n      add\n      swap1\n      jump(tag_201)\n    tag_202:\n    tag_198:\n      pop\n      swap1\n      pop\n      tag_203\n      swap2\n      swap1\n      tag_204\n      jump\t// in\n    tag_203:\n      pop\n      swap1\n      jump\t// out\n    tag_192:\n      dup3\n      dup1\n      sload\n      tag_205\n      swap1\n      tag_132\n      jump\t// in\n    tag_205:\n      swap1\n      0x00\n      mstore\n      keccak256(0x00, 0x20)\n      swap1\n      0x1f\n      add\n      0x20\n      swap1\n      div\n      dup2\n      add\n      swap3\n      dup3\n      tag_207\n      jumpi\n      0x00\n      dup6\n      sstore\n      jump(tag_206)\n    tag_207:\n      dup3\n      0x1f\n      lt\n      tag_208\n      jumpi\n      dup1\n      sload\n      dup6\n      sstore\n      jump(tag_206)\n    tag_208:\n      dup3\n      dup1\n      add\n      0x01\n      add\n      dup6\n      sstore\n      dup3\n      iszero\n      tag_206\n      jumpi\n      0x00\n      mstore\n      keccak256(0x00, 0x20)\n      swap2\n      0x1f\n      add\n      0x20\n      swap1\n      div\n      dup3\n      add\n    tag_209:\n      dup3\n      dup2\n      gt\n      iszero\n      tag_210\n      jumpi\n      dup3\n      sload\n      dup3\n      sstore\n      swap2\n      0x01\n      add\n      swap2\n      swap1\n      0x01\n      add\n      swap1\n      jump(tag_209)\n    tag_210:\n    tag_206:\n      pop\n      swap1\n      pop\n      tag_211\n      swap2\n      swap1\n      tag_204\n      jump\t// in\n    tag_211:\n      pop\n      swap1\n      jump\t// out\n    tag_204:\n    tag_212:\n      dup1\n      dup3\n      gt\n      iszero\n      tag_213\n      jumpi\n      0x00\n      dup2\n      0x00\n      swap1\n      sstore\n      pop\n      0x01\n      add\n      jump(tag_212)\n    tag_213:\n      pop\n      swap1\n      jump\t// out\n        /* \"#utility.yul\":7:419   */\n    tag_215:\n        /* \"#utility.yul\":85:90   */\n      0x00\n        /* \"#utility.yul\":110:176   */\n      tag_217\n        /* \"#utility.yul\":126:175   */\n      tag_218\n        /* \"#utility.yul\":168:174   */\n      dup5\n        /* \"#utility.yul\":126:175   */\n      tag_219\n      jump\t// in\n    tag_218:\n        /* \"#utility.yul\":110:176   */\n      tag_220\n      jump\t// in\n    tag_217:\n        /* \"#utility.yul\":101:176   */\n      swap1\n      pop\n        /* \"#utility.yul\":199:205   */\n      dup3\n        /* \"#utility.yul\":192:197   */\n      dup2\n        /* \"#utility.yul\":185:206   */\n      mstore\n        /* \"#utility.yul\":237:241   */\n      0x20\n        /* \"#utility.yul\":230:235   */\n      dup2\n        /* \"#utility.yul\":226:242   */\n      add\n        /* \"#utility.yul\":275:278   */\n      dup5\n        /* \"#utility.yul\":266:272   */\n      dup5\n        /* \"#utility.yul\":261:264   */\n      dup5\n        /* \"#utility.yul\":257:273   */\n      add\n        /* \"#utility.yul\":254:279   */\n      gt\n        /* \"#utility.yul\":251:363   */\n      iszero\n      tag_221\n      jumpi\n        /* \"#utility.yul\":282:361   */\n      tag_222\n      tag_223\n      jump\t// in\n    tag_222:\n        /* \"#utility.yul\":251:363   */\n    tag_221:\n        /* \"#utility.yul\":372:413   */\n      tag_224\n        /* \"#utility.yul\":406:412   */\n      dup5\n        /* \"#utility.yul\":401:404   */\n      dup3\n        /* \"#utility.yul\":396:399   */\n      dup6\n        /* \"#utility.yul\":372:413   */\n      tag_225\n      jump\t// in\n    tag_224:\n        /* \"#utility.yul\":91:419   */\n      pop\n        /* \"#utility.yul\":7:419   */\n      swap4\n      swap3\n      pop\n      pop\n      pop\n      jump\t// out\n        /* \"#utility.yul\":425:564   */\n    tag_226:\n        /* \"#utility.yul\":471:476   */\n      0x00\n        /* \"#utility.yul\":509:515   */\n      dup2\n        /* \"#utility.yul\":496:516   */\n      calldataload\n        /* \"#utility.yul\":487:516   */\n      swap1\n      pop\n        /* \"#utility.yul\":525:558   */\n      tag_228\n        /* \"#utility.yul\":552:557   */\n      dup2\n        /* \"#utility.yul\":525:558   */\n      tag_229\n      jump\t// in\n    tag_228:\n        /* \"#utility.yul\":425:564   */\n      swap3\n      swap2\n      pop\n      pop\n      jump\t// out\n        /* \"#utility.yul\":584:924   */\n    tag_230:\n        /* \"#utility.yul\":640:645   */\n      0x00\n        /* \"#utility.yul\":689:692   */\n      dup3\n        /* \"#utility.yul\":682:686   */\n      0x1f\n        /* \"#utility.yul\":674:680   */\n      dup4\n        /* \"#utility.yul\":670:687   */\n      add\n        /* \"#utility.yul\":666:693   */\n      slt\n        /* \"#utility.yul\":656:778   */\n      tag_232\n      jumpi\n        /* \"#utility.yul\":697:776   */\n      tag_233\n      tag_234\n      jump\t// in\n    tag_233:\n        /* \"#utility.yul\":656:778   */\n    tag_232:\n        /* \"#utility.yul\":814:820   */\n      dup2\n        /* \"#utility.yul\":801:821   */\n      calldataload\n        /* \"#utility.yul\":839:918   */\n      tag_235\n        /* \"#utility.yul\":914:917   */\n      dup5\n        /* \"#utility.yul\":906:912   */\n      dup3\n        /* \"#utility.yul\":899:903   */\n      0x20\n        /* \"#utility.yul\":891:897   */\n      dup7\n        /* \"#utility.yul\":887:904   */\n      add\n        /* \"#utility.yul\":839:918   */\n      tag_215\n      jump\t// in\n    tag_235:\n        /* \"#utility.yul\":830:918   */\n      swap2\n      pop\n        /* \"#utility.yul\":646:924   */\n      pop\n        /* \"#utility.yul\":584:924   */\n      swap3\n      swap2\n      pop\n      pop\n      jump\t// out\n        /* \"#utility.yul\":930:1069   */\n    tag_236:\n        /* \"#utility.yul\":976:981   */\n      0x00\n        /* \"#utility.yul\":1014:1020   */\n      dup2\n        /* \"#utility.yul\":1001:1021   */\n      calldataload\n        /* \"#utility.yul\":992:1021   */\n      swap1\n      pop\n        /* \"#utility.yul\":1030:1063   */\n      tag_238\n        /* \"#utility.yul\":1057:1062   */\n      dup2\n        /* \"#utility.yul\":1030:1063   */\n      tag_239\n      jump\t// in\n    tag_238:\n        /* \"#utility.yul\":930:1069   */\n      swap3\n      swap2\n      pop\n      pop\n      jump\t// out\n        /* \"#utility.yul\":1075:1404   */\n    tag_24:\n        /* \"#utility.yul\":1134:1140   */\n      0x00\n        /* \"#utility.yul\":1183:1185   */\n      0x20\n        /* \"#utility.yul\":1171:1180   */\n      dup3\n        /* \"#utility.yul\":1162:1169   */\n      dup5\n        /* \"#utility.yul\":1158:1181   */\n      sub\n        /* \"#utility.yul\":1154:1186   */\n      slt\n        /* \"#utility.yul\":1151:1270   */\n      iszero\n      tag_241\n      jumpi\n        /* \"#utility.yul\":1189:1268   */\n      tag_242\n      tag_243\n      jump\t// in\n    tag_242:\n        /* \"#utility.yul\":1151:1270   */\n    tag_241:\n        /* \"#utility.yul\":1309:1310   */\n      0x00\n        /* \"#utility.yul\":1334:1387   */\n      tag_244\n        /* \"#utility.yul\":1379:1386   */\n      dup5\n        /* \"#utility.yul\":1370:1376   */\n      dup3\n        /* \"#utility.yul\":1359:1368   */\n      dup6\n        /* \"#utility.yul\":1355:1377   */\n      add\n        /* \"#utility.yul\":1334:1387   */\n      tag_226\n      jump\t// in\n    tag_244:\n        /* \"#utility.yul\":1324:1387   */\n      swap2\n      pop\n        /* \"#utility.yul\":1280:1397   */\n      pop\n        /* \"#utility.yul\":1075:1404   */\n      swap3\n      swap2\n      pop\n      pop\n      jump\t// out\n        /* \"#utility.yul\":1410:2244   */\n    tag_65:\n        /* \"#utility.yul\":1498:1504   */\n      0x00\n        /* \"#utility.yul\":1506:1512   */\n      dup1\n        /* \"#utility.yul\":1555:1557   */\n      0x40\n        /* \"#utility.yul\":1543:1552   */\n      dup4\n        /* \"#utility.yul\":1534:1541   */\n      dup6\n        /* \"#utility.yul\":1530:1553   */\n      sub\n        /* \"#utility.yul\":1526:1558   */\n      slt\n        /* \"#utility.yul\":1523:1642   */\n      iszero\n      tag_246\n      jumpi\n        /* \"#utility.yul\":1561:1640   */\n      tag_247\n      tag_243\n      jump\t// in\n    tag_247:\n        /* \"#utility.yul\":1523:1642   */\n    tag_246:\n        /* \"#utility.yul\":1709:1710   */\n      0x00\n        /* \"#utility.yul\":1698:1707   */\n      dup4\n        /* \"#utility.yul\":1694:1711   */\n      add\n        /* \"#utility.yul\":1681:1712   */\n      calldataload\n        /* \"#utility.yul\":1739:1757   */\n      0xffffffffffffffff\n        /* \"#utility.yul\":1731:1737   */\n      dup2\n        /* \"#utility.yul\":1728:1758   */\n      gt\n        /* \"#utility.yul\":1725:1842   */\n      iszero\n      tag_248\n      jumpi\n        /* \"#utility.yul\":1761:1840   */\n      tag_249\n      tag_250\n      jump\t// in\n    tag_249:\n        /* \"#utility.yul\":1725:1842   */\n    tag_248:\n        /* \"#utility.yul\":1866:1929   */\n      tag_251\n        /* \"#utility.yul\":1921:1928   */\n      dup6\n        /* \"#utility.yul\":1912:1918   */\n      dup3\n        /* \"#utility.yul\":1901:1910   */\n      dup7\n        /* \"#utility.yul\":1897:1919   */\n      add\n        /* \"#utility.yul\":1866:1929   */\n      tag_230\n      jump\t// in\n    tag_251:\n        /* \"#utility.yul\":1856:1929   */\n      swap3\n      pop\n        /* \"#utility.yul\":1652:1939   */\n      pop\n        /* \"#utility.yul\":2006:2008   */\n      0x20\n        /* \"#utility.yul\":1995:2004   */\n      dup4\n        /* \"#utility.yul\":1991:2009   */\n      add\n        /* \"#utility.yul\":1978:2010   */\n      calldataload\n        /* \"#utility.yul\":2037:2055   */\n      0xffffffffffffffff\n        /* \"#utility.yul\":2029:2035   */\n      dup2\n        /* \"#utility.yul\":2026:2056   */\n      gt\n        /* \"#utility.yul\":2023:2140   */\n      iszero\n      tag_252\n      jumpi\n        /* \"#utility.yul\":2059:2138   */\n      tag_253\n      tag_250\n      jump\t// in\n    tag_253:\n        /* \"#utility.yul\":2023:2140   */\n    tag_252:\n        /* \"#utility.yul\":2164:2227   */\n      tag_254\n        /* \"#utility.yul\":2219:2226   */\n      dup6\n        /* \"#utility.yul\":2210:2216   */\n      dup3\n        /* \"#utility.yul\":2199:2208   */\n      dup7\n        /* \"#utility.yul\":2195:2217   */\n      add\n        /* \"#utility.yul\":2164:2227   */\n      tag_230\n      jump\t// in\n    tag_254:\n        /* \"#utility.yul\":2154:2227   */\n      swap2\n      pop\n        /* \"#utility.yul\":1949:2237   */\n      pop\n        /* \"#utility.yul\":1410:2244   */\n      swap3\n      pop\n      swap3\n      swap1\n      pop\n      jump\t// out\n        /* \"#utility.yul\":2250:2579   */\n    tag_20:\n        /* \"#utility.yul\":2309:2315   */\n      0x00\n        /* \"#utility.yul\":2358:2360   */\n      0x20\n        /* \"#utility.yul\":2346:2355   */\n      dup3\n        /* \"#utility.yul\":2337:2344   */\n      dup5\n        /* \"#utility.yul\":2333:2356   */\n      sub\n        /* \"#utility.yul\":2329:2361   */\n      slt\n        /* \"#utility.yul\":2326:2445   */\n      iszero\n      tag_256\n      jumpi\n        /* \"#utility.yul\":2364:2443   */\n      tag_257\n      tag_243\n      jump\t// in\n    tag_257:\n        /* \"#utility.yul\":2326:2445   */\n    tag_256:\n        /* \"#utility.yul\":2484:2485   */\n      0x00\n        /* \"#utility.yul\":2509:2562   */\n      tag_258\n        /* \"#utility.yul\":2554:2561   */\n      dup5\n        /* \"#utility.yul\":2545:2551   */\n      dup3\n        /* \"#utility.yul\":2534:2543   */\n      dup6\n        /* \"#utility.yul\":2530:2552   */\n      add\n        /* \"#utility.yul\":2509:2562   */\n      tag_236\n      jump\t// in\n    tag_258:\n        /* \"#utility.yul\":2499:2562   */\n      swap2\n      pop\n        /* \"#utility.yul\":2455:2572   */\n      pop\n        /* \"#utility.yul\":2250:2579   */\n      swap3\n      swap2\n      pop\n      pop\n      jump\t// out\n        /* \"#utility.yul\":2585:2764   */\n    tag_259:\n        /* \"#utility.yul\":2654:2664   */\n      0x00\n        /* \"#utility.yul\":2675:2721   */\n      tag_261\n        /* \"#utility.yul\":2717:2720   */\n      dup4\n        /* \"#utility.yul\":2709:2715   */\n      dup4\n        /* \"#utility.yul\":2675:2721   */\n      tag_262\n      jump\t// in\n    tag_261:\n        /* \"#utility.yul\":2753:2757   */\n      0x20\n        /* \"#utility.yul\":2748:2751   */\n      dup4\n        /* \"#utility.yul\":2744:2758   */\n      add\n        /* \"#utility.yul\":2730:2758   */\n      swap1\n      pop\n        /* \"#utility.yul\":2585:2764   */\n      swap3\n      swap2\n      pop\n      pop\n      jump\t// out\n        /* \"#utility.yul\":2770:3030   */\n    tag_263:\n        /* \"#utility.yul\":2891:2901   */\n      0x00\n        /* \"#utility.yul\":2926:3024   */\n      tag_265\n        /* \"#utility.yul\":3020:3023   */\n      dup4\n        /* \"#utility.yul\":3012:3018   */\n      dup4\n        /* \"#utility.yul\":2926:3024   */\n      tag_266\n      jump\t// in\n    tag_265:\n        /* \"#utility.yul\":2912:3024   */\n      swap1\n      pop\n        /* \"#utility.yul\":2770:3030   */\n      swap3\n      swap2\n      pop\n      pop\n      jump\t// out\n        /* \"#utility.yul\":3036:3144   */\n    tag_262:\n        /* \"#utility.yul\":3113:3137   */\n      tag_268\n        /* \"#utility.yul\":3131:3136   */\n      dup2\n        /* \"#utility.yul\":3113:3137   */\n      tag_269\n      jump\t// in\n    tag_268:\n        /* \"#utility.yul\":3108:3111   */\n      dup3\n        /* \"#utility.yul\":3101:3138   */\n      mstore\n        /* \"#utility.yul\":3036:3144   */\n      pop\n      pop\n      jump\t// out\n        /* \"#utility.yul\":3150:3268   */\n    tag_270:\n        /* \"#utility.yul\":3237:3261   */\n      tag_272\n        /* \"#utility.yul\":3255:3260   */\n      dup2\n        /* \"#utility.yul\":3237:3261   */\n      tag_269\n      jump\t// in\n    tag_272:\n        /* \"#utility.yul\":3232:3235   */\n      dup3\n        /* \"#utility.yul\":3225:3262   */\n      mstore\n        /* \"#utility.yul\":3150:3268   */\n      pop\n      pop\n      jump\t// out\n        /* \"#utility.yul\":3304:4016   */\n    tag_273:\n        /* \"#utility.yul\":3413:3416   */\n      0x00\n        /* \"#utility.yul\":3442:3496   */\n      tag_275\n        /* \"#utility.yul\":3490:3495   */\n      dup3\n        /* \"#utility.yul\":3442:3496   */\n      tag_276\n      jump\t// in\n    tag_275:\n        /* \"#utility.yul\":3512:3588   */\n      tag_277\n        /* \"#utility.yul\":3581:3587   */\n      dup2\n        /* \"#utility.yul\":3576:3579   */\n      dup6\n        /* \"#utility.yul\":3512:3588   */\n      tag_278\n      jump\t// in\n    tag_277:\n        /* \"#utility.yul\":3505:3588   */\n      swap4\n      pop\n        /* \"#utility.yul\":3612:3668   */\n      tag_279\n        /* \"#utility.yul\":3662:3667   */\n      dup4\n        /* \"#utility.yul\":3612:3668   */\n      tag_280\n      jump\t// in\n    tag_279:\n        /* \"#utility.yul\":3691:3698   */\n      dup1\n        /* \"#utility.yul\":3722:3723   */\n      0x00\n        /* \"#utility.yul\":3707:3991   */\n    tag_281:\n        /* \"#utility.yul\":3732:3738   */\n      dup4\n        /* \"#utility.yul\":3729:3730   */\n      dup2\n        /* \"#utility.yul\":3726:3739   */\n      lt\n        /* \"#utility.yul\":3707:3991   */\n      iszero\n      tag_283\n      jumpi\n        /* \"#utility.yul\":3808:3814   */\n      dup2\n        /* \"#utility.yul\":3802:3815   */\n      mload\n        /* \"#utility.yul\":3835:3898   */\n      tag_284\n        /* \"#utility.yul\":3894:3897   */\n      dup9\n        /* \"#utility.yul\":3879:3892   */\n      dup3\n        /* \"#utility.yul\":3835:3898   */\n      tag_259\n      jump\t// in\n    tag_284:\n        /* \"#utility.yul\":3828:3898   */\n      swap8\n      pop\n        /* \"#utility.yul\":3921:3981   */\n      tag_285\n        /* \"#utility.yul\":3974:3980   */\n      dup4\n        /* \"#utility.yul\":3921:3981   */\n      tag_286\n      jump\t// in\n    tag_285:\n        /* \"#utility.yul\":3911:3981   */\n      swap3\n      pop\n        /* \"#utility.yul\":3767:3991   */\n      pop\n        /* \"#utility.yul\":3754:3755   */\n      0x01\n        /* \"#utility.yul\":3751:3752   */\n      dup2\n        /* \"#utility.yul\":3747:3756   */\n      add\n        /* \"#utility.yul\":3742:3756   */\n      swap1\n      pop\n        /* \"#utility.yul\":3707:3991   */\n      jump(tag_281)\n    tag_283:\n        /* \"#utility.yul\":3711:3725   */\n      pop\n        /* \"#utility.yul\":4007:4010   */\n      dup6\n        /* \"#utility.yul\":4000:4010   */\n      swap4\n      pop\n        /* \"#utility.yul\":3418:4016   */\n      pop\n      pop\n      pop\n        /* \"#utility.yul\":3304:4016   */\n      swap3\n      swap2\n      pop\n      pop\n      jump\t// out\n        /* \"#utility.yul\":4104:5203   */\n    tag_287:\n        /* \"#utility.yul\":4265:4268   */\n      0x00\n        /* \"#utility.yul\":4294:4374   */\n      tag_289\n        /* \"#utility.yul\":4368:4373   */\n      dup3\n        /* \"#utility.yul\":4294:4374   */\n      tag_290\n      jump\t// in\n    tag_289:\n        /* \"#utility.yul\":4390:4492   */\n      tag_291\n        /* \"#utility.yul\":4485:4491   */\n      dup2\n        /* \"#utility.yul\":4480:4483   */\n      dup6\n        /* \"#utility.yul\":4390:4492   */\n      tag_292\n      jump\t// in\n    tag_291:\n        /* \"#utility.yul\":4383:4492   */\n      swap4\n      pop\n        /* \"#utility.yul\":4518:4521   */\n      dup4\n        /* \"#utility.yul\":4563:4567   */\n      0x20\n        /* \"#utility.yul\":4555:4561   */\n      dup3\n        /* \"#utility.yul\":4551:4568   */\n      mul\n        /* \"#utility.yul\":4546:4549   */\n      dup6\n        /* \"#utility.yul\":4542:4569   */\n      add\n        /* \"#utility.yul\":4593:4675   */\n      tag_293\n        /* \"#utility.yul\":4669:4674   */\n      dup6\n        /* \"#utility.yul\":4593:4675   */\n      tag_294\n      jump\t// in\n    tag_293:\n        /* \"#utility.yul\":4698:4705   */\n      dup1\n        /* \"#utility.yul\":4729:4730   */\n      0x00\n        /* \"#utility.yul\":4714:5158   */\n    tag_295:\n        /* \"#utility.yul\":4739:4745   */\n      dup6\n        /* \"#utility.yul\":4736:4737   */\n      dup2\n        /* \"#utility.yul\":4733:4746   */\n      lt\n        /* \"#utility.yul\":4714:5158   */\n      iszero\n      tag_297\n      jumpi\n        /* \"#utility.yul\":4810:4819   */\n      dup5\n        /* \"#utility.yul\":4804:4808   */\n      dup5\n        /* \"#utility.yul\":4800:4820   */\n      sub\n        /* \"#utility.yul\":4795:4798   */\n      dup10\n        /* \"#utility.yul\":4788:4821   */\n      mstore\n        /* \"#utility.yul\":4861:4867   */\n      dup2\n        /* \"#utility.yul\":4855:4868   */\n      mload\n        /* \"#utility.yul\":4889:5005   */\n      tag_298\n        /* \"#utility.yul\":5000:5004   */\n      dup6\n        /* \"#utility.yul\":4985:4998   */\n      dup3\n        /* \"#utility.yul\":4889:5005   */\n      tag_263\n      jump\t// in\n    tag_298:\n        /* \"#utility.yul\":4881:5005   */\n      swap5\n      pop\n        /* \"#utility.yul\":5028:5114   */\n      tag_299\n        /* \"#utility.yul\":5107:5113   */\n      dup4\n        /* \"#utility.yul\":5028:5114   */\n      tag_300\n      jump\t// in\n    tag_299:\n        /* \"#utility.yul\":5018:5114   */\n      swap3\n      pop\n        /* \"#utility.yul\":5143:5147   */\n      0x20\n        /* \"#utility.yul\":5138:5141   */\n      dup11\n        /* \"#utility.yul\":5134:5148   */\n      add\n        /* \"#utility.yul\":5127:5148   */\n      swap10\n      pop\n        /* \"#utility.yul\":4774:5158   */\n      pop\n        /* \"#utility.yul\":4761:4762   */\n      0x01\n        /* \"#utility.yul\":4758:4759   */\n      dup2\n        /* \"#utility.yul\":4754:4763   */\n      add\n        /* \"#utility.yul\":4749:4763   */\n      swap1\n      pop\n        /* \"#utility.yul\":4714:5158   */\n      jump(tag_295)\n    tag_297:\n        /* \"#utility.yul\":4718:4732   */\n      pop\n        /* \"#utility.yul\":5174:5178   */\n      dup3\n        /* \"#utility.yul\":5167:5178   */\n      swap8\n      pop\n        /* \"#utility.yul\":5194:5197   */\n      dup8\n        /* \"#utility.yul\":5187:5197   */\n      swap6\n      pop\n        /* \"#utility.yul\":4270:5203   */\n      pop\n      pop\n      pop\n      pop\n      pop\n        /* \"#utility.yul\":4104:5203   */\n      swap3\n      swap2\n      pop\n      pop\n      jump\t// out\n        /* \"#utility.yul\":5209:5318   */\n    tag_301:\n        /* \"#utility.yul\":5290:5311   */\n      tag_303\n        /* \"#utility.yul\":5305:5310   */\n      dup2\n        /* \"#utility.yul\":5290:5311   */\n      tag_304\n      jump\t// in\n    tag_303:\n        /* \"#utility.yul\":5285:5288   */\n      dup3\n        /* \"#utility.yul\":5278:5312   */\n      mstore\n        /* \"#utility.yul\":5209:5318   */\n      pop\n      pop\n      jump\t// out\n        /* \"#utility.yul\":5324:5668   */\n    tag_305:\n        /* \"#utility.yul\":5402:5405   */\n      0x00\n        /* \"#utility.yul\":5430:5469   */\n      tag_307\n        /* \"#utility.yul\":5463:5468   */\n      dup3\n        /* \"#utility.yul\":5430:5469   */\n      tag_308\n      jump\t// in\n    tag_307:\n        /* \"#utility.yul\":5485:5546   */\n      tag_309\n        /* \"#utility.yul\":5539:5545   */\n      dup2\n        /* \"#utility.yul\":5534:5537   */\n      dup6\n        /* \"#utility.yul\":5485:5546   */\n      tag_310\n      jump\t// in\n    tag_309:\n        /* \"#utility.yul\":5478:5546   */\n      swap4\n      pop\n        /* \"#utility.yul\":5555:5607   */\n      tag_311\n        /* \"#utility.yul\":5600:5606   */\n      dup2\n        /* \"#utility.yul\":5595:5598   */\n      dup6\n        /* \"#utility.yul\":5588:5592   */\n      0x20\n        /* \"#utility.yul\":5581:5586   */\n      dup7\n        /* \"#utility.yul\":5577:5593   */\n      add\n        /* \"#utility.yul\":5555:5607   */\n      tag_312\n      jump\t// in\n    tag_311:\n        /* \"#utility.yul\":5632:5661   */\n      tag_313\n        /* \"#utility.yul\":5654:5660   */\n      dup2\n        /* \"#utility.yul\":5632:5661   */\n      tag_314\n      jump\t// in\n    tag_313:\n        /* \"#utility.yul\":5627:5630   */\n      dup5\n        /* \"#utility.yul\":5623:5662   */\n      add\n        /* \"#utility.yul\":5616:5662   */\n      swap2\n      pop\n        /* \"#utility.yul\":5406:5668   */\n      pop\n        /* \"#utility.yul\":5324:5668   */\n      swap3\n      swap2\n      pop\n      pop\n      jump\t// out\n        /* \"#utility.yul\":5674:6040   */\n    tag_315:\n        /* \"#utility.yul\":5816:5819   */\n      0x00\n        /* \"#utility.yul\":5837:5904   */\n      tag_317\n        /* \"#utility.yul\":5901:5903   */\n      0x12\n        /* \"#utility.yul\":5896:5899   */\n      dup4\n        /* \"#utility.yul\":5837:5904   */\n      tag_318\n      jump\t// in\n    tag_317:\n        /* \"#utility.yul\":5830:5904   */\n      swap2\n      pop\n        /* \"#utility.yul\":5913:6006   */\n      tag_319\n        /* \"#utility.yul\":6002:6005   */\n      dup3\n        /* \"#utility.yul\":5913:6006   */\n      tag_320\n      jump\t// in\n    tag_319:\n        /* \"#utility.yul\":6031:6033   */\n      0x20\n        /* \"#utility.yul\":6026:6029   */\n      dup3\n        /* \"#utility.yul\":6022:6034   */\n      add\n        /* \"#utility.yul\":6015:6034   */\n      swap1\n      pop\n        /* \"#utility.yul\":5674:6040   */\n      swap2\n      swap1\n      pop\n      jump\t// out\n        /* \"#utility.yul\":6046:6412   */\n    tag_321:\n        /* \"#utility.yul\":6188:6191   */\n      0x00\n        /* \"#utility.yul\":6209:6276   */\n      tag_323\n        /* \"#utility.yul\":6273:6275   */\n      0x26\n        /* \"#utility.yul\":6268:6271   */\n      dup4\n        /* \"#utility.yul\":6209:6276   */\n      tag_318\n      jump\t// in\n    tag_323:\n        /* \"#utility.yul\":6202:6276   */\n      swap2\n      pop\n        /* \"#utility.yul\":6285:6378   */\n      tag_324\n        /* \"#utility.yul\":6374:6377   */\n      dup3\n        /* \"#utility.yul\":6285:6378   */\n      tag_325\n      jump\t// in\n    tag_324:\n        /* \"#utility.yul\":6403:6405   */\n      0x40\n        /* \"#utility.yul\":6398:6401   */\n      dup3\n        /* \"#utility.yul\":6394:6406   */\n      add\n        /* \"#utility.yul\":6387:6406   */\n      swap1\n      pop\n        /* \"#utility.yul\":6046:6412   */\n      swap2\n      swap1\n      pop\n      jump\t// out\n        /* \"#utility.yul\":6418:6784   */\n    tag_326:\n        /* \"#utility.yul\":6560:6563   */\n      0x00\n        /* \"#utility.yul\":6581:6648   */\n      tag_328\n        /* \"#utility.yul\":6645:6647   */\n      0x39\n        /* \"#utility.yul\":6640:6643   */\n      dup4\n        /* \"#utility.yul\":6581:6648   */\n      tag_318\n      jump\t// in\n    tag_328:\n        /* \"#utility.yul\":6574:6648   */\n      swap2\n      pop\n        /* \"#utility.yul\":6657:6750   */\n      tag_329\n        /* \"#utility.yul\":6746:6749   */\n      dup3\n        /* \"#utility.yul\":6657:6750   */\n      tag_330\n      jump\t// in\n    tag_329:\n        /* \"#utility.yul\":6775:6777   */\n      0x40\n        /* \"#utility.yul\":6770:6773   */\n      dup3\n        /* \"#utility.yul\":6766:6778   */\n      add\n        /* \"#utility.yul\":6759:6778   */\n      swap1\n      pop\n        /* \"#utility.yul\":6418:6784   */\n      swap2\n      swap1\n      pop\n      jump\t// out\n        /* \"#utility.yul\":6790:7156   */\n    tag_331:\n        /* \"#utility.yul\":6932:6935   */\n      0x00\n        /* \"#utility.yul\":6953:7020   */\n      tag_333\n        /* \"#utility.yul\":7017:7019   */\n      0x20\n        /* \"#utility.yul\":7012:7015   */\n      dup4\n        /* \"#utility.yul\":6953:7020   */\n      tag_318\n      jump\t// in\n    tag_333:\n        /* \"#utility.yul\":6946:7020   */\n      swap2\n      pop\n        /* \"#utility.yul\":7029:7122   */\n      tag_334\n        /* \"#utility.yul\":7118:7121   */\n      dup3\n        /* \"#utility.yul\":7029:7122   */\n      tag_335\n      jump\t// in\n    tag_334:\n        /* \"#utility.yul\":7147:7149   */\n      0x20\n        /* \"#utility.yul\":7142:7145   */\n      dup3\n        /* \"#utility.yul\":7138:7150   */\n      add\n        /* \"#utility.yul\":7131:7150   */\n      swap1\n      pop\n        /* \"#utility.yul\":6790:7156   */\n      swap2\n      swap1\n      pop\n      jump\t// out\n        /* \"#utility.yul\":7162:7528   */\n    tag_336:\n        /* \"#utility.yul\":7304:7307   */\n      0x00\n        /* \"#utility.yul\":7325:7392   */\n      tag_338\n        /* \"#utility.yul\":7389:7391   */\n      0x16\n        /* \"#utility.yul\":7384:7387   */\n      dup4\n        /* \"#utility.yul\":7325:7392   */\n      tag_318\n      jump\t// in\n    tag_338:\n        /* \"#utility.yul\":7318:7392   */\n      swap2\n      pop\n        /* \"#utility.yul\":7401:7494   */\n      tag_339\n        /* \"#utility.yul\":7490:7493   */\n      dup3\n        /* \"#utility.yul\":7401:7494   */\n      tag_340\n      jump\t// in\n    tag_339:\n        /* \"#utility.yul\":7519:7521   */\n      0x20\n        /* \"#utility.yul\":7514:7517   */\n      dup3\n        /* \"#utility.yul\":7510:7522   */\n      add\n        /* \"#utility.yul\":7503:7522   */\n      swap1\n      pop\n        /* \"#utility.yul\":7162:7528   */\n      swap2\n      swap1\n      pop\n      jump\t// out\n        /* \"#utility.yul\":7534:7900   */\n    tag_341:\n        /* \"#utility.yul\":7676:7679   */\n      0x00\n        /* \"#utility.yul\":7697:7764   */\n      tag_343\n        /* \"#utility.yul\":7761:7763   */\n      0x16\n        /* \"#utility.yul\":7756:7759   */\n      dup4\n        /* \"#utility.yul\":7697:7764   */\n      tag_318\n      jump\t// in\n    tag_343:\n        /* \"#utility.yul\":7690:7764   */\n      swap2\n      pop\n        /* \"#utility.yul\":7773:7866   */\n      tag_344\n        /* \"#utility.yul\":7862:7865   */\n      dup3\n        /* \"#utility.yul\":7773:7866   */\n      tag_345\n      jump\t// in\n    tag_344:\n        /* \"#utility.yul\":7891:7893   */\n      0x20\n        /* \"#utility.yul\":7886:7889   */\n      dup3\n        /* \"#utility.yul\":7882:7894   */\n      add\n        /* \"#utility.yul\":7875:7894   */\n      swap1\n      pop\n        /* \"#utility.yul\":7534:7900   */\n      swap2\n      swap1\n      pop\n      jump\t// out\n        /* \"#utility.yul\":7984:9007   */\n    tag_266:\n        /* \"#utility.yul\":8095:8098   */\n      0x00\n        /* \"#utility.yul\":8131:8135   */\n      0x80\n        /* \"#utility.yul\":8126:8129   */\n      dup4\n        /* \"#utility.yul\":8122:8136   */\n      add\n        /* \"#utility.yul\":8216:8220   */\n      0x00\n        /* \"#utility.yul\":8209:8214   */\n      dup4\n        /* \"#utility.yul\":8205:8221   */\n      add\n        /* \"#utility.yul\":8199:8222   */\n      mload\n        /* \"#utility.yul\":8235:8298   */\n      tag_347\n        /* \"#utility.yul\":8292:8296   */\n      0x00\n        /* \"#utility.yul\":8287:8290   */\n      dup7\n        /* \"#utility.yul\":8283:8297   */\n      add\n        /* \"#utility.yul\":8269:8281   */\n      dup3\n        /* \"#utility.yul\":8235:8298   */\n      tag_348\n      jump\t// in\n    tag_347:\n        /* \"#utility.yul\":8146:8308   */\n      pop\n        /* \"#utility.yul\":8390:8394   */\n      0x20\n        /* \"#utility.yul\":8383:8388   */\n      dup4\n        /* \"#utility.yul\":8379:8395   */\n      add\n        /* \"#utility.yul\":8373:8396   */\n      mload\n        /* \"#utility.yul\":8443:8446   */\n      dup5\n        /* \"#utility.yul\":8437:8441   */\n      dup3\n        /* \"#utility.yul\":8433:8447   */\n      sub\n        /* \"#utility.yul\":8426:8430   */\n      0x20\n        /* \"#utility.yul\":8421:8424   */\n      dup7\n        /* \"#utility.yul\":8417:8431   */\n      add\n        /* \"#utility.yul\":8410:8448   */\n      mstore\n        /* \"#utility.yul\":8469:8542   */\n      tag_349\n        /* \"#utility.yul\":8537:8541   */\n      dup3\n        /* \"#utility.yul\":8523:8535   */\n      dup3\n        /* \"#utility.yul\":8469:8542   */\n      tag_305\n      jump\t// in\n    tag_349:\n        /* \"#utility.yul\":8461:8542   */\n      swap2\n      pop\n        /* \"#utility.yul\":8318:8553   */\n      pop\n        /* \"#utility.yul\":8642:8646   */\n      0x40\n        /* \"#utility.yul\":8635:8640   */\n      dup4\n        /* \"#utility.yul\":8631:8647   */\n      add\n        /* \"#utility.yul\":8625:8648   */\n      mload\n        /* \"#utility.yul\":8695:8698   */\n      dup5\n        /* \"#utility.yul\":8689:8693   */\n      dup3\n        /* \"#utility.yul\":8685:8699   */\n      sub\n        /* \"#utility.yul\":8678:8682   */\n      0x40\n        /* \"#utility.yul\":8673:8676   */\n      dup7\n        /* \"#utility.yul\":8669:8683   */\n      add\n        /* \"#utility.yul\":8662:8700   */\n      mstore\n        /* \"#utility.yul\":8721:8794   */\n      tag_350\n        /* \"#utility.yul\":8789:8793   */\n      dup3\n        /* \"#utility.yul\":8775:8787   */\n      dup3\n        /* \"#utility.yul\":8721:8794   */\n      tag_305\n      jump\t// in\n    tag_350:\n        /* \"#utility.yul\":8713:8794   */\n      swap2\n      pop\n        /* \"#utility.yul\":8563:8805   */\n      pop\n        /* \"#utility.yul\":8888:8892   */\n      0x60\n        /* \"#utility.yul\":8881:8886   */\n      dup4\n        /* \"#utility.yul\":8877:8893   */\n      add\n        /* \"#utility.yul\":8871:8894   */\n      mload\n        /* \"#utility.yul\":8907:8970   */\n      tag_351\n        /* \"#utility.yul\":8964:8968   */\n      0x60\n        /* \"#utility.yul\":8959:8962   */\n      dup7\n        /* \"#utility.yul\":8955:8969   */\n      add\n        /* \"#utility.yul\":8941:8953   */\n      dup3\n        /* \"#utility.yul\":8907:8970   */\n      tag_262\n      jump\t// in\n    tag_351:\n        /* \"#utility.yul\":8815:8980   */\n      pop\n        /* \"#utility.yul\":8997:9001   */\n      dup1\n        /* \"#utility.yul\":8990:9001   */\n      swap2\n      pop\n        /* \"#utility.yul\":8100:9007   */\n      pop\n        /* \"#utility.yul\":7984:9007   */\n      swap3\n      swap2\n      pop\n      pop\n      jump\t// out\n        /* \"#utility.yul\":9089:10262   */\n    tag_352:\n        /* \"#utility.yul\":9208:9211   */\n      0x00\n        /* \"#utility.yul\":9244:9248   */\n      0x80\n        /* \"#utility.yul\":9239:9242   */\n      dup4\n        /* \"#utility.yul\":9235:9249   */\n      add\n        /* \"#utility.yul\":9343:9347   */\n      0x00\n        /* \"#utility.yul\":9336:9341   */\n      dup4\n        /* \"#utility.yul\":9332:9348   */\n      add\n        /* \"#utility.yul\":9326:9349   */\n      mload\n        /* \"#utility.yul\":9362:9425   */\n      tag_354\n        /* \"#utility.yul\":9419:9423   */\n      0x00\n        /* \"#utility.yul\":9414:9417   */\n      dup7\n        /* \"#utility.yul\":9410:9424   */\n      add\n        /* \"#utility.yul\":9396:9408   */\n      dup3\n        /* \"#utility.yul\":9362:9425   */\n      tag_348\n      jump\t// in\n    tag_354:\n        /* \"#utility.yul\":9259:9435   */\n      pop\n        /* \"#utility.yul\":9527:9531   */\n      0x20\n        /* \"#utility.yul\":9520:9525   */\n      dup4\n        /* \"#utility.yul\":9516:9532   */\n      add\n        /* \"#utility.yul\":9510:9533   */\n      mload\n        /* \"#utility.yul\":9546:9609   */\n      tag_355\n        /* \"#utility.yul\":9603:9607   */\n      0x20\n        /* \"#utility.yul\":9598:9601   */\n      dup7\n        /* \"#utility.yul\":9594:9608   */\n      add\n        /* \"#utility.yul\":9580:9592   */\n      dup3\n        /* \"#utility.yul\":9546:9609   */\n      tag_348\n      jump\t// in\n    tag_355:\n        /* \"#utility.yul\":9445:9619   */\n      pop\n        /* \"#utility.yul\":9707:9711   */\n      0x40\n        /* \"#utility.yul\":9700:9705   */\n      dup4\n        /* \"#utility.yul\":9696:9712   */\n      add\n        /* \"#utility.yul\":9690:9713   */\n      mload\n        /* \"#utility.yul\":9760:9763   */\n      dup5\n        /* \"#utility.yul\":9754:9758   */\n      dup3\n        /* \"#utility.yul\":9750:9764   */\n      sub\n        /* \"#utility.yul\":9743:9747   */\n      0x40\n        /* \"#utility.yul\":9738:9741   */\n      dup7\n        /* \"#utility.yul\":9734:9748   */\n      add\n        /* \"#utility.yul\":9727:9765   */\n      mstore\n        /* \"#utility.yul\":9786:9941   */\n      tag_356\n        /* \"#utility.yul\":9936:9940   */\n      dup3\n        /* \"#utility.yul\":9922:9934   */\n      dup3\n        /* \"#utility.yul\":9786:9941   */\n      tag_287\n      jump\t// in\n    tag_356:\n        /* \"#utility.yul\":9778:9941   */\n      swap2\n      pop\n        /* \"#utility.yul\":9629:9952   */\n      pop\n        /* \"#utility.yul\":10042:10046   */\n      0x60\n        /* \"#utility.yul\":10035:10040   */\n      dup4\n        /* \"#utility.yul\":10031:10047   */\n      add\n        /* \"#utility.yul\":10025:10048   */\n      mload\n        /* \"#utility.yul\":10095:10098   */\n      dup5\n        /* \"#utility.yul\":10089:10093   */\n      dup3\n        /* \"#utility.yul\":10085:10099   */\n      sub\n        /* \"#utility.yul\":10078:10082   */\n      0x60\n        /* \"#utility.yul\":10073:10076   */\n      dup7\n        /* \"#utility.yul\":10069:10083   */\n      add\n        /* \"#utility.yul\":10062:10100   */\n      mstore\n        /* \"#utility.yul\":10121:10224   */\n      tag_357\n        /* \"#utility.yul\":10219:10223   */\n      dup3\n        /* \"#utility.yul\":10205:10217   */\n      dup3\n        /* \"#utility.yul\":10121:10224   */\n      tag_273\n      jump\t// in\n    tag_357:\n        /* \"#utility.yul\":10113:10224   */\n      swap2\n      pop\n        /* \"#utility.yul\":9962:10235   */\n      pop\n        /* \"#utility.yul\":10252:10256   */\n      dup1\n        /* \"#utility.yul\":10245:10256   */\n      swap2\n      pop\n        /* \"#utility.yul\":9213:10262   */\n      pop\n        /* \"#utility.yul\":9089:10262   */\n      swap3\n      swap2\n      pop\n      pop\n      jump\t// out\n        /* \"#utility.yul\":10268:10376   */\n    tag_348:\n        /* \"#utility.yul\":10345:10369   */\n      tag_359\n        /* \"#utility.yul\":10363:10368   */\n      dup2\n        /* \"#utility.yul\":10345:10369   */\n      tag_360\n      jump\t// in\n    tag_359:\n        /* \"#utility.yul\":10340:10343   */\n      dup3\n        /* \"#utility.yul\":10333:10370   */\n      mstore\n        /* \"#utility.yul\":10268:10376   */\n      pop\n      pop\n      jump\t// out\n        /* \"#utility.yul\":10382:10500   */\n    tag_361:\n        /* \"#utility.yul\":10469:10493   */\n      tag_363\n        /* \"#utility.yul\":10487:10492   */\n      dup2\n        /* \"#utility.yul\":10469:10493   */\n      tag_360\n      jump\t// in\n    tag_363:\n        /* \"#utility.yul\":10464:10467   */\n      dup3\n        /* \"#utility.yul\":10457:10494   */\n      mstore\n        /* \"#utility.yul\":10382:10500   */\n      pop\n      pop\n      jump\t// out\n        /* \"#utility.yul\":10506:10728   */\n    tag_41:\n        /* \"#utility.yul\":10599:10603   */\n      0x00\n        /* \"#utility.yul\":10637:10639   */\n      0x20\n        /* \"#utility.yul\":10626:10635   */\n      dup3\n        /* \"#utility.yul\":10622:10640   */\n      add\n        /* \"#utility.yul\":10614:10640   */\n      swap1\n      pop\n        /* \"#utility.yul\":10650:10721   */\n      tag_365\n        /* \"#utility.yul\":10718:10719   */\n      0x00\n        /* \"#utility.yul\":10707:10716   */\n      dup4\n        /* \"#utility.yul\":10703:10720   */\n      add\n        /* \"#utility.yul\":10694:10700   */\n      dup5\n        /* \"#utility.yul\":10650:10721   */\n      tag_270\n      jump\t// in\n    tag_365:\n        /* \"#utility.yul\":10506:10728   */\n      swap3\n      swap2\n      pop\n      pop\n      jump\t// out\n        /* \"#utility.yul\":10734:10944   */\n    tag_27:\n        /* \"#utility.yul\":10821:10825   */\n      0x00\n        /* \"#utility.yul\":10859:10861   */\n      0x20\n        /* \"#utility.yul\":10848:10857   */\n      dup3\n        /* \"#utility.yul\":10844:10862   */\n      add\n        /* \"#utility.yul\":10836:10862   */\n      swap1\n      pop\n        /* \"#utility.yul\":10872:10937   */\n      tag_367\n        /* \"#utility.yul\":10934:10935   */\n      0x00\n        /* \"#utility.yul\":10923:10932   */\n      dup4\n        /* \"#utility.yul\":10919:10936   */\n      add\n        /* \"#utility.yul\":10910:10916   */\n      dup5\n        /* \"#utility.yul\":10872:10937   */\n      tag_301\n      jump\t// in\n    tag_367:\n        /* \"#utility.yul\":10734:10944   */\n      swap3\n      swap2\n      pop\n      pop\n      jump\t// out\n        /* \"#utility.yul\":10950:11369   */\n    tag_182:\n        /* \"#utility.yul\":11116:11120   */\n      0x00\n        /* \"#utility.yul\":11154:11156   */\n      0x20\n        /* \"#utility.yul\":11143:11152   */\n      dup3\n        /* \"#utility.yul\":11139:11157   */\n      add\n        /* \"#utility.yul\":11131:11157   */\n      swap1\n      pop\n        /* \"#utility.yul\":11203:11212   */\n      dup2\n        /* \"#utility.yul\":11197:11201   */\n      dup2\n        /* \"#utility.yul\":11193:11213   */\n      sub\n        /* \"#utility.yul\":11189:11190   */\n      0x00\n        /* \"#utility.yul\":11178:11187   */\n      dup4\n        /* \"#utility.yul\":11174:11191   */\n      add\n        /* \"#utility.yul\":11167:11214   */\n      mstore\n        /* \"#utility.yul\":11231:11362   */\n      tag_369\n        /* \"#utility.yul\":11357:11361   */\n      dup2\n        /* \"#utility.yul\":11231:11362   */\n      tag_315\n      jump\t// in\n    tag_369:\n        /* \"#utility.yul\":11223:11362   */\n      swap1\n      pop\n        /* \"#utility.yul\":10950:11369   */\n      swap2\n      swap1\n      pop\n      jump\t// out\n        /* \"#utility.yul\":11375:11794   */\n    tag_174:\n        /* \"#utility.yul\":11541:11545   */\n      0x00\n        /* \"#utility.yul\":11579:11581   */\n      0x20\n        /* \"#utility.yul\":11568:11577   */\n      dup3\n        /* \"#utility.yul\":11564:11582   */\n      add\n        /* \"#utility.yul\":11556:11582   */\n      swap1\n      pop\n        /* \"#utility.yul\":11628:11637   */\n      dup2\n        /* \"#utility.yul\":11622:11626   */\n      dup2\n        /* \"#utility.yul\":11618:11638   */\n      sub\n        /* \"#utility.yul\":11614:11615   */\n      0x00\n        /* \"#utility.yul\":11603:11612   */\n      dup4\n        /* \"#utility.yul\":11599:11616   */\n      add\n        /* \"#utility.yul\":11592:11639   */\n      mstore\n        /* \"#utility.yul\":11656:11787   */\n      tag_371\n        /* \"#utility.yul\":11782:11786   */\n      dup2\n        /* \"#utility.yul\":11656:11787   */\n      tag_321\n      jump\t// in\n    tag_371:\n        /* \"#utility.yul\":11648:11787   */\n      swap1\n      pop\n        /* \"#utility.yul\":11375:11794   */\n      swap2\n      swap1\n      pop\n      jump\t// out\n        /* \"#utility.yul\":11800:12219   */\n    tag_79:\n        /* \"#utility.yul\":11966:11970   */\n      0x00\n        /* \"#utility.yul\":12004:12006   */\n      0x20\n        /* \"#utility.yul\":11993:12002   */\n      dup3\n        /* \"#utility.yul\":11989:12007   */\n      add\n        /* \"#utility.yul\":11981:12007   */\n      swap1\n      pop\n        /* \"#utility.yul\":12053:12062   */\n      dup2\n        /* \"#utility.yul\":12047:12051   */\n      dup2\n        /* \"#utility.yul\":12043:12063   */\n      sub\n        /* \"#utility.yul\":12039:12040   */\n      0x00\n        /* \"#utility.yul\":12028:12037   */\n      dup4\n        /* \"#utility.yul\":12024:12041   */\n      add\n        /* \"#utility.yul\":12017:12064   */\n      mstore\n        /* \"#utility.yul\":12081:12212   */\n      tag_373\n        /* \"#utility.yul\":12207:12211   */\n      dup2\n        /* \"#utility.yul\":12081:12212   */\n      tag_326\n      jump\t// in\n    tag_373:\n        /* \"#utility.yul\":12073:12212   */\n      swap1\n      pop\n        /* \"#utility.yul\":11800:12219   */\n      swap2\n      swap1\n      pop\n      jump\t// out\n        /* \"#utility.yul\":12225:12644   */\n    tag_107:\n        /* \"#utility.yul\":12391:12395   */\n      0x00\n        /* \"#utility.yul\":12429:12431   */\n      0x20\n        /* \"#utility.yul\":12418:12427   */\n      dup3\n        /* \"#utility.yul\":12414:12432   */\n      add\n        /* \"#utility.yul\":12406:12432   */\n      swap1\n      pop\n        /* \"#utility.yul\":12478:12487   */\n      dup2\n        /* \"#utility.yul\":12472:12476   */\n      dup2\n        /* \"#utility.yul\":12468:12488   */\n      sub\n        /* \"#utility.yul\":12464:12465   */\n      0x00\n        /* \"#utility.yul\":12453:12462   */\n      dup4\n        /* \"#utility.yul\":12449:12466   */\n      add\n        /* \"#utility.yul\":12442:12489   */\n      mstore\n        /* \"#utility.yul\":12506:12637   */\n      tag_375\n        /* \"#utility.yul\":12632:12636   */\n      dup2\n        /* \"#utility.yul\":12506:12637   */\n      tag_331\n      jump\t// in\n    tag_375:\n        /* \"#utility.yul\":12498:12637   */\n      swap1\n      pop\n        /* \"#utility.yul\":12225:12644   */\n      swap2\n      swap1\n      pop\n      jump\t// out\n        /* \"#utility.yul\":12650:13069   */\n    tag_74:\n        /* \"#utility.yul\":12816:12820   */\n      0x00\n        /* \"#utility.yul\":12854:12856   */\n      0x20\n        /* \"#utility.yul\":12843:12852   */\n      dup3\n        /* \"#utility.yul\":12839:12857   */\n      add\n        /* \"#utility.yul\":12831:12857   */\n      swap1\n      pop\n        /* \"#utility.yul\":12903:12912   */\n      dup2\n        /* \"#utility.yul\":12897:12901   */\n      dup2\n        /* \"#utility.yul\":12893:12913   */\n      sub\n        /* \"#utility.yul\":12889:12890   */\n      0x00\n        /* \"#utility.yul\":12878:12887   */\n      dup4\n        /* \"#utility.yul\":12874:12891   */\n      add\n        /* \"#utility.yul\":12867:12914   */\n      mstore\n        /* \"#utility.yul\":12931:13062   */\n      tag_377\n        /* \"#utility.yul\":13057:13061   */\n      dup2\n        /* \"#utility.yul\":12931:13062   */\n      tag_336\n      jump\t// in\n    tag_377:\n        /* \"#utility.yul\":12923:13062   */\n      swap1\n      pop\n        /* \"#utility.yul\":12650:13069   */\n      swap2\n      swap1\n      pop\n      jump\t// out\n        /* \"#utility.yul\":13075:13494   */\n    tag_83:\n        /* \"#utility.yul\":13241:13245   */\n      0x00\n        /* \"#utility.yul\":13279:13281   */\n      0x20\n        /* \"#utility.yul\":13268:13277   */\n      dup3\n        /* \"#utility.yul\":13264:13282   */\n      add\n        /* \"#utility.yul\":13256:13282   */\n      swap1\n      pop\n        /* \"#utility.yul\":13328:13337   */\n      dup2\n        /* \"#utility.yul\":13322:13326   */\n      dup2\n        /* \"#utility.yul\":13318:13338   */\n      sub\n        /* \"#utility.yul\":13314:13315   */\n      0x00\n        /* \"#utility.yul\":13303:13312   */\n      dup4\n        /* \"#utility.yul\":13299:13316   */\n      add\n        /* \"#utility.yul\":13292:13339   */\n      mstore\n        /* \"#utility.yul\":13356:13487   */\n      tag_379\n        /* \"#utility.yul\":13482:13486   */\n      dup2\n        /* \"#utility.yul\":13356:13487   */\n      tag_341\n      jump\t// in\n    tag_379:\n        /* \"#utility.yul\":13348:13487   */\n      swap1\n      pop\n        /* \"#utility.yul\":13075:13494   */\n      swap2\n      swap1\n      pop\n      jump\t// out\n        /* \"#utility.yul\":13500:13873   */\n    tag_48:\n        /* \"#utility.yul\":13643:13647   */\n      0x00\n        /* \"#utility.yul\":13681:13683   */\n      0x20\n        /* \"#utility.yul\":13670:13679   */\n      dup3\n        /* \"#utility.yul\":13666:13684   */\n      add\n        /* \"#utility.yul\":13658:13684   */\n      swap1\n      pop\n        /* \"#utility.yul\":13730:13739   */\n      dup2\n        /* \"#utility.yul\":13724:13728   */\n      dup2\n        /* \"#utility.yul\":13720:13740   */\n      sub\n        /* \"#utility.yul\":13716:13717   */\n      0x00\n        /* \"#utility.yul\":13705:13714   */\n      dup4\n        /* \"#utility.yul\":13701:13718   */\n      add\n        /* \"#utility.yul\":13694:13741   */\n      mstore\n        /* \"#utility.yul\":13758:13866   */\n      tag_381\n        /* \"#utility.yul\":13861:13865   */\n      dup2\n        /* \"#utility.yul\":13852:13858   */\n      dup5\n        /* \"#utility.yul\":13758:13866   */\n      tag_352\n      jump\t// in\n    tag_381:\n        /* \"#utility.yul\":13750:13866   */\n      swap1\n      pop\n        /* \"#utility.yul\":13500:13873   */\n      swap3\n      swap2\n      pop\n      pop\n      jump\t// out\n        /* \"#utility.yul\":13879:14101   */\n    tag_62:\n        /* \"#utility.yul\":13972:13976   */\n      0x00\n        /* \"#utility.yul\":14010:14012   */\n      0x20\n        /* \"#utility.yul\":13999:14008   */\n      dup3\n        /* \"#utility.yul\":13995:14013   */\n      add\n        /* \"#utility.yul\":13987:14013   */\n      swap1\n      pop\n        /* \"#utility.yul\":14023:14094   */\n      tag_383\n        /* \"#utility.yul\":14091:14092   */\n      0x00\n        /* \"#utility.yul\":14080:14089   */\n      dup4\n        /* \"#utility.yul\":14076:14093   */\n      add\n        /* \"#utility.yul\":14067:14073   */\n      dup5\n        /* \"#utility.yul\":14023:14094   */\n      tag_361\n      jump\t// in\n    tag_383:\n        /* \"#utility.yul\":13879:14101   */\n      swap3\n      swap2\n      pop\n      pop\n      jump\t// out\n        /* \"#utility.yul\":14107:14439   */\n    tag_32:\n        /* \"#utility.yul\":14228:14232   */\n      0x00\n        /* \"#utility.yul\":14266:14268   */\n      0x40\n        /* \"#utility.yul\":14255:14264   */\n      dup3\n        /* \"#utility.yul\":14251:14269   */\n      add\n        /* \"#utility.yul\":14243:14269   */\n      swap1\n      pop\n        /* \"#utility.yul\":14279:14350   */\n      tag_385\n        /* \"#utility.yul\":14347:14348   */\n      0x00\n        /* \"#utility.yul\":14336:14345   */\n      dup4\n        /* \"#utility.yul\":14332:14349   */\n      add\n        /* \"#utility.yul\":14323:14329   */\n      dup6\n        /* \"#utility.yul\":14279:14350   */\n      tag_361\n      jump\t// in\n    tag_385:\n        /* \"#utility.yul\":14360:14432   */\n      tag_386\n        /* \"#utility.yul\":14428:14430   */\n      0x20\n        /* \"#utility.yul\":14417:14426   */\n      dup4\n        /* \"#utility.yul\":14413:14431   */\n      add\n        /* \"#utility.yul\":14404:14410   */\n      dup5\n        /* \"#utility.yul\":14360:14432   */\n      tag_361\n      jump\t// in\n    tag_386:\n        /* \"#utility.yul\":14107:14439   */\n      swap4\n      swap3\n      pop\n      pop\n      pop\n      jump\t// out\n        /* \"#utility.yul\":14445:14574   */\n    tag_220:\n        /* \"#utility.yul\":14479:14485   */\n      0x00\n        /* \"#utility.yul\":14506:14526   */\n      tag_388\n      tag_389\n      jump\t// in\n    tag_388:\n        /* \"#utility.yul\":14496:14526   */\n      swap1\n      pop\n        /* \"#utility.yul\":14535:14568   */\n      tag_390\n        /* \"#utility.yul\":14563:14567   */\n      dup3\n        /* \"#utility.yul\":14555:14561   */\n      dup3\n        /* \"#utility.yul\":14535:14568   */\n      tag_391\n      jump\t// in\n    tag_390:\n        /* \"#utility.yul\":14445:14574   */\n      swap2\n      swap1\n      pop\n      jump\t// out\n        /* \"#utility.yul\":14580:14655   */\n    tag_389:\n        /* \"#utility.yul\":14613:14619   */\n      0x00\n        /* \"#utility.yul\":14646:14648   */\n      0x40\n        /* \"#utility.yul\":14640:14649   */\n      mload\n        /* \"#utility.yul\":14630:14649   */\n      swap1\n      pop\n        /* \"#utility.yul\":14580:14655   */\n      swap1\n      jump\t// out\n        /* \"#utility.yul\":14661:14969   */\n    tag_219:\n        /* \"#utility.yul\":14723:14727   */\n      0x00\n        /* \"#utility.yul\":14813:14831   */\n      0xffffffffffffffff\n        /* \"#utility.yul\":14805:14811   */\n      dup3\n        /* \"#utility.yul\":14802:14832   */\n      gt\n        /* \"#utility.yul\":14799:14855   */\n      iszero\n      tag_394\n      jumpi\n        /* \"#utility.yul\":14835:14853   */\n      tag_395\n      tag_396\n      jump\t// in\n    tag_395:\n        /* \"#utility.yul\":14799:14855   */\n    tag_394:\n        /* \"#utility.yul\":14873:14902   */\n      tag_397\n        /* \"#utility.yul\":14895:14901   */\n      dup3\n        /* \"#utility.yul\":14873:14902   */\n      tag_314\n      jump\t// in\n    tag_397:\n        /* \"#utility.yul\":14865:14902   */\n      swap1\n      pop\n        /* \"#utility.yul\":14957:14961   */\n      0x20\n        /* \"#utility.yul\":14951:14955   */\n      dup2\n        /* \"#utility.yul\":14947:14962   */\n      add\n        /* \"#utility.yul\":14939:14962   */\n      swap1\n      pop\n        /* \"#utility.yul\":14661:14969   */\n      swap2\n      swap1\n      pop\n      jump\t// out\n        /* \"#utility.yul\":14975:15107   */\n    tag_280:\n        /* \"#utility.yul\":15042:15046   */\n      0x00\n        /* \"#utility.yul\":15065:15068   */\n      dup2\n        /* \"#utility.yul\":15057:15068   */\n      swap1\n      pop\n        /* \"#utility.yul\":15095:15099   */\n      0x20\n        /* \"#utility.yul\":15090:15093   */\n      dup3\n        /* \"#utility.yul\":15086:15100   */\n      add\n        /* \"#utility.yul\":15078:15100   */\n      swap1\n      pop\n        /* \"#utility.yul\":14975:15107   */\n      swap2\n      swap1\n      pop\n      jump\t// out\n        /* \"#utility.yul\":15113:15271   */\n    tag_294:\n        /* \"#utility.yul\":15206:15210   */\n      0x00\n        /* \"#utility.yul\":15229:15232   */\n      dup2\n        /* \"#utility.yul\":15221:15232   */\n      swap1\n      pop\n        /* \"#utility.yul\":15259:15263   */\n      0x20\n        /* \"#utility.yul\":15254:15257   */\n      dup3\n        /* \"#utility.yul\":15250:15264   */\n      add\n        /* \"#utility.yul\":15242:15264   */\n      swap1\n      pop\n        /* \"#utility.yul\":15113:15271   */\n      swap2\n      swap1\n      pop\n      jump\t// out\n        /* \"#utility.yul\":15277:15391   */\n    tag_276:\n        /* \"#utility.yul\":15344:15350   */\n      0x00\n        /* \"#utility.yul\":15378:15383   */\n      dup2\n        /* \"#utility.yul\":15372:15384   */\n      mload\n        /* \"#utility.yul\":15362:15384   */\n      swap1\n      pop\n        /* \"#utility.yul\":15277:15391   */\n      swap2\n      swap1\n      pop\n      jump\t// out\n        /* \"#utility.yul\":15397:15537   */\n    tag_290:\n        /* \"#utility.yul\":15490:15496   */\n      0x00\n        /* \"#utility.yul\":15524:15529   */\n      dup2\n        /* \"#utility.yul\":15518:15530   */\n      mload\n        /* \"#utility.yul\":15508:15530   */\n      swap1\n      pop\n        /* \"#utility.yul\":15397:15537   */\n      swap2\n      swap1\n      pop\n      jump\t// out\n        /* \"#utility.yul\":15543:15642   */\n    tag_308:\n        /* \"#utility.yul\":15595:15601   */\n      0x00\n        /* \"#utility.yul\":15629:15634   */\n      dup2\n        /* \"#utility.yul\":15623:15635   */\n      mload\n        /* \"#utility.yul\":15613:15635   */\n      swap1\n      pop\n        /* \"#utility.yul\":15543:15642   */\n      swap2\n      swap1\n      pop\n      jump\t// out\n        /* \"#utility.yul\":15648:15761   */\n    tag_286:\n        /* \"#utility.yul\":15718:15722   */\n      0x00\n        /* \"#utility.yul\":15750:15754   */\n      0x20\n        /* \"#utility.yul\":15745:15748   */\n      dup3\n        /* \"#utility.yul\":15741:15755   */\n      add\n        /* \"#utility.yul\":15733:15755   */\n      swap1\n      pop\n        /* \"#utility.yul\":15648:15761   */\n      swap2\n      swap1\n      pop\n      jump\t// out\n        /* \"#utility.yul\":15767:15906   */\n    tag_300:\n        /* \"#utility.yul\":15863:15867   */\n      0x00\n        /* \"#utility.yul\":15895:15899   */\n      0x20\n        /* \"#utility.yul\":15890:15893   */\n      dup3\n        /* \"#utility.yul\":15886:15900   */\n      add\n        /* \"#utility.yul\":15878:15900   */\n      swap1\n      pop\n        /* \"#utility.yul\":15767:15906   */\n      swap2\n      swap1\n      pop\n      jump\t// out\n        /* \"#utility.yul\":15912:16086   */\n    tag_278:\n        /* \"#utility.yul\":16001:16012   */\n      0x00\n        /* \"#utility.yul\":16035:16041   */\n      dup3\n        /* \"#utility.yul\":16030:16033   */\n      dup3\n        /* \"#utility.yul\":16023:16042   */\n      mstore\n        /* \"#utility.yul\":16075:16079   */\n      0x20\n        /* \"#utility.yul\":16070:16073   */\n      dup3\n        /* \"#utility.yul\":16066:16080   */\n      add\n        /* \"#utility.yul\":16051:16080   */\n      swap1\n      pop\n        /* \"#utility.yul\":15912:16086   */\n      swap3\n      swap2\n      pop\n      pop\n      jump\t// out\n        /* \"#utility.yul\":16092:16292   */\n    tag_292:\n        /* \"#utility.yul\":16207:16218   */\n      0x00\n        /* \"#utility.yul\":16241:16247   */\n      dup3\n        /* \"#utility.yul\":16236:16239   */\n      dup3\n        /* \"#utility.yul\":16229:16248   */\n      mstore\n        /* \"#utility.yul\":16281:16285   */\n      0x20\n        /* \"#utility.yul\":16276:16279   */\n      dup3\n        /* \"#utility.yul\":16272:16286   */\n      add\n        /* \"#utility.yul\":16257:16286   */\n      swap1\n      pop\n        /* \"#utility.yul\":16092:16292   */\n      swap3\n      swap2\n      pop\n      pop\n      jump\t// out\n        /* \"#utility.yul\":16298:16457   */\n    tag_310:\n        /* \"#utility.yul\":16372:16383   */\n      0x00\n        /* \"#utility.yul\":16406:16412   */\n      dup3\n        /* \"#utility.yul\":16401:16404   */\n      dup3\n        /* \"#utility.yul\":16394:16413   */\n      mstore\n        /* \"#utility.yul\":16446:16450   */\n      0x20\n        /* \"#utility.yul\":16441:16444   */\n      dup3\n        /* \"#utility.yul\":16437:16451   */\n      add\n        /* \"#utility.yul\":16422:16451   */\n      swap1\n      pop\n        /* \"#utility.yul\":16298:16457   */\n      swap3\n      swap2\n      pop\n      pop\n      jump\t// out\n        /* \"#utility.yul\":16463:16632   */\n    tag_318:\n        /* \"#utility.yul\":16547:16558   */\n      0x00\n        /* \"#utility.yul\":16581:16587   */\n      dup3\n        /* \"#utility.yul\":16576:16579   */\n      dup3\n        /* \"#utility.yul\":16569:16588   */\n      mstore\n        /* \"#utility.yul\":16621:16625   */\n      0x20\n        /* \"#utility.yul\":16616:16619   */\n      dup3\n        /* \"#utility.yul\":16612:16626   */\n      add\n        /* \"#utility.yul\":16597:16626   */\n      swap1\n      pop\n        /* \"#utility.yul\":16463:16632   */\n      swap3\n      swap2\n      pop\n      pop\n      jump\t// out\n        /* \"#utility.yul\":16638:16943   */\n    tag_152:\n        /* \"#utility.yul\":16678:16681   */\n      0x00\n        /* \"#utility.yul\":16697:16717   */\n      tag_410\n        /* \"#utility.yul\":16715:16716   */\n      dup3\n        /* \"#utility.yul\":16697:16717   */\n      tag_360\n      jump\t// in\n    tag_410:\n        /* \"#utility.yul\":16692:16717   */\n      swap2\n      pop\n        /* \"#utility.yul\":16731:16751   */\n      tag_411\n        /* \"#utility.yul\":16749:16750   */\n      dup4\n        /* \"#utility.yul\":16731:16751   */\n      tag_360\n      jump\t// in\n    tag_411:\n        /* \"#utility.yul\":16726:16751   */\n      swap3\n      pop\n        /* \"#utility.yul\":16885:16886   */\n      dup3\n        /* \"#utility.yul\":16817:16883   */\n      0xffffffffffffffffffffffffffffffffffffffffffffffffffffffffffffffff\n        /* \"#utility.yul\":16813:16887   */\n      sub\n        /* \"#utility.yul\":16810:16811   */\n      dup3\n        /* \"#utility.yul\":16807:16888   */\n      gt\n        /* \"#utility.yul\":16804:16911   */\n      iszero\n      tag_412\n      jumpi\n        /* \"#utility.yul\":16891:16909   */\n      tag_413\n      tag_414\n      jump\t// in\n    tag_413:\n        /* \"#utility.yul\":16804:16911   */\n    tag_412:\n        /* \"#utility.yul\":16935:16936   */\n      dup3\n        /* \"#utility.yul\":16932:16933   */\n      dup3\n        /* \"#utility.yul\":16928:16937   */\n      add\n        /* \"#utility.yul\":16921:16937   */\n      swap1\n      pop\n        /* \"#utility.yul\":16638:16943   */\n      swap3\n      swap2\n      pop\n      pop\n      jump\t// out\n        /* \"#utility.yul\":16949:17140   */\n    tag_69:\n        /* \"#utility.yul\":16989:16993   */\n      0x00\n        /* \"#utility.yul\":17009:17029   */\n      tag_416\n        /* \"#utility.yul\":17027:17028   */\n      dup3\n        /* \"#utility.yul\":17009:17029   */\n      tag_360\n      jump\t// in\n    tag_416:\n        /* \"#utility.yul\":17004:17029   */\n      swap2\n      pop\n        /* \"#utility.yul\":17043:17063   */\n      tag_417\n        /* \"#utility.yul\":17061:17062   */\n      dup4\n        /* \"#utility.yul\":17043:17063   */\n      tag_360\n      jump\t// in\n    tag_417:\n        /* \"#utility.yul\":17038:17063   */\n      swap3\n      pop\n        /* \"#utility.yul\":17082:17083   */\n      dup3\n        /* \"#utility.yul\":17079:17080   */\n      dup3\n        /* \"#utility.yul\":17076:17084   */\n      lt\n        /* \"#utility.yul\":17073:17107   */\n      iszero\n      tag_418\n      jumpi\n        /* \"#utility.yul\":17087:17105   */\n      tag_419\n      tag_414\n      jump\t// in\n    tag_419:\n        /* \"#utility.yul\":17073:17107   */\n    tag_418:\n        /* \"#utility.yul\":17132:17133   */\n      dup3\n        /* \"#utility.yul\":17129:17130   */\n      dup3\n        /* \"#utility.yul\":17125:17134   */\n      sub\n        /* \"#utility.yul\":17117:17134   */\n      swap1\n      pop\n        /* \"#utility.yul\":16949:17140   */\n      swap3\n      swap2\n      pop\n      pop\n      jump\t// out\n        /* \"#utility.yul\":17146:17242   */\n    tag_269:\n        /* \"#utility.yul\":17183:17190   */\n      0x00\n        /* \"#utility.yul\":17212:17236   */\n      tag_421\n        /* \"#utility.yul\":17230:17235   */\n      dup3\n        /* \"#utility.yul\":17212:17236   */\n      tag_422\n      jump\t// in\n    tag_421:\n        /* \"#utility.yul\":17201:17236   */\n      swap1\n      pop\n        /* \"#utility.yul\":17146:17242   */\n      swap2\n      swap1\n      pop\n      jump\t// out\n        /* \"#utility.yul\":17248:17338   */\n    tag_304:\n        /* \"#utility.yul\":17282:17289   */\n      0x00\n        /* \"#utility.yul\":17325:17330   */\n      dup2\n        /* \"#utility.yul\":17318:17331   */\n      iszero\n        /* \"#utility.yul\":17311:17332   */\n      iszero\n        /* \"#utility.yul\":17300:17332   */\n      swap1\n      pop\n        /* \"#utility.yul\":17248:17338   */\n      swap2\n      swap1\n      pop\n      jump\t// out\n        /* \"#utility.yul\":17344:17470   */\n    tag_422:\n        /* \"#utility.yul\":17381:17388   */\n      0x00\n        /* \"#utility.yul\":17421:17463   */\n      0xffffffffffffffffffffffffffffffffffffffff\n        /* \"#utility.yul\":17414:17419   */\n      dup3\n        /* \"#utility.yul\":17410:17464   */\n      and\n        /* \"#utility.yul\":17399:17464   */\n      swap1\n      pop\n        /* \"#utility.yul\":17344:17470   */\n      swap2\n      swap1\n      pop\n      jump\t// out\n        /* \"#utility.yul\":17476:17553   */\n    tag_360:\n        /* \"#utility.yul\":17513:17520   */\n      0x00\n        /* \"#utility.yul\":17542:17547   */\n      dup2\n        /* \"#utility.yul\":17531:17547   */\n      swap1\n      pop\n        /* \"#utility.yul\":17476:17553   */\n      swap2\n      swap1\n      pop\n      jump\t// out\n        /* \"#utility.yul\":17559:17713   */\n    tag_225:\n        /* \"#utility.yul\":17643:17649   */\n      dup3\n        /* \"#utility.yul\":17638:17641   */\n      dup2\n        /* \"#utility.yul\":17633:17636   */\n      dup4\n        /* \"#utility.yul\":17620:17650   */\n      calldatacopy\n        /* \"#utility.yul\":17705:17706   */\n      0x00\n        /* \"#utility.yul\":17696:17702   */\n      dup4\n        /* \"#utility.yul\":17691:17694   */\n      dup4\n        /* \"#utility.yul\":17687:17703   */\n      add\n        /* \"#utility.yul\":17680:17707   */\n      mstore\n        /* \"#utility.yul\":17559:17713   */\n      pop\n      pop\n      pop\n      jump\t// out\n        /* \"#utility.yul\":17719:18026   */\n    tag_312:\n        /* \"#utility.yul\":17787:17788   */\n      0x00\n        /* \"#utility.yul\":17797:17910   */\n    tag_428:\n        /* \"#utility.yul\":17811:17817   */\n      dup4\n        /* \"#utility.yul\":17808:17809   */\n      dup2\n        /* \"#utility.yul\":17805:17818   */\n      lt\n        /* \"#utility.yul\":17797:17910   */\n      iszero\n      tag_430\n      jumpi\n        /* \"#utility.yul\":17896:17897   */\n      dup1\n        /* \"#utility.yul\":17891:17894   */\n      dup3\n        /* \"#utility.yul\":17887:17898   */\n      add\n        /* \"#utility.yul\":17881:17899   */\n      mload\n        /* \"#utility.yul\":17877:17878   */\n      dup2\n        /* \"#utility.yul\":17872:17875   */\n      dup5\n        /* \"#utility.yul\":17868:17879   */\n      add\n        /* \"#utility.yul\":17861:17900   */\n      mstore\n        /* \"#utility.yul\":17833:17835   */\n      0x20\n        /* \"#utility.yul\":17830:17831   */\n      dup2\n        /* \"#utility.yul\":17826:17836   */\n      add\n        /* \"#utility.yul\":17821:17836   */\n      swap1\n      pop\n        /* \"#utility.yul\":17797:17910   */\n      jump(tag_428)\n    tag_430:\n        /* \"#utility.yul\":17928:17934   */\n      dup4\n        /* \"#utility.yul\":17925:17926   */\n      dup2\n        /* \"#utility.yul\":17922:17935   */\n      gt\n        /* \"#utility.yul\":17919:18020   */\n      iszero\n      tag_431\n      jumpi\n        /* \"#utility.yul\":18008:18009   */\n      0x00\n        /* \"#utility.yul\":17999:18005   */\n      dup5\n        /* \"#utility.yul\":17994:17997   */\n      dup5\n        /* \"#utility.yul\":17990:18006   */\n      add\n        /* \"#utility.yul\":17983:18010   */\n      mstore\n        /* \"#utility.yul\":17919:18020   */\n    tag_431:\n        /* \"#utility.yul\":17768:18026   */\n      pop\n        /* \"#utility.yul\":17719:18026   */\n      pop\n      pop\n      pop\n      jump\t// out\n        /* \"#utility.yul\":18032:18352   */\n    tag_132:\n        /* \"#utility.yul\":18076:18082   */\n      0x00\n        /* \"#utility.yul\":18113:18114   */\n      0x02\n        /* \"#utility.yul\":18107:18111   */\n      dup3\n        /* \"#utility.yul\":18103:18115   */\n      div\n        /* \"#utility.yul\":18093:18115   */\n      swap1\n      pop\n        /* \"#utility.yul\":18160:18161   */\n      0x01\n        /* \"#utility.yul\":18154:18158   */\n      dup3\n        /* \"#utility.yul\":18150:18162   */\n      and\n        /* \"#utility.yul\":18181:18199   */\n      dup1\n        /* \"#utility.yul\":18171:18252   */\n      tag_433\n      jumpi\n        /* \"#utility.yul\":18237:18241   */\n      0x7f\n        /* \"#utility.yul\":18229:18235   */\n      dup3\n        /* \"#utility.yul\":18225:18242   */\n      and\n        /* \"#utility.yul\":18215:18242   */\n      swap2\n      pop\n        /* \"#utility.yul\":18171:18252   */\n    tag_433:\n        /* \"#utility.yul\":18299:18301   */\n      0x20\n        /* \"#utility.yul\":18291:18297   */\n      dup3\n        /* \"#utility.yul\":18288:18302   */\n      lt\n        /* \"#utility.yul\":18268:18286   */\n      dup2\n        /* \"#utility.yul\":18265:18303   */\n      eq\n        /* \"#utility.yul\":18262:18346   */\n      iszero\n      tag_434\n      jumpi\n        /* \"#utility.yul\":18318:18336   */\n      tag_435\n      tag_436\n      jump\t// in\n    tag_435:\n        /* \"#utility.yul\":18262:18346   */\n    tag_434:\n        /* \"#utility.yul\":18083:18352   */\n      pop\n        /* \"#utility.yul\":18032:18352   */\n      swap2\n      swap1\n      pop\n      jump\t// out\n        /* \"#utility.yul\":18358:18639   */\n    tag_391:\n        /* \"#utility.yul\":18441:18468   */\n      tag_438\n        /* \"#utility.yul\":18463:18467   */\n      dup3\n        /* \"#utility.yul\":18441:18468   */\n      tag_314\n      jump\t// in\n    tag_438:\n        /* \"#utility.yul\":18433:18439   */\n      dup2\n        /* \"#utility.yul\":18429:18469   */\n      add\n        /* \"#utility.yul\":18571:18577   */\n      dup2\n        /* \"#utility.yul\":18559:18569   */\n      dup2\n        /* \"#utility.yul\":18556:18578   */\n      lt\n        /* \"#utility.yul\":18535:18553   */\n      0xffffffffffffffff\n        /* \"#utility.yul\":18523:18533   */\n      dup3\n        /* \"#utility.yul\":18520:18554   */\n      gt\n        /* \"#utility.yul\":18517:18579   */\n      or\n        /* \"#utility.yul\":18514:18602   */\n      iszero\n      tag_439\n      jumpi\n        /* \"#utility.yul\":18582:18600   */\n      tag_440\n      tag_396\n      jump\t// in\n    tag_440:\n        /* \"#utility.yul\":18514:18602   */\n    tag_439:\n        /* \"#utility.yul\":18622:18632   */\n      dup1\n        /* \"#utility.yul\":18618:18620   */\n      0x40\n        /* \"#utility.yul\":18611:18633   */\n      mstore\n        /* \"#utility.yul\":18401:18639   */\n      pop\n        /* \"#utility.yul\":18358:18639   */\n      pop\n      pop\n      jump\t// out\n        /* \"#utility.yul\":18645:18878   */\n    tag_86:\n        /* \"#utility.yul\":18684:18687   */\n      0x00\n        /* \"#utility.yul\":18707:18731   */\n      tag_442\n        /* \"#utility.yul\":18725:18730   */\n      dup3\n        /* \"#utility.yul\":18707:18731   */\n      tag_360\n      jump\t// in\n    tag_442:\n        /* \"#utility.yul\":18698:18731   */\n      swap2\n      pop\n        /* \"#utility.yul\":18753:18819   */\n      0xffffffffffffffffffffffffffffffffffffffffffffffffffffffffffffffff\n        /* \"#utility.yul\":18746:18751   */\n      dup3\n        /* \"#utility.yul\":18743:18820   */\n      eq\n        /* \"#utility.yul\":18740:18843   */\n      iszero\n      tag_443\n      jumpi\n        /* \"#utility.yul\":18823:18841   */\n      tag_444\n      tag_414\n      jump\t// in\n    tag_444:\n        /* \"#utility.yul\":18740:18843   */\n    tag_443:\n        /* \"#utility.yul\":18870:18871   */\n      0x01\n        /* \"#utility.yul\":18863:18868   */\n      dup3\n        /* \"#utility.yul\":18859:18872   */\n      add\n        /* \"#utility.yul\":18852:18872   */\n      swap1\n      pop\n        /* \"#utility.yul\":18645:18878   */\n      swap2\n      swap1\n      pop\n      jump\t// out\n        /* \"#utility.yul\":18884:19064   */\n    tag_414:\n        /* \"#utility.yul\":18932:19009   */\n      0x4e487b7100000000000000000000000000000000000000000000000000000000\n        /* \"#utility.yul\":18929:18930   */\n      0x00\n        /* \"#utility.yul\":18922:19010   */\n      mstore\n        /* \"#utility.yul\":19029:19033   */\n      0x11\n        /* \"#utility.yul\":19026:19027   */\n      0x04\n        /* \"#utility.yul\":19019:19034   */\n      mstore\n        /* \"#utility.yul\":19053:19057   */\n      0x24\n        /* \"#utility.yul\":19050:19051   */\n      0x00\n        /* \"#utility.yul\":19043:19058   */\n      revert\n        /* \"#utility.yul\":19070:19250   */\n    tag_436:\n        /* \"#utility.yul\":19118:19195   */\n      0x4e487b7100000000000000000000000000000000000000000000000000000000\n        /* \"#utility.yul\":19115:19116   */\n      0x00\n        /* \"#utility.yul\":19108:19196   */\n      mstore\n        /* \"#utility.yul\":19215:19219   */\n      0x22\n        /* \"#utility.yul\":19212:19213   */\n      0x04\n        /* \"#utility.yul\":19205:19220   */\n      mstore\n        /* \"#utility.yul\":19239:19243   */\n      0x24\n        /* \"#utility.yul\":19236:19237   */\n      0x00\n        /* \"#utility.yul\":19229:19244   */\n      revert\n        /* \"#utility.yul\":19256:19436   */\n    tag_97:\n        /* \"#utility.yul\":19304:19381   */\n      0x4e487b7100000000000000000000000000000000000000000000000000000000\n        /* \"#utility.yul\":19301:19302   */\n      0x00\n        /* \"#utility.yul\":19294:19382   */\n      mstore\n        /* \"#utility.yul\":19401:19405   */\n      0x32\n        /* \"#utility.yul\":19398:19399   */\n      0x04\n        /* \"#utility.yul\":19391:19406   */\n      mstore\n        /* \"#utility.yul\":19425:19429   */\n      0x24\n        /* \"#utility.yul\":19422:19423   */\n      0x00\n        /* \"#utility.yul\":19415:19430   */\n      revert\n        /* \"#utility.yul\":19442:19622   */\n    tag_396:\n        /* \"#utility.yul\":19490:19567   */\n      0x4e487b7100000000000000000000000000000000000000000000000000000000\n        /* \"#utility.yul\":19487:19488   */\n      0x00\n        /* \"#utility.yul\":19480:19568   */\n      mstore\n        /* \"#utility.yul\":19587:19591   */\n      0x41\n        /* \"#utility.yul\":19584:19585   */\n      0x04\n        /* \"#utility.yul\":19577:19592   */\n      mstore\n        /* \"#utility.yul\":19611:19615   */\n      0x24\n        /* \"#utility.yul\":19608:19609   */\n      0x00\n        /* \"#utility.yul\":19601:19616   */\n      revert\n        /* \"#utility.yul\":19628:19745   */\n    tag_234:\n        /* \"#utility.yul\":19737:19738   */\n      0x00\n        /* \"#utility.yul\":19734:19735   */\n      dup1\n        /* \"#utility.yul\":19727:19739   */\n      revert\n        /* \"#utility.yul\":19751:19868   */\n    tag_223:\n        /* \"#utility.yul\":19860:19861   */\n      0x00\n        /* \"#utility.yul\":19857:19858   */\n      dup1\n        /* \"#utility.yul\":19850:19862   */\n      revert\n        /* \"#utility.yul\":19874:19991   */\n    tag_250:\n        /* \"#utility.yul\":19983:19984   */\n      0x00\n        /* \"#utility.yul\":19980:19981   */\n      dup1\n        /* \"#utility.yul\":19973:19985   */\n      revert\n        /* \"#utility.yul\":19997:20114   */\n    tag_243:\n        /* \"#utility.yul\":20106:20107   */\n      0x00\n        /* \"#utility.yul\":20103:20104   */\n      dup1\n        /* \"#utility.yul\":20096:20108   */\n      revert\n        /* \"#utility.yul\":20120:20222   */\n    tag_314:\n        /* \"#utility.yul\":20161:20167   */\n      0x00\n        /* \"#utility.yul\":20212:20214   */\n      0x1f\n        /* \"#utility.yul\":20208:20215   */\n      not\n        /* \"#utility.yul\":20203:20205   */\n      0x1f\n        /* \"#utility.yul\":20196:20201   */\n      dup4\n        /* \"#utility.yul\":20192:20206   */\n      add\n        /* \"#utility.yul\":20188:20216   */\n      and\n        /* \"#utility.yul\":20178:20216   */\n      swap1\n      pop\n        /* \"#utility.yul\":20120:20222   */\n      swap2\n      swap1\n      pop\n      jump\t// out\n        /* \"#utility.yul\":20228:20396   */\n    tag_320:\n        /* \"#utility.yul\":20368:20388   */\n      0x456c656374696f6e206973206163746976650000000000000000000000000000\n        /* \"#utility.yul\":20364:20365   */\n      0x00\n        /* \"#utility.yul\":20356:20362   */\n      dup3\n        /* \"#utility.yul\":20352:20366   */\n      add\n        /* \"#utility.yul\":20345:20389   */\n      mstore\n        /* \"#utility.yul\":20228:20396   */\n      pop\n      jump\t// out\n        /* \"#utility.yul\":20402:20627   */\n    tag_325:\n        /* \"#utility.yul\":20542:20576   */\n      0x4f776e61626c653a206e6577206f776e657220697320746865207a65726f2061\n        /* \"#utility.yul\":20538:20539   */\n      0x00\n        /* \"#utility.yul\":20530:20536   */\n      dup3\n        /* \"#utility.yul\":20526:20540   */\n      add\n        /* \"#utility.yul\":20519:20577   */\n      mstore\n        /* \"#utility.yul\":20611:20619   */\n      0x6464726573730000000000000000000000000000000000000000000000000000\n        /* \"#utility.yul\":20606:20608   */\n      0x20\n        /* \"#utility.yul\":20598:20604   */\n      dup3\n        /* \"#utility.yul\":20594:20609   */\n      add\n        /* \"#utility.yul\":20587:20620   */\n      mstore\n        /* \"#utility.yul\":20402:20627   */\n      pop\n      jump\t// out\n        /* \"#utility.yul\":20633:20877   */\n    tag_330:\n        /* \"#utility.yul\":20773:20807   */\n      0x596f7520617265206e6f7420656c696769626c6520746f20766f74652c206265\n        /* \"#utility.yul\":20769:20770   */\n      0x00\n        /* \"#utility.yul\":20761:20767   */\n      dup3\n        /* \"#utility.yul\":20757:20771   */\n      add\n        /* \"#utility.yul\":20750:20808   */\n      mstore\n        /* \"#utility.yul\":20842:20869   */\n      0x636175736520796f752061726520612063616e64696461746500000000000000\n        /* \"#utility.yul\":20837:20839   */\n      0x20\n        /* \"#utility.yul\":20829:20835   */\n      dup3\n        /* \"#utility.yul\":20825:20840   */\n      add\n        /* \"#utility.yul\":20818:20870   */\n      mstore\n        /* \"#utility.yul\":20633:20877   */\n      pop\n      jump\t// out\n        /* \"#utility.yul\":20883:21065   */\n    tag_335:\n        /* \"#utility.yul\":21023:21057   */\n      0x4f776e61626c653a2063616c6c6572206973206e6f7420746865206f776e6572\n        /* \"#utility.yul\":21019:21020   */\n      0x00\n        /* \"#utility.yul\":21011:21017   */\n      dup3\n        /* \"#utility.yul\":21007:21021   */\n      add\n        /* \"#utility.yul\":21000:21058   */\n      mstore\n        /* \"#utility.yul\":20883:21065   */\n      pop\n      jump\t// out\n        /* \"#utility.yul\":21071:21243   */\n    tag_340:\n        /* \"#utility.yul\":21211:21235   */\n      0x456c656374696f6e206973206e6f742061637469766500000000000000000000\n        /* \"#utility.yul\":21207:21208   */\n      0x00\n        /* \"#utility.yul\":21199:21205   */\n      dup3\n        /* \"#utility.yul\":21195:21209   */\n      add\n        /* \"#utility.yul\":21188:21236   */\n      mstore\n        /* \"#utility.yul\":21071:21243   */\n      pop\n      jump\t// out\n        /* \"#utility.yul\":21249:21421   */\n    tag_345:\n        /* \"#utility.yul\":21389:21413   */\n      0x596f75206861766520616c726561647920766f74656400000000000000000000\n        /* \"#utility.yul\":21385:21386   */\n      0x00\n        /* \"#utility.yul\":21377:21383   */\n      dup3\n        /* \"#utility.yul\":21373:21387   */\n      add\n        /* \"#utility.yul\":21366:21414   */\n      mstore\n        /* \"#utility.yul\":21249:21421   */\n      pop\n      jump\t// out\n        /* \"#utility.yul\":21427:21549   */\n    tag_229:\n        /* \"#utility.yul\":21500:21524   */\n      tag_461\n        /* \"#utility.yul\":21518:21523   */\n      dup2\n        /* \"#utility.yul\":21500:21524   */\n      tag_269\n      jump\t// in\n    tag_461:\n        /* \"#utility.yul\":21493:21498   */\n      dup2\n        /* \"#utility.yul\":21490:21525   */\n      eq\n        /* \"#utility.yul\":21480:21543   */\n      tag_462\n      jumpi\n        /* \"#utility.yul\":21539:21540   */\n      0x00\n        /* \"#utility.yul\":21536:21537   */\n      dup1\n        /* \"#utility.yul\":21529:21541   */\n      revert\n        /* \"#utility.yul\":21480:21543   */\n    tag_462:\n        /* \"#utility.yul\":21427:21549   */\n      pop\n      jump\t// out\n        /* \"#utility.yul\":21555:21677   */\n    tag_239:\n        /* \"#utility.yul\":21628:21652   */\n      tag_464\n        /* \"#utility.yul\":21646:21651   */\n      dup2\n        /* \"#utility.yul\":21628:21652   */\n      tag_360\n      jump\t// in\n    tag_464:\n        /* \"#utility.yul\":21621:21626   */\n      dup2\n        /* \"#utility.yul\":21618:21653   */\n      eq\n        /* \"#utility.yul\":21608:21671   */\n      tag_465\n      jumpi\n        /* \"#utility.yul\":21667:21668   */\n      0x00\n        /* \"#utility.yul\":21664:21665   */\n      dup1\n        /* \"#utility.yul\":21657:21669   */\n      revert\n        /* \"#utility.yul\":21608:21671   */\n    tag_465:\n        /* \"#utility.yul\":21555:21677   */\n      pop\n      jump\t// out\n\n    auxdata: 0xa264697066735822122029c12d584c9d1c2df2cee92b6ce3125dcc4b31745aff6ae4eb6db43690c4ed1464736f6c63430008070033\n}\n",
				"bytecode": {
					"linkReferences": {},
					"object": "60806040526201518060015562093a8060025560006003553480156200002457600080fd5b506200004562000039620000ba60201b60201c565b620000c260201b60201c565b600060066000600560008154809291906200006090620001ed565b91905055815260200190815260200160002090506001544262000084919062000186565b81600001819055506002546001546200009e919062000186565b42620000ab919062000186565b8160010181905550506200026a565b600033905090565b60008060009054906101000a900473ffffffffffffffffffffffffffffffffffffffff169050816000806101000a81548173ffffffffffffffffffffffffffffffffffffffff021916908373ffffffffffffffffffffffffffffffffffffffff1602179055508173ffffffffffffffffffffffffffffffffffffffff168173ffffffffffffffffffffffffffffffffffffffff167f8be0079c531659141344cd1fd0a4f28419497f9722a3daafe3b4186f6b6457e060405160405180910390a35050565b60006200019382620001e3565b9150620001a083620001e3565b9250827fffffffffffffffffffffffffffffffffffffffffffffffffffffffffffffffff03821115620001d857620001d76200023b565b5b828201905092915050565b6000819050919050565b6000620001fa82620001e3565b91507fffffffffffffffffffffffffffffffffffffffffffffffffffffffffffffffff82141562000230576200022f6200023b565b5b600182019050919050565b7f4e487b7100000000000000000000000000000000000000000000000000000000600052601160045260246000fd5b611cd6806200027a6000396000f3fe608060405234801561001057600080fd5b50600436106100cf5760003560e01c80639690382e1161008c578063eff41bb311610066578063eff41bb3146101d9578063f2fde38b14610209578063f49e323e14610225578063f7ae701514610255576100cf565b80639690382e14610195578063b0b0e68d146101b1578063e22712e8146101cf576100cf565b80630121b93f146100d457806333c5226b146100f05780635e6fef01146101205780635ed3291d14610151578063715018a61461016d5780638da5cb5b14610177575b600080fd5b6100ee60048036038101906100e991906112e8565b610271565b005b61010a60048036038101906101059190611243565b610457565b6040516101179190611659565b60405180910390f35b61013a600480360381019061013591906112e8565b610551565b604051610148929190611771565b60405180910390f35b61016b600480360381019061016691906112e8565b610575565b005b6101756105fb565b005b61017f610683565b60405161018c919061163e565b60405180910390f35b6101af60048036038101906101aa91906112e8565b6106ac565b005b6101b9610732565b6040516101c69190611734565b60405180910390f35b6101d76109f6565b005b6101f360048036038101906101ee9190611243565b610adb565b6040516102009190611659565b60405180910390f35b610223600480360381019061021e9190611243565b610bce565b005b61023f600480360381019061023a91906112e8565b610cc6565b60405161024c9190611756565b60405180910390f35b61026f600480360381019061026a9190611270565b610cde565b005b4260066000600160055461028591906118e5565b815260200190815260200160002060000154111580156102c95750426006600060016005546102b491906118e5565b81526020019081526020016000206001015410155b610308576040517f08c379a00000000000000000000000000000000000000000000000000000000081526004016102ff906116f4565b60405180910390fd5b6000151561031533610457565b151514610357576040517f08c379a000000000000000000000000000000000000000000000000000000000815260040161034e906116b4565b60405180910390fd5b6000151561036433610adb565b1515146103a6576040517f08c379a000000000000000000000000000000000000000000000000000000000815260040161039d90611714565b60405180910390fd5b6007600082815260200190815260200160002060008154809291906103ca90611a06565b91905055506006600060016005546103e291906118e5565b8152602001908152602001600020600301339080600181540180825580915050600190039060005260206000200160009091909190916101000a81548173ffffffffffffffffffffffffffffffffffffffff021916908373ffffffffffffffffffffffffffffffffffffffff16021790555050565b600080600090505b60066000600160055461047291906118e5565b815260200190815260200160002060020180549050811015610546578273ffffffffffffffffffffffffffffffffffffffff166006600060016005546104b891906118e5565b815260200190815260200160002060020182815481106104db576104da611aad565b5b906000526020600020906004020160030160009054906101000a900473ffffffffffffffffffffffffffffffffffffffff1673ffffffffffffffffffffffffffffffffffffffff16141561053357600191505061054c565b808061053e90611a06565b91505061045f565b50600090505b919050565b60066020528060005260406000206000915090508060000154908060010154905082565b61057d610f85565b73ffffffffffffffffffffffffffffffffffffffff1661059b610683565b73ffffffffffffffffffffffffffffffffffffffff16146105f1576040517f08c379a00000000000000000000000000000000000000000000000000000000081526004016105e8906116d4565b60405180910390fd5b8060028190555050565b610603610f85565b73ffffffffffffffffffffffffffffffffffffffff16610621610683565b73ffffffffffffffffffffffffffffffffffffffff1614610677576040517f08c379a000000000000000000000000000000000000000000000000000000000815260040161066e906116d4565b60405180910390fd5b6106816000610f8d565b565b60008060009054906101000a900473ffffffffffffffffffffffffffffffffffffffff16905090565b6106b4610f85565b73ffffffffffffffffffffffffffffffffffffffff166106d2610683565b73ffffffffffffffffffffffffffffffffffffffff1614610728576040517f08c379a000000000000000000000000000000000000000000000000000000000815260040161071f906116d4565b60405180910390fd5b8060028190555050565b61073a611051565b600060066000600160055461074f91906118e5565b8152602001908152602001600020604051806080016040529081600082015481526020016001820154815260200160028201805480602002602001604051908101604052809291908181526020016000905b828210156109575783829060005260206000209060040201604051806080016040529081600082015481526020016001820180546107de906119a3565b80601f016020809104026020016040519081016040528092919081815260200182805461080a906119a3565b80156108575780601f1061082c57610100808354040283529160200191610857565b820191906000526020600020905b81548152906001019060200180831161083a57829003601f168201915b50505050508152602001600282018054610870906119a3565b80601f016020809104026020016040519081016040528092919081815260200182805461089c906119a3565b80156108e95780601f106108be576101008083540402835291602001916108e9565b820191906000526020600020905b8154815290600101906020018083116108cc57829003601f168201915b505050505081526020016003820160009054906101000a900473ffffffffffffffffffffffffffffffffffffffff1673ffffffffffffffffffffffffffffffffffffffff1673ffffffffffffffffffffffffffffffffffffffff1681525050815260200190600101906107a1565b505050508152602001600382018054806020026020016040519081016040528092919081815260200182805480156109e457602002820191906000526020600020905b8160009054906101000a900473ffffffffffffffffffffffffffffffffffffffff1673ffffffffffffffffffffffffffffffffffffffff168152602001906001019080831161099a575b50505050508152505090508091505090565b6109fe610f85565b73ffffffffffffffffffffffffffffffffffffffff16610a1c610683565b73ffffffffffffffffffffffffffffffffffffffff1614610a72576040517f08c379a0000000000000000000000000000000000000000000000000000000008152600401610a69906116d4565b60405180910390fd5b60006006600060056000815480929190610a8b90611a06565b919050558152602001908152602001600020905060015442610aad919061188f565b8160000181905550600254600154610ac5919061188f565b42610ad0919061188f565b816001018190555050565b600080600090505b600660006001600554610af691906118e5565b815260200190815260200160002060030180549050811015610bc3578273ffffffffffffffffffffffffffffffffffffffff16600660006001600554610b3c91906118e5565b81526020019081526020016000206003018281548110610b5f57610b5e611aad565b5b9060005260206000200160009054906101000a900473ffffffffffffffffffffffffffffffffffffffff1673ffffffffffffffffffffffffffffffffffffffff161415610bb0576001915050610bc9565b8080610bbb90611a06565b915050610ae3565b50600090505b919050565b610bd6610f85565b73ffffffffffffffffffffffffffffffffffffffff16610bf4610683565b73ffffffffffffffffffffffffffffffffffffffff1614610c4a576040517f08c379a0000000000000000000000000000000000000000000000000000000008152600401610c41906116d4565b60405180910390fd5b600073ffffffffffffffffffffffffffffffffffffffff168173ffffffffffffffffffffffffffffffffffffffff161415610cba576040517f08c379a0000000000000000000000000000000000000000000000000000000008152600401610cb190611694565b60405180910390fd5b610cc381610f8d565b50565b60076020528060005260406000206000915090505481565b42600660006001600554610cf291906118e5565b8152602001908152602001600020600001541180610d33575042600660006001600554610d1f91906118e5565b815260200190815260200160002060010154105b610d72576040517f08c379a0000000000000000000000000000000000000000000000000000000008152600401610d6990611674565b60405180910390fd5b6000604051806080016040528060036000815480929190610d9290611a06565b9190505581526020018481526020018381526020013373ffffffffffffffffffffffffffffffffffffffff168152509050806004600083600001518152602001908152602001600020600082015181600001556020820151816001019080519060200190610e01929190611079565b506040820151816002019080519060200190610e1e929190611079565b5060608201518160030160006101000a81548173ffffffffffffffffffffffffffffffffffffffff021916908373ffffffffffffffffffffffffffffffffffffffff160217905550905050600660006001600554610e7c91906118e5565b815260200190815260200160002060020160046000836000015181526020019081526020016000209080600181540180825580915050600190039060005260206000209060040201600090919091909150600082015481600001556001820181600101908054610eeb906119a3565b610ef69291906110ff565b506002820181600201908054610f0b906119a3565b610f169291906110ff565b506003820160009054906101000a900473ffffffffffffffffffffffffffffffffffffffff168160030160006101000a81548173ffffffffffffffffffffffffffffffffffffffff021916908373ffffffffffffffffffffffffffffffffffffffff1602179055505050505050565b600033905090565b60008060009054906101000a900473ffffffffffffffffffffffffffffffffffffffff169050816000806101000a81548173ffffffffffffffffffffffffffffffffffffffff021916908373ffffffffffffffffffffffffffffffffffffffff1602179055508173ffffffffffffffffffffffffffffffffffffffff168173ffffffffffffffffffffffffffffffffffffffff167f8be0079c531659141344cd1fd0a4f28419497f9722a3daafe3b4186f6b6457e060405160405180910390a35050565b6040518060800160405280600081526020016000815260200160608152602001606081525090565b828054611085906119a3565b90600052602060002090601f0160209004810192826110a757600085556110ee565b82601f106110c057805160ff19168380011785556110ee565b828001600101855582156110ee579182015b828111156110ed5782518255916020019190600101906110d2565b5b5090506110fb919061118c565b5090565b82805461110b906119a3565b90600052602060002090601f01602090048101928261112d576000855561117b565b82601f1061113e578054855561117b565b8280016001018555821561117b57600052602060002091601f016020900482015b8281111561117a57825482559160010191906001019061115f565b5b509050611188919061118c565b5090565b5b808211156111a557600081600090555060010161118d565b5090565b60006111bc6111b7846117bf565b61179a565b9050828152602081018484840111156111d8576111d7611b10565b5b6111e3848285611961565b509392505050565b6000813590506111fa81611c72565b92915050565b600082601f83011261121557611214611b0b565b5b81356112258482602086016111a9565b91505092915050565b60008135905061123d81611c89565b92915050565b60006020828403121561125957611258611b1a565b5b6000611267848285016111eb565b91505092915050565b6000806040838503121561128757611286611b1a565b5b600083013567ffffffffffffffff8111156112a5576112a4611b15565b5b6112b185828601611200565b925050602083013567ffffffffffffffff8111156112d2576112d1611b15565b5b6112de85828601611200565b9150509250929050565b6000602082840312156112fe576112fd611b1a565b5b600061130c8482850161122e565b91505092915050565b60006113218383611341565b60208301905092915050565b6000611339838361154c565b905092915050565b61134a81611919565b82525050565b61135981611919565b82525050565b600061136a82611810565b611374818561184b565b935061137f836117f0565b8060005b838110156113b05781516113978882611315565b97506113a283611831565b925050600181019050611383565b5085935050505092915050565b60006113c88261181b565b6113d2818561185c565b9350836020820285016113e485611800565b8060005b858110156114205784840389528151611401858261132d565b945061140c8361183e565b925060208a019950506001810190506113e8565b50829750879550505050505092915050565b61143b8161192b565b82525050565b600061144c82611826565b611456818561186d565b9350611466818560208601611970565b61146f81611b1f565b840191505092915050565b600061148760128361187e565b915061149282611b30565b602082019050919050565b60006114aa60268361187e565b91506114b582611b59565b604082019050919050565b60006114cd60398361187e565b91506114d882611ba8565b604082019050919050565b60006114f060208361187e565b91506114fb82611bf7565b602082019050919050565b600061151360168361187e565b915061151e82611c20565b602082019050919050565b600061153660168361187e565b915061154182611c49565b602082019050919050565b60006080830160008301516115646000860182611620565b506020830151848203602086015261157c8282611441565b915050604083015184820360408601526115968282611441565b91505060608301516115ab6060860182611341565b508091505092915050565b60006080830160008301516115ce6000860182611620565b5060208301516115e16020860182611620565b50604083015184820360408601526115f982826113bd565b91505060608301518482036060860152611613828261135f565b9150508091505092915050565b61162981611957565b82525050565b61163881611957565b82525050565b60006020820190506116536000830184611350565b92915050565b600060208201905061166e6000830184611432565b92915050565b6000602082019050818103600083015261168d8161147a565b9050919050565b600060208201905081810360008301526116ad8161149d565b9050919050565b600060208201905081810360008301526116cd816114c0565b9050919050565b600060208201905081810360008301526116ed816114e3565b9050919050565b6000602082019050818103600083015261170d81611506565b9050919050565b6000602082019050818103600083015261172d81611529565b9050919050565b6000602082019050818103600083015261174e81846115b6565b905092915050565b600060208201905061176b600083018461162f565b92915050565b6000604082019050611786600083018561162f565b611793602083018461162f565b9392505050565b60006117a46117b5565b90506117b082826119d5565b919050565b6000604051905090565b600067ffffffffffffffff8211156117da576117d9611adc565b5b6117e382611b1f565b9050602081019050919050565b6000819050602082019050919050565b6000819050602082019050919050565b600081519050919050565b600081519050919050565b600081519050919050565b6000602082019050919050565b6000602082019050919050565b600082825260208201905092915050565b600082825260208201905092915050565b600082825260208201905092915050565b600082825260208201905092915050565b600061189a82611957565b91506118a583611957565b9250827fffffffffffffffffffffffffffffffffffffffffffffffffffffffffffffffff038211156118da576118d9611a4f565b5b828201905092915050565b60006118f082611957565b91506118fb83611957565b92508282101561190e5761190d611a4f565b5b828203905092915050565b600061192482611937565b9050919050565b60008115159050919050565b600073ffffffffffffffffffffffffffffffffffffffff82169050919050565b6000819050919050565b82818337600083830152505050565b60005b8381101561198e578082015181840152602081019050611973565b8381111561199d576000848401525b50505050565b600060028204905060018216806119bb57607f821691505b602082108114156119cf576119ce611a7e565b5b50919050565b6119de82611b1f565b810181811067ffffffffffffffff821117156119fd576119fc611adc565b5b80604052505050565b6000611a1182611957565b91507fffffffffffffffffffffffffffffffffffffffffffffffffffffffffffffffff821415611a4457611a43611a4f565b5b600182019050919050565b7f4e487b7100000000000000000000000000000000000000000000000000000000600052601160045260246000fd5b7f4e487b7100000000000000000000000000000000000000000000000000000000600052602260045260246000fd5b7f4e487b7100000000000000000000000000000000000000000000000000000000600052603260045260246000fd5b7f4e487b7100000000000000000000000000000000000000000000000000000000600052604160045260246000fd5b600080fd5b600080fd5b600080fd5b600080fd5b6000601f19601f8301169050919050565b7f456c656374696f6e206973206163746976650000000000000000000000000000600082015250565b7f4f776e61626c653a206e6577206f776e657220697320746865207a65726f206160008201527f6464726573730000000000000000000000000000000000000000000000000000602082015250565b7f596f7520617265206e6f7420656c696769626c6520746f20766f74652c20626560008201527f636175736520796f752061726520612063616e64696461746500000000000000602082015250565b7f4f776e61626c653a2063616c6c6572206973206e6f7420746865206f776e6572600082015250565b7f456c656374696f6e206973206e6f742061637469766500000000000000000000600082015250565b7f596f75206861766520616c726561647920766f74656400000000000000000000600082015250565b611c7b81611919565b8114611c8657600080fd5b50565b611c9281611957565b8114611c9d57600080fd5b5056fea264697066735822122029c12d584c9d1c2df2cee92b6ce3125dcc4b31745aff6ae4eb6db43690c4ed1464736f6c63430008070033",
					"opcodes": "PUSH1 0x80 PUSH1 0x40 MSTORE PUSH3 0x15180 PUSH1 0x1 SSTORE PUSH3 0x93A80 PUSH1 0x2 SSTORE PUSH1 0x0 PUSH1 0x3 SSTORE CALLVALUE DUP1 ISZERO PUSH3 0x24 JUMPI PUSH1 0x0 DUP1 REVERT JUMPDEST POP PUSH3 0x45 PUSH3 0x39 PUSH3 0xBA PUSH1 0x20 SHL PUSH1 0x20 SHR JUMP JUMPDEST PUSH3 0xC2 PUSH1 0x20 SHL PUSH1 0x20 SHR JUMP JUMPDEST PUSH1 0x0 PUSH1 0x6 PUSH1 0x0 PUSH1 0x5 PUSH1 0x0 DUP2 SLOAD DUP1 SWAP3 SWAP2 SWAP1 PUSH3 0x60 SWAP1 PUSH3 0x1ED JUMP JUMPDEST SWAP2 SWAP1 POP SSTORE DUP2 MSTORE PUSH1 0x20 ADD SWAP1 DUP2 MSTORE PUSH1 0x20 ADD PUSH1 0x0 KECCAK256 SWAP1 POP PUSH1 0x1 SLOAD TIMESTAMP PUSH3 0x84 SWAP2 SWAP1 PUSH3 0x186 JUMP JUMPDEST DUP2 PUSH1 0x0 ADD DUP2 SWAP1 SSTORE POP PUSH1 0x2 SLOAD PUSH1 0x1 SLOAD PUSH3 0x9E SWAP2 SWAP1 PUSH3 0x186 JUMP JUMPDEST TIMESTAMP PUSH3 0xAB SWAP2 SWAP1 PUSH3 0x186 JUMP JUMPDEST DUP2 PUSH1 0x1 ADD DUP2 SWAP1 SSTORE POP POP PUSH3 0x26A JUMP JUMPDEST PUSH1 0x0 CALLER SWAP1 POP SWAP1 JUMP JUMPDEST PUSH1 0x0 DUP1 PUSH1 0x0 SWAP1 SLOAD SWAP1 PUSH2 0x100 EXP SWAP1 DIV PUSH20 0xFFFFFFFFFFFFFFFFFFFFFFFFFFFFFFFFFFFFFFFF AND SWAP1 POP DUP2 PUSH1 0x0 DUP1 PUSH2 0x100 EXP DUP2 SLOAD DUP2 PUSH20 0xFFFFFFFFFFFFFFFFFFFFFFFFFFFFFFFFFFFFFFFF MUL NOT AND SWAP1 DUP4 PUSH20 0xFFFFFFFFFFFFFFFFFFFFFFFFFFFFFFFFFFFFFFFF AND MUL OR SWAP1 SSTORE POP DUP2 PUSH20 0xFFFFFFFFFFFFFFFFFFFFFFFFFFFFFFFFFFFFFFFF AND DUP2 PUSH20 0xFFFFFFFFFFFFFFFFFFFFFFFFFFFFFFFFFFFFFFFF AND PUSH32 0x8BE0079C531659141344CD1FD0A4F28419497F9722A3DAAFE3B4186F6B6457E0 PUSH1 0x40 MLOAD PUSH1 0x40 MLOAD DUP1 SWAP2 SUB SWAP1 LOG3 POP POP JUMP JUMPDEST PUSH1 0x0 PUSH3 0x193 DUP3 PUSH3 0x1E3 JUMP JUMPDEST SWAP2 POP PUSH3 0x1A0 DUP4 PUSH3 0x1E3 JUMP JUMPDEST SWAP3 POP DUP3 PUSH32 0xFFFFFFFFFFFFFFFFFFFFFFFFFFFFFFFFFFFFFFFFFFFFFFFFFFFFFFFFFFFFFFFF SUB DUP3 GT ISZERO PUSH3 0x1D8 JUMPI PUSH3 0x1D7 PUSH3 0x23B JUMP JUMPDEST JUMPDEST DUP3 DUP3 ADD SWAP1 POP SWAP3 SWAP2 POP POP JUMP JUMPDEST PUSH1 0x0 DUP2 SWAP1 POP SWAP2 SWAP1 POP JUMP JUMPDEST PUSH1 0x0 PUSH3 0x1FA DUP3 PUSH3 0x1E3 JUMP JUMPDEST SWAP2 POP PUSH32 0xFFFFFFFFFFFFFFFFFFFFFFFFFFFFFFFFFFFFFFFFFFFFFFFFFFFFFFFFFFFFFFFF DUP3 EQ ISZERO PUSH3 0x230 JUMPI PUSH3 0x22F PUSH3 0x23B JUMP JUMPDEST JUMPDEST PUSH1 0x1 DUP3 ADD SWAP1 POP SWAP2 SWAP1 POP JUMP JUMPDEST PUSH32 0x4E487B7100000000000000000000000000000000000000000000000000000000 PUSH1 0x0 MSTORE PUSH1 0x11 PUSH1 0x4 MSTORE PUSH1 0x24 PUSH1 0x0 REVERT JUMPDEST PUSH2 0x1CD6 DUP1 PUSH3 0x27A PUSH1 0x0 CODECOPY PUSH1 0x0 RETURN INVALID PUSH1 0x80 PUSH1 0x40 MSTORE CALLVALUE DUP1 ISZERO PUSH2 0x10 JUMPI PUSH1 0x0 DUP1 REVERT JUMPDEST POP PUSH1 0x4 CALLDATASIZE LT PUSH2 0xCF JUMPI PUSH1 0x0 CALLDATALOAD PUSH1 0xE0 SHR DUP1 PUSH4 0x9690382E GT PUSH2 0x8C JUMPI DUP1 PUSH4 0xEFF41BB3 GT PUSH2 0x66 JUMPI DUP1 PUSH4 0xEFF41BB3 EQ PUSH2 0x1D9 JUMPI DUP1 PUSH4 0xF2FDE38B EQ PUSH2 0x209 JUMPI DUP1 PUSH4 0xF49E323E EQ PUSH2 0x225 JUMPI DUP1 PUSH4 0xF7AE7015 EQ PUSH2 0x255 JUMPI PUSH2 0xCF JUMP JUMPDEST DUP1 PUSH4 0x9690382E EQ PUSH2 0x195 JUMPI DUP1 PUSH4 0xB0B0E68D EQ PUSH2 0x1B1 JUMPI DUP1 PUSH4 0xE22712E8 EQ PUSH2 0x1CF JUMPI PUSH2 0xCF JUMP JUMPDEST DUP1 PUSH4 0x121B93F EQ PUSH2 0xD4 JUMPI DUP1 PUSH4 0x33C5226B EQ PUSH2 0xF0 JUMPI DUP1 PUSH4 0x5E6FEF01 EQ PUSH2 0x120 JUMPI DUP1 PUSH4 0x5ED3291D EQ PUSH2 0x151 JUMPI DUP1 PUSH4 0x715018A6 EQ PUSH2 0x16D JUMPI DUP1 PUSH4 0x8DA5CB5B EQ PUSH2 0x177 JUMPI JUMPDEST PUSH1 0x0 DUP1 REVERT JUMPDEST PUSH2 0xEE PUSH1 0x4 DUP1 CALLDATASIZE SUB DUP2 ADD SWAP1 PUSH2 0xE9 SWAP2 SWAP1 PUSH2 0x12E8 JUMP JUMPDEST PUSH2 0x271 JUMP JUMPDEST STOP JUMPDEST PUSH2 0x10A PUSH1 0x4 DUP1 CALLDATASIZE SUB DUP2 ADD SWAP1 PUSH2 0x105 SWAP2 SWAP1 PUSH2 0x1243 JUMP JUMPDEST PUSH2 0x457 JUMP JUMPDEST PUSH1 0x40 MLOAD PUSH2 0x117 SWAP2 SWAP1 PUSH2 0x1659 JUMP JUMPDEST PUSH1 0x40 MLOAD DUP1 SWAP2 SUB SWAP1 RETURN JUMPDEST PUSH2 0x13A PUSH1 0x4 DUP1 CALLDATASIZE SUB DUP2 ADD SWAP1 PUSH2 0x135 SWAP2 SWAP1 PUSH2 0x12E8 JUMP JUMPDEST PUSH2 0x551 JUMP JUMPDEST PUSH1 0x40 MLOAD PUSH2 0x148 SWAP3 SWAP2 SWAP1 PUSH2 0x1771 JUMP JUMPDEST PUSH1 0x40 MLOAD DUP1 SWAP2 SUB SWAP1 RETURN JUMPDEST PUSH2 0x16B PUSH1 0x4 DUP1 CALLDATASIZE SUB DUP2 ADD SWAP1 PUSH2 0x166 SWAP2 SWAP1 PUSH2 0x12E8 JUMP JUMPDEST PUSH2 0x575 JUMP JUMPDEST STOP JUMPDEST PUSH2 0x175 PUSH2 0x5FB JUMP JUMPDEST STOP JUMPDEST PUSH2 0x17F PUSH2 0x683 JUMP JUMPDEST PUSH1 0x40 MLOAD PUSH2 0x18C SWAP2 SWAP1 PUSH2 0x163E JUMP JUMPDEST PUSH1 0x40 MLOAD DUP1 SWAP2 SUB SWAP1 RETURN JUMPDEST PUSH2 0x1AF PUSH1 0x4 DUP1 CALLDATASIZE SUB DUP2 ADD SWAP1 PUSH2 0x1AA SWAP2 SWAP1 PUSH2 0x12E8 JUMP JUMPDEST PUSH2 0x6AC JUMP JUMPDEST STOP JUMPDEST PUSH2 0x1B9 PUSH2 0x732 JUMP JUMPDEST PUSH1 0x40 MLOAD PUSH2 0x1C6 SWAP2 SWAP1 PUSH2 0x1734 JUMP JUMPDEST PUSH1 0x40 MLOAD DUP1 SWAP2 SUB SWAP1 RETURN JUMPDEST PUSH2 0x1D7 PUSH2 0x9F6 JUMP JUMPDEST STOP JUMPDEST PUSH2 0x1F3 PUSH1 0x4 DUP1 CALLDATASIZE SUB DUP2 ADD SWAP1 PUSH2 0x1EE SWAP2 SWAP1 PUSH2 0x1243 JUMP JUMPDEST PUSH2 0xADB JUMP JUMPDEST PUSH1 0x40 MLOAD PUSH2 0x200 SWAP2 SWAP1 PUSH2 0x1659 JUMP JUMPDEST PUSH1 0x40 MLOAD DUP1 SWAP2 SUB SWAP1 RETURN JUMPDEST PUSH2 0x223 PUSH1 0x4 DUP1 CALLDATASIZE SUB DUP2 ADD SWAP1 PUSH2 0x21E SWAP2 SWAP1 PUSH2 0x1243 JUMP JUMPDEST PUSH2 0xBCE JUMP JUMPDEST STOP JUMPDEST PUSH2 0x23F PUSH1 0x4 DUP1 CALLDATASIZE SUB DUP2 ADD SWAP1 PUSH2 0x23A SWAP2 SWAP1 PUSH2 0x12E8 JUMP JUMPDEST PUSH2 0xCC6 JUMP JUMPDEST PUSH1 0x40 MLOAD PUSH2 0x24C SWAP2 SWAP1 PUSH2 0x1756 JUMP JUMPDEST PUSH1 0x40 MLOAD DUP1 SWAP2 SUB SWAP1 RETURN JUMPDEST PUSH2 0x26F PUSH1 0x4 DUP1 CALLDATASIZE SUB DUP2 ADD SWAP1 PUSH2 0x26A SWAP2 SWAP1 PUSH2 0x1270 JUMP JUMPDEST PUSH2 0xCDE JUMP JUMPDEST STOP JUMPDEST TIMESTAMP PUSH1 0x6 PUSH1 0x0 PUSH1 0x1 PUSH1 0x5 SLOAD PUSH2 0x285 SWAP2 SWAP1 PUSH2 0x18E5 JUMP JUMPDEST DUP2 MSTORE PUSH1 0x20 ADD SWAP1 DUP2 MSTORE PUSH1 0x20 ADD PUSH1 0x0 KECCAK256 PUSH1 0x0 ADD SLOAD GT ISZERO DUP1 ISZERO PUSH2 0x2C9 JUMPI POP TIMESTAMP PUSH1 0x6 PUSH1 0x0 PUSH1 0x1 PUSH1 0x5 SLOAD PUSH2 0x2B4 SWAP2 SWAP1 PUSH2 0x18E5 JUMP JUMPDEST DUP2 MSTORE PUSH1 0x20 ADD SWAP1 DUP2 MSTORE PUSH1 0x20 ADD PUSH1 0x0 KECCAK256 PUSH1 0x1 ADD SLOAD LT ISZERO JUMPDEST PUSH2 0x308 JUMPI PUSH1 0x40 MLOAD PUSH32 0x8C379A000000000000000000000000000000000000000000000000000000000 DUP2 MSTORE PUSH1 0x4 ADD PUSH2 0x2FF SWAP1 PUSH2 0x16F4 JUMP JUMPDEST PUSH1 0x40 MLOAD DUP1 SWAP2 SUB SWAP1 REVERT JUMPDEST PUSH1 0x0 ISZERO ISZERO PUSH2 0x315 CALLER PUSH2 0x457 JUMP JUMPDEST ISZERO ISZERO EQ PUSH2 0x357 JUMPI PUSH1 0x40 MLOAD PUSH32 0x8C379A000000000000000000000000000000000000000000000000000000000 DUP2 MSTORE PUSH1 0x4 ADD PUSH2 0x34E SWAP1 PUSH2 0x16B4 JUMP JUMPDEST PUSH1 0x40 MLOAD DUP1 SWAP2 SUB SWAP1 REVERT JUMPDEST PUSH1 0x0 ISZERO ISZERO PUSH2 0x364 CALLER PUSH2 0xADB JUMP JUMPDEST ISZERO ISZERO EQ PUSH2 0x3A6 JUMPI PUSH1 0x40 MLOAD PUSH32 0x8C379A000000000000000000000000000000000000000000000000000000000 DUP2 MSTORE PUSH1 0x4 ADD PUSH2 0x39D SWAP1 PUSH2 0x1714 JUMP JUMPDEST PUSH1 0x40 MLOAD DUP1 SWAP2 SUB SWAP1 REVERT JUMPDEST PUSH1 0x7 PUSH1 0x0 DUP3 DUP2 MSTORE PUSH1 0x20 ADD SWAP1 DUP2 MSTORE PUSH1 0x20 ADD PUSH1 0x0 KECCAK256 PUSH1 0x0 DUP2 SLOAD DUP1 SWAP3 SWAP2 SWAP1 PUSH2 0x3CA SWAP1 PUSH2 0x1A06 JUMP JUMPDEST SWAP2 SWAP1 POP SSTORE POP PUSH1 0x6 PUSH1 0x0 PUSH1 0x1 PUSH1 0x5 SLOAD PUSH2 0x3E2 SWAP2 SWAP1 PUSH2 0x18E5 JUMP JUMPDEST DUP2 MSTORE PUSH1 0x20 ADD SWAP1 DUP2 MSTORE PUSH1 0x20 ADD PUSH1 0x0 KECCAK256 PUSH1 0x3 ADD CALLER SWAP1 DUP1 PUSH1 0x1 DUP2 SLOAD ADD DUP1 DUP3 SSTORE DUP1 SWAP2 POP POP PUSH1 0x1 SWAP1 SUB SWAP1 PUSH1 0x0 MSTORE PUSH1 0x20 PUSH1 0x0 KECCAK256 ADD PUSH1 0x0 SWAP1 SWAP2 SWAP1 SWAP2 SWAP1 SWAP2 PUSH2 0x100 EXP DUP2 SLOAD DUP2 PUSH20 0xFFFFFFFFFFFFFFFFFFFFFFFFFFFFFFFFFFFFFFFF MUL NOT AND SWAP1 DUP4 PUSH20 0xFFFFFFFFFFFFFFFFFFFFFFFFFFFFFFFFFFFFFFFF AND MUL OR SWAP1 SSTORE POP POP JUMP JUMPDEST PUSH1 0x0 DUP1 PUSH1 0x0 SWAP1 POP JUMPDEST PUSH1 0x6 PUSH1 0x0 PUSH1 0x1 PUSH1 0x5 SLOAD PUSH2 0x472 SWAP2 SWAP1 PUSH2 0x18E5 JUMP JUMPDEST DUP2 MSTORE PUSH1 0x20 ADD SWAP1 DUP2 MSTORE PUSH1 0x20 ADD PUSH1 0x0 KECCAK256 PUSH1 0x2 ADD DUP1 SLOAD SWAP1 POP DUP2 LT ISZERO PUSH2 0x546 JUMPI DUP3 PUSH20 0xFFFFFFFFFFFFFFFFFFFFFFFFFFFFFFFFFFFFFFFF AND PUSH1 0x6 PUSH1 0x0 PUSH1 0x1 PUSH1 0x5 SLOAD PUSH2 0x4B8 SWAP2 SWAP1 PUSH2 0x18E5 JUMP JUMPDEST DUP2 MSTORE PUSH1 0x20 ADD SWAP1 DUP2 MSTORE PUSH1 0x20 ADD PUSH1 0x0 KECCAK256 PUSH1 0x2 ADD DUP3 DUP2 SLOAD DUP2 LT PUSH2 0x4DB JUMPI PUSH2 0x4DA PUSH2 0x1AAD JUMP JUMPDEST JUMPDEST SWAP1 PUSH1 0x0 MSTORE PUSH1 0x20 PUSH1 0x0 KECCAK256 SWAP1 PUSH1 0x4 MUL ADD PUSH1 0x3 ADD PUSH1 0x0 SWAP1 SLOAD SWAP1 PUSH2 0x100 EXP SWAP1 DIV PUSH20 0xFFFFFFFFFFFFFFFFFFFFFFFFFFFFFFFFFFFFFFFF AND PUSH20 0xFFFFFFFFFFFFFFFFFFFFFFFFFFFFFFFFFFFFFFFF AND EQ ISZERO PUSH2 0x533 JUMPI PUSH1 0x1 SWAP2 POP POP PUSH2 0x54C JUMP JUMPDEST DUP1 DUP1 PUSH2 0x53E SWAP1 PUSH2 0x1A06 JUMP JUMPDEST SWAP2 POP POP PUSH2 0x45F JUMP JUMPDEST POP PUSH1 0x0 SWAP1 POP JUMPDEST SWAP2 SWAP1 POP JUMP JUMPDEST PUSH1 0x6 PUSH1 0x20 MSTORE DUP1 PUSH1 0x0 MSTORE PUSH1 0x40 PUSH1 0x0 KECCAK256 PUSH1 0x0 SWAP2 POP SWAP1 POP DUP1 PUSH1 0x0 ADD SLOAD SWAP1 DUP1 PUSH1 0x1 ADD SLOAD SWAP1 POP DUP3 JUMP JUMPDEST PUSH2 0x57D PUSH2 0xF85 JUMP JUMPDEST PUSH20 0xFFFFFFFFFFFFFFFFFFFFFFFFFFFFFFFFFFFFFFFF AND PUSH2 0x59B PUSH2 0x683 JUMP JUMPDEST PUSH20 0xFFFFFFFFFFFFFFFFFFFFFFFFFFFFFFFFFFFFFFFF AND EQ PUSH2 0x5F1 JUMPI PUSH1 0x40 MLOAD PUSH32 0x8C379A000000000000000000000000000000000000000000000000000000000 DUP2 MSTORE PUSH1 0x4 ADD PUSH2 0x5E8 SWAP1 PUSH2 0x16D4 JUMP JUMPDEST PUSH1 0x40 MLOAD DUP1 SWAP2 SUB SWAP1 REVERT JUMPDEST DUP1 PUSH1 0x2 DUP2 SWAP1 SSTORE POP POP JUMP JUMPDEST PUSH2 0x603 PUSH2 0xF85 JUMP JUMPDEST PUSH20 0xFFFFFFFFFFFFFFFFFFFFFFFFFFFFFFFFFFFFFFFF AND PUSH2 0x621 PUSH2 0x683 JUMP JUMPDEST PUSH20 0xFFFFFFFFFFFFFFFFFFFFFFFFFFFFFFFFFFFFFFFF AND EQ PUSH2 0x677 JUMPI PUSH1 0x40 MLOAD PUSH32 0x8C379A000000000000000000000000000000000000000000000000000000000 DUP2 MSTORE PUSH1 0x4 ADD PUSH2 0x66E SWAP1 PUSH2 0x16D4 JUMP JUMPDEST PUSH1 0x40 MLOAD DUP1 SWAP2 SUB SWAP1 REVERT JUMPDEST PUSH2 0x681 PUSH1 0x0 PUSH2 0xF8D JUMP JUMPDEST JUMP JUMPDEST PUSH1 0x0 DUP1 PUSH1 0x0 SWAP1 SLOAD SWAP1 PUSH2 0x100 EXP SWAP1 DIV PUSH20 0xFFFFFFFFFFFFFFFFFFFFFFFFFFFFFFFFFFFFFFFF AND SWAP1 POP SWAP1 JUMP JUMPDEST PUSH2 0x6B4 PUSH2 0xF85 JUMP JUMPDEST PUSH20 0xFFFFFFFFFFFFFFFFFFFFFFFFFFFFFFFFFFFFFFFF AND PUSH2 0x6D2 PUSH2 0x683 JUMP JUMPDEST PUSH20 0xFFFFFFFFFFFFFFFFFFFFFFFFFFFFFFFFFFFFFFFF AND EQ PUSH2 0x728 JUMPI PUSH1 0x40 MLOAD PUSH32 0x8C379A000000000000000000000000000000000000000000000000000000000 DUP2 MSTORE PUSH1 0x4 ADD PUSH2 0x71F SWAP1 PUSH2 0x16D4 JUMP JUMPDEST PUSH1 0x40 MLOAD DUP1 SWAP2 SUB SWAP1 REVERT JUMPDEST DUP1 PUSH1 0x2 DUP2 SWAP1 SSTORE POP POP JUMP JUMPDEST PUSH2 0x73A PUSH2 0x1051 JUMP JUMPDEST PUSH1 0x0 PUSH1 0x6 PUSH1 0x0 PUSH1 0x1 PUSH1 0x5 SLOAD PUSH2 0x74F SWAP2 SWAP1 PUSH2 0x18E5 JUMP JUMPDEST DUP2 MSTORE PUSH1 0x20 ADD SWAP1 DUP2 MSTORE PUSH1 0x20 ADD PUSH1 0x0 KECCAK256 PUSH1 0x40 MLOAD DUP1 PUSH1 0x80 ADD PUSH1 0x40 MSTORE SWAP1 DUP2 PUSH1 0x0 DUP3 ADD SLOAD DUP2 MSTORE PUSH1 0x20 ADD PUSH1 0x1 DUP3 ADD SLOAD DUP2 MSTORE PUSH1 0x20 ADD PUSH1 0x2 DUP3 ADD DUP1 SLOAD DUP1 PUSH1 0x20 MUL PUSH1 0x20 ADD PUSH1 0x40 MLOAD SWAP1 DUP2 ADD PUSH1 0x40 MSTORE DUP1 SWAP3 SWAP2 SWAP1 DUP2 DUP2 MSTORE PUSH1 0x20 ADD PUSH1 0x0 SWAP1 JUMPDEST DUP3 DUP3 LT ISZERO PUSH2 0x957 JUMPI DUP4 DUP3 SWAP1 PUSH1 0x0 MSTORE PUSH1 0x20 PUSH1 0x0 KECCAK256 SWAP1 PUSH1 0x4 MUL ADD PUSH1 0x40 MLOAD DUP1 PUSH1 0x80 ADD PUSH1 0x40 MSTORE SWAP1 DUP2 PUSH1 0x0 DUP3 ADD SLOAD DUP2 MSTORE PUSH1 0x20 ADD PUSH1 0x1 DUP3 ADD DUP1 SLOAD PUSH2 0x7DE SWAP1 PUSH2 0x19A3 JUMP JUMPDEST DUP1 PUSH1 0x1F ADD PUSH1 0x20 DUP1 SWAP2 DIV MUL PUSH1 0x20 ADD PUSH1 0x40 MLOAD SWAP1 DUP2 ADD PUSH1 0x40 MSTORE DUP1 SWAP3 SWAP2 SWAP1 DUP2 DUP2 MSTORE PUSH1 0x20 ADD DUP3 DUP1 SLOAD PUSH2 0x80A SWAP1 PUSH2 0x19A3 JUMP JUMPDEST DUP1 ISZERO PUSH2 0x857 JUMPI DUP1 PUSH1 0x1F LT PUSH2 0x82C JUMPI PUSH2 0x100 DUP1 DUP4 SLOAD DIV MUL DUP4 MSTORE SWAP2 PUSH1 0x20 ADD SWAP2 PUSH2 0x857 JUMP JUMPDEST DUP3 ADD SWAP2 SWAP1 PUSH1 0x0 MSTORE PUSH1 0x20 PUSH1 0x0 KECCAK256 SWAP1 JUMPDEST DUP2 SLOAD DUP2 MSTORE SWAP1 PUSH1 0x1 ADD SWAP1 PUSH1 0x20 ADD DUP1 DUP4 GT PUSH2 0x83A JUMPI DUP3 SWAP1 SUB PUSH1 0x1F AND DUP3 ADD SWAP2 JUMPDEST POP POP POP POP POP DUP2 MSTORE PUSH1 0x20 ADD PUSH1 0x2 DUP3 ADD DUP1 SLOAD PUSH2 0x870 SWAP1 PUSH2 0x19A3 JUMP JUMPDEST DUP1 PUSH1 0x1F ADD PUSH1 0x20 DUP1 SWAP2 DIV MUL PUSH1 0x20 ADD PUSH1 0x40 MLOAD SWAP1 DUP2 ADD PUSH1 0x40 MSTORE DUP1 SWAP3 SWAP2 SWAP1 DUP2 DUP2 MSTORE PUSH1 0x20 ADD DUP3 DUP1 SLOAD PUSH2 0x89C SWAP1 PUSH2 0x19A3 JUMP JUMPDEST DUP1 ISZERO PUSH2 0x8E9 JUMPI DUP1 PUSH1 0x1F LT PUSH2 0x8BE JUMPI PUSH2 0x100 DUP1 DUP4 SLOAD DIV MUL DUP4 MSTORE SWAP2 PUSH1 0x20 ADD SWAP2 PUSH2 0x8E9 JUMP JUMPDEST DUP3 ADD SWAP2 SWAP1 PUSH1 0x0 MSTORE PUSH1 0x20 PUSH1 0x0 KECCAK256 SWAP1 JUMPDEST DUP2 SLOAD DUP2 MSTORE SWAP1 PUSH1 0x1 ADD SWAP1 PUSH1 0x20 ADD DUP1 DUP4 GT PUSH2 0x8CC JUMPI DUP3 SWAP1 SUB PUSH1 0x1F AND DUP3 ADD SWAP2 JUMPDEST POP POP POP POP POP DUP2 MSTORE PUSH1 0x20 ADD PUSH1 0x3 DUP3 ADD PUSH1 0x0 SWAP1 SLOAD SWAP1 PUSH2 0x100 EXP SWAP1 DIV PUSH20 0xFFFFFFFFFFFFFFFFFFFFFFFFFFFFFFFFFFFFFFFF AND PUSH20 0xFFFFFFFFFFFFFFFFFFFFFFFFFFFFFFFFFFFFFFFF AND PUSH20 0xFFFFFFFFFFFFFFFFFFFFFFFFFFFFFFFFFFFFFFFF AND DUP2 MSTORE POP POP DUP2 MSTORE PUSH1 0x20 ADD SWAP1 PUSH1 0x1 ADD SWAP1 PUSH2 0x7A1 JUMP JUMPDEST POP POP POP POP DUP2 MSTORE PUSH1 0x20 ADD PUSH1 0x3 DUP3 ADD DUP1 SLOAD DUP1 PUSH1 0x20 MUL PUSH1 0x20 ADD PUSH1 0x40 MLOAD SWAP1 DUP2 ADD PUSH1 0x40 MSTORE DUP1 SWAP3 SWAP2 SWAP1 DUP2 DUP2 MSTORE PUSH1 0x20 ADD DUP3 DUP1 SLOAD DUP1 ISZERO PUSH2 0x9E4 JUMPI PUSH1 0x20 MUL DUP3 ADD SWAP2 SWAP1 PUSH1 0x0 MSTORE PUSH1 0x20 PUSH1 0x0 KECCAK256 SWAP1 JUMPDEST DUP2 PUSH1 0x0 SWAP1 SLOAD SWAP1 PUSH2 0x100 EXP SWAP1 DIV PUSH20 0xFFFFFFFFFFFFFFFFFFFFFFFFFFFFFFFFFFFFFFFF AND PUSH20 0xFFFFFFFFFFFFFFFFFFFFFFFFFFFFFFFFFFFFFFFF AND DUP2 MSTORE PUSH1 0x20 ADD SWAP1 PUSH1 0x1 ADD SWAP1 DUP1 DUP4 GT PUSH2 0x99A JUMPI JUMPDEST POP POP POP POP POP DUP2 MSTORE POP POP SWAP1 POP DUP1 SWAP2 POP POP SWAP1 JUMP JUMPDEST PUSH2 0x9FE PUSH2 0xF85 JUMP JUMPDEST PUSH20 0xFFFFFFFFFFFFFFFFFFFFFFFFFFFFFFFFFFFFFFFF AND PUSH2 0xA1C PUSH2 0x683 JUMP JUMPDEST PUSH20 0xFFFFFFFFFFFFFFFFFFFFFFFFFFFFFFFFFFFFFFFF AND EQ PUSH2 0xA72 JUMPI PUSH1 0x40 MLOAD PUSH32 0x8C379A000000000000000000000000000000000000000000000000000000000 DUP2 MSTORE PUSH1 0x4 ADD PUSH2 0xA69 SWAP1 PUSH2 0x16D4 JUMP JUMPDEST PUSH1 0x40 MLOAD DUP1 SWAP2 SUB SWAP1 REVERT JUMPDEST PUSH1 0x0 PUSH1 0x6 PUSH1 0x0 PUSH1 0x5 PUSH1 0x0 DUP2 SLOAD DUP1 SWAP3 SWAP2 SWAP1 PUSH2 0xA8B SWAP1 PUSH2 0x1A06 JUMP JUMPDEST SWAP2 SWAP1 POP SSTORE DUP2 MSTORE PUSH1 0x20 ADD SWAP1 DUP2 MSTORE PUSH1 0x20 ADD PUSH1 0x0 KECCAK256 SWAP1 POP PUSH1 0x1 SLOAD TIMESTAMP PUSH2 0xAAD SWAP2 SWAP1 PUSH2 0x188F JUMP JUMPDEST DUP2 PUSH1 0x0 ADD DUP2 SWAP1 SSTORE POP PUSH1 0x2 SLOAD PUSH1 0x1 SLOAD PUSH2 0xAC5 SWAP2 SWAP1 PUSH2 0x188F JUMP JUMPDEST TIMESTAMP PUSH2 0xAD0 SWAP2 SWAP1 PUSH2 0x188F JUMP JUMPDEST DUP2 PUSH1 0x1 ADD DUP2 SWAP1 SSTORE POP POP JUMP JUMPDEST PUSH1 0x0 DUP1 PUSH1 0x0 SWAP1 POP JUMPDEST PUSH1 0x6 PUSH1 0x0 PUSH1 0x1 PUSH1 0x5 SLOAD PUSH2 0xAF6 SWAP2 SWAP1 PUSH2 0x18E5 JUMP JUMPDEST DUP2 MSTORE PUSH1 0x20 ADD SWAP1 DUP2 MSTORE PUSH1 0x20 ADD PUSH1 0x0 KECCAK256 PUSH1 0x3 ADD DUP1 SLOAD SWAP1 POP DUP2 LT ISZERO PUSH2 0xBC3 JUMPI DUP3 PUSH20 0xFFFFFFFFFFFFFFFFFFFFFFFFFFFFFFFFFFFFFFFF AND PUSH1 0x6 PUSH1 0x0 PUSH1 0x1 PUSH1 0x5 SLOAD PUSH2 0xB3C SWAP2 SWAP1 PUSH2 0x18E5 JUMP JUMPDEST DUP2 MSTORE PUSH1 0x20 ADD SWAP1 DUP2 MSTORE PUSH1 0x20 ADD PUSH1 0x0 KECCAK256 PUSH1 0x3 ADD DUP3 DUP2 SLOAD DUP2 LT PUSH2 0xB5F JUMPI PUSH2 0xB5E PUSH2 0x1AAD JUMP JUMPDEST JUMPDEST SWAP1 PUSH1 0x0 MSTORE PUSH1 0x20 PUSH1 0x0 KECCAK256 ADD PUSH1 0x0 SWAP1 SLOAD SWAP1 PUSH2 0x100 EXP SWAP1 DIV PUSH20 0xFFFFFFFFFFFFFFFFFFFFFFFFFFFFFFFFFFFFFFFF AND PUSH20 0xFFFFFFFFFFFFFFFFFFFFFFFFFFFFFFFFFFFFFFFF AND EQ ISZERO PUSH2 0xBB0 JUMPI PUSH1 0x1 SWAP2 POP POP PUSH2 0xBC9 JUMP JUMPDEST DUP1 DUP1 PUSH2 0xBBB SWAP1 PUSH2 0x1A06 JUMP JUMPDEST SWAP2 POP POP PUSH2 0xAE3 JUMP JUMPDEST POP PUSH1 0x0 SWAP1 POP JUMPDEST SWAP2 SWAP1 POP JUMP JUMPDEST PUSH2 0xBD6 PUSH2 0xF85 JUMP JUMPDEST PUSH20 0xFFFFFFFFFFFFFFFFFFFFFFFFFFFFFFFFFFFFFFFF AND PUSH2 0xBF4 PUSH2 0x683 JUMP JUMPDEST PUSH20 0xFFFFFFFFFFFFFFFFFFFFFFFFFFFFFFFFFFFFFFFF AND EQ PUSH2 0xC4A JUMPI PUSH1 0x40 MLOAD PUSH32 0x8C379A000000000000000000000000000000000000000000000000000000000 DUP2 MSTORE PUSH1 0x4 ADD PUSH2 0xC41 SWAP1 PUSH2 0x16D4 JUMP JUMPDEST PUSH1 0x40 MLOAD DUP1 SWAP2 SUB SWAP1 REVERT JUMPDEST PUSH1 0x0 PUSH20 0xFFFFFFFFFFFFFFFFFFFFFFFFFFFFFFFFFFFFFFFF AND DUP2 PUSH20 0xFFFFFFFFFFFFFFFFFFFFFFFFFFFFFFFFFFFFFFFF AND EQ ISZERO PUSH2 0xCBA JUMPI PUSH1 0x40 MLOAD PUSH32 0x8C379A000000000000000000000000000000000000000000000000000000000 DUP2 MSTORE PUSH1 0x4 ADD PUSH2 0xCB1 SWAP1 PUSH2 0x1694 JUMP JUMPDEST PUSH1 0x40 MLOAD DUP1 SWAP2 SUB SWAP1 REVERT JUMPDEST PUSH2 0xCC3 DUP2 PUSH2 0xF8D JUMP JUMPDEST POP JUMP JUMPDEST PUSH1 0x7 PUSH1 0x20 MSTORE DUP1 PUSH1 0x0 MSTORE PUSH1 0x40 PUSH1 0x0 KECCAK256 PUSH1 0x0 SWAP2 POP SWAP1 POP SLOAD DUP2 JUMP JUMPDEST TIMESTAMP PUSH1 0x6 PUSH1 0x0 PUSH1 0x1 PUSH1 0x5 SLOAD PUSH2 0xCF2 SWAP2 SWAP1 PUSH2 0x18E5 JUMP JUMPDEST DUP2 MSTORE PUSH1 0x20 ADD SWAP1 DUP2 MSTORE PUSH1 0x20 ADD PUSH1 0x0 KECCAK256 PUSH1 0x0 ADD SLOAD GT DUP1 PUSH2 0xD33 JUMPI POP TIMESTAMP PUSH1 0x6 PUSH1 0x0 PUSH1 0x1 PUSH1 0x5 SLOAD PUSH2 0xD1F SWAP2 SWAP1 PUSH2 0x18E5 JUMP JUMPDEST DUP2 MSTORE PUSH1 0x20 ADD SWAP1 DUP2 MSTORE PUSH1 0x20 ADD PUSH1 0x0 KECCAK256 PUSH1 0x1 ADD SLOAD LT JUMPDEST PUSH2 0xD72 JUMPI PUSH1 0x40 MLOAD PUSH32 0x8C379A000000000000000000000000000000000000000000000000000000000 DUP2 MSTORE PUSH1 0x4 ADD PUSH2 0xD69 SWAP1 PUSH2 0x1674 JUMP JUMPDEST PUSH1 0x40 MLOAD DUP1 SWAP2 SUB SWAP1 REVERT JUMPDEST PUSH1 0x0 PUSH1 0x40 MLOAD DUP1 PUSH1 0x80 ADD PUSH1 0x40 MSTORE DUP1 PUSH1 0x3 PUSH1 0x0 DUP2 SLOAD DUP1 SWAP3 SWAP2 SWAP1 PUSH2 0xD92 SWAP1 PUSH2 0x1A06 JUMP JUMPDEST SWAP2 SWAP1 POP SSTORE DUP2 MSTORE PUSH1 0x20 ADD DUP5 DUP2 MSTORE PUSH1 0x20 ADD DUP4 DUP2 MSTORE PUSH1 0x20 ADD CALLER PUSH20 0xFFFFFFFFFFFFFFFFFFFFFFFFFFFFFFFFFFFFFFFF AND DUP2 MSTORE POP SWAP1 POP DUP1 PUSH1 0x4 PUSH1 0x0 DUP4 PUSH1 0x0 ADD MLOAD DUP2 MSTORE PUSH1 0x20 ADD SWAP1 DUP2 MSTORE PUSH1 0x20 ADD PUSH1 0x0 KECCAK256 PUSH1 0x0 DUP3 ADD MLOAD DUP2 PUSH1 0x0 ADD SSTORE PUSH1 0x20 DUP3 ADD MLOAD DUP2 PUSH1 0x1 ADD SWAP1 DUP1 MLOAD SWAP1 PUSH1 0x20 ADD SWAP1 PUSH2 0xE01 SWAP3 SWAP2 SWAP1 PUSH2 0x1079 JUMP JUMPDEST POP PUSH1 0x40 DUP3 ADD MLOAD DUP2 PUSH1 0x2 ADD SWAP1 DUP1 MLOAD SWAP1 PUSH1 0x20 ADD SWAP1 PUSH2 0xE1E SWAP3 SWAP2 SWAP1 PUSH2 0x1079 JUMP JUMPDEST POP PUSH1 0x60 DUP3 ADD MLOAD DUP2 PUSH1 0x3 ADD PUSH1 0x0 PUSH2 0x100 EXP DUP2 SLOAD DUP2 PUSH20 0xFFFFFFFFFFFFFFFFFFFFFFFFFFFFFFFFFFFFFFFF MUL NOT AND SWAP1 DUP4 PUSH20 0xFFFFFFFFFFFFFFFFFFFFFFFFFFFFFFFFFFFFFFFF AND MUL OR SWAP1 SSTORE POP SWAP1 POP POP PUSH1 0x6 PUSH1 0x0 PUSH1 0x1 PUSH1 0x5 SLOAD PUSH2 0xE7C SWAP2 SWAP1 PUSH2 0x18E5 JUMP JUMPDEST DUP2 MSTORE PUSH1 0x20 ADD SWAP1 DUP2 MSTORE PUSH1 0x20 ADD PUSH1 0x0 KECCAK256 PUSH1 0x2 ADD PUSH1 0x4 PUSH1 0x0 DUP4 PUSH1 0x0 ADD MLOAD DUP2 MSTORE PUSH1 0x20 ADD SWAP1 DUP2 MSTORE PUSH1 0x20 ADD PUSH1 0x0 KECCAK256 SWAP1 DUP1 PUSH1 0x1 DUP2 SLOAD ADD DUP1 DUP3 SSTORE DUP1 SWAP2 POP POP PUSH1 0x1 SWAP1 SUB SWAP1 PUSH1 0x0 MSTORE PUSH1 0x20 PUSH1 0x0 KECCAK256 SWAP1 PUSH1 0x4 MUL ADD PUSH1 0x0 SWAP1 SWAP2 SWAP1 SWAP2 SWAP1 SWAP2 POP PUSH1 0x0 DUP3 ADD SLOAD DUP2 PUSH1 0x0 ADD SSTORE PUSH1 0x1 DUP3 ADD DUP2 PUSH1 0x1 ADD SWAP1 DUP1 SLOAD PUSH2 0xEEB SWAP1 PUSH2 0x19A3 JUMP JUMPDEST PUSH2 0xEF6 SWAP3 SWAP2 SWAP1 PUSH2 0x10FF JUMP JUMPDEST POP PUSH1 0x2 DUP3 ADD DUP2 PUSH1 0x2 ADD SWAP1 DUP1 SLOAD PUSH2 0xF0B SWAP1 PUSH2 0x19A3 JUMP JUMPDEST PUSH2 0xF16 SWAP3 SWAP2 SWAP1 PUSH2 0x10FF JUMP JUMPDEST POP PUSH1 0x3 DUP3 ADD PUSH1 0x0 SWAP1 SLOAD SWAP1 PUSH2 0x100 EXP SWAP1 DIV PUSH20 0xFFFFFFFFFFFFFFFFFFFFFFFFFFFFFFFFFFFFFFFF AND DUP2 PUSH1 0x3 ADD PUSH1 0x0 PUSH2 0x100 EXP DUP2 SLOAD DUP2 PUSH20 0xFFFFFFFFFFFFFFFFFFFFFFFFFFFFFFFFFFFFFFFF MUL NOT AND SWAP1 DUP4 PUSH20 0xFFFFFFFFFFFFFFFFFFFFFFFFFFFFFFFFFFFFFFFF AND MUL OR SWAP1 SSTORE POP POP POP POP POP POP JUMP JUMPDEST PUSH1 0x0 CALLER SWAP1 POP SWAP1 JUMP JUMPDEST PUSH1 0x0 DUP1 PUSH1 0x0 SWAP1 SLOAD SWAP1 PUSH2 0x100 EXP SWAP1 DIV PUSH20 0xFFFFFFFFFFFFFFFFFFFFFFFFFFFFFFFFFFFFFFFF AND SWAP1 POP DUP2 PUSH1 0x0 DUP1 PUSH2 0x100 EXP DUP2 SLOAD DUP2 PUSH20 0xFFFFFFFFFFFFFFFFFFFFFFFFFFFFFFFFFFFFFFFF MUL NOT AND SWAP1 DUP4 PUSH20 0xFFFFFFFFFFFFFFFFFFFFFFFFFFFFFFFFFFFFFFFF AND MUL OR SWAP1 SSTORE POP DUP2 PUSH20 0xFFFFFFFFFFFFFFFFFFFFFFFFFFFFFFFFFFFFFFFF AND DUP2 PUSH20 0xFFFFFFFFFFFFFFFFFFFFFFFFFFFFFFFFFFFFFFFF AND PUSH32 0x8BE0079C531659141344CD1FD0A4F28419497F9722A3DAAFE3B4186F6B6457E0 PUSH1 0x40 MLOAD PUSH1 0x40 MLOAD DUP1 SWAP2 SUB SWAP1 LOG3 POP POP JUMP JUMPDEST PUSH1 0x40 MLOAD DUP1 PUSH1 0x80 ADD PUSH1 0x40 MSTORE DUP1 PUSH1 0x0 DUP2 MSTORE PUSH1 0x20 ADD PUSH1 0x0 DUP2 MSTORE PUSH1 0x20 ADD PUSH1 0x60 DUP2 MSTORE PUSH1 0x20 ADD PUSH1 0x60 DUP2 MSTORE POP SWAP1 JUMP JUMPDEST DUP3 DUP1 SLOAD PUSH2 0x1085 SWAP1 PUSH2 0x19A3 JUMP JUMPDEST SWAP1 PUSH1 0x0 MSTORE PUSH1 0x20 PUSH1 0x0 KECCAK256 SWAP1 PUSH1 0x1F ADD PUSH1 0x20 SWAP1 DIV DUP2 ADD SWAP3 DUP3 PUSH2 0x10A7 JUMPI PUSH1 0x0 DUP6 SSTORE PUSH2 0x10EE JUMP JUMPDEST DUP3 PUSH1 0x1F LT PUSH2 0x10C0 JUMPI DUP1 MLOAD PUSH1 0xFF NOT AND DUP4 DUP1 ADD OR DUP6 SSTORE PUSH2 0x10EE JUMP JUMPDEST DUP3 DUP1 ADD PUSH1 0x1 ADD DUP6 SSTORE DUP3 ISZERO PUSH2 0x10EE JUMPI SWAP2 DUP3 ADD JUMPDEST DUP3 DUP2 GT ISZERO PUSH2 0x10ED JUMPI DUP3 MLOAD DUP3 SSTORE SWAP2 PUSH1 0x20 ADD SWAP2 SWAP1 PUSH1 0x1 ADD SWAP1 PUSH2 0x10D2 JUMP JUMPDEST JUMPDEST POP SWAP1 POP PUSH2 0x10FB SWAP2 SWAP1 PUSH2 0x118C JUMP JUMPDEST POP SWAP1 JUMP JUMPDEST DUP3 DUP1 SLOAD PUSH2 0x110B SWAP1 PUSH2 0x19A3 JUMP JUMPDEST SWAP1 PUSH1 0x0 MSTORE PUSH1 0x20 PUSH1 0x0 KECCAK256 SWAP1 PUSH1 0x1F ADD PUSH1 0x20 SWAP1 DIV DUP2 ADD SWAP3 DUP3 PUSH2 0x112D JUMPI PUSH1 0x0 DUP6 SSTORE PUSH2 0x117B JUMP JUMPDEST DUP3 PUSH1 0x1F LT PUSH2 0x113E JUMPI DUP1 SLOAD DUP6 SSTORE PUSH2 0x117B JUMP JUMPDEST DUP3 DUP1 ADD PUSH1 0x1 ADD DUP6 SSTORE DUP3 ISZERO PUSH2 0x117B JUMPI PUSH1 0x0 MSTORE PUSH1 0x20 PUSH1 0x0 KECCAK256 SWAP2 PUSH1 0x1F ADD PUSH1 0x20 SWAP1 DIV DUP3 ADD JUMPDEST DUP3 DUP2 GT ISZERO PUSH2 0x117A JUMPI DUP3 SLOAD DUP3 SSTORE SWAP2 PUSH1 0x1 ADD SWAP2 SWAP1 PUSH1 0x1 ADD SWAP1 PUSH2 0x115F JUMP JUMPDEST JUMPDEST POP SWAP1 POP PUSH2 0x1188 SWAP2 SWAP1 PUSH2 0x118C JUMP JUMPDEST POP SWAP1 JUMP JUMPDEST JUMPDEST DUP1 DUP3 GT ISZERO PUSH2 0x11A5 JUMPI PUSH1 0x0 DUP2 PUSH1 0x0 SWAP1 SSTORE POP PUSH1 0x1 ADD PUSH2 0x118D JUMP JUMPDEST POP SWAP1 JUMP JUMPDEST PUSH1 0x0 PUSH2 0x11BC PUSH2 0x11B7 DUP5 PUSH2 0x17BF JUMP JUMPDEST PUSH2 0x179A JUMP JUMPDEST SWAP1 POP DUP3 DUP2 MSTORE PUSH1 0x20 DUP2 ADD DUP5 DUP5 DUP5 ADD GT ISZERO PUSH2 0x11D8 JUMPI PUSH2 0x11D7 PUSH2 0x1B10 JUMP JUMPDEST JUMPDEST PUSH2 0x11E3 DUP5 DUP3 DUP6 PUSH2 0x1961 JUMP JUMPDEST POP SWAP4 SWAP3 POP POP POP JUMP JUMPDEST PUSH1 0x0 DUP2 CALLDATALOAD SWAP1 POP PUSH2 0x11FA DUP2 PUSH2 0x1C72 JUMP JUMPDEST SWAP3 SWAP2 POP POP JUMP JUMPDEST PUSH1 0x0 DUP3 PUSH1 0x1F DUP4 ADD SLT PUSH2 0x1215 JUMPI PUSH2 0x1214 PUSH2 0x1B0B JUMP JUMPDEST JUMPDEST DUP2 CALLDATALOAD PUSH2 0x1225 DUP5 DUP3 PUSH1 0x20 DUP7 ADD PUSH2 0x11A9 JUMP JUMPDEST SWAP2 POP POP SWAP3 SWAP2 POP POP JUMP JUMPDEST PUSH1 0x0 DUP2 CALLDATALOAD SWAP1 POP PUSH2 0x123D DUP2 PUSH2 0x1C89 JUMP JUMPDEST SWAP3 SWAP2 POP POP JUMP JUMPDEST PUSH1 0x0 PUSH1 0x20 DUP3 DUP5 SUB SLT ISZERO PUSH2 0x1259 JUMPI PUSH2 0x1258 PUSH2 0x1B1A JUMP JUMPDEST JUMPDEST PUSH1 0x0 PUSH2 0x1267 DUP5 DUP3 DUP6 ADD PUSH2 0x11EB JUMP JUMPDEST SWAP2 POP POP SWAP3 SWAP2 POP POP JUMP JUMPDEST PUSH1 0x0 DUP1 PUSH1 0x40 DUP4 DUP6 SUB SLT ISZERO PUSH2 0x1287 JUMPI PUSH2 0x1286 PUSH2 0x1B1A JUMP JUMPDEST JUMPDEST PUSH1 0x0 DUP4 ADD CALLDATALOAD PUSH8 0xFFFFFFFFFFFFFFFF DUP2 GT ISZERO PUSH2 0x12A5 JUMPI PUSH2 0x12A4 PUSH2 0x1B15 JUMP JUMPDEST JUMPDEST PUSH2 0x12B1 DUP6 DUP3 DUP7 ADD PUSH2 0x1200 JUMP JUMPDEST SWAP3 POP POP PUSH1 0x20 DUP4 ADD CALLDATALOAD PUSH8 0xFFFFFFFFFFFFFFFF DUP2 GT ISZERO PUSH2 0x12D2 JUMPI PUSH2 0x12D1 PUSH2 0x1B15 JUMP JUMPDEST JUMPDEST PUSH2 0x12DE DUP6 DUP3 DUP7 ADD PUSH2 0x1200 JUMP JUMPDEST SWAP2 POP POP SWAP3 POP SWAP3 SWAP1 POP JUMP JUMPDEST PUSH1 0x0 PUSH1 0x20 DUP3 DUP5 SUB SLT ISZERO PUSH2 0x12FE JUMPI PUSH2 0x12FD PUSH2 0x1B1A JUMP JUMPDEST JUMPDEST PUSH1 0x0 PUSH2 0x130C DUP5 DUP3 DUP6 ADD PUSH2 0x122E JUMP JUMPDEST SWAP2 POP POP SWAP3 SWAP2 POP POP JUMP JUMPDEST PUSH1 0x0 PUSH2 0x1321 DUP4 DUP4 PUSH2 0x1341 JUMP JUMPDEST PUSH1 0x20 DUP4 ADD SWAP1 POP SWAP3 SWAP2 POP POP JUMP JUMPDEST PUSH1 0x0 PUSH2 0x1339 DUP4 DUP4 PUSH2 0x154C JUMP JUMPDEST SWAP1 POP SWAP3 SWAP2 POP POP JUMP JUMPDEST PUSH2 0x134A DUP2 PUSH2 0x1919 JUMP JUMPDEST DUP3 MSTORE POP POP JUMP JUMPDEST PUSH2 0x1359 DUP2 PUSH2 0x1919 JUMP JUMPDEST DUP3 MSTORE POP POP JUMP JUMPDEST PUSH1 0x0 PUSH2 0x136A DUP3 PUSH2 0x1810 JUMP JUMPDEST PUSH2 0x1374 DUP2 DUP6 PUSH2 0x184B JUMP JUMPDEST SWAP4 POP PUSH2 0x137F DUP4 PUSH2 0x17F0 JUMP JUMPDEST DUP1 PUSH1 0x0 JUMPDEST DUP4 DUP2 LT ISZERO PUSH2 0x13B0 JUMPI DUP2 MLOAD PUSH2 0x1397 DUP9 DUP3 PUSH2 0x1315 JUMP JUMPDEST SWAP8 POP PUSH2 0x13A2 DUP4 PUSH2 0x1831 JUMP JUMPDEST SWAP3 POP POP PUSH1 0x1 DUP2 ADD SWAP1 POP PUSH2 0x1383 JUMP JUMPDEST POP DUP6 SWAP4 POP POP POP POP SWAP3 SWAP2 POP POP JUMP JUMPDEST PUSH1 0x0 PUSH2 0x13C8 DUP3 PUSH2 0x181B JUMP JUMPDEST PUSH2 0x13D2 DUP2 DUP6 PUSH2 0x185C JUMP JUMPDEST SWAP4 POP DUP4 PUSH1 0x20 DUP3 MUL DUP6 ADD PUSH2 0x13E4 DUP6 PUSH2 0x1800 JUMP JUMPDEST DUP1 PUSH1 0x0 JUMPDEST DUP6 DUP2 LT ISZERO PUSH2 0x1420 JUMPI DUP5 DUP5 SUB DUP10 MSTORE DUP2 MLOAD PUSH2 0x1401 DUP6 DUP3 PUSH2 0x132D JUMP JUMPDEST SWAP5 POP PUSH2 0x140C DUP4 PUSH2 0x183E JUMP JUMPDEST SWAP3 POP PUSH1 0x20 DUP11 ADD SWAP10 POP POP PUSH1 0x1 DUP2 ADD SWAP1 POP PUSH2 0x13E8 JUMP JUMPDEST POP DUP3 SWAP8 POP DUP8 SWAP6 POP POP POP POP POP POP SWAP3 SWAP2 POP POP JUMP JUMPDEST PUSH2 0x143B DUP2 PUSH2 0x192B JUMP JUMPDEST DUP3 MSTORE POP POP JUMP JUMPDEST PUSH1 0x0 PUSH2 0x144C DUP3 PUSH2 0x1826 JUMP JUMPDEST PUSH2 0x1456 DUP2 DUP6 PUSH2 0x186D JUMP JUMPDEST SWAP4 POP PUSH2 0x1466 DUP2 DUP6 PUSH1 0x20 DUP7 ADD PUSH2 0x1970 JUMP JUMPDEST PUSH2 0x146F DUP2 PUSH2 0x1B1F JUMP JUMPDEST DUP5 ADD SWAP2 POP POP SWAP3 SWAP2 POP POP JUMP JUMPDEST PUSH1 0x0 PUSH2 0x1487 PUSH1 0x12 DUP4 PUSH2 0x187E JUMP JUMPDEST SWAP2 POP PUSH2 0x1492 DUP3 PUSH2 0x1B30 JUMP JUMPDEST PUSH1 0x20 DUP3 ADD SWAP1 POP SWAP2 SWAP1 POP JUMP JUMPDEST PUSH1 0x0 PUSH2 0x14AA PUSH1 0x26 DUP4 PUSH2 0x187E JUMP JUMPDEST SWAP2 POP PUSH2 0x14B5 DUP3 PUSH2 0x1B59 JUMP JUMPDEST PUSH1 0x40 DUP3 ADD SWAP1 POP SWAP2 SWAP1 POP JUMP JUMPDEST PUSH1 0x0 PUSH2 0x14CD PUSH1 0x39 DUP4 PUSH2 0x187E JUMP JUMPDEST SWAP2 POP PUSH2 0x14D8 DUP3 PUSH2 0x1BA8 JUMP JUMPDEST PUSH1 0x40 DUP3 ADD SWAP1 POP SWAP2 SWAP1 POP JUMP JUMPDEST PUSH1 0x0 PUSH2 0x14F0 PUSH1 0x20 DUP4 PUSH2 0x187E JUMP JUMPDEST SWAP2 POP PUSH2 0x14FB DUP3 PUSH2 0x1BF7 JUMP JUMPDEST PUSH1 0x20 DUP3 ADD SWAP1 POP SWAP2 SWAP1 POP JUMP JUMPDEST PUSH1 0x0 PUSH2 0x1513 PUSH1 0x16 DUP4 PUSH2 0x187E JUMP JUMPDEST SWAP2 POP PUSH2 0x151E DUP3 PUSH2 0x1C20 JUMP JUMPDEST PUSH1 0x20 DUP3 ADD SWAP1 POP SWAP2 SWAP1 POP JUMP JUMPDEST PUSH1 0x0 PUSH2 0x1536 PUSH1 0x16 DUP4 PUSH2 0x187E JUMP JUMPDEST SWAP2 POP PUSH2 0x1541 DUP3 PUSH2 0x1C49 JUMP JUMPDEST PUSH1 0x20 DUP3 ADD SWAP1 POP SWAP2 SWAP1 POP JUMP JUMPDEST PUSH1 0x0 PUSH1 0x80 DUP4 ADD PUSH1 0x0 DUP4 ADD MLOAD PUSH2 0x1564 PUSH1 0x0 DUP7 ADD DUP3 PUSH2 0x1620 JUMP JUMPDEST POP PUSH1 0x20 DUP4 ADD MLOAD DUP5 DUP3 SUB PUSH1 0x20 DUP7 ADD MSTORE PUSH2 0x157C DUP3 DUP3 PUSH2 0x1441 JUMP JUMPDEST SWAP2 POP POP PUSH1 0x40 DUP4 ADD MLOAD DUP5 DUP3 SUB PUSH1 0x40 DUP7 ADD MSTORE PUSH2 0x1596 DUP3 DUP3 PUSH2 0x1441 JUMP JUMPDEST SWAP2 POP POP PUSH1 0x60 DUP4 ADD MLOAD PUSH2 0x15AB PUSH1 0x60 DUP7 ADD DUP3 PUSH2 0x1341 JUMP JUMPDEST POP DUP1 SWAP2 POP POP SWAP3 SWAP2 POP POP JUMP JUMPDEST PUSH1 0x0 PUSH1 0x80 DUP4 ADD PUSH1 0x0 DUP4 ADD MLOAD PUSH2 0x15CE PUSH1 0x0 DUP7 ADD DUP3 PUSH2 0x1620 JUMP JUMPDEST POP PUSH1 0x20 DUP4 ADD MLOAD PUSH2 0x15E1 PUSH1 0x20 DUP7 ADD DUP3 PUSH2 0x1620 JUMP JUMPDEST POP PUSH1 0x40 DUP4 ADD MLOAD DUP5 DUP3 SUB PUSH1 0x40 DUP7 ADD MSTORE PUSH2 0x15F9 DUP3 DUP3 PUSH2 0x13BD JUMP JUMPDEST SWAP2 POP POP PUSH1 0x60 DUP4 ADD MLOAD DUP5 DUP3 SUB PUSH1 0x60 DUP7 ADD MSTORE PUSH2 0x1613 DUP3 DUP3 PUSH2 0x135F JUMP JUMPDEST SWAP2 POP POP DUP1 SWAP2 POP POP SWAP3 SWAP2 POP POP JUMP JUMPDEST PUSH2 0x1629 DUP2 PUSH2 0x1957 JUMP JUMPDEST DUP3 MSTORE POP POP JUMP JUMPDEST PUSH2 0x1638 DUP2 PUSH2 0x1957 JUMP JUMPDEST DUP3 MSTORE POP POP JUMP JUMPDEST PUSH1 0x0 PUSH1 0x20 DUP3 ADD SWAP1 POP PUSH2 0x1653 PUSH1 0x0 DUP4 ADD DUP5 PUSH2 0x1350 JUMP JUMPDEST SWAP3 SWAP2 POP POP JUMP JUMPDEST PUSH1 0x0 PUSH1 0x20 DUP3 ADD SWAP1 POP PUSH2 0x166E PUSH1 0x0 DUP4 ADD DUP5 PUSH2 0x1432 JUMP JUMPDEST SWAP3 SWAP2 POP POP JUMP JUMPDEST PUSH1 0x0 PUSH1 0x20 DUP3 ADD SWAP1 POP DUP2 DUP2 SUB PUSH1 0x0 DUP4 ADD MSTORE PUSH2 0x168D DUP2 PUSH2 0x147A JUMP JUMPDEST SWAP1 POP SWAP2 SWAP1 POP JUMP JUMPDEST PUSH1 0x0 PUSH1 0x20 DUP3 ADD SWAP1 POP DUP2 DUP2 SUB PUSH1 0x0 DUP4 ADD MSTORE PUSH2 0x16AD DUP2 PUSH2 0x149D JUMP JUMPDEST SWAP1 POP SWAP2 SWAP1 POP JUMP JUMPDEST PUSH1 0x0 PUSH1 0x20 DUP3 ADD SWAP1 POP DUP2 DUP2 SUB PUSH1 0x0 DUP4 ADD MSTORE PUSH2 0x16CD DUP2 PUSH2 0x14C0 JUMP JUMPDEST SWAP1 POP SWAP2 SWAP1 POP JUMP JUMPDEST PUSH1 0x0 PUSH1 0x20 DUP3 ADD SWAP1 POP DUP2 DUP2 SUB PUSH1 0x0 DUP4 ADD MSTORE PUSH2 0x16ED DUP2 PUSH2 0x14E3 JUMP JUMPDEST SWAP1 POP SWAP2 SWAP1 POP JUMP JUMPDEST PUSH1 0x0 PUSH1 0x20 DUP3 ADD SWAP1 POP DUP2 DUP2 SUB PUSH1 0x0 DUP4 ADD MSTORE PUSH2 0x170D DUP2 PUSH2 0x1506 JUMP JUMPDEST SWAP1 POP SWAP2 SWAP1 POP JUMP JUMPDEST PUSH1 0x0 PUSH1 0x20 DUP3 ADD SWAP1 POP DUP2 DUP2 SUB PUSH1 0x0 DUP4 ADD MSTORE PUSH2 0x172D DUP2 PUSH2 0x1529 JUMP JUMPDEST SWAP1 POP SWAP2 SWAP1 POP JUMP JUMPDEST PUSH1 0x0 PUSH1 0x20 DUP3 ADD SWAP1 POP DUP2 DUP2 SUB PUSH1 0x0 DUP4 ADD MSTORE PUSH2 0x174E DUP2 DUP5 PUSH2 0x15B6 JUMP JUMPDEST SWAP1 POP SWAP3 SWAP2 POP POP JUMP JUMPDEST PUSH1 0x0 PUSH1 0x20 DUP3 ADD SWAP1 POP PUSH2 0x176B PUSH1 0x0 DUP4 ADD DUP5 PUSH2 0x162F JUMP JUMPDEST SWAP3 SWAP2 POP POP JUMP JUMPDEST PUSH1 0x0 PUSH1 0x40 DUP3 ADD SWAP1 POP PUSH2 0x1786 PUSH1 0x0 DUP4 ADD DUP6 PUSH2 0x162F JUMP JUMPDEST PUSH2 0x1793 PUSH1 0x20 DUP4 ADD DUP5 PUSH2 0x162F JUMP JUMPDEST SWAP4 SWAP3 POP POP POP JUMP JUMPDEST PUSH1 0x0 PUSH2 0x17A4 PUSH2 0x17B5 JUMP JUMPDEST SWAP1 POP PUSH2 0x17B0 DUP3 DUP3 PUSH2 0x19D5 JUMP JUMPDEST SWAP2 SWAP1 POP JUMP JUMPDEST PUSH1 0x0 PUSH1 0x40 MLOAD SWAP1 POP SWAP1 JUMP JUMPDEST PUSH1 0x0 PUSH8 0xFFFFFFFFFFFFFFFF DUP3 GT ISZERO PUSH2 0x17DA JUMPI PUSH2 0x17D9 PUSH2 0x1ADC JUMP JUMPDEST JUMPDEST PUSH2 0x17E3 DUP3 PUSH2 0x1B1F JUMP JUMPDEST SWAP1 POP PUSH1 0x20 DUP2 ADD SWAP1 POP SWAP2 SWAP1 POP JUMP JUMPDEST PUSH1 0x0 DUP2 SWAP1 POP PUSH1 0x20 DUP3 ADD SWAP1 POP SWAP2 SWAP1 POP JUMP JUMPDEST PUSH1 0x0 DUP2 SWAP1 POP PUSH1 0x20 DUP3 ADD SWAP1 POP SWAP2 SWAP1 POP JUMP JUMPDEST PUSH1 0x0 DUP2 MLOAD SWAP1 POP SWAP2 SWAP1 POP JUMP JUMPDEST PUSH1 0x0 DUP2 MLOAD SWAP1 POP SWAP2 SWAP1 POP JUMP JUMPDEST PUSH1 0x0 DUP2 MLOAD SWAP1 POP SWAP2 SWAP1 POP JUMP JUMPDEST PUSH1 0x0 PUSH1 0x20 DUP3 ADD SWAP1 POP SWAP2 SWAP1 POP JUMP JUMPDEST PUSH1 0x0 PUSH1 0x20 DUP3 ADD SWAP1 POP SWAP2 SWAP1 POP JUMP JUMPDEST PUSH1 0x0 DUP3 DUP3 MSTORE PUSH1 0x20 DUP3 ADD SWAP1 POP SWAP3 SWAP2 POP POP JUMP JUMPDEST PUSH1 0x0 DUP3 DUP3 MSTORE PUSH1 0x20 DUP3 ADD SWAP1 POP SWAP3 SWAP2 POP POP JUMP JUMPDEST PUSH1 0x0 DUP3 DUP3 MSTORE PUSH1 0x20 DUP3 ADD SWAP1 POP SWAP3 SWAP2 POP POP JUMP JUMPDEST PUSH1 0x0 DUP3 DUP3 MSTORE PUSH1 0x20 DUP3 ADD SWAP1 POP SWAP3 SWAP2 POP POP JUMP JUMPDEST PUSH1 0x0 PUSH2 0x189A DUP3 PUSH2 0x1957 JUMP JUMPDEST SWAP2 POP PUSH2 0x18A5 DUP4 PUSH2 0x1957 JUMP JUMPDEST SWAP3 POP DUP3 PUSH32 0xFFFFFFFFFFFFFFFFFFFFFFFFFFFFFFFFFFFFFFFFFFFFFFFFFFFFFFFFFFFFFFFF SUB DUP3 GT ISZERO PUSH2 0x18DA JUMPI PUSH2 0x18D9 PUSH2 0x1A4F JUMP JUMPDEST JUMPDEST DUP3 DUP3 ADD SWAP1 POP SWAP3 SWAP2 POP POP JUMP JUMPDEST PUSH1 0x0 PUSH2 0x18F0 DUP3 PUSH2 0x1957 JUMP JUMPDEST SWAP2 POP PUSH2 0x18FB DUP4 PUSH2 0x1957 JUMP JUMPDEST SWAP3 POP DUP3 DUP3 LT ISZERO PUSH2 0x190E JUMPI PUSH2 0x190D PUSH2 0x1A4F JUMP JUMPDEST JUMPDEST DUP3 DUP3 SUB SWAP1 POP SWAP3 SWAP2 POP POP JUMP JUMPDEST PUSH1 0x0 PUSH2 0x1924 DUP3 PUSH2 0x1937 JUMP JUMPDEST SWAP1 POP SWAP2 SWAP1 POP JUMP JUMPDEST PUSH1 0x0 DUP2 ISZERO ISZERO SWAP1 POP SWAP2 SWAP1 POP JUMP JUMPDEST PUSH1 0x0 PUSH20 0xFFFFFFFFFFFFFFFFFFFFFFFFFFFFFFFFFFFFFFFF DUP3 AND SWAP1 POP SWAP2 SWAP1 POP JUMP JUMPDEST PUSH1 0x0 DUP2 SWAP1 POP SWAP2 SWAP1 POP JUMP JUMPDEST DUP3 DUP2 DUP4 CALLDATACOPY PUSH1 0x0 DUP4 DUP4 ADD MSTORE POP POP POP JUMP JUMPDEST PUSH1 0x0 JUMPDEST DUP4 DUP2 LT ISZERO PUSH2 0x198E JUMPI DUP1 DUP3 ADD MLOAD DUP2 DUP5 ADD MSTORE PUSH1 0x20 DUP2 ADD SWAP1 POP PUSH2 0x1973 JUMP JUMPDEST DUP4 DUP2 GT ISZERO PUSH2 0x199D JUMPI PUSH1 0x0 DUP5 DUP5 ADD MSTORE JUMPDEST POP POP POP POP JUMP JUMPDEST PUSH1 0x0 PUSH1 0x2 DUP3 DIV SWAP1 POP PUSH1 0x1 DUP3 AND DUP1 PUSH2 0x19BB JUMPI PUSH1 0x7F DUP3 AND SWAP2 POP JUMPDEST PUSH1 0x20 DUP3 LT DUP2 EQ ISZERO PUSH2 0x19CF JUMPI PUSH2 0x19CE PUSH2 0x1A7E JUMP JUMPDEST JUMPDEST POP SWAP2 SWAP1 POP JUMP JUMPDEST PUSH2 0x19DE DUP3 PUSH2 0x1B1F JUMP JUMPDEST DUP2 ADD DUP2 DUP2 LT PUSH8 0xFFFFFFFFFFFFFFFF DUP3 GT OR ISZERO PUSH2 0x19FD JUMPI PUSH2 0x19FC PUSH2 0x1ADC JUMP JUMPDEST JUMPDEST DUP1 PUSH1 0x40 MSTORE POP POP POP JUMP JUMPDEST PUSH1 0x0 PUSH2 0x1A11 DUP3 PUSH2 0x1957 JUMP JUMPDEST SWAP2 POP PUSH32 0xFFFFFFFFFFFFFFFFFFFFFFFFFFFFFFFFFFFFFFFFFFFFFFFFFFFFFFFFFFFFFFFF DUP3 EQ ISZERO PUSH2 0x1A44 JUMPI PUSH2 0x1A43 PUSH2 0x1A4F JUMP JUMPDEST JUMPDEST PUSH1 0x1 DUP3 ADD SWAP1 POP SWAP2 SWAP1 POP JUMP JUMPDEST PUSH32 0x4E487B7100000000000000000000000000000000000000000000000000000000 PUSH1 0x0 MSTORE PUSH1 0x11 PUSH1 0x4 MSTORE PUSH1 0x24 PUSH1 0x0 REVERT JUMPDEST PUSH32 0x4E487B7100000000000000000000000000000000000000000000000000000000 PUSH1 0x0 MSTORE PUSH1 0x22 PUSH1 0x4 MSTORE PUSH1 0x24 PUSH1 0x0 REVERT JUMPDEST PUSH32 0x4E487B7100000000000000000000000000000000000000000000000000000000 PUSH1 0x0 MSTORE PUSH1 0x32 PUSH1 0x4 MSTORE PUSH1 0x24 PUSH1 0x0 REVERT JUMPDEST PUSH32 0x4E487B7100000000000000000000000000000000000000000000000000000000 PUSH1 0x0 MSTORE PUSH1 0x41 PUSH1 0x4 MSTORE PUSH1 0x24 PUSH1 0x0 REVERT JUMPDEST PUSH1 0x0 DUP1 REVERT JUMPDEST PUSH1 0x0 DUP1 REVERT JUMPDEST PUSH1 0x0 DUP1 REVERT JUMPDEST PUSH1 0x0 DUP1 REVERT JUMPDEST PUSH1 0x0 PUSH1 0x1F NOT PUSH1 0x1F DUP4 ADD AND SWAP1 POP SWAP2 SWAP1 POP JUMP JUMPDEST PUSH32 0x456C656374696F6E206973206163746976650000000000000000000000000000 PUSH1 0x0 DUP3 ADD MSTORE POP JUMP JUMPDEST PUSH32 0x4F776E61626C653A206E6577206F776E657220697320746865207A65726F2061 PUSH1 0x0 DUP3 ADD MSTORE PUSH32 0x6464726573730000000000000000000000000000000000000000000000000000 PUSH1 0x20 DUP3 ADD MSTORE POP JUMP JUMPDEST PUSH32 0x596F7520617265206E6F7420656C696769626C6520746F20766F74652C206265 PUSH1 0x0 DUP3 ADD MSTORE PUSH32 0x636175736520796F752061726520612063616E64696461746500000000000000 PUSH1 0x20 DUP3 ADD MSTORE POP JUMP JUMPDEST PUSH32 0x4F776E61626C653A2063616C6C6572206973206E6F7420746865206F776E6572 PUSH1 0x0 DUP3 ADD MSTORE POP JUMP JUMPDEST PUSH32 0x456C656374696F6E206973206E6F742061637469766500000000000000000000 PUSH1 0x0 DUP3 ADD MSTORE POP JUMP JUMPDEST PUSH32 0x596F75206861766520616C726561647920766F74656400000000000000000000 PUSH1 0x0 DUP3 ADD MSTORE POP JUMP JUMPDEST PUSH2 0x1C7B DUP2 PUSH2 0x1919 JUMP JUMPDEST DUP2 EQ PUSH2 0x1C86 JUMPI PUSH1 0x0 DUP1 REVERT JUMPDEST POP JUMP JUMPDEST PUSH2 0x1C92 DUP2 PUSH2 0x1957 JUMP JUMPDEST DUP2 EQ PUSH2 0x1C9D JUMPI PUSH1 0x0 DUP1 REVERT JUMPDEST POP JUMP INVALID LOG2 PUSH5 0x6970667358 0x22 SLT KECCAK256 0x29 0xC1 0x2D PC 0x4C SWAP14 SHR 0x2D CALLCODE 0xCE 0xE9 0x2B PUSH13 0xE3125DCC4B31745AFF6AE4EB6D 0xB4 CALLDATASIZE SWAP1 0xC4 0xED EQ PUSH5 0x736F6C6343 STOP ADDMOD SMOD STOP CALLER "
				},
				"gasEstimates": {
					"creation": {
						"codeDepositCost": "1476400",
						"executionCost": "infinite",
						"totalCost": "infinite"
					},
					"external": {
						"applyAsCandidate(string,string)": "infinite",
						"candidateVotes(uint256)": "infinite",
						"elections(uint256)": "infinite",
						"endCurrentElectionAndStartANewOne()": "infinite",
						"getCurrentElection()": "infinite",
						"hasAddressAlreadyVoted(address)": "infinite",
						"hasCandidateByAddress(address)": "infinite",
						"owner()": "2633",
						"renounceOwnership()": "30463",
						"setElectionLastsFor(uint256)": "24783",
						"setElectionStartIn(uint256)": "24827",
						"transferOwnership(address)": "30767",
						"vote(uint256)": "infinite"
					}
				},
				"methodIdentifiers": {
					"applyAsCandidate(string,string)": "f7ae7015",
					"candidateVotes(uint256)": "f49e323e",
					"elections(uint256)": "5e6fef01",
					"endCurrentElectionAndStartANewOne()": "e22712e8",
					"getCurrentElection()": "b0b0e68d",
					"hasAddressAlreadyVoted(address)": "eff41bb3",
					"hasCandidateByAddress(address)": "33c5226b",
					"owner()": "8da5cb5b",
					"renounceOwnership()": "715018a6",
					"setElectionLastsFor(uint256)": "9690382e",
					"setElectionStartIn(uint256)": "5ed3291d",
					"transferOwnership(address)": "f2fde38b",
					"vote(uint256)": "0121b93f"
				}
			},
			"storageLayout": {
				"storage": [
					{
						"astId": 7,
						"contract": "contracts/GovernorElection.sol:GovernorElection",
						"label": "_owner",
						"offset": 0,
						"slot": "0",
						"type": "t_address"
					},
					{
						"astId": 161,
						"contract": "contracts/GovernorElection.sol:GovernorElection",
						"label": "ELECTION_START_IN",
						"offset": 0,
						"slot": "1",
						"type": "t_uint256"
					},
					{
						"astId": 170,
						"contract": "contracts/GovernorElection.sol:GovernorElection",
						"label": "ELECTION_LASTS_FOR",
						"offset": 0,
						"slot": "2",
						"type": "t_uint256"
					},
					{
						"astId": 173,
						"contract": "contracts/GovernorElection.sol:GovernorElection",
						"label": "candidateNum",
						"offset": 0,
						"slot": "3",
						"type": "t_uint256"
					},
					{
						"astId": 178,
						"contract": "contracts/GovernorElection.sol:GovernorElection",
						"label": "candidates",
						"offset": 0,
						"slot": "4",
						"type": "t_mapping(t_uint256,t_struct(Candidate)140_storage)"
					},
					{
						"astId": 180,
						"contract": "contracts/GovernorElection.sol:GovernorElection",
						"label": "electionNum",
						"offset": 0,
						"slot": "5",
						"type": "t_uint256"
					},
					{
						"astId": 185,
						"contract": "contracts/GovernorElection.sol:GovernorElection",
						"label": "elections",
						"offset": 0,
						"slot": "6",
						"type": "t_mapping(t_uint256,t_struct(Election)152_storage)"
					},
					{
						"astId": 189,
						"contract": "contracts/GovernorElection.sol:GovernorElection",
						"label": "candidateVotes",
						"offset": 0,
						"slot": "7",
						"type": "t_mapping(t_uint256,t_uint256)"
					}
				],
				"types": {
					"t_address": {
						"encoding": "inplace",
						"label": "address",
						"numberOfBytes": "20"
					},
					"t_array(t_address)dyn_storage": {
						"base": "t_address",
						"encoding": "dynamic_array",
						"label": "address[]",
						"numberOfBytes": "32"
					},
					"t_array(t_struct(Candidate)140_storage)dyn_storage": {
						"base": "t_struct(Candidate)140_storage",
						"encoding": "dynamic_array",
						"label": "struct GovernorElection.Candidate[]",
						"numberOfBytes": "32"
					},
					"t_mapping(t_uint256,t_struct(Candidate)140_storage)": {
						"encoding": "mapping",
						"key": "t_uint256",
						"label": "mapping(uint256 => struct GovernorElection.Candidate)",
						"numberOfBytes": "32",
						"value": "t_struct(Candidate)140_storage"
					},
					"t_mapping(t_uint256,t_struct(Election)152_storage)": {
						"encoding": "mapping",
						"key": "t_uint256",
						"label": "mapping(uint256 => struct GovernorElection.Election)",
						"numberOfBytes": "32",
						"value": "t_struct(Election)152_storage"
					},
					"t_mapping(t_uint256,t_uint256)": {
						"encoding": "mapping",
						"key": "t_uint256",
						"label": "mapping(uint256 => uint256)",
						"numberOfBytes": "32",
						"value": "t_uint256"
					},
					"t_string_storage": {
						"encoding": "bytes",
						"label": "string",
						"numberOfBytes": "32"
					},
					"t_struct(Candidate)140_storage": {
						"encoding": "inplace",
						"label": "struct GovernorElection.Candidate",
						"members": [
							{
								"astId": 133,
								"contract": "contracts/GovernorElection.sol:GovernorElection",
								"label": "id",
								"offset": 0,
								"slot": "0",
								"type": "t_uint256"
							},
							{
								"astId": 135,
								"contract": "contracts/GovernorElection.sol:GovernorElection",
								"label": "name",
								"offset": 0,
								"slot": "1",
								"type": "t_string_storage"
							},
							{
								"astId": 137,
								"contract": "contracts/GovernorElection.sol:GovernorElection",
								"label": "description",
								"offset": 0,
								"slot": "2",
								"type": "t_string_storage"
							},
							{
								"astId": 139,
								"contract": "contracts/GovernorElection.sol:GovernorElection",
								"label": "owner",
								"offset": 0,
								"slot": "3",
								"type": "t_address"
							}
						],
						"numberOfBytes": "128"
					},
					"t_struct(Election)152_storage": {
						"encoding": "inplace",
						"label": "struct GovernorElection.Election",
						"members": [
							{
								"astId": 142,
								"contract": "contracts/GovernorElection.sol:GovernorElection",
								"label": "electionStartsAt",
								"offset": 0,
								"slot": "0",
								"type": "t_uint256"
							},
							{
								"astId": 144,
								"contract": "contracts/GovernorElection.sol:GovernorElection",
								"label": "electionEndsAt",
								"offset": 0,
								"slot": "1",
								"type": "t_uint256"
							},
							{
								"astId": 148,
								"contract": "contracts/GovernorElection.sol:GovernorElection",
								"label": "candidates",
								"offset": 0,
								"slot": "2",
								"type": "t_array(t_struct(Candidate)140_storage)dyn_storage"
							},
							{
								"astId": 151,
								"contract": "contracts/GovernorElection.sol:GovernorElection",
								"label": "alreadyVoted",
								"offset": 0,
								"slot": "3",
								"type": "t_array(t_address)dyn_storage"
							}
						],
						"numberOfBytes": "128"
					},
					"t_uint256": {
						"encoding": "inplace",
						"label": "uint256",
						"numberOfBytes": "32"
					}
				}
			},
			"userdoc": {
				"kind": "user",
				"methods": {},
				"version": 1
			}
		}
	}
}