{
  "contractName": "GovernorElection",
  "abi": [
    {
      "inputs": [],
      "stateMutability": "nonpayable",
      "type": "constructor"
    },
    {
      "anonymous": false,
      "inputs": [
        {
          "indexed": true,
          "internalType": "address",
          "name": "previousOwner",
          "type": "address"
        },
        {
          "indexed": true,
          "internalType": "address",
          "name": "newOwner",
          "type": "address"
        }
      ],
      "name": "OwnershipTransferred",
      "type": "event"
    },
    {
      "inputs": [],
      "name": "owner",
      "outputs": [
        {
          "internalType": "address",
          "name": "",
          "type": "address"
        }
      ],
      "stateMutability": "view",
      "type": "function",
      "constant": true
    },
    {
      "inputs": [],
      "name": "renounceOwnership",
      "outputs": [],
      "stateMutability": "nonpayable",
      "type": "function"
    },
    {
      "inputs": [
        {
          "internalType": "address",
          "name": "newOwner",
          "type": "address"
        }
      ],
      "name": "transferOwnership",
      "outputs": [],
      "stateMutability": "nonpayable",
      "type": "function"
    },
    {
      "inputs": [
        {
          "internalType": "address",
          "name": "addr",
          "type": "address"
        }
      ],
      "name": "hasCandidateByAddress",
      "outputs": [
        {
          "internalType": "bool",
          "name": "",
          "type": "bool"
        }
      ],
      "stateMutability": "view",
      "type": "function",
      "constant": true
    },
    {
      "inputs": [
        {
          "internalType": "address",
          "name": "addr",
          "type": "address"
        }
      ],
      "name": "hasAddressAlreadyVoted",
      "outputs": [
        {
          "internalType": "bool",
          "name": "",
          "type": "bool"
        }
      ],
      "stateMutability": "view",
      "type": "function",
      "constant": true
    },
    {
      "inputs": [
        {
          "internalType": "string",
          "name": "name",
          "type": "string"
        },
        {
          "internalType": "string",
          "name": "description",
          "type": "string"
        }
      ],
      "name": "applyAsCandidate",
      "outputs": [],
      "stateMutability": "nonpayable",
      "type": "function"
    },
    {
      "inputs": [
        {
          "internalType": "uint256",
          "name": "voteForId",
          "type": "uint256"
        }
      ],
      "name": "vote",
      "outputs": [],
      "stateMutability": "nonpayable",
      "type": "function"
    },
    {
      "inputs": [],
      "name": "getLastElectionWinners",
      "outputs": [
        {
          "components": [
            {
              "internalType": "uint256",
              "name": "id",
              "type": "uint256"
            },
            {
              "internalType": "string",
              "name": "name",
              "type": "string"
            },
            {
              "internalType": "string",
              "name": "description",
              "type": "string"
            },
            {
              "internalType": "address",
              "name": "owner",
              "type": "address"
            },
            {
              "internalType": "uint256",
              "name": "votes",
              "type": "uint256"
            }
          ],
          "internalType": "struct DataTypes.Governor[]",
          "name": "",
          "type": "tuple[]"
        }
      ],
      "stateMutability": "view",
      "type": "function",
      "constant": true
    },
    {
      "inputs": [],
      "name": "getCurrentElection",
      "outputs": [
        {
          "components": [
            {
              "internalType": "uint256",
              "name": "electionStartsAt",
              "type": "uint256"
            },
            {
              "internalType": "uint256",
              "name": "electionEndsAt",
              "type": "uint256"
            },
            {
              "components": [
                {
                  "internalType": "uint256",
                  "name": "id",
                  "type": "uint256"
                },
                {
                  "internalType": "string",
                  "name": "name",
                  "type": "string"
                },
                {
                  "internalType": "string",
                  "name": "description",
                  "type": "string"
                },
                {
                  "internalType": "address",
                  "name": "owner",
                  "type": "address"
                },
                {
                  "internalType": "uint256",
                  "name": "votes",
                  "type": "uint256"
                }
              ],
              "internalType": "struct DataTypes.Governor[]",
              "name": "candidates",
              "type": "tuple[]"
            },
            {
              "internalType": "address[]",
              "name": "alreadyVoted",
              "type": "address[]"
            }
          ],
          "internalType": "struct DataTypes.Election",
          "name": "",
          "type": "tuple"
        }
      ],
      "stateMutability": "view",
      "type": "function",
      "constant": true
    },
    {
      "inputs": [
        {
          "internalType": "uint256",
          "name": "electionLastsFor",
          "type": "uint256"
        }
      ],
      "name": "setElectionLastsFor",
      "outputs": [],
      "stateMutability": "nonpayable",
      "type": "function"
    },
    {
      "inputs": [
        {
          "internalType": "uint256",
          "name": "electionStartIn",
          "type": "uint256"
        }
      ],
      "name": "setElectionStartIn",
      "outputs": [],
      "stateMutability": "nonpayable",
      "type": "function"
    },
    {
      "inputs": [],
      "name": "endCurrentElectionAndStartANewOne",
      "outputs": [],
      "stateMutability": "nonpayable",
      "type": "function"
    },
    {
      "inputs": [
        {
          "internalType": "uint256",
          "name": "voteForId",
          "type": "uint256"
        }
      ],
      "name": "forceVote",
      "outputs": [],
      "stateMutability": "nonpayable",
      "type": "function"
    },
    {
      "inputs": [
        {
          "internalType": "string",
          "name": "name",
          "type": "string"
        },
        {
          "internalType": "string",
          "name": "description",
          "type": "string"
        }
      ],
      "name": "forceApplyAsCandidate",
      "outputs": [],
      "stateMutability": "nonpayable",
      "type": "function"
    }
  ],
  "bytecode": "0x60806040526201518060015562093a80600255600160035560016005553480156200002957600080fd5b506200004a6200003e620000bf60201b60201c565b620000c760201b60201c565b600060066000600560008154809291906200006590620001c4565b91905055815260200190815260200160002090506001544262000089919062000211565b8160000181905550600254600154620000a3919062000211565b42620000b0919062000211565b8160010181905550506200026e565b600033905090565b60008060009054906101000a900473ffffffffffffffffffffffffffffffffffffffff169050816000806101000a81548173ffffffffffffffffffffffffffffffffffffffff021916908373ffffffffffffffffffffffffffffffffffffffff1602179055508173ffffffffffffffffffffffffffffffffffffffff168173ffffffffffffffffffffffffffffffffffffffff167f8be0079c531659141344cd1fd0a4f28419497f9722a3daafe3b4186f6b6457e060405160405180910390a35050565b7f4e487b7100000000000000000000000000000000000000000000000000000000600052601160045260246000fd5b6000819050919050565b6000620001d182620001ba565b91507fffffffffffffffffffffffffffffffffffffffffffffffffffffffffffffffff82036200020657620002056200018b565b5b600182019050919050565b60006200021e82620001ba565b91506200022b83620001ba565b9250827fffffffffffffffffffffffffffffffffffffffffffffffffffffffffffffffff038211156200026357620002626200018b565b5b828201905092915050565b6123f9806200027e6000396000f3fe608060405234801561001057600080fd5b50600436106100ea5760003560e01c80639690382e1161008c578063e22712e811610066578063e22712e81461020f578063eff41bb314610219578063f2fde38b14610249578063f7ae701514610265576100ea565b80639690382e146101b9578063ac4fb60d146101d5578063b0b0e68d146101f1576100ea565b80635ca115e9116100c85780635ca115e9146101575780635ed3291d14610175578063715018a6146101915780638da5cb5b1461019b576100ea565b80630121b93f146100ef57806316d5b9aa1461010b57806333c5226b14610127575b600080fd5b610109600480360381019061010491906118b0565b610281565b005b61012560048036038101906101209190611a23565b610559565b005b610141600480360381019061013c9190611af9565b610787565b60405161014e9190611b41565b60405180910390f35b61015f610880565b60405161016c9190611d41565b60405180910390f35b61018f600480360381019061018a91906118b0565b610bc0565b005b610199610bca565b005b6101a3610c52565b6040516101b09190611d72565b60405180910390f35b6101d360048036038101906101ce91906118b0565b610c7b565b005b6101ef60048036038101906101ea91906118b0565b610c85565b005b6101f9610e28565b6040516102069190611f2c565b60405180910390f35b6102176110f6565b005b610233600480360381019061022e9190611af9565b611152565b6040516102409190611b41565b60405180910390f35b610263600480360381019061025e9190611af9565b611244565b005b61027f600480360381019061027a9190611a23565b61133b565b005b426006600060016005546102959190611f7d565b815260200190815260200160002060000154111580156102d95750426006600060016005546102c49190611f7d565b81526020019081526020016000206001015410155b610318576040517f08c379a000000000000000000000000000000000000000000000000000000000815260040161030f9061200e565b60405180910390fd5b6000151561032533610787565b151514610367576040517f08c379a000000000000000000000000000000000000000000000000000000000815260040161035e906120a0565b60405180910390fd5b6000151561037433611152565b1515146103b6576040517f08c379a00000000000000000000000000000000000000000000000000000000081526004016103ad9061210c565b60405180910390fd5b6007600082815260200190815260200160002060008154809291906103da9061212c565b919050555060005b6006600060016005546103f59190611f7d565b8152602001908152602001600020600201805490508110156104d057816006600060016005546104259190611f7d565b8152602001908152602001600020600201828154811061044857610447612174565b5b906000526020600020906005020160000154036104bd576006600060016005546104729190611f7d565b8152602001908152602001600020600201818154811061049557610494612174565b5b906000526020600020906005020160040160008154809291906104b79061212c565b91905055505b80806104c89061212c565b9150506103e2565b506006600060016005546104e49190611f7d565b8152602001908152602001600020600301339080600181540180825580915050600190039060005260206000200160009091909190916101000a81548173ffffffffffffffffffffffffffffffffffffffff021916908373ffffffffffffffffffffffffffffffffffffffff16021790555050565b60006040518060a00160405280600360008154809291906105799061212c565b9190505581526020018481526020018381526020013373ffffffffffffffffffffffffffffffffffffffff168152602001600081525090508060046000836000015181526020019081526020016000206000820151816000015560208201518160010190805190602001906105ef9291906116c9565b50604082015181600201908051906020019061060c9291906116c9565b5060608201518160030160006101000a81548173ffffffffffffffffffffffffffffffffffffffff021916908373ffffffffffffffffffffffffffffffffffffffff160217905550608082015181600401559050506006600060016005546106749190611f7d565b8152602001908152602001600020600201600460008360000151815260200190815260200160002090806001815401808255809150506001900390600052602060002090600502016000909190919091506000820154816000015560018201816001019080546106e3906121d2565b6106ee92919061174f565b506002820181600201908054610703906121d2565b61070e92919061174f565b506003820160009054906101000a900473ffffffffffffffffffffffffffffffffffffffff168160030160006101000a81548173ffffffffffffffffffffffffffffffffffffffff021916908373ffffffffffffffffffffffffffffffffffffffff160217905550600482015481600401555050505050565b600080600090505b6006600060016005546107a29190611f7d565b815260200190815260200160002060020180549050811015610875578273ffffffffffffffffffffffffffffffffffffffff166006600060016005546107e89190611f7d565b8152602001908152602001600020600201828154811061080b5761080a612174565b5b906000526020600020906005020160030160009054906101000a900473ffffffffffffffffffffffffffffffffffffffff1673ffffffffffffffffffffffffffffffffffffffff160361086257600191505061087b565b808061086d9061212c565b91505061078f565b50600090505b919050565b60606000600367ffffffffffffffff81111561089f5761089e6118f8565b5b6040519080825280602002602001820160405280156108d857816020015b6108c56117dc565b8152602001906001900390816108bd5790505b5090506000806006600060026005546108f19190611f7d565b8152602001908152602001600020905060005b8160020180549050811015610bb65781600201818154811061092957610928612174565b5b90600052602060002090600502016004015484848151811061094e5761094d612174565b5b60200260200101516080015111610ba35781600201818154811061097557610974612174565b5b90600052602060002090600502016040518060a0016040529081600082015481526020016001820180546109a8906121d2565b80601f01602080910402602001604051908101604052809291908181526020018280546109d4906121d2565b8015610a215780601f106109f657610100808354040283529160200191610a21565b820191906000526020600020905b815481529060010190602001808311610a0457829003601f168201915b50505050508152602001600282018054610a3a906121d2565b80601f0160208091040260200160405190810160405280929190818152602001828054610a66906121d2565b8015610ab35780601f10610a8857610100808354040283529160200191610ab3565b820191906000526020600020905b815481529060010190602001808311610a9657829003601f168201915b505050505081526020016003820160009054906101000a900473ffffffffffffffffffffffffffffffffffffffff1673ffffffffffffffffffffffffffffffffffffffff1673ffffffffffffffffffffffffffffffffffffffff168152602001600482015481525050848481518110610b2f57610b2e612174565b5b602002602001018190525060005b8451811015610ba157848481518110610b5957610b58612174565b5b602002602001015160800151858281518110610b7857610b77612174565b5b6020026020010151608001511015610b8e578093505b8080610b999061212c565b915050610b3d565b505b8080610bae9061212c565b915050610904565b5082935050505090565b8060028190555050565b610bd26115fd565b73ffffffffffffffffffffffffffffffffffffffff16610bf0610c52565b73ffffffffffffffffffffffffffffffffffffffff1614610c46576040517f08c379a0000000000000000000000000000000000000000000000000000000008152600401610c3d9061224f565b60405180910390fd5b610c506000611605565b565b60008060009054906101000a900473ffffffffffffffffffffffffffffffffffffffff16905090565b8060028190555050565b600760008281526020019081526020016000206000815480929190610ca99061212c565b919050555060005b600660006001600554610cc49190611f7d565b815260200190815260200160002060020180549050811015610d9f5781600660006001600554610cf49190611f7d565b81526020019081526020016000206002018281548110610d1757610d16612174565b5b90600052602060002090600502016000015403610d8c57600660006001600554610d419190611f7d565b81526020019081526020016000206002018181548110610d6457610d63612174565b5b90600052602060002090600502016004016000815480929190610d869061212c565b91905055505b8080610d979061212c565b915050610cb1565b50600660006001600554610db39190611f7d565b8152602001908152602001600020600301339080600181540180825580915050600190039060005260206000200160009091909190916101000a81548173ffffffffffffffffffffffffffffffffffffffff021916908373ffffffffffffffffffffffffffffffffffffffff16021790555050565b610e30611821565b6000600660006001600554610e459190611f7d565b8152602001908152602001600020604051806080016040529081600082015481526020016001820154815260200160028201805480602002602001604051908101604052809291908181526020016000905b8282101561105757838290600052602060002090600502016040518060a001604052908160008201548152602001600182018054610ed4906121d2565b80601f0160208091040260200160405190810160405280929190818152602001828054610f00906121d2565b8015610f4d5780601f10610f2257610100808354040283529160200191610f4d565b820191906000526020600020905b815481529060010190602001808311610f3057829003601f168201915b50505050508152602001600282018054610f66906121d2565b80601f0160208091040260200160405190810160405280929190818152602001828054610f92906121d2565b8015610fdf5780601f10610fb457610100808354040283529160200191610fdf565b820191906000526020600020905b815481529060010190602001808311610fc257829003601f168201915b505050505081526020016003820160009054906101000a900473ffffffffffffffffffffffffffffffffffffffff1673ffffffffffffffffffffffffffffffffffffffff1673ffffffffffffffffffffffffffffffffffffffff16815260200160048201548152505081526020019060010190610e97565b505050508152602001600382018054806020026020016040519081016040528092919081815260200182805480156110e457602002820191906000526020600020905b8160009054906101000a900473ffffffffffffffffffffffffffffffffffffffff1673ffffffffffffffffffffffffffffffffffffffff168152602001906001019080831161109a575b50505050508152505090508091505090565b6000600660006005600081548092919061110f9061212c565b919050558152602001908152602001600020905042816000018190555060025460015461113c919061226f565b42611147919061226f565b816001018190555050565b600080600090505b60066000600160055461116d9190611f7d565b815260200190815260200160002060030180549050811015611239578273ffffffffffffffffffffffffffffffffffffffff166006600060016005546111b39190611f7d565b815260200190815260200160002060030182815481106111d6576111d5612174565b5b9060005260206000200160009054906101000a900473ffffffffffffffffffffffffffffffffffffffff1673ffffffffffffffffffffffffffffffffffffffff160361122657600191505061123f565b80806112319061212c565b91505061115a565b50600090505b919050565b61124c6115fd565b73ffffffffffffffffffffffffffffffffffffffff1661126a610c52565b73ffffffffffffffffffffffffffffffffffffffff16146112c0576040517f08c379a00000000000000000000000000000000000000000000000000000000081526004016112b79061224f565b60405180910390fd5b600073ffffffffffffffffffffffffffffffffffffffff168173ffffffffffffffffffffffffffffffffffffffff160361132f576040517f08c379a000000000000000000000000000000000000000000000000000000000815260040161132690612337565b60405180910390fd5b61133881611605565b50565b4260066000600160055461134f9190611f7d565b815260200190815260200160002060000154118061139057504260066000600160055461137c9190611f7d565b815260200190815260200160002060010154105b6113cf576040517f08c379a00000000000000000000000000000000000000000000000000000000081526004016113c6906123a3565b60405180910390fd5b60006040518060a00160405280600360008154809291906113ef9061212c565b9190505581526020018481526020018381526020013373ffffffffffffffffffffffffffffffffffffffff168152602001600081525090508060046000836000015181526020019081526020016000206000820151816000015560208201518160010190805190602001906114659291906116c9565b5060408201518160020190805190602001906114829291906116c9565b5060608201518160030160006101000a81548173ffffffffffffffffffffffffffffffffffffffff021916908373ffffffffffffffffffffffffffffffffffffffff160217905550608082015181600401559050506006600060016005546114ea9190611f7d565b815260200190815260200160002060020160046000836000015181526020019081526020016000209080600181540180825580915050600190039060005260206000209060050201600090919091909150600082015481600001556001820181600101908054611559906121d2565b61156492919061174f565b506002820181600201908054611579906121d2565b61158492919061174f565b506003820160009054906101000a900473ffffffffffffffffffffffffffffffffffffffff168160030160006101000a81548173ffffffffffffffffffffffffffffffffffffffff021916908373ffffffffffffffffffffffffffffffffffffffff160217905550600482015481600401555050505050565b600033905090565b60008060009054906101000a900473ffffffffffffffffffffffffffffffffffffffff169050816000806101000a81548173ffffffffffffffffffffffffffffffffffffffff021916908373ffffffffffffffffffffffffffffffffffffffff1602179055508173ffffffffffffffffffffffffffffffffffffffff168173ffffffffffffffffffffffffffffffffffffffff167f8be0079c531659141344cd1fd0a4f28419497f9722a3daafe3b4186f6b6457e060405160405180910390a35050565b8280546116d5906121d2565b90600052602060002090601f0160209004810192826116f7576000855561173e565b82601f1061171057805160ff191683800117855561173e565b8280016001018555821561173e579182015b8281111561173d578251825591602001919060010190611722565b5b50905061174b9190611849565b5090565b82805461175b906121d2565b90600052602060002090601f01602090048101928261177d57600085556117cb565b82601f1061178e57805485556117cb565b828001600101855582156117cb57600052602060002091601f016020900482015b828111156117ca5782548255916001019190600101906117af565b5b5090506117d89190611849565b5090565b6040518060a00160405280600081526020016060815260200160608152602001600073ffffffffffffffffffffffffffffffffffffffff168152602001600081525090565b6040518060800160405280600081526020016000815260200160608152602001606081525090565b5b8082111561186257600081600090555060010161184a565b5090565b6000604051905090565b600080fd5b600080fd5b6000819050919050565b61188d8161187a565b811461189857600080fd5b50565b6000813590506118aa81611884565b92915050565b6000602082840312156118c6576118c5611870565b5b60006118d48482850161189b565b91505092915050565b600080fd5b600080fd5b6000601f19601f8301169050919050565b7f4e487b7100000000000000000000000000000000000000000000000000000000600052604160045260246000fd5b611930826118e7565b810181811067ffffffffffffffff8211171561194f5761194e6118f8565b5b80604052505050565b6000611962611866565b905061196e8282611927565b919050565b600067ffffffffffffffff82111561198e5761198d6118f8565b5b611997826118e7565b9050602081019050919050565b82818337600083830152505050565b60006119c66119c184611973565b611958565b9050828152602081018484840111156119e2576119e16118e2565b5b6119ed8482856119a4565b509392505050565b600082601f830112611a0a57611a096118dd565b5b8135611a1a8482602086016119b3565b91505092915050565b60008060408385031215611a3a57611a39611870565b5b600083013567ffffffffffffffff811115611a5857611a57611875565b5b611a64858286016119f5565b925050602083013567ffffffffffffffff811115611a8557611a84611875565b5b611a91858286016119f5565b9150509250929050565b600073ffffffffffffffffffffffffffffffffffffffff82169050919050565b6000611ac682611a9b565b9050919050565b611ad681611abb565b8114611ae157600080fd5b50565b600081359050611af381611acd565b92915050565b600060208284031215611b0f57611b0e611870565b5b6000611b1d84828501611ae4565b91505092915050565b60008115159050919050565b611b3b81611b26565b82525050565b6000602082019050611b566000830184611b32565b92915050565b600081519050919050565b600082825260208201905092915050565b6000819050602082019050919050565b611b918161187a565b82525050565b600081519050919050565b600082825260208201905092915050565b60005b83811015611bd1578082015181840152602081019050611bb6565b83811115611be0576000848401525b50505050565b6000611bf182611b97565b611bfb8185611ba2565b9350611c0b818560208601611bb3565b611c14816118e7565b840191505092915050565b611c2881611abb565b82525050565b600060a083016000830151611c466000860182611b88565b5060208301518482036020860152611c5e8282611be6565b91505060408301518482036040860152611c788282611be6565b9150506060830151611c8d6060860182611c1f565b506080830151611ca06080860182611b88565b508091505092915050565b6000611cb78383611c2e565b905092915050565b6000602082019050919050565b6000611cd782611b5c565b611ce18185611b67565b935083602082028501611cf385611b78565b8060005b85811015611d2f5784840389528151611d108582611cab565b9450611d1b83611cbf565b925060208a01995050600181019050611cf7565b50829750879550505050505092915050565b60006020820190508181036000830152611d5b8184611ccc565b905092915050565b611d6c81611abb565b82525050565b6000602082019050611d876000830184611d63565b92915050565b600082825260208201905092915050565b6000611da982611b5c565b611db38185611d8d565b935083602082028501611dc585611b78565b8060005b85811015611e015784840389528151611de28582611cab565b9450611ded83611cbf565b925060208a01995050600181019050611dc9565b50829750879550505050505092915050565b600081519050919050565b600082825260208201905092915050565b6000819050602082019050919050565b6000611e4b8383611c1f565b60208301905092915050565b6000602082019050919050565b6000611e6f82611e13565b611e798185611e1e565b9350611e8483611e2f565b8060005b83811015611eb5578151611e9c8882611e3f565b9750611ea783611e57565b925050600181019050611e88565b5085935050505092915050565b6000608083016000830151611eda6000860182611b88565b506020830151611eed6020860182611b88565b5060408301518482036040860152611f058282611d9e565b91505060608301518482036060860152611f1f8282611e64565b9150508091505092915050565b60006020820190508181036000830152611f468184611ec2565b905092915050565b7f4e487b7100000000000000000000000000000000000000000000000000000000600052601160045260246000fd5b6000611f888261187a565b9150611f938361187a565b925082821015611fa657611fa5611f4e565b5b828203905092915050565b600082825260208201905092915050565b7f456c656374696f6e206973206e6f742061637469766500000000000000000000600082015250565b6000611ff8601683611fb1565b915061200382611fc2565b602082019050919050565b6000602082019050818103600083015261202781611feb565b9050919050565b7f596f7520617265206e6f7420656c696769626c6520746f20766f74652c20626560008201527f636175736520796f752061726520612063616e64696461746500000000000000602082015250565b600061208a603983611fb1565b91506120958261202e565b604082019050919050565b600060208201905081810360008301526120b98161207d565b9050919050565b7f596f75206861766520616c726561647920766f74656400000000000000000000600082015250565b60006120f6601683611fb1565b9150612101826120c0565b602082019050919050565b60006020820190508181036000830152612125816120e9565b9050919050565b60006121378261187a565b91507fffffffffffffffffffffffffffffffffffffffffffffffffffffffffffffffff820361216957612168611f4e565b5b600182019050919050565b7f4e487b7100000000000000000000000000000000000000000000000000000000600052603260045260246000fd5b7f4e487b7100000000000000000000000000000000000000000000000000000000600052602260045260246000fd5b600060028204905060018216806121ea57607f821691505b6020821081036121fd576121fc6121a3565b5b50919050565b7f4f776e61626c653a2063616c6c6572206973206e6f7420746865206f776e6572600082015250565b6000612239602083611fb1565b915061224482612203565b602082019050919050565b600060208201905081810360008301526122688161222c565b9050919050565b600061227a8261187a565b91506122858361187a565b9250827fffffffffffffffffffffffffffffffffffffffffffffffffffffffffffffffff038211156122ba576122b9611f4e565b5b828201905092915050565b7f4f776e61626c653a206e6577206f776e657220697320746865207a65726f206160008201527f6464726573730000000000000000000000000000000000000000000000000000602082015250565b6000612321602683611fb1565b915061232c826122c5565b604082019050919050565b6000602082019050818103600083015261235081612314565b9050919050565b7f456c656374696f6e206973206163746976650000000000000000000000000000600082015250565b600061238d601283611fb1565b915061239882612357565b602082019050919050565b600060208201905081810360008301526123bc81612380565b905091905056fea2646970667358221220cef8b3f92313be82d3ec8c46f40b71b8a02ebf3ed110df9911d13790e13c4c0164736f6c634300080e0033",
  "immutableReferences": {},
  "source": "//SPDX-License-Identifier: UNLICENSED\r\npragma solidity >=0.8.0 <0.9.0;\r\n\r\nimport \"@openzeppelin/contracts/access/Ownable.sol\";\r\n\r\nimport { DataTypes } from './libraries/DataTypes.sol';\r\n\r\ncontract GovernorElection is Ownable {\r\n    ///////////////////////////////////////////////////////////////////////////\r\n    /////////CONSTANTS\r\n    ///////////////////////////////////////////////////////////////////////////\r\n    uint ELECTION_START_IN = 60*60*24*1; // 1 days\r\n    uint ELECTION_LASTS_FOR = 60*60*24*7; // 7 days\r\n    \r\n\r\n    ///////////////////////////////////////////////////////////////////////////\r\n    /////////PROPERTY VARIABLES\r\n    ///////////////////////////////////////////////////////////////////////////\r\n    uint256 candidateNum = 1; //starts from 1 to help differentiate from 0 initalized candidates\r\n    mapping(uint256 => DataTypes.Governor) candidates;\r\n\r\n    uint256 electionNum = 1; //starts from 1 to help differentiate from 0 initalized elections\r\n    mapping(uint256 => DataTypes.Election) elections;\r\n\r\n    // The mapping of the current candidate votes id => votes\r\n    mapping(uint => uint) candidateVotes;\r\n\r\n    \r\n\r\n    ///////////////////////////////////////////////////////////////////////////\r\n    /////////CONSTRUCTOR\r\n    ///////////////////////////////////////////////////////////////////////////\r\n    constructor() {\r\n        DataTypes.Election storage election = elections[electionNum++];\r\n        election.electionStartsAt = block.timestamp + ELECTION_START_IN; //first election starts ELECTION_LASTS_FOR from now\r\n        election.electionEndsAt = block.timestamp + (ELECTION_START_IN+ELECTION_LASTS_FOR); //and ends 2*ELECTION_LASTS_FOR from now\r\n    }\r\n    \r\n\r\n    ///////////////////////////////////////////////////////////////////////////\r\n    /////////MODIFIERS\r\n    ///////////////////////////////////////////////////////////////////////////\r\n    modifier onlyWhenElectionIsActive() {\r\n        require(elections[electionNum-1].electionStartsAt <= block.timestamp && elections[electionNum-1].electionEndsAt >= block.timestamp, \"Election is not active\");\r\n        _;\r\n    }\r\n\r\n    modifier onlyWhenElectionIsNotActive() {\r\n        require(elections[electionNum-1].electionStartsAt > block.timestamp || elections[electionNum-1].electionEndsAt < block.timestamp, \"Election is active\");\r\n        _;\r\n    }\r\n\r\n    modifier onlyWhenEligibleToVote() {\r\n        require(hasCandidateByAddress(msg.sender) == false, \"You are not eligible to vote, because you are a candidate\");\r\n        require(hasAddressAlreadyVoted(msg.sender) == false, \"You have already voted\");\r\n        _;\r\n    }\r\n\r\n    ///////////////////////////////////////////////////////////////////////////\r\n    /////////FUNCTIONS\r\n    ///////////////////////////////////////////////////////////////////////////\r\n    function hasCandidateByAddress(address addr) public view returns (bool) {\r\n        for (uint i = 0; i < elections[electionNum-1].candidates.length; i++) {\r\n            if (elections[electionNum-1].candidates[i].owner == addr) {\r\n                return true;\r\n            }\r\n        }\r\n        return false;\r\n    }\r\n\r\n    function hasAddressAlreadyVoted(address addr) public view returns (bool) {\r\n        for (uint i = 0; i < elections[electionNum-1].alreadyVoted.length; i++) {\r\n            if (elections[electionNum-1].alreadyVoted[i] == addr) {\r\n                return true;\r\n            }\r\n        }\r\n        return false;\r\n    }\r\n\r\n    function applyAsCandidate(string memory name, string memory description) public onlyWhenElectionIsNotActive {\r\n        DataTypes.Governor memory newCandidate = DataTypes.Governor({\r\n            id: candidateNum++,\r\n            name: name,\r\n            description: description,\r\n            owner: msg.sender,\r\n            votes: 0\r\n        });\r\n\r\n        candidates[newCandidate.id] = newCandidate;\r\n        elections[electionNum-1].candidates.push(candidates[newCandidate.id]);\r\n    }\r\n\r\n    function vote(uint256 voteForId) public onlyWhenElectionIsActive onlyWhenEligibleToVote {\r\n        //TODO only token holders are eligibel for voting\r\n        //increment the vote mapping for the candidate\r\n        candidateVotes[voteForId]++;\r\n        //and increment its votes\r\n        for(uint i = 0; i < elections[electionNum-1].candidates.length; i++) {\r\n            if (elections[electionNum-1].candidates[i].id == voteForId) {\r\n                elections[electionNum-1].candidates[i].votes++;\r\n            }\r\n        }\r\n        //add the address to the alreadyVoted array\r\n        elections[electionNum-1].alreadyVoted.push(msg.sender);\r\n    }\r\n\r\n    function getLastElectionWinners() public view returns (DataTypes.Governor[] memory) {\r\n        //return the top three voted candidates for the last election\r\n        DataTypes.Governor[] memory winners = new DataTypes.Governor[](3);\r\n        uint smallestVotedIndex = 0;\r\n\r\n        DataTypes.Election storage lastElection = elections[electionNum-2];\r\n\r\n        for(uint i = 0; i < lastElection.candidates.length; i++) {\r\n            if (winners[smallestVotedIndex].votes <= lastElection.candidates[i].votes) {\r\n                winners[smallestVotedIndex] = lastElection.candidates[i];\r\n\r\n                for(uint j = 0; j < winners.length; j++){\r\n                    if (winners[j].votes < winners[smallestVotedIndex].votes) {\r\n                        smallestVotedIndex = j;\r\n                    }\r\n                }\r\n            }\r\n        }\r\n        return winners;\r\n    }\r\n\r\n    function getCurrentElection() public view returns(DataTypes.Election memory) {\r\n        DataTypes.Election memory election = elections[electionNum-1];\r\n        return election;\r\n    }\r\n\r\n    // this methods should be called every time when someone visits the site\r\n    // function checkElection() public {\r\n    //     if (elections[electionNum-1].electionStartsAt <= block.timestamp && elections[electionNum-1].electionEndsAt >= block.timestamp) {\r\n    //         // election is active => do nothing\r\n    //     } else {\r\n    //         // election is not active\r\n    //         if(block.timestamp > elections[electionNum-1].electionEndsAt){\r\n    //             // election is over => close it\r\n    //             //craete new election by incrementing the election num\r\n    //             DataTypes.Election storage election = elections[electionNum++];\r\n\r\n    //             election.electionStartsAt = block.timestamp + ELECTION_START_IN;\r\n    //             election.electionEndsAt = block.timestamp + (ELECTION_START_IN+ELECTION_LASTS_FOR);\r\n    //         } else {\r\n    //             // election has not yet started => do nothing\r\n    //         }\r\n    //     }\r\n    // }\r\n\r\n\r\n\r\n    ///////////////////////////////////////////////////////////////////////////\r\n    /////////FUNCTIONS FOR DEBUGGING\r\n    ///////////////////////////////////////////////////////////////////////////\r\n    function setElectionLastsFor(uint256 electionLastsFor) public{\r\n        //TODO require that only the owner can call this function\r\n        ELECTION_LASTS_FOR = electionLastsFor;\r\n    }\r\n\r\n    function setElectionStartIn(uint256 electionStartIn) public{\r\n        //TODO require that only the electionStartIn can call this function\r\n        ELECTION_LASTS_FOR = electionStartIn;\r\n    }\r\n\r\n    function endCurrentElectionAndStartANewOne() public{\r\n        //TODO require that only the owner can call this function\r\n        DataTypes.Election storage election = elections[electionNum++];\r\n\r\n        election.electionStartsAt = block.timestamp;\r\n        election.electionEndsAt = block.timestamp + (ELECTION_START_IN+ELECTION_LASTS_FOR);\r\n    }\r\n\r\n\r\n    function forceVote(uint256 voteForId) public {\r\n        //TODO only token holders are eligibel for voting\r\n        //increment the vote mapping for the candidate\r\n        candidateVotes[voteForId]++;\r\n        //and increment its votes\r\n        for(uint i = 0; i < elections[electionNum-1].candidates.length; i++) {\r\n            if (elections[electionNum-1].candidates[i].id == voteForId) {\r\n                elections[electionNum-1].candidates[i].votes++;\r\n            }\r\n        }\r\n        //add the address to the alreadyVoted array\r\n        elections[electionNum-1].alreadyVoted.push(msg.sender);\r\n    }\r\n\r\n    function forceApplyAsCandidate(string memory name, string memory description) public {\r\n        DataTypes.Governor memory newCandidate = DataTypes.Governor({\r\n            id: candidateNum++,\r\n            name: name,\r\n            description: description,\r\n            owner: msg.sender,\r\n            votes: 0\r\n        });\r\n\r\n        candidates[newCandidate.id] = newCandidate;\r\n        elections[electionNum-1].candidates.push(candidates[newCandidate.id]);\r\n    }\r\n}",
  "sourcePath": "C:\\Users\\gguzm\\Development\\_crypto\\rome-nuxt\\contracts\\GovernorElection.sol",
  "compiler": {
    "name": "solc",
    "version": "0.8.14+commit.80d49f37.Emscripten.clang"
  },
  "schemaVersion": "3.4.7",
  "updatedAt": "2022-06-19T13:50:24.707Z",
  "networkType": "ethereum",
  "devdoc": {
    "kind": "dev",
    "methods": {
      "owner()": {
        "details": "Returns the address of the current owner."
      },
      "renounceOwnership()": {
        "details": "Leaves the contract without owner. It will not be possible to call `onlyOwner` functions anymore. Can only be called by the current owner. NOTE: Renouncing ownership will leave the contract without an owner, thereby removing any functionality that is only available to the owner."
      },
      "transferOwnership(address)": {
        "details": "Transfers ownership of the contract to a new account (`newOwner`). Can only be called by the current owner."
      }
    },
    "version": 1
  },
  "userdoc": {
    "kind": "user",
    "methods": {},
    "version": 1
  }
}