{
  "contractName": "GovernorElection",
  "abi": [
    {
      "inputs": [],
      "stateMutability": "nonpayable",
      "type": "constructor"
    },
    {
      "anonymous": false,
      "inputs": [
        {
          "indexed": true,
          "internalType": "address",
          "name": "previousOwner",
          "type": "address"
        },
        {
          "indexed": true,
          "internalType": "address",
          "name": "newOwner",
          "type": "address"
        }
      ],
      "name": "OwnershipTransferred",
      "type": "event"
    },
    {
      "inputs": [],
      "name": "owner",
      "outputs": [
        {
          "internalType": "address",
          "name": "",
          "type": "address"
        }
      ],
      "stateMutability": "view",
      "type": "function",
      "constant": true
    },
    {
      "inputs": [],
      "name": "renounceOwnership",
      "outputs": [],
      "stateMutability": "nonpayable",
      "type": "function"
    },
    {
      "inputs": [
        {
          "internalType": "address",
          "name": "newOwner",
          "type": "address"
        }
      ],
      "name": "transferOwnership",
      "outputs": [],
      "stateMutability": "nonpayable",
      "type": "function"
    },
    {
      "inputs": [
        {
          "internalType": "address",
          "name": "addr",
          "type": "address"
        }
      ],
      "name": "hasCandidateByAddress",
      "outputs": [
        {
          "internalType": "bool",
          "name": "",
          "type": "bool"
        }
      ],
      "stateMutability": "view",
      "type": "function",
      "constant": true
    },
    {
      "inputs": [
        {
          "internalType": "address",
          "name": "addr",
          "type": "address"
        }
      ],
      "name": "hasAddressAlreadyVoted",
      "outputs": [
        {
          "internalType": "bool",
          "name": "",
          "type": "bool"
        }
      ],
      "stateMutability": "view",
      "type": "function",
      "constant": true
    },
    {
      "inputs": [
        {
          "internalType": "string",
          "name": "name",
          "type": "string"
        },
        {
          "internalType": "string",
          "name": "description",
          "type": "string"
        }
      ],
      "name": "applyAsCandidate",
      "outputs": [],
      "stateMutability": "nonpayable",
      "type": "function"
    },
    {
      "inputs": [
        {
          "internalType": "uint256",
          "name": "voteForId",
          "type": "uint256"
        }
      ],
      "name": "vote",
      "outputs": [],
      "stateMutability": "nonpayable",
      "type": "function"
    },
    {
      "inputs": [],
      "name": "getLastElectionWinners",
      "outputs": [
        {
          "components": [
            {
              "internalType": "uint256",
              "name": "id",
              "type": "uint256"
            },
            {
              "internalType": "string",
              "name": "name",
              "type": "string"
            },
            {
              "internalType": "string",
              "name": "description",
              "type": "string"
            },
            {
              "internalType": "address",
              "name": "owner",
              "type": "address"
            },
            {
              "internalType": "uint256",
              "name": "votes",
              "type": "uint256"
            }
          ],
          "internalType": "struct DataTypes.Governor[]",
          "name": "",
          "type": "tuple[]"
        }
      ],
      "stateMutability": "view",
      "type": "function",
      "constant": true
    },
    {
      "inputs": [],
      "name": "getCurrentElection",
      "outputs": [
        {
          "components": [
            {
              "internalType": "uint256",
              "name": "electionStartsAt",
              "type": "uint256"
            },
            {
              "internalType": "uint256",
              "name": "electionEndsAt",
              "type": "uint256"
            },
            {
              "components": [
                {
                  "internalType": "uint256",
                  "name": "id",
                  "type": "uint256"
                },
                {
                  "internalType": "string",
                  "name": "name",
                  "type": "string"
                },
                {
                  "internalType": "string",
                  "name": "description",
                  "type": "string"
                },
                {
                  "internalType": "address",
                  "name": "owner",
                  "type": "address"
                },
                {
                  "internalType": "uint256",
                  "name": "votes",
                  "type": "uint256"
                }
              ],
              "internalType": "struct DataTypes.Governor[]",
              "name": "candidates",
              "type": "tuple[]"
            },
            {
              "internalType": "address[]",
              "name": "alreadyVoted",
              "type": "address[]"
            }
          ],
          "internalType": "struct DataTypes.Election",
          "name": "",
          "type": "tuple"
        }
      ],
      "stateMutability": "view",
      "type": "function",
      "constant": true
    },
    {
      "inputs": [
        {
          "internalType": "uint256",
          "name": "electionLastsFor",
          "type": "uint256"
        }
      ],
      "name": "setElectionLastsFor",
      "outputs": [],
      "stateMutability": "nonpayable",
      "type": "function"
    },
    {
      "inputs": [
        {
          "internalType": "uint256",
          "name": "electionStartIn",
          "type": "uint256"
        }
      ],
      "name": "setElectionStartIn",
      "outputs": [],
      "stateMutability": "nonpayable",
      "type": "function"
    },
    {
      "inputs": [],
      "name": "endCurrentElectionAndStartANewOne",
      "outputs": [],
      "stateMutability": "nonpayable",
      "type": "function"
    },
    {
      "inputs": [
        {
          "internalType": "uint256",
          "name": "voteForId",
          "type": "uint256"
        }
      ],
      "name": "forceVote",
      "outputs": [],
      "stateMutability": "nonpayable",
      "type": "function"
    },
    {
      "inputs": [
        {
          "internalType": "string",
          "name": "name",
          "type": "string"
        },
        {
          "internalType": "string",
          "name": "description",
          "type": "string"
        }
      ],
      "name": "forceApplyAsCandidate",
      "outputs": [],
      "stateMutability": "nonpayable",
      "type": "function"
    }
  ],
  "bytecode": "0x60806040526201518060015562093a8060025560006003553480156200002457600080fd5b506200004562000039620000ba60201b60201c565b620000c260201b60201c565b600060066000600560008154809291906200006090620001bf565b9190505581526020019081526020016000209050600154426200008491906200020c565b81600001819055506002546001546200009e91906200020c565b42620000ab91906200020c565b81600101819055505062000269565b600033905090565b60008060009054906101000a900473ffffffffffffffffffffffffffffffffffffffff169050816000806101000a81548173ffffffffffffffffffffffffffffffffffffffff021916908373ffffffffffffffffffffffffffffffffffffffff1602179055508173ffffffffffffffffffffffffffffffffffffffff168173ffffffffffffffffffffffffffffffffffffffff167f8be0079c531659141344cd1fd0a4f28419497f9722a3daafe3b4186f6b6457e060405160405180910390a35050565b7f4e487b7100000000000000000000000000000000000000000000000000000000600052601160045260246000fd5b6000819050919050565b6000620001cc82620001b5565b91507fffffffffffffffffffffffffffffffffffffffffffffffffffffffffffffffff820362000201576200020062000186565b5b600182019050919050565b60006200021982620001b5565b91506200022683620001b5565b9250827fffffffffffffffffffffffffffffffffffffffffffffffffffffffffffffffff038211156200025e576200025d62000186565b5b828201905092915050565b61256d80620002796000396000f3fe608060405234801561001057600080fd5b50600436106100ea5760003560e01c80639690382e1161008c578063e22712e811610066578063e22712e81461020f578063eff41bb314610219578063f2fde38b14610249578063f7ae701514610265576100ea565b80639690382e146101b9578063ac4fb60d146101d5578063b0b0e68d146101f1576100ea565b80635ca115e9116100c85780635ca115e9146101575780635ed3291d14610175578063715018a6146101915780638da5cb5b1461019b576100ea565b80630121b93f146100ef57806316d5b9aa1461010b57806333c5226b14610127575b600080fd5b61010960048036038101906101049190611a24565b610281565b005b61012560048036038101906101209190611b97565b610559565b005b610141600480360381019061013c9190611c6d565b610787565b60405161014e9190611cb5565b60405180910390f35b61015f610880565b60405161016c9190611eb5565b60405180910390f35b61018f600480360381019061018a9190611a24565b610bc0565b005b610199610c46565b005b6101a3610cce565b6040516101b09190611ee6565b60405180910390f35b6101d360048036038101906101ce9190611a24565b610cf7565b005b6101ef60048036038101906101ea9190611a24565b610d7d565b005b6101f9610f20565b60405161020691906120a0565b60405180910390f35b6102176111ee565b005b610233600480360381019061022e9190611c6d565b6112c6565b6040516102409190611cb5565b60405180910390f35b610263600480360381019061025e9190611c6d565b6113b8565b005b61027f600480360381019061027a9190611b97565b6114af565b005b4260066000600160055461029591906120f1565b815260200190815260200160002060000154111580156102d95750426006600060016005546102c491906120f1565b81526020019081526020016000206001015410155b610318576040517f08c379a000000000000000000000000000000000000000000000000000000000815260040161030f90612182565b60405180910390fd5b6000151561032533610787565b151514610367576040517f08c379a000000000000000000000000000000000000000000000000000000000815260040161035e90612214565b60405180910390fd5b60001515610374336112c6565b1515146103b6576040517f08c379a00000000000000000000000000000000000000000000000000000000081526004016103ad90612280565b60405180910390fd5b6007600082815260200190815260200160002060008154809291906103da906122a0565b919050555060005b6006600060016005546103f591906120f1565b8152602001908152602001600020600201805490508110156104d0578160066000600160055461042591906120f1565b81526020019081526020016000206002018281548110610448576104476122e8565b5b906000526020600020906005020160000154036104bd5760066000600160055461047291906120f1565b81526020019081526020016000206002018181548110610495576104946122e8565b5b906000526020600020906005020160040160008154809291906104b7906122a0565b91905055505b80806104c8906122a0565b9150506103e2565b506006600060016005546104e491906120f1565b8152602001908152602001600020600301339080600181540180825580915050600190039060005260206000200160009091909190916101000a81548173ffffffffffffffffffffffffffffffffffffffff021916908373ffffffffffffffffffffffffffffffffffffffff16021790555050565b60006040518060a0016040528060036000815480929190610579906122a0565b9190505581526020018481526020018381526020013373ffffffffffffffffffffffffffffffffffffffff168152602001600081525090508060046000836000015181526020019081526020016000206000820151816000015560208201518160010190805190602001906105ef92919061183d565b50604082015181600201908051906020019061060c92919061183d565b5060608201518160030160006101000a81548173ffffffffffffffffffffffffffffffffffffffff021916908373ffffffffffffffffffffffffffffffffffffffff1602179055506080820151816004015590505060066000600160055461067491906120f1565b8152602001908152602001600020600201600460008360000151815260200190815260200160002090806001815401808255809150506001900390600052602060002090600502016000909190919091506000820154816000015560018201816001019080546106e390612346565b6106ee9291906118c3565b50600282018160020190805461070390612346565b61070e9291906118c3565b506003820160009054906101000a900473ffffffffffffffffffffffffffffffffffffffff168160030160006101000a81548173ffffffffffffffffffffffffffffffffffffffff021916908373ffffffffffffffffffffffffffffffffffffffff160217905550600482015481600401555050505050565b600080600090505b6006600060016005546107a291906120f1565b815260200190815260200160002060020180549050811015610875578273ffffffffffffffffffffffffffffffffffffffff166006600060016005546107e891906120f1565b8152602001908152602001600020600201828154811061080b5761080a6122e8565b5b906000526020600020906005020160030160009054906101000a900473ffffffffffffffffffffffffffffffffffffffff1673ffffffffffffffffffffffffffffffffffffffff160361086257600191505061087b565b808061086d906122a0565b91505061078f565b50600090505b919050565b60606000600367ffffffffffffffff81111561089f5761089e611a6c565b5b6040519080825280602002602001820160405280156108d857816020015b6108c5611950565b8152602001906001900390816108bd5790505b5090506000806006600060026005546108f191906120f1565b8152602001908152602001600020905060005b8160020180549050811015610bb657816002018181548110610929576109286122e8565b5b90600052602060002090600502016004015484848151811061094e5761094d6122e8565b5b60200260200101516080015111610ba357816002018181548110610975576109746122e8565b5b90600052602060002090600502016040518060a0016040529081600082015481526020016001820180546109a890612346565b80601f01602080910402602001604051908101604052809291908181526020018280546109d490612346565b8015610a215780601f106109f657610100808354040283529160200191610a21565b820191906000526020600020905b815481529060010190602001808311610a0457829003601f168201915b50505050508152602001600282018054610a3a90612346565b80601f0160208091040260200160405190810160405280929190818152602001828054610a6690612346565b8015610ab35780601f10610a8857610100808354040283529160200191610ab3565b820191906000526020600020905b815481529060010190602001808311610a9657829003601f168201915b505050505081526020016003820160009054906101000a900473ffffffffffffffffffffffffffffffffffffffff1673ffffffffffffffffffffffffffffffffffffffff1673ffffffffffffffffffffffffffffffffffffffff168152602001600482015481525050848481518110610b2f57610b2e6122e8565b5b602002602001018190525060005b8451811015610ba157848481518110610b5957610b586122e8565b5b602002602001015160800151858281518110610b7857610b776122e8565b5b6020026020010151608001511015610b8e578093505b8080610b99906122a0565b915050610b3d565b505b8080610bae906122a0565b915050610904565b5082935050505090565b610bc8611771565b73ffffffffffffffffffffffffffffffffffffffff16610be6610cce565b73ffffffffffffffffffffffffffffffffffffffff1614610c3c576040517f08c379a0000000000000000000000000000000000000000000000000000000008152600401610c33906123c3565b60405180910390fd5b8060028190555050565b610c4e611771565b73ffffffffffffffffffffffffffffffffffffffff16610c6c610cce565b73ffffffffffffffffffffffffffffffffffffffff1614610cc2576040517f08c379a0000000000000000000000000000000000000000000000000000000008152600401610cb9906123c3565b60405180910390fd5b610ccc6000611779565b565b60008060009054906101000a900473ffffffffffffffffffffffffffffffffffffffff16905090565b610cff611771565b73ffffffffffffffffffffffffffffffffffffffff16610d1d610cce565b73ffffffffffffffffffffffffffffffffffffffff1614610d73576040517f08c379a0000000000000000000000000000000000000000000000000000000008152600401610d6a906123c3565b60405180910390fd5b8060028190555050565b600760008281526020019081526020016000206000815480929190610da1906122a0565b919050555060005b600660006001600554610dbc91906120f1565b815260200190815260200160002060020180549050811015610e975781600660006001600554610dec91906120f1565b81526020019081526020016000206002018281548110610e0f57610e0e6122e8565b5b90600052602060002090600502016000015403610e8457600660006001600554610e3991906120f1565b81526020019081526020016000206002018181548110610e5c57610e5b6122e8565b5b90600052602060002090600502016004016000815480929190610e7e906122a0565b91905055505b8080610e8f906122a0565b915050610da9565b50600660006001600554610eab91906120f1565b8152602001908152602001600020600301339080600181540180825580915050600190039060005260206000200160009091909190916101000a81548173ffffffffffffffffffffffffffffffffffffffff021916908373ffffffffffffffffffffffffffffffffffffffff16021790555050565b610f28611995565b6000600660006001600554610f3d91906120f1565b8152602001908152602001600020604051806080016040529081600082015481526020016001820154815260200160028201805480602002602001604051908101604052809291908181526020016000905b8282101561114f57838290600052602060002090600502016040518060a001604052908160008201548152602001600182018054610fcc90612346565b80601f0160208091040260200160405190810160405280929190818152602001828054610ff890612346565b80156110455780601f1061101a57610100808354040283529160200191611045565b820191906000526020600020905b81548152906001019060200180831161102857829003601f168201915b5050505050815260200160028201805461105e90612346565b80601f016020809104026020016040519081016040528092919081815260200182805461108a90612346565b80156110d75780601f106110ac576101008083540402835291602001916110d7565b820191906000526020600020905b8154815290600101906020018083116110ba57829003601f168201915b505050505081526020016003820160009054906101000a900473ffffffffffffffffffffffffffffffffffffffff1673ffffffffffffffffffffffffffffffffffffffff1673ffffffffffffffffffffffffffffffffffffffff16815260200160048201548152505081526020019060010190610f8f565b505050508152602001600382018054806020026020016040519081016040528092919081815260200182805480156111dc57602002820191906000526020600020905b8160009054906101000a900473ffffffffffffffffffffffffffffffffffffffff1673ffffffffffffffffffffffffffffffffffffffff1681526020019060010190808311611192575b50505050508152505090508091505090565b6111f6611771565b73ffffffffffffffffffffffffffffffffffffffff16611214610cce565b73ffffffffffffffffffffffffffffffffffffffff161461126a576040517f08c379a0000000000000000000000000000000000000000000000000000000008152600401611261906123c3565b60405180910390fd5b60006006600060056000815480929190611283906122a0565b91905055815260200190815260200160002090504281600001819055506002546001546112b091906123e3565b426112bb91906123e3565b816001018190555050565b600080600090505b6006600060016005546112e191906120f1565b8152602001908152602001600020600301805490508110156113ad578273ffffffffffffffffffffffffffffffffffffffff1660066000600160055461132791906120f1565b8152602001908152602001600020600301828154811061134a576113496122e8565b5b9060005260206000200160009054906101000a900473ffffffffffffffffffffffffffffffffffffffff1673ffffffffffffffffffffffffffffffffffffffff160361139a5760019150506113b3565b80806113a5906122a0565b9150506112ce565b50600090505b919050565b6113c0611771565b73ffffffffffffffffffffffffffffffffffffffff166113de610cce565b73ffffffffffffffffffffffffffffffffffffffff1614611434576040517f08c379a000000000000000000000000000000000000000000000000000000000815260040161142b906123c3565b60405180910390fd5b600073ffffffffffffffffffffffffffffffffffffffff168173ffffffffffffffffffffffffffffffffffffffff16036114a3576040517f08c379a000000000000000000000000000000000000000000000000000000000815260040161149a906124ab565b60405180910390fd5b6114ac81611779565b50565b426006600060016005546114c391906120f1565b81526020019081526020016000206000015411806115045750426006600060016005546114f091906120f1565b815260200190815260200160002060010154105b611543576040517f08c379a000000000000000000000000000000000000000000000000000000000815260040161153a90612517565b60405180910390fd5b60006040518060a0016040528060036000815480929190611563906122a0565b9190505581526020018481526020018381526020013373ffffffffffffffffffffffffffffffffffffffff168152602001600081525090508060046000836000015181526020019081526020016000206000820151816000015560208201518160010190805190602001906115d992919061183d565b5060408201518160020190805190602001906115f692919061183d565b5060608201518160030160006101000a81548173ffffffffffffffffffffffffffffffffffffffff021916908373ffffffffffffffffffffffffffffffffffffffff1602179055506080820151816004015590505060066000600160055461165e91906120f1565b8152602001908152602001600020600201600460008360000151815260200190815260200160002090806001815401808255809150506001900390600052602060002090600502016000909190919091506000820154816000015560018201816001019080546116cd90612346565b6116d89291906118c3565b5060028201816002019080546116ed90612346565b6116f89291906118c3565b506003820160009054906101000a900473ffffffffffffffffffffffffffffffffffffffff168160030160006101000a81548173ffffffffffffffffffffffffffffffffffffffff021916908373ffffffffffffffffffffffffffffffffffffffff160217905550600482015481600401555050505050565b600033905090565b60008060009054906101000a900473ffffffffffffffffffffffffffffffffffffffff169050816000806101000a81548173ffffffffffffffffffffffffffffffffffffffff021916908373ffffffffffffffffffffffffffffffffffffffff1602179055508173ffffffffffffffffffffffffffffffffffffffff168173ffffffffffffffffffffffffffffffffffffffff167f8be0079c531659141344cd1fd0a4f28419497f9722a3daafe3b4186f6b6457e060405160405180910390a35050565b82805461184990612346565b90600052602060002090601f01602090048101928261186b57600085556118b2565b82601f1061188457805160ff19168380011785556118b2565b828001600101855582156118b2579182015b828111156118b1578251825591602001919060010190611896565b5b5090506118bf91906119bd565b5090565b8280546118cf90612346565b90600052602060002090601f0160209004810192826118f1576000855561193f565b82601f10611902578054855561193f565b8280016001018555821561193f57600052602060002091601f016020900482015b8281111561193e578254825591600101919060010190611923565b5b50905061194c91906119bd565b5090565b6040518060a00160405280600081526020016060815260200160608152602001600073ffffffffffffffffffffffffffffffffffffffff168152602001600081525090565b6040518060800160405280600081526020016000815260200160608152602001606081525090565b5b808211156119d65760008160009055506001016119be565b5090565b6000604051905090565b600080fd5b600080fd5b6000819050919050565b611a01816119ee565b8114611a0c57600080fd5b50565b600081359050611a1e816119f8565b92915050565b600060208284031215611a3a57611a396119e4565b5b6000611a4884828501611a0f565b91505092915050565b600080fd5b600080fd5b6000601f19601f8301169050919050565b7f4e487b7100000000000000000000000000000000000000000000000000000000600052604160045260246000fd5b611aa482611a5b565b810181811067ffffffffffffffff82111715611ac357611ac2611a6c565b5b80604052505050565b6000611ad66119da565b9050611ae28282611a9b565b919050565b600067ffffffffffffffff821115611b0257611b01611a6c565b5b611b0b82611a5b565b9050602081019050919050565b82818337600083830152505050565b6000611b3a611b3584611ae7565b611acc565b905082815260208101848484011115611b5657611b55611a56565b5b611b61848285611b18565b509392505050565b600082601f830112611b7e57611b7d611a51565b5b8135611b8e848260208601611b27565b91505092915050565b60008060408385031215611bae57611bad6119e4565b5b600083013567ffffffffffffffff811115611bcc57611bcb6119e9565b5b611bd885828601611b69565b925050602083013567ffffffffffffffff811115611bf957611bf86119e9565b5b611c0585828601611b69565b9150509250929050565b600073ffffffffffffffffffffffffffffffffffffffff82169050919050565b6000611c3a82611c0f565b9050919050565b611c4a81611c2f565b8114611c5557600080fd5b50565b600081359050611c6781611c41565b92915050565b600060208284031215611c8357611c826119e4565b5b6000611c9184828501611c58565b91505092915050565b60008115159050919050565b611caf81611c9a565b82525050565b6000602082019050611cca6000830184611ca6565b92915050565b600081519050919050565b600082825260208201905092915050565b6000819050602082019050919050565b611d05816119ee565b82525050565b600081519050919050565b600082825260208201905092915050565b60005b83811015611d45578082015181840152602081019050611d2a565b83811115611d54576000848401525b50505050565b6000611d6582611d0b565b611d6f8185611d16565b9350611d7f818560208601611d27565b611d8881611a5b565b840191505092915050565b611d9c81611c2f565b82525050565b600060a083016000830151611dba6000860182611cfc565b5060208301518482036020860152611dd28282611d5a565b91505060408301518482036040860152611dec8282611d5a565b9150506060830151611e016060860182611d93565b506080830151611e146080860182611cfc565b508091505092915050565b6000611e2b8383611da2565b905092915050565b6000602082019050919050565b6000611e4b82611cd0565b611e558185611cdb565b935083602082028501611e6785611cec565b8060005b85811015611ea35784840389528151611e848582611e1f565b9450611e8f83611e33565b925060208a01995050600181019050611e6b565b50829750879550505050505092915050565b60006020820190508181036000830152611ecf8184611e40565b905092915050565b611ee081611c2f565b82525050565b6000602082019050611efb6000830184611ed7565b92915050565b600082825260208201905092915050565b6000611f1d82611cd0565b611f278185611f01565b935083602082028501611f3985611cec565b8060005b85811015611f755784840389528151611f568582611e1f565b9450611f6183611e33565b925060208a01995050600181019050611f3d565b50829750879550505050505092915050565b600081519050919050565b600082825260208201905092915050565b6000819050602082019050919050565b6000611fbf8383611d93565b60208301905092915050565b6000602082019050919050565b6000611fe382611f87565b611fed8185611f92565b9350611ff883611fa3565b8060005b838110156120295781516120108882611fb3565b975061201b83611fcb565b925050600181019050611ffc565b5085935050505092915050565b600060808301600083015161204e6000860182611cfc565b5060208301516120616020860182611cfc565b50604083015184820360408601526120798282611f12565b915050606083015184820360608601526120938282611fd8565b9150508091505092915050565b600060208201905081810360008301526120ba8184612036565b905092915050565b7f4e487b7100000000000000000000000000000000000000000000000000000000600052601160045260246000fd5b60006120fc826119ee565b9150612107836119ee565b92508282101561211a576121196120c2565b5b828203905092915050565b600082825260208201905092915050565b7f456c656374696f6e206973206e6f742061637469766500000000000000000000600082015250565b600061216c601683612125565b915061217782612136565b602082019050919050565b6000602082019050818103600083015261219b8161215f565b9050919050565b7f596f7520617265206e6f7420656c696769626c6520746f20766f74652c20626560008201527f636175736520796f752061726520612063616e64696461746500000000000000602082015250565b60006121fe603983612125565b9150612209826121a2565b604082019050919050565b6000602082019050818103600083015261222d816121f1565b9050919050565b7f596f75206861766520616c726561647920766f74656400000000000000000000600082015250565b600061226a601683612125565b915061227582612234565b602082019050919050565b600060208201905081810360008301526122998161225d565b9050919050565b60006122ab826119ee565b91507fffffffffffffffffffffffffffffffffffffffffffffffffffffffffffffffff82036122dd576122dc6120c2565b5b600182019050919050565b7f4e487b7100000000000000000000000000000000000000000000000000000000600052603260045260246000fd5b7f4e487b7100000000000000000000000000000000000000000000000000000000600052602260045260246000fd5b6000600282049050600182168061235e57607f821691505b60208210810361237157612370612317565b5b50919050565b7f4f776e61626c653a2063616c6c6572206973206e6f7420746865206f776e6572600082015250565b60006123ad602083612125565b91506123b882612377565b602082019050919050565b600060208201905081810360008301526123dc816123a0565b9050919050565b60006123ee826119ee565b91506123f9836119ee565b9250827fffffffffffffffffffffffffffffffffffffffffffffffffffffffffffffffff0382111561242e5761242d6120c2565b5b828201905092915050565b7f4f776e61626c653a206e6577206f776e657220697320746865207a65726f206160008201527f6464726573730000000000000000000000000000000000000000000000000000602082015250565b6000612495602683612125565b91506124a082612439565b604082019050919050565b600060208201905081810360008301526124c481612488565b9050919050565b7f456c656374696f6e206973206163746976650000000000000000000000000000600082015250565b6000612501601283612125565b915061250c826124cb565b602082019050919050565b60006020820190508181036000830152612530816124f4565b905091905056fea2646970667358221220bb88d37992b0841b32b61484907f3684e9dc45a11a27fc6d9573389409e6438164736f6c634300080e0033",
  "immutableReferences": {},
  "source": "//SPDX-License-Identifier: UNLICENSED\r\npragma solidity >=0.8.0 <0.9.0;\r\n\r\nimport \"@openzeppelin/contracts/access/Ownable.sol\";\r\n\r\nimport { DataTypes } from './libraries/DataTypes.sol';\r\n\r\ncontract GovernorElection is Ownable {\r\n    ///////////////////////////////////////////////////////////////////////////\r\n    /////////CONSTANTS\r\n    ///////////////////////////////////////////////////////////////////////////\r\n    uint ELECTION_START_IN = 60*60*24*1; // 1 days\r\n    uint ELECTION_LASTS_FOR = 60*60*24*7; // 7 days\r\n    \r\n\r\n    ///////////////////////////////////////////////////////////////////////////\r\n    /////////PROPERTY VARIABLES\r\n    ///////////////////////////////////////////////////////////////////////////\r\n    uint256 candidateNum = 0;\r\n    mapping(uint256 => DataTypes.Governor) candidates;\r\n\r\n    uint256 electionNum;\r\n    mapping(uint256 => DataTypes.Election) elections;\r\n\r\n    // The mapping of the current candidate votes id => votes\r\n    mapping(uint => uint) candidateVotes;\r\n\r\n    \r\n\r\n    ///////////////////////////////////////////////////////////////////////////\r\n    /////////CONSTRUCTOR\r\n    ///////////////////////////////////////////////////////////////////////////\r\n    constructor() {\r\n        DataTypes.Election storage election = elections[electionNum++];\r\n        election.electionStartsAt = block.timestamp + ELECTION_START_IN; //first election starts ELECTION_LASTS_FOR from now\r\n        election.electionEndsAt = block.timestamp + (ELECTION_START_IN+ELECTION_LASTS_FOR); //and ends 2*ELECTION_LASTS_FOR from now\r\n    }\r\n    \r\n\r\n    ///////////////////////////////////////////////////////////////////////////\r\n    /////////MODIFIERS\r\n    ///////////////////////////////////////////////////////////////////////////\r\n    modifier onlyWhenElectionIsActive() {\r\n        require(elections[electionNum-1].electionStartsAt <= block.timestamp && elections[electionNum-1].electionEndsAt >= block.timestamp, \"Election is not active\");\r\n        _;\r\n    }\r\n\r\n    modifier onlyWhenElectionIsNotActive() {\r\n        require(elections[electionNum-1].electionStartsAt > block.timestamp || elections[electionNum-1].electionEndsAt < block.timestamp, \"Election is active\");\r\n        _;\r\n    }\r\n\r\n    modifier onlyWhenEligibleToVote() {\r\n        require(hasCandidateByAddress(msg.sender) == false, \"You are not eligible to vote, because you are a candidate\");\r\n        require(hasAddressAlreadyVoted(msg.sender) == false, \"You have already voted\");\r\n        _;\r\n    }\r\n\r\n    ///////////////////////////////////////////////////////////////////////////\r\n    /////////FUNCTIONS\r\n    ///////////////////////////////////////////////////////////////////////////\r\n    function hasCandidateByAddress(address addr) public view returns (bool) {\r\n        for (uint i = 0; i < elections[electionNum-1].candidates.length; i++) {\r\n            if (elections[electionNum-1].candidates[i].owner == addr) {\r\n                return true;\r\n            }\r\n        }\r\n        return false;\r\n    }\r\n\r\n    function hasAddressAlreadyVoted(address addr) public view returns (bool) {\r\n        for (uint i = 0; i < elections[electionNum-1].alreadyVoted.length; i++) {\r\n            if (elections[electionNum-1].alreadyVoted[i] == addr) {\r\n                return true;\r\n            }\r\n        }\r\n        return false;\r\n    }\r\n\r\n    function applyAsCandidate(string memory name, string memory description) public onlyWhenElectionIsNotActive {\r\n        DataTypes.Governor memory newCandidate = DataTypes.Governor({\r\n            id: candidateNum++,\r\n            name: name,\r\n            description: description,\r\n            owner: msg.sender,\r\n            votes: 0\r\n        });\r\n\r\n        candidates[newCandidate.id] = newCandidate;\r\n        elections[electionNum-1].candidates.push(candidates[newCandidate.id]);\r\n    }\r\n\r\n    function vote(uint256 voteForId) public onlyWhenElectionIsActive onlyWhenEligibleToVote {\r\n        //TODO only token holders are eligibel for voting\r\n        //increment the vote mapping for the candidate\r\n        candidateVotes[voteForId]++;\r\n        //and increment its votes\r\n        for(uint i = 0; i < elections[electionNum-1].candidates.length; i++) {\r\n            if (elections[electionNum-1].candidates[i].id == voteForId) {\r\n                elections[electionNum-1].candidates[i].votes++;\r\n            }\r\n        }\r\n        //add the address to the alreadyVoted array\r\n        elections[electionNum-1].alreadyVoted.push(msg.sender);\r\n    }\r\n\r\n    function getLastElectionWinners() public view returns (DataTypes.Governor[] memory) {\r\n        //return the top three voted candidates for the last election\r\n        DataTypes.Governor[] memory winners = new DataTypes.Governor[](3);\r\n        uint smallestVotedIndex = 0;\r\n\r\n        DataTypes.Election storage lastElection = elections[electionNum-2];\r\n\r\n        for(uint i = 0; i < lastElection.candidates.length; i++) {\r\n            if (winners[smallestVotedIndex].votes <= lastElection.candidates[i].votes) {\r\n                winners[smallestVotedIndex] = lastElection.candidates[i];\r\n\r\n                for(uint j = 0; j < winners.length; j++){\r\n                    if (winners[j].votes < winners[smallestVotedIndex].votes) {\r\n                        smallestVotedIndex = j;\r\n                    }\r\n                }\r\n            }\r\n        }\r\n        return winners;\r\n    }\r\n\r\n    function getCurrentElection() public view returns(DataTypes.Election memory) {\r\n        DataTypes.Election memory election = elections[electionNum-1];\r\n        return election;\r\n    }\r\n\r\n    // this methods should be called every time when someone visits the site\r\n    // function checkElection() public {\r\n    //     if (elections[electionNum-1].electionStartsAt <= block.timestamp && elections[electionNum-1].electionEndsAt >= block.timestamp) {\r\n    //         // election is active => do nothing\r\n    //     } else {\r\n    //         // election is not active\r\n    //         if(block.timestamp > elections[electionNum-1].electionEndsAt){\r\n    //             // election is over => close it\r\n    //             //craete new election by incrementing the election num\r\n    //             DataTypes.Election storage election = elections[electionNum++];\r\n\r\n    //             election.electionStartsAt = block.timestamp + ELECTION_START_IN;\r\n    //             election.electionEndsAt = block.timestamp + (ELECTION_START_IN+ELECTION_LASTS_FOR);\r\n    //         } else {\r\n    //             // election has not yet started => do nothing\r\n    //         }\r\n    //     }\r\n    // }\r\n\r\n\r\n\r\n    ///////////////////////////////////////////////////////////////////////////\r\n    /////////FUNCTIONS FOR DEBUGGING\r\n    ///////////////////////////////////////////////////////////////////////////\r\n    function setElectionLastsFor(uint256 electionLastsFor) onlyOwner public{\r\n        //TODO require that only the owner can call this function\r\n        ELECTION_LASTS_FOR = electionLastsFor;\r\n    }\r\n\r\n    function setElectionStartIn(uint256 electionStartIn) onlyOwner public{\r\n        //TODO require that only the electionStartIn can call this function\r\n        ELECTION_LASTS_FOR = electionStartIn;\r\n    }\r\n\r\n    function endCurrentElectionAndStartANewOne() onlyOwner public{\r\n        //TODO require that only the owner can call this function\r\n        DataTypes.Election storage election = elections[electionNum++];\r\n\r\n        election.electionStartsAt = block.timestamp;\r\n        election.electionEndsAt = block.timestamp + (ELECTION_START_IN+ELECTION_LASTS_FOR);\r\n    }\r\n\r\n\r\n    function forceVote(uint256 voteForId) public {\r\n        //TODO only token holders are eligibel for voting\r\n        //increment the vote mapping for the candidate\r\n        candidateVotes[voteForId]++;\r\n        //and increment its votes\r\n        for(uint i = 0; i < elections[electionNum-1].candidates.length; i++) {\r\n            if (elections[electionNum-1].candidates[i].id == voteForId) {\r\n                elections[electionNum-1].candidates[i].votes++;\r\n            }\r\n        }\r\n        //add the address to the alreadyVoted array\r\n        elections[electionNum-1].alreadyVoted.push(msg.sender);\r\n    }\r\n\r\n    function forceApplyAsCandidate(string memory name, string memory description) public {\r\n        DataTypes.Governor memory newCandidate = DataTypes.Governor({\r\n            id: candidateNum++,\r\n            name: name,\r\n            description: description,\r\n            owner: msg.sender,\r\n            votes: 0\r\n        });\r\n\r\n        candidates[newCandidate.id] = newCandidate;\r\n        elections[electionNum-1].candidates.push(candidates[newCandidate.id]);\r\n    }\r\n}",
  "sourcePath": "C:/Users/Riki/Desktop/Solidity + React/hackathon-rome-nuxt/contracts/GovernorElection.sol",
  "compiler": {
    "name": "solc",
    "version": "0.8.14+commit.80d49f37.Emscripten.clang"
  },
  "schemaVersion": "3.3.4",
  "updatedAt": "2022-06-16T21:37:13.615Z",
  "networkType": "ethereum",
  "devdoc": {
    "kind": "dev",
    "methods": {
      "owner()": {
        "details": "Returns the address of the current owner."
      },
      "renounceOwnership()": {
        "details": "Leaves the contract without owner. It will not be possible to call `onlyOwner` functions anymore. Can only be called by the current owner. NOTE: Renouncing ownership will leave the contract without an owner, thereby removing any functionality that is only available to the owner."
      },
      "transferOwnership(address)": {
        "details": "Transfers ownership of the contract to a new account (`newOwner`). Can only be called by the current owner."
      }
    },
    "version": 1
  },
  "userdoc": {
    "kind": "user",
    "methods": {},
    "version": 1
  }
}