{
  "contractName": "ProposalElection",
  "abi": [
    {
      "inputs": [
        {
          "internalType": "contract GovernorElection",
          "name": "_governorElection",
          "type": "address"
        }
      ],
      "stateMutability": "nonpayable",
      "type": "constructor"
    },
    {
      "anonymous": false,
      "inputs": [
        {
          "indexed": true,
          "internalType": "address",
          "name": "previousOwner",
          "type": "address"
        },
        {
          "indexed": true,
          "internalType": "address",
          "name": "newOwner",
          "type": "address"
        }
      ],
      "name": "OwnershipTransferred",
      "type": "event"
    },
    {
      "inputs": [],
      "name": "owner",
      "outputs": [
        {
          "internalType": "address",
          "name": "",
          "type": "address"
        }
      ],
      "stateMutability": "view",
      "type": "function",
      "constant": true
    },
    {
      "inputs": [],
      "name": "renounceOwnership",
      "outputs": [],
      "stateMutability": "nonpayable",
      "type": "function"
    },
    {
      "inputs": [
        {
          "internalType": "address",
          "name": "newOwner",
          "type": "address"
        }
      ],
      "name": "transferOwnership",
      "outputs": [],
      "stateMutability": "nonpayable",
      "type": "function"
    },
    {
      "inputs": [],
      "name": "donate",
      "outputs": [],
      "stateMutability": "payable",
      "type": "function",
      "payable": true
    },
    {
      "inputs": [
        {
          "internalType": "address",
          "name": "addr",
          "type": "address"
        },
        {
          "internalType": "uint256",
          "name": "proposalId",
          "type": "uint256"
        }
      ],
      "name": "hasAddressAlreadyVoted",
      "outputs": [
        {
          "internalType": "bool",
          "name": "",
          "type": "bool"
        }
      ],
      "stateMutability": "view",
      "type": "function",
      "constant": true
    },
    {
      "inputs": [
        {
          "internalType": "uint256",
          "name": "proposalId",
          "type": "uint256"
        }
      ],
      "name": "approveProposal",
      "outputs": [],
      "stateMutability": "nonpayable",
      "type": "function"
    },
    {
      "inputs": [
        {
          "internalType": "string",
          "name": "postId",
          "type": "string"
        },
        {
          "internalType": "string",
          "name": "title",
          "type": "string"
        },
        {
          "internalType": "string",
          "name": "description",
          "type": "string"
        },
        {
          "internalType": "address payable",
          "name": "target",
          "type": "address"
        },
        {
          "internalType": "uint256",
          "name": "expectedAmount",
          "type": "uint256"
        }
      ],
      "name": "createProposal",
      "outputs": [],
      "stateMutability": "nonpayable",
      "type": "function"
    },
    {
      "inputs": [
        {
          "internalType": "uint256",
          "name": "proposalId",
          "type": "uint256"
        }
      ],
      "name": "vote",
      "outputs": [],
      "stateMutability": "nonpayable",
      "type": "function"
    },
    {
      "inputs": [],
      "name": "getProposals",
      "outputs": [
        {
          "components": [
            {
              "internalType": "uint256",
              "name": "id",
              "type": "uint256"
            },
            {
              "internalType": "string",
              "name": "title",
              "type": "string"
            },
            {
              "internalType": "string",
              "name": "description",
              "type": "string"
            },
            {
              "internalType": "string",
              "name": "postId",
              "type": "string"
            },
            {
              "internalType": "uint256",
              "name": "expectedAmount",
              "type": "uint256"
            },
            {
              "internalType": "address",
              "name": "owner",
              "type": "address"
            },
            {
              "internalType": "address payable",
              "name": "target",
              "type": "address"
            },
            {
              "internalType": "uint256",
              "name": "votes",
              "type": "uint256"
            },
            {
              "internalType": "bool",
              "name": "passed",
              "type": "bool"
            },
            {
              "internalType": "bool",
              "name": "transfered",
              "type": "bool"
            },
            {
              "internalType": "address[]",
              "name": "alreadyVoted",
              "type": "address[]"
            },
            {
              "internalType": "uint256",
              "name": "lastsFor",
              "type": "uint256"
            }
          ],
          "internalType": "struct ProposalElection.Proposal[]",
          "name": "",
          "type": "tuple[]"
        }
      ],
      "stateMutability": "view",
      "type": "function",
      "constant": true
    },
    {
      "inputs": [],
      "name": "getVaultBalance",
      "outputs": [
        {
          "internalType": "uint256",
          "name": "",
          "type": "uint256"
        }
      ],
      "stateMutability": "view",
      "type": "function",
      "constant": true
    },
    {
      "inputs": [
        {
          "internalType": "uint256",
          "name": "proposalLastsFor",
          "type": "uint256"
        }
      ],
      "name": "setProposalLastsFor",
      "outputs": [],
      "stateMutability": "nonpayable",
      "type": "function"
    },
    {
      "inputs": [
        {
          "internalType": "uint256",
          "name": "proposalId",
          "type": "uint256"
        }
      ],
      "name": "passProposal",
      "outputs": [],
      "stateMutability": "nonpayable",
      "type": "function"
    },
    {
      "inputs": [
        {
          "internalType": "string",
          "name": "postId",
          "type": "string"
        },
        {
          "internalType": "string",
          "name": "title",
          "type": "string"
        },
        {
          "internalType": "string",
          "name": "description",
          "type": "string"
        }
      ],
      "name": "forceApplyAsCandidate",
      "outputs": [],
      "stateMutability": "nonpayable",
      "type": "function"
    }
  ],
  "bytecode": "0x6080604052603c6001553480156200001657600080fd5b5060405162002c1038038062002c1083398181016040528101906200003c9190620001ee565b6200005c62000050620000a460201b60201c565b620000ac60201b60201c565b80600260006101000a81548173ffffffffffffffffffffffffffffffffffffffff021916908373ffffffffffffffffffffffffffffffffffffffff1602179055505062000220565b600033905090565b60008060009054906101000a900473ffffffffffffffffffffffffffffffffffffffff169050816000806101000a81548173ffffffffffffffffffffffffffffffffffffffff021916908373ffffffffffffffffffffffffffffffffffffffff1602179055508173ffffffffffffffffffffffffffffffffffffffff168173ffffffffffffffffffffffffffffffffffffffff167f8be0079c531659141344cd1fd0a4f28419497f9722a3daafe3b4186f6b6457e060405160405180910390a35050565b600080fd5b600073ffffffffffffffffffffffffffffffffffffffff82169050919050565b6000620001a28262000175565b9050919050565b6000620001b68262000195565b9050919050565b620001c881620001a9565b8114620001d457600080fd5b50565b600081519050620001e881620001bd565b92915050565b60006020828403121562000207576200020662000170565b5b60006200021784828501620001d7565b91505092915050565b6129e080620002306000396000f3fe6080604052600436106100c25760003560e01c80638da5cb5b1161007f5780639c93e166116100595780639c93e1661461023e578063ed12e8ef14610267578063ed88c68e14610292578063f2fde38b1461029c576100c2565b80638da5cb5b146101c157806398951b56146101ec5780639a0c348014610215576100c2565b80630121b93f146100c7578063312ba3ee146100f05780633615cd781461012d57806362564c48146101565780636837d71314610181578063715018a6146101aa575b600080fd5b3480156100d357600080fd5b506100ee60048036038101906100e99190611a2e565b6102c5565b005b3480156100fc57600080fd5b5061011760048036038101906101129190611ab9565b610640565b6040516101249190611b14565b60405180910390f35b34801561013957600080fd5b50610154600480360381019061014f9190611c75565b610735565b005b34801561016257600080fd5b5061016b610942565b604051610178919061207c565b60405180910390f35b34801561018d57600080fd5b506101a860048036038101906101a39190611a2e565b610e71565b005b3480156101b657600080fd5b506101bf610ef7565b005b3480156101cd57600080fd5b506101d6610f7f565b6040516101e391906120ad565b60405180910390f35b3480156101f857600080fd5b50610213600480360381019061020e9190611a2e565b610fa8565b005b34801561022157600080fd5b5061023c600480360381019061023791906120f4565b6112de565b005b34801561024a57600080fd5b5061026560048036038101906102609190611a2e565b611626565b005b34801561027357600080fd5b5061027c6116e3565b60405161028991906121d2565b60405180910390f35b61029a6116eb565b005b3480156102a857600080fd5b506102c360048036038101906102be91906121ed565b6116ed565b005b6000600260009054906101000a900473ffffffffffffffffffffffffffffffffffffffff1673ffffffffffffffffffffffffffffffffffffffff16635ca115e96040518163ffffffff1660e01b8152600401600060405180830381865afa158015610334573d6000803e3d6000fd5b505050506040513d6000823e3d601f19601f8201168201806040525081019061035d9190612468565b90506000805b82518110156103ce573373ffffffffffffffffffffffffffffffffffffffff16838281518110610396576103956124b1565b5b60200260200101516060015173ffffffffffffffffffffffffffffffffffffffff1614915080806103c69061250f565b915050610363565b508061040f576040517f08c379a0000000000000000000000000000000000000000000000000000000008152600401610406906125b4565b60405180910390fd5b826000151561041e3383610640565b151514610460576040517f08c379a000000000000000000000000000000000000000000000000000000000815260040161045790612646565b60405180910390fd5b834260048281548110610476576104756124b1565b5b90600052602060002090600b0201600a0154101580156104cc575060001515600482815481106104a9576104a86124b1565b5b90600052602060002090600b020160080160009054906101000a900460ff161515145b61050b576040517f08c379a0000000000000000000000000000000000000000000000000000000008152600401610502906126b2565b60405180910390fd5b6004858154811061051f5761051e6124b1565b5b90600052602060002090600b020160070160008154809291906105419061250f565b91905055506004858154811061055a576105596124b1565b5b90600052602060002090600b0201600901339080600181540180825580915050600190039060005260206000200160009091909190916101000a81548173ffffffffffffffffffffffffffffffffffffffff021916908373ffffffffffffffffffffffffffffffffffffffff1602179055506002600486815481106105e2576105e16124b1565b5b90600052602060002090600b0201600701541115610639576001600486815481106106105761060f6124b1565b5b90600052602060002090600b020160080160006101000a81548160ff0219169083151502179055505b5050505050565b600080600090505b6004838154811061065c5761065b6124b1565b5b90600052602060002090600b020160090180549050811015610729578373ffffffffffffffffffffffffffffffffffffffff16600484815481106106a3576106a26124b1565b5b90600052602060002090600b020160090182815481106106c6576106c56124b1565b5b9060005260206000200160009054906101000a900473ffffffffffffffffffffffffffffffffffffffff1673ffffffffffffffffffffffffffffffffffffffff160361071657600191505061072f565b80806107219061250f565b915050610648565b50600090505b92915050565b61073d6117e4565b73ffffffffffffffffffffffffffffffffffffffff1661075b610f7f565b73ffffffffffffffffffffffffffffffffffffffff16146107b1576040517f08c379a00000000000000000000000000000000000000000000000000000000081526004016107a89061271e565b60405180910390fd5b60006004600360008154809291906107c89061250f565b91905055815481106107dd576107dc6124b1565b5b90600052602060002090600b02019050600360008154809291906108009061250f565b919050558160000181905550828160010190805190602001906108249291906118b0565b508181600201908051906020019061083d9291906118b0565b50838160030190805190602001906108569291906118b0565b50338160050160006101000a81548173ffffffffffffffffffffffffffffffffffffffff021916908373ffffffffffffffffffffffffffffffffffffffff1602179055506001816007018190555060008160080160006101000a81548160ff02191690831515021790555080600901339080600181540180825580915050600190039060005260206000200160009091909190916101000a81548173ffffffffffffffffffffffffffffffffffffffff021916908373ffffffffffffffffffffffffffffffffffffffff16021790555060015442610934919061273e565b81600a018190555050505050565b60606000805b6003548110156109e4574260048281548110610967576109666124b1565b5b90600052602060002090600b0201600a0154101580156109bd5750600015156004828154811061099a576109996124b1565b5b90600052602060002090600b020160080160009054906101000a900460ff161515145b156109d15781806109cd9061250f565b9250505b80806109dc9061250f565b915050610948565b5060008167ffffffffffffffff811115610a0157610a00611b4a565b5b604051908082528060200260200182016040528015610a3a57816020015b610a27611936565b815260200190600190039081610a1f5790505b50905060005b600354811015610e68574260048281548110610a5f57610a5e6124b1565b5b90600052602060002090600b0201600a015410158015610ab557506000151560048281548110610a9257610a916124b1565b5b90600052602060002090600b020160080160009054906101000a900460ff161515145b15610e555760048181548110610ace57610acd6124b1565b5b90600052602060002090600b02016040518061018001604052908160008201548152602001600182018054610b02906127c3565b80601f0160208091040260200160405190810160405280929190818152602001828054610b2e906127c3565b8015610b7b5780601f10610b5057610100808354040283529160200191610b7b565b820191906000526020600020905b815481529060010190602001808311610b5e57829003601f168201915b50505050508152602001600282018054610b94906127c3565b80601f0160208091040260200160405190810160405280929190818152602001828054610bc0906127c3565b8015610c0d5780601f10610be257610100808354040283529160200191610c0d565b820191906000526020600020905b815481529060010190602001808311610bf057829003601f168201915b50505050508152602001600382018054610c26906127c3565b80601f0160208091040260200160405190810160405280929190818152602001828054610c52906127c3565b8015610c9f5780601f10610c7457610100808354040283529160200191610c9f565b820191906000526020600020905b815481529060010190602001808311610c8257829003601f168201915b50505050508152602001600482015481526020016005820160009054906101000a900473ffffffffffffffffffffffffffffffffffffffff1673ffffffffffffffffffffffffffffffffffffffff1673ffffffffffffffffffffffffffffffffffffffff1681526020016006820160009054906101000a900473ffffffffffffffffffffffffffffffffffffffff1673ffffffffffffffffffffffffffffffffffffffff1673ffffffffffffffffffffffffffffffffffffffff168152602001600782015481526020016008820160009054906101000a900460ff161515151581526020016008820160019054906101000a900460ff1615151515815260200160098201805480602002602001604051908101604052809291908181526020018280548015610e2357602002820191906000526020600020905b8160009054906101000a900473ffffffffffffffffffffffffffffffffffffffff1673ffffffffffffffffffffffffffffffffffffffff1681526020019060010190808311610dd9575b50505050508152602001600a82015481525050828281518110610e4957610e486124b1565b5b60200260200101819052505b8080610e609061250f565b915050610a40565b50809250505090565b610e796117e4565b73ffffffffffffffffffffffffffffffffffffffff16610e97610f7f565b73ffffffffffffffffffffffffffffffffffffffff1614610eed576040517f08c379a0000000000000000000000000000000000000000000000000000000008152600401610ee49061271e565b60405180910390fd5b8060018190555050565b610eff6117e4565b73ffffffffffffffffffffffffffffffffffffffff16610f1d610f7f565b73ffffffffffffffffffffffffffffffffffffffff1614610f73576040517f08c379a0000000000000000000000000000000000000000000000000000000008152600401610f6a9061271e565b60405180910390fd5b610f7d60006117ec565b565b60008060009054906101000a900473ffffffffffffffffffffffffffffffffffffffff16905090565b6000600260009054906101000a900473ffffffffffffffffffffffffffffffffffffffff1673ffffffffffffffffffffffffffffffffffffffff16635ca115e96040518163ffffffff1660e01b8152600401600060405180830381865afa158015611017573d6000803e3d6000fd5b505050506040513d6000823e3d601f19601f820116820180604052508101906110409190612468565b90506000805b82518110156110b1573373ffffffffffffffffffffffffffffffffffffffff16838281518110611079576110786124b1565b5b60200260200101516060015173ffffffffffffffffffffffffffffffffffffffff1614915080806110a99061250f565b915050611046565b50806110f2576040517f08c379a00000000000000000000000000000000000000000000000000000000081526004016110e9906125b4565b60405180910390fd5b600115156004848154811061110a576111096124b1565b5b90600052602060002090600b020160080160009054906101000a900460ff1615151461116b576040517f08c379a000000000000000000000000000000000000000000000000000000000815260040161116290612866565b60405180910390fd5b6000151560048481548110611183576111826124b1565b5b90600052602060002090600b020160080160019054906101000a900460ff161515146111e4576040517f08c379a00000000000000000000000000000000000000000000000000000000081526004016111db906128f8565b60405180910390fd5b6001600484815481106111fa576111f96124b1565b5b90600052602060002090600b020160080160016101000a81548160ff021916908315150217905550600060048481548110611238576112376124b1565b5b90600052602060002090600b020160060160009054906101000a900473ffffffffffffffffffffffffffffffffffffffff1690508073ffffffffffffffffffffffffffffffffffffffff166108fc6004868154811061129a576112996124b1565b5b90600052602060002090600b0201600401549081150290604051600060405180830381858888f193505050501580156112d7573d6000803e3d6000fd5b5050505050565b6000600260009054906101000a900473ffffffffffffffffffffffffffffffffffffffff1673ffffffffffffffffffffffffffffffffffffffff16635ca115e96040518163ffffffff1660e01b8152600401600060405180830381865afa15801561134d573d6000803e3d6000fd5b505050506040513d6000823e3d601f19601f820116820180604052508101906113769190612468565b90506000805b82518110156113e7573373ffffffffffffffffffffffffffffffffffffffff168382815181106113af576113ae6124b1565b5b60200260200101516060015173ffffffffffffffffffffffffffffffffffffffff1614915080806113df9061250f565b91505061137c565b5080611428576040517f08c379a000000000000000000000000000000000000000000000000000000000815260040161141f906125b4565b60405180910390fd5b600060046003600081548092919061143f9061250f565b9190505581548110611454576114536124b1565b5b90600052602060002090600b02019050600360008154809291906114779061250f565b9190505581600001819055508681600101908051906020019061149b9291906118b0565b50858160020190805190602001906114b49291906118b0565b50878160030190805190602001906114cd9291906118b0565b50838160040181905550338160050160006101000a81548173ffffffffffffffffffffffffffffffffffffffff021916908373ffffffffffffffffffffffffffffffffffffffff160217905550848160060160006101000a81548173ffffffffffffffffffffffffffffffffffffffff021916908373ffffffffffffffffffffffffffffffffffffffff1602179055506001816007018190555060008160080160006101000a81548160ff02191690831515021790555060008160080160016101000a81548160ff02191690831515021790555080600901339080600181540180825580915050600190039060005260206000200160009091909190916101000a81548173ffffffffffffffffffffffffffffffffffffffff021916908373ffffffffffffffffffffffffffffffffffffffff16021790555060015442611614919061273e565b81600a01819055505050505050505050565b61162e6117e4565b73ffffffffffffffffffffffffffffffffffffffff1661164c610f7f565b73ffffffffffffffffffffffffffffffffffffffff16146116a2576040517f08c379a00000000000000000000000000000000000000000000000000000000081526004016116999061271e565b60405180910390fd5b6001600482815481106116b8576116b76124b1565b5b90600052602060002090600b020160080160006101000a81548160ff02191690831515021790555050565b600047905090565b565b6116f56117e4565b73ffffffffffffffffffffffffffffffffffffffff16611713610f7f565b73ffffffffffffffffffffffffffffffffffffffff1614611769576040517f08c379a00000000000000000000000000000000000000000000000000000000081526004016117609061271e565b60405180910390fd5b600073ffffffffffffffffffffffffffffffffffffffff168173ffffffffffffffffffffffffffffffffffffffff16036117d8576040517f08c379a00000000000000000000000000000000000000000000000000000000081526004016117cf9061298a565b60405180910390fd5b6117e1816117ec565b50565b600033905090565b60008060009054906101000a900473ffffffffffffffffffffffffffffffffffffffff169050816000806101000a81548173ffffffffffffffffffffffffffffffffffffffff021916908373ffffffffffffffffffffffffffffffffffffffff1602179055508173ffffffffffffffffffffffffffffffffffffffff168173ffffffffffffffffffffffffffffffffffffffff167f8be0079c531659141344cd1fd0a4f28419497f9722a3daafe3b4186f6b6457e060405160405180910390a35050565b8280546118bc906127c3565b90600052602060002090601f0160209004810192826118de5760008555611925565b82601f106118f757805160ff1916838001178555611925565b82800160010185558215611925579182015b82811115611924578251825591602001919060010190611909565b5b50905061193291906119c7565b5090565b6040518061018001604052806000815260200160608152602001606081526020016060815260200160008152602001600073ffffffffffffffffffffffffffffffffffffffff168152602001600073ffffffffffffffffffffffffffffffffffffffff1681526020016000815260200160001515815260200160001515815260200160608152602001600081525090565b5b808211156119e05760008160009055506001016119c8565b5090565b6000604051905090565b600080fd5b600080fd5b6000819050919050565b611a0b816119f8565b8114611a1657600080fd5b50565b600081359050611a2881611a02565b92915050565b600060208284031215611a4457611a436119ee565b5b6000611a5284828501611a19565b91505092915050565b600073ffffffffffffffffffffffffffffffffffffffff82169050919050565b6000611a8682611a5b565b9050919050565b611a9681611a7b565b8114611aa157600080fd5b50565b600081359050611ab381611a8d565b92915050565b60008060408385031215611ad057611acf6119ee565b5b6000611ade85828601611aa4565b9250506020611aef85828601611a19565b9150509250929050565b60008115159050919050565b611b0e81611af9565b82525050565b6000602082019050611b296000830184611b05565b92915050565b600080fd5b600080fd5b6000601f19601f8301169050919050565b7f4e487b7100000000000000000000000000000000000000000000000000000000600052604160045260246000fd5b611b8282611b39565b810181811067ffffffffffffffff82111715611ba157611ba0611b4a565b5b80604052505050565b6000611bb46119e4565b9050611bc08282611b79565b919050565b600067ffffffffffffffff821115611be057611bdf611b4a565b5b611be982611b39565b9050602081019050919050565b82818337600083830152505050565b6000611c18611c1384611bc5565b611baa565b905082815260208101848484011115611c3457611c33611b34565b5b611c3f848285611bf6565b509392505050565b600082601f830112611c5c57611c5b611b2f565b5b8135611c6c848260208601611c05565b91505092915050565b600080600060608486031215611c8e57611c8d6119ee565b5b600084013567ffffffffffffffff811115611cac57611cab6119f3565b5b611cb886828701611c47565b935050602084013567ffffffffffffffff811115611cd957611cd86119f3565b5b611ce586828701611c47565b925050604084013567ffffffffffffffff811115611d0657611d056119f3565b5b611d1286828701611c47565b9150509250925092565b600081519050919050565b600082825260208201905092915050565b6000819050602082019050919050565b611d51816119f8565b82525050565b600081519050919050565b600082825260208201905092915050565b60005b83811015611d91578082015181840152602081019050611d76565b83811115611da0576000848401525b50505050565b6000611db182611d57565b611dbb8185611d62565b9350611dcb818560208601611d73565b611dd481611b39565b840191505092915050565b611de881611a7b565b82525050565b6000611df982611a5b565b9050919050565b611e0981611dee565b82525050565b611e1881611af9565b82525050565b600081519050919050565b600082825260208201905092915050565b6000819050602082019050919050565b6000611e568383611ddf565b60208301905092915050565b6000602082019050919050565b6000611e7a82611e1e565b611e848185611e29565b9350611e8f83611e3a565b8060005b83811015611ec0578151611ea78882611e4a565b9750611eb283611e62565b925050600181019050611e93565b5085935050505092915050565b600061018083016000830151611ee66000860182611d48565b5060208301518482036020860152611efe8282611da6565b91505060408301518482036040860152611f188282611da6565b91505060608301518482036060860152611f328282611da6565b9150506080830151611f476080860182611d48565b5060a0830151611f5a60a0860182611ddf565b5060c0830151611f6d60c0860182611e00565b5060e0830151611f8060e0860182611d48565b50610100830151611f95610100860182611e0f565b50610120830151611faa610120860182611e0f565b50610140830151848203610140860152611fc48282611e6f565b915050610160830151611fdb610160860182611d48565b508091505092915050565b6000611ff28383611ecd565b905092915050565b6000602082019050919050565b600061201282611d1c565b61201c8185611d27565b93508360208202850161202e85611d38565b8060005b8581101561206a578484038952815161204b8582611fe6565b945061205683611ffa565b925060208a01995050600181019050612032565b50829750879550505050505092915050565b600060208201905081810360008301526120968184612007565b905092915050565b6120a781611a7b565b82525050565b60006020820190506120c2600083018461209e565b92915050565b6120d181611dee565b81146120dc57600080fd5b50565b6000813590506120ee816120c8565b92915050565b600080600080600060a086880312156121105761210f6119ee565b5b600086013567ffffffffffffffff81111561212e5761212d6119f3565b5b61213a88828901611c47565b955050602086013567ffffffffffffffff81111561215b5761215a6119f3565b5b61216788828901611c47565b945050604086013567ffffffffffffffff811115612188576121876119f3565b5b61219488828901611c47565b93505060606121a5888289016120df565b92505060806121b688828901611a19565b9150509295509295909350565b6121cc816119f8565b82525050565b60006020820190506121e760008301846121c3565b92915050565b600060208284031215612203576122026119ee565b5b600061221184828501611aa4565b91505092915050565b600067ffffffffffffffff82111561223557612234611b4a565b5b602082029050602081019050919050565b600080fd5b600080fd5b600080fd5b60008151905061226481611a02565b92915050565b600061227d61227884611bc5565b611baa565b90508281526020810184848401111561229957612298611b34565b5b6122a4848285611d73565b509392505050565b600082601f8301126122c1576122c0611b2f565b5b81516122d184826020860161226a565b91505092915050565b6000815190506122e981611a8d565b92915050565b600060a082840312156123055761230461224b565b5b61230f60a0611baa565b9050600061231f84828501612255565b600083015250602082015167ffffffffffffffff81111561234357612342612250565b5b61234f848285016122ac565b602083015250604082015167ffffffffffffffff81111561237357612372612250565b5b61237f848285016122ac565b6040830152506060612393848285016122da565b60608301525060806123a784828501612255565b60808301525092915050565b60006123c66123c18461221a565b611baa565b905080838252602082019050602084028301858111156123e9576123e8612246565b5b835b8181101561243057805167ffffffffffffffff81111561240e5761240d611b2f565b5b80860161241b89826122ef565b855260208501945050506020810190506123eb565b5050509392505050565b600082601f83011261244f5761244e611b2f565b5b815161245f8482602086016123b3565b91505092915050565b60006020828403121561247e5761247d6119ee565b5b600082015167ffffffffffffffff81111561249c5761249b6119f3565b5b6124a88482850161243a565b91505092915050565b7f4e487b7100000000000000000000000000000000000000000000000000000000600052603260045260246000fd5b7f4e487b7100000000000000000000000000000000000000000000000000000000600052601160045260246000fd5b600061251a826119f8565b91507fffffffffffffffffffffffffffffffffffffffffffffffffffffffffffffffff820361254c5761254b6124e0565b5b600182019050919050565b600082825260208201905092915050565b7f596f7520617265206e6f74206120676f7665726e6f7200000000000000000000600082015250565b600061259e601683612557565b91506125a982612568565b602082019050919050565b600060208201905081810360008301526125cd81612591565b9050919050565b7f596f75206861766520616c726561647920766f746564206f6e2070726f706f7360008201527f616c000000000000000000000000000000000000000000000000000000000000602082015250565b6000612630602283612557565b915061263b826125d4565b604082019050919050565b6000602082019050818103600083015261265f81612623565b9050919050565b7f50726f706f73616c206973206e6f742061637469766500000000000000000000600082015250565b600061269c601683612557565b91506126a782612666565b602082019050919050565b600060208201905081810360008301526126cb8161268f565b9050919050565b7f4f776e61626c653a2063616c6c6572206973206e6f7420746865206f776e6572600082015250565b6000612708602083612557565b9150612713826126d2565b602082019050919050565b60006020820190508181036000830152612737816126fb565b9050919050565b6000612749826119f8565b9150612754836119f8565b9250827fffffffffffffffffffffffffffffffffffffffffffffffffffffffffffffffff03821115612789576127886124e0565b5b828201905092915050565b7f4e487b7100000000000000000000000000000000000000000000000000000000600052602260045260246000fd5b600060028204905060018216806127db57607f821691505b6020821081036127ee576127ed612794565b5b50919050565b7f546869732070726f706f73616c20686173206e6f74206265656e20706173736560008201527f6400000000000000000000000000000000000000000000000000000000000000602082015250565b6000612850602183612557565b915061285b826127f4565b604082019050919050565b6000602082019050818103600083015261287f81612843565b9050919050565b7f546869732070726f706f73616c20686173206265656e20617070726f7665642060008201527f616c726561647900000000000000000000000000000000000000000000000000602082015250565b60006128e2602783612557565b91506128ed82612886565b604082019050919050565b60006020820190508181036000830152612911816128d5565b9050919050565b7f4f776e61626c653a206e6577206f776e657220697320746865207a65726f206160008201527f6464726573730000000000000000000000000000000000000000000000000000602082015250565b6000612974602683612557565b915061297f82612918565b604082019050919050565b600060208201905081810360008301526129a381612967565b905091905056fea264697066735822122077837e5533921a8fcdf17396fc13b67e452ee496e2a4b26e1e16e921aeee601364736f6c634300080e0033",
  "immutableReferences": {},
  "source": "//SPDX-License-Identifier: UNLICENSED\r\npragma solidity >=0.8.0 <0.9.0;\r\n\r\nimport \"./GovernorElection.sol\";\r\nimport \"@openzeppelin/contracts/access/Ownable.sol\";\r\n\r\nimport { DataTypes } from './libraries/DataTypes.sol';\r\n\r\ncontract ProposalElection is Ownable {\r\n    ///////////////////////////////////////////////////////////////////////////\r\n    /////////STRUCTS\r\n    ///////////////////////////////////////////////////////////////////////////\r\n    struct Proposal {\r\n        uint id;\r\n        string title;\r\n        string description;\r\n        string postId;\r\n        uint256 expectedAmount; //stored in wei\r\n        address owner;\r\n        address payable target;\r\n\r\n        uint votes;\r\n        bool passed;\r\n        bool transfered;\r\n        address[] alreadyVoted;\r\n        uint256 lastsFor;\r\n    }\r\n\r\n    ///////////////////////////////////////////////////////////////////////////\r\n    /////////CONSTANTS\r\n    ///////////////////////////////////////////////////////////////////////////\r\n    uint PROPOSAL_LASTS_FOR = 60*1; // 1 minute \r\n    //60*60*24*7; // 7 days\r\n    \r\n\r\n    ///////////////////////////////////////////////////////////////////////////\r\n    /////////PROPERTY VARIABLES\r\n    ///////////////////////////////////////////////////////////////////////////\r\n    GovernorElection governorElection;\r\n\r\n    uint256 proposalNum;\r\n    Proposal[] proposals;\r\n    \r\n\r\n    ///////////////////////////////////////////////////////////////////////////\r\n    /////////CONSTRUCTOR\r\n    ///////////////////////////////////////////////////////////////////////////\r\n    constructor(GovernorElection _governorElection) {\r\n        governorElection = _governorElection;\r\n    }\r\n    \r\n\r\n    ///////////////////////////////////////////////////////////////////////////\r\n    /////////MODIFIERS\r\n    ///////////////////////////////////////////////////////////////////////////\r\n    modifier onlyWhenEligibleToVote(uint256 proposalId) {\r\n        require(hasAddressAlreadyVoted(msg.sender, proposalId) == false, \"You have already voted on proposal\");\r\n        _;\r\n    }\r\n\r\n    modifier onlyWhenProposalIsActive(uint256 proposalId) {\r\n        require(proposals[proposalId].lastsFor >= block.timestamp && proposals[proposalId].passed == false, \"Proposal is not active\");\r\n        _;\r\n    }\r\n\r\n    modifier beAGovernor() {\r\n        DataTypes.Governor[] memory governors = governorElection.getLastElectionWinners();\r\n\r\n        bool foundGovernor = false;\r\n        for(uint i = 0; i < governors.length; i++) {\r\n            foundGovernor = governors[i].owner == msg.sender;\r\n        }\r\n        require(foundGovernor, \"You are not a governor\");\r\n        _;\r\n    }\r\n\r\n\r\n    ///////////////////////////////////////////////////////////////////////////\r\n    /////////FUNCTIONS\r\n    ///////////////////////////////////////////////////////////////////////////\r\n    //Donate function let's people donate some money to the vault.\r\n    function donate() public payable {}\r\n\r\n    function hasAddressAlreadyVoted(address addr, uint256 proposalId) public view returns (bool) {\r\n        for (uint i = 0; i < proposals[proposalId].alreadyVoted.length; i++) {\r\n            if (proposals[proposalId].alreadyVoted[i] == addr) {\r\n                return true;\r\n            }\r\n        }\r\n        return false;\r\n    }\r\n\r\n    \r\n    //This method transfers the requested amount to the victim only if the request has been voted YES by the majority of the angels\r\n    //TODO add check that only the proposal owner can call this function\r\n    function approveProposal(uint256 proposalId) public beAGovernor{\r\n        require(proposals[proposalId].passed == true, \"This proposal has not been passed\");\r\n        require(proposals[proposalId].transfered == false, \"This proposal has been approved already\");\r\n        \r\n        proposals[proposalId].transfered = true;\r\n        address payable targetAddress = proposals[proposalId].target;\r\n        targetAddress.transfer(proposals[proposalId].expectedAmount);\r\n    }\r\n\r\n    function createProposal(\r\n        string memory postId, \r\n        string memory title, \r\n        string memory description,\r\n        address payable target,\r\n        uint256 expectedAmount\r\n        ) public beAGovernor {\r\n        //TODO only governors can create proposals\r\n        Proposal storage newProposal = proposals[proposalNum++];\r\n\r\n        newProposal.id = proposalNum++;\r\n        newProposal.title = title;\r\n        newProposal.description = description;\r\n        newProposal.postId = postId;\r\n        newProposal.expectedAmount = expectedAmount;\r\n        newProposal.owner = msg.sender;\r\n        newProposal.target = target;\r\n\r\n        newProposal.votes = 1;\r\n        newProposal.passed = false;\r\n        newProposal.transfered = false;\r\n        newProposal.alreadyVoted.push(msg.sender);\r\n        newProposal.lastsFor = block.timestamp + PROPOSAL_LASTS_FOR;\r\n    }\r\n\r\n    function vote(uint256 proposalId) public beAGovernor onlyWhenEligibleToVote(proposalId) onlyWhenProposalIsActive(proposalId) {\r\n        proposals[proposalId].votes++;\r\n        proposals[proposalId].alreadyVoted.push(msg.sender);\r\n        //TODO instead of 2 votes, use the half of the total number of governors + 1\r\n        if(proposals[proposalId].votes > 2) {\r\n            proposals[proposalId].passed = true;\r\n        }\r\n    }\r\n\r\n    function getProposals() public view returns(Proposal[] memory) {\r\n        //count the active proposals\r\n        uint activeProposalNum = 0;\r\n        for(uint i = 0; i < proposalNum; i++) {\r\n            //return only active proposals\r\n            if(proposals[i].lastsFor >= block.timestamp && proposals[i].passed == false) {\r\n               activeProposalNum++;\r\n            }\r\n        }\r\n\r\n        //create an array of active proposals\r\n        Proposal[] memory activeProposals = new Proposal[](activeProposalNum);\r\n\r\n        //copy the active proposals to the array\r\n        for(uint i = 0; i < proposalNum; i++) {\r\n            //return only active proposals\r\n            if(proposals[i].lastsFor >= block.timestamp && proposals[i].passed == false) {\r\n                activeProposals[i] = proposals[i];\r\n            }\r\n        }\r\n\r\n        return activeProposals; //return the array\r\n    }\r\n\r\n    //This method gets back the current vault balance\r\n    function getVaultBalance() public view returns (uint256){\r\n        return address(this).balance; \r\n    }\r\n\r\n\r\n    ///////////////////////////////////////////////////////////////////////////\r\n    /////////ONLY OWNER FUNCTIONS FOR DEBUGGING\r\n    ///////////////////////////////////////////////////////////////////////////\r\n    function setProposalLastsFor(uint256 proposalLastsFor) onlyOwner public{\r\n        PROPOSAL_LASTS_FOR = proposalLastsFor;\r\n    }\r\n\r\n    function passProposal(uint256 proposalId) onlyOwner public{\r\n        proposals[proposalId].passed = true;\r\n    }\r\n\r\n    function forceApplyAsCandidate(string memory postId, string memory title, string memory description) public onlyOwner {\r\n        Proposal storage newProposal = proposals[proposalNum++];\r\n\r\n        newProposal.id = proposalNum++;\r\n        newProposal.title = title;\r\n        newProposal.description = description;\r\n        newProposal.postId = postId;\r\n        newProposal.owner = msg.sender;\r\n        newProposal.votes = 1;\r\n        newProposal.passed = false;\r\n        newProposal.alreadyVoted.push(msg.sender);\r\n        newProposal.lastsFor = block.timestamp + PROPOSAL_LASTS_FOR;\r\n    }\r\n}",
  "sourcePath": "C:/Users/Riki/Desktop/Solidity + React/hackathon-rome-nuxt/contracts/ProposalElection.sol",
  "compiler": {
    "name": "solc",
    "version": "0.8.14+commit.80d49f37.Emscripten.clang"
  },
  "schemaVersion": "3.3.4",
  "updatedAt": "2022-06-16T21:37:13.631Z",
  "networkType": "ethereum",
  "devdoc": {
    "kind": "dev",
    "methods": {
      "owner()": {
        "details": "Returns the address of the current owner."
      },
      "renounceOwnership()": {
        "details": "Leaves the contract without owner. It will not be possible to call `onlyOwner` functions anymore. Can only be called by the current owner. NOTE: Renouncing ownership will leave the contract without an owner, thereby removing any functionality that is only available to the owner."
      },
      "transferOwnership(address)": {
        "details": "Transfers ownership of the contract to a new account (`newOwner`). Can only be called by the current owner."
      }
    },
    "version": 1
  },
  "userdoc": {
    "kind": "user",
    "methods": {},
    "version": 1
  }
}