{
  "contractName": "ProposalElection",
  "abi": [
    {
      "inputs": [
        {
          "internalType": "contract GovernorElection",
          "name": "_governorElection",
          "type": "address"
        }
      ],
      "stateMutability": "nonpayable",
      "type": "constructor"
    },
    {
      "anonymous": false,
      "inputs": [
        {
          "indexed": true,
          "internalType": "address",
          "name": "previousOwner",
          "type": "address"
        },
        {
          "indexed": true,
          "internalType": "address",
          "name": "newOwner",
          "type": "address"
        }
      ],
      "name": "OwnershipTransferred",
      "type": "event"
    },
    {
      "inputs": [],
      "name": "owner",
      "outputs": [
        {
          "internalType": "address",
          "name": "",
          "type": "address"
        }
      ],
      "stateMutability": "view",
      "type": "function",
      "constant": true
    },
    {
      "inputs": [],
      "name": "renounceOwnership",
      "outputs": [],
      "stateMutability": "nonpayable",
      "type": "function"
    },
    {
      "inputs": [
        {
          "internalType": "address",
          "name": "newOwner",
          "type": "address"
        }
      ],
      "name": "transferOwnership",
      "outputs": [],
      "stateMutability": "nonpayable",
      "type": "function"
    },
    {
      "inputs": [],
      "name": "donate",
      "outputs": [],
      "stateMutability": "payable",
      "type": "function",
      "payable": true
    },
    {
      "inputs": [
        {
          "internalType": "address",
          "name": "addr",
          "type": "address"
        },
        {
          "internalType": "uint256",
          "name": "proposalId",
          "type": "uint256"
        }
      ],
      "name": "hasAddressAlreadyVoted",
      "outputs": [
        {
          "internalType": "bool",
          "name": "",
          "type": "bool"
        }
      ],
      "stateMutability": "view",
      "type": "function",
      "constant": true
    },
    {
      "inputs": [
        {
          "internalType": "uint256",
          "name": "proposalId",
          "type": "uint256"
        }
      ],
      "name": "approveProposal",
      "outputs": [],
      "stateMutability": "nonpayable",
      "type": "function"
    },
    {
      "inputs": [
        {
          "internalType": "string",
          "name": "eventId",
          "type": "string"
        },
        {
          "internalType": "string",
          "name": "title",
          "type": "string"
        },
        {
          "internalType": "string",
          "name": "description",
          "type": "string"
        },
        {
          "internalType": "uint256",
          "name": "governorId",
          "type": "uint256"
        },
        {
          "internalType": "address",
          "name": "targetAddress",
          "type": "address"
        },
        {
          "internalType": "uint256",
          "name": "donation",
          "type": "uint256"
        }
      ],
      "name": "createProposal",
      "outputs": [],
      "stateMutability": "nonpayable",
      "type": "function"
    },
    {
      "inputs": [
        {
          "internalType": "uint256",
          "name": "proposalId",
          "type": "uint256"
        }
      ],
      "name": "vote",
      "outputs": [],
      "stateMutability": "nonpayable",
      "type": "function"
    },
    {
      "inputs": [],
      "name": "getProposals",
      "outputs": [
        {
          "components": [
            {
              "internalType": "uint256",
              "name": "id",
              "type": "uint256"
            },
            {
              "internalType": "string",
              "name": "title",
              "type": "string"
            },
            {
              "internalType": "string",
              "name": "description",
              "type": "string"
            },
            {
              "internalType": "string",
              "name": "eventId",
              "type": "string"
            },
            {
              "internalType": "uint256",
              "name": "governerId",
              "type": "uint256"
            },
            {
              "internalType": "uint256",
              "name": "donation",
              "type": "uint256"
            },
            {
              "internalType": "address",
              "name": "owner",
              "type": "address"
            },
            {
              "internalType": "address",
              "name": "targetAddress",
              "type": "address"
            },
            {
              "internalType": "uint256",
              "name": "votes",
              "type": "uint256"
            },
            {
              "internalType": "bool",
              "name": "passed",
              "type": "bool"
            },
            {
              "internalType": "bool",
              "name": "transfered",
              "type": "bool"
            },
            {
              "internalType": "address[]",
              "name": "alreadyVoted",
              "type": "address[]"
            },
            {
              "internalType": "uint256",
              "name": "lastsFor",
              "type": "uint256"
            }
          ],
          "internalType": "struct ProposalElection.Proposal[]",
          "name": "",
          "type": "tuple[]"
        }
      ],
      "stateMutability": "view",
      "type": "function",
      "constant": true
    },
    {
      "inputs": [],
      "name": "getVaultBalance",
      "outputs": [
        {
          "internalType": "uint256",
          "name": "",
          "type": "uint256"
        }
      ],
      "stateMutability": "view",
      "type": "function",
      "constant": true
    },
    {
      "inputs": [
        {
          "internalType": "uint256",
          "name": "proposalLastsFor",
          "type": "uint256"
        }
      ],
      "name": "setProposalLastsFor",
      "outputs": [],
      "stateMutability": "nonpayable",
      "type": "function"
    },
    {
      "inputs": [
        {
          "internalType": "uint256",
          "name": "proposalId",
          "type": "uint256"
        }
      ],
      "name": "passProposal",
      "outputs": [],
      "stateMutability": "nonpayable",
      "type": "function"
    },
    {
      "inputs": [
        {
          "internalType": "string",
          "name": "eventId",
          "type": "string"
        },
        {
          "internalType": "string",
          "name": "title",
          "type": "string"
        },
        {
          "internalType": "string",
          "name": "description",
          "type": "string"
        }
      ],
      "name": "forceApplyAsCandidate",
      "outputs": [],
      "stateMutability": "nonpayable",
      "type": "function"
    }
  ],
  "bytecode": "0x6080604052610e1060015560006003553480156200001c57600080fd5b5060405162002865380380620028658339818101604052810190620000429190620001f4565b6200006262000056620000aa60201b60201c565b620000b260201b60201c565b80600260006101000a81548173ffffffffffffffffffffffffffffffffffffffff021916908373ffffffffffffffffffffffffffffffffffffffff1602179055505062000226565b600033905090565b60008060009054906101000a900473ffffffffffffffffffffffffffffffffffffffff169050816000806101000a81548173ffffffffffffffffffffffffffffffffffffffff021916908373ffffffffffffffffffffffffffffffffffffffff1602179055508173ffffffffffffffffffffffffffffffffffffffff168173ffffffffffffffffffffffffffffffffffffffff167f8be0079c531659141344cd1fd0a4f28419497f9722a3daafe3b4186f6b6457e060405160405180910390a35050565b600080fd5b600073ffffffffffffffffffffffffffffffffffffffff82169050919050565b6000620001a8826200017b565b9050919050565b6000620001bc826200019b565b9050919050565b620001ce81620001af565b8114620001da57600080fd5b50565b600081519050620001ee81620001c3565b92915050565b6000602082840312156200020d576200020c62000176565b5b60006200021d84828501620001dd565b91505092915050565b61262f80620002366000396000f3fe6080604052600436106100c25760003560e01c8063834175d41161007f5780639c93e166116100595780639c93e1661461023e578063ed12e8ef14610267578063ed88c68e14610292578063f2fde38b1461029c576100c2565b8063834175d4146101c15780638da5cb5b146101ea57806398951b5614610215576100c2565b80630121b93f146100c7578063312ba3ee146100f05780633615cd781461012d57806362564c48146101565780636837d71314610181578063715018a6146101aa575b600080fd5b3480156100d357600080fd5b506100ee60048036038101906100e9919061166f565b6102c5565b005b3480156100fc57600080fd5b50610117600480360381019061011291906116fa565b6105f3565b6040516101249190611755565b60405180910390f35b34801561013957600080fd5b50610154600480360381019061014f91906118b6565b6106ca565b005b34801561016257600080fd5b5061016b61084c565b6040516101789190611cb1565b60405180910390f35b34801561018d57600080fd5b506101a860048036038101906101a3919061166f565b610d48565b005b3480156101b657600080fd5b506101bf610d52565b005b3480156101cd57600080fd5b506101e860048036038101906101e39190611cd3565b610dda565b005b3480156101f657600080fd5b506101ff610fc9565b60405161020c9190611dc3565b60405180910390f35b34801561022157600080fd5b5061023c6004803603810190610237919061166f565b610ff2565b005b34801561024a57600080fd5b506102656004803603810190610260919061166f565b6112eb565b005b34801561027357600080fd5b5061027c61131d565b6040516102899190611ded565b60405180910390f35b61029a611325565b005b3480156102a857600080fd5b506102c360048036038101906102be9190611e08565b611327565b005b6000600260009054906101000a900473ffffffffffffffffffffffffffffffffffffffff1673ffffffffffffffffffffffffffffffffffffffff16635ca115e96040518163ffffffff1660e01b8152600401600060405180830381865afa158015610334573d6000803e3d6000fd5b505050506040513d6000823e3d601f19601f8201168201806040525081019061035d9190612083565b90506000805b82518110156103d5573373ffffffffffffffffffffffffffffffffffffffff16838281518110610396576103956120cc565b5b60200260200101516060015173ffffffffffffffffffffffffffffffffffffffff16036103c257600191505b80806103cd9061212a565b915050610363565b50600115158115151461041d576040517f08c379a0000000000000000000000000000000000000000000000000000000008152600401610414906121cf565b60405180910390fd5b826000151561042c33836105f3565b15151461046e576040517f08c379a000000000000000000000000000000000000000000000000000000000815260040161046590612261565b60405180910390fd5b834260046000838152602001908152602001600020600b0154101580156104bc5750600015156004600083815260200190815260200160002060090160009054906101000a900460ff161515145b6104fb576040517f08c379a00000000000000000000000000000000000000000000000000000000081526004016104f2906122cd565b60405180910390fd5b6004600086815260200190815260200160002060080160008154809291906105229061212a565b919050555060046000868152602001908152602001600020600a01339080600181540180825580915050600190039060005260206000200160009091909190916101000a81548173ffffffffffffffffffffffffffffffffffffffff021916908373ffffffffffffffffffffffffffffffffffffffff16021790555060016004600087815260200190815260200160002060080154106105ec5760016004600087815260200190815260200160002060090160006101000a81548160ff0219169083151502179055505b5050505050565b600080600090505b60046000848152602001908152602001600020600a01805490508110156106be578373ffffffffffffffffffffffffffffffffffffffff1660046000858152602001908152602001600020600a01828154811061065b5761065a6120cc565b5b9060005260206000200160009054906101000a900473ffffffffffffffffffffffffffffffffffffffff1673ffffffffffffffffffffffffffffffffffffffff16036106ab5760019150506106c4565b80806106b69061212a565b9150506105fb565b50600090505b92915050565b600060046000600360008154809291906106e39061212a565b91905055815260200190815260200160002090506003600081548092919061070a9061212a565b9190505581600001819055508281600101908051906020019061072e9291906114ea565b50818160020190805190602001906107479291906114ea565b50838160030190805190602001906107609291906114ea565b50338160060160006101000a81548173ffffffffffffffffffffffffffffffffffffffff021916908373ffffffffffffffffffffffffffffffffffffffff1602179055506001816008018190555060008160090160006101000a81548160ff02191690831515021790555080600a01339080600181540180825580915050600190039060005260206000200160009091909190916101000a81548173ffffffffffffffffffffffffffffffffffffffff021916908373ffffffffffffffffffffffffffffffffffffffff1602179055506001544261083e91906122ed565b81600b018190555050505050565b60606000805b6003548110156108d0574260046000838152602001908152602001600020600b0154101580156108a95750600015156004600083815260200190815260200160002060090160019054906101000a900460ff161515145b156108bd5781806108b99061212a565b9250505b80806108c89061212a565b915050610852565b5060008167ffffffffffffffff8111156108ed576108ec61178b565b5b60405190808252806020026020018201604052801561092657816020015b610913611570565b81526020019060019003908161090b5790505b5090506000805b600354811015610d3e574260046000838152602001908152602001600020600b0154101580156109845750600015156004600083815260200190815260200160002060090160019054906101000a900460ff161515145b15610d2b5760046000828152602001908152602001600020604051806101a0016040529081600082015481526020016001820180546109c290612372565b80601f01602080910402602001604051908101604052809291908181526020018280546109ee90612372565b8015610a3b5780601f10610a1057610100808354040283529160200191610a3b565b820191906000526020600020905b815481529060010190602001808311610a1e57829003601f168201915b50505050508152602001600282018054610a5490612372565b80601f0160208091040260200160405190810160405280929190818152602001828054610a8090612372565b8015610acd5780601f10610aa257610100808354040283529160200191610acd565b820191906000526020600020905b815481529060010190602001808311610ab057829003601f168201915b50505050508152602001600382018054610ae690612372565b80601f0160208091040260200160405190810160405280929190818152602001828054610b1290612372565b8015610b5f5780601f10610b3457610100808354040283529160200191610b5f565b820191906000526020600020905b815481529060010190602001808311610b4257829003601f168201915b5050505050815260200160048201548152602001600582015481526020016006820160009054906101000a900473ffffffffffffffffffffffffffffffffffffffff1673ffffffffffffffffffffffffffffffffffffffff1673ffffffffffffffffffffffffffffffffffffffff1681526020016007820160009054906101000a900473ffffffffffffffffffffffffffffffffffffffff1673ffffffffffffffffffffffffffffffffffffffff1673ffffffffffffffffffffffffffffffffffffffff168152602001600882015481526020016009820160009054906101000a900460ff161515151581526020016009820160019054906101000a900460ff16151515158152602001600a8201805480602002602001604051908101604052809291908181526020018280548015610ced57602002820191906000526020600020905b8160009054906101000a900473ffffffffffffffffffffffffffffffffffffffff1673ffffffffffffffffffffffffffffffffffffffff1681526020019060010190808311610ca3575b50505050508152602001600b82015481525050838380610d0c9061212a565b945081518110610d1f57610d1e6120cc565b5b60200260200101819052505b8080610d369061212a565b91505061092d565b5081935050505090565b8060018190555050565b610d5a61141e565b73ffffffffffffffffffffffffffffffffffffffff16610d78610fc9565b73ffffffffffffffffffffffffffffffffffffffff1614610dce576040517f08c379a0000000000000000000000000000000000000000000000000000000008152600401610dc5906123ef565b60405180910390fd5b610dd86000611426565b565b60006004600060036000815480929190610df39061212a565b91905055815260200190815260200160002090506001600354610e16919061240f565b816000018190555085816001019080519060200190610e369291906114ea565b5084816002019080519060200190610e4f9291906114ea565b5086816003019080519060200190610e689291906114ea565b50818160050181905550838160040181905550338160060160006101000a81548173ffffffffffffffffffffffffffffffffffffffff021916908373ffffffffffffffffffffffffffffffffffffffff160217905550828160070160006101000a81548173ffffffffffffffffffffffffffffffffffffffff021916908373ffffffffffffffffffffffffffffffffffffffff1602179055506001816008018190555060008160090160006101000a81548160ff02191690831515021790555060008160090160016101000a81548160ff02191690831515021790555080600a01339080600181540180825580915050600190039060005260206000200160009091909190916101000a81548173ffffffffffffffffffffffffffffffffffffffff021916908373ffffffffffffffffffffffffffffffffffffffff16021790555060015442610fb891906122ed565b81600b018190555050505050505050565b60008060009054906101000a900473ffffffffffffffffffffffffffffffffffffffff16905090565b6000600260009054906101000a900473ffffffffffffffffffffffffffffffffffffffff1673ffffffffffffffffffffffffffffffffffffffff16635ca115e96040518163ffffffff1660e01b8152600401600060405180830381865afa158015611061573d6000803e3d6000fd5b505050506040513d6000823e3d601f19601f8201168201806040525081019061108a9190612083565b90506000805b8251811015611102573373ffffffffffffffffffffffffffffffffffffffff168382815181106110c3576110c26120cc565b5b60200260200101516060015173ffffffffffffffffffffffffffffffffffffffff16036110ef57600191505b80806110fa9061212a565b915050611090565b50600115158115151461114a576040517f08c379a0000000000000000000000000000000000000000000000000000000008152600401611141906121cf565b60405180910390fd5b600115156004600085815260200190815260200160002060090160009054906101000a900460ff161515146111b4576040517f08c379a00000000000000000000000000000000000000000000000000000000081526004016111ab906124b5565b60405180910390fd5b600015156004600085815260200190815260200160002060090160019054906101000a900460ff1615151461121e576040517f08c379a000000000000000000000000000000000000000000000000000000000815260040161121590612547565b60405180910390fd5b60016004600085815260200190815260200160002060090160016101000a81548160ff02191690831515021790555060006004600085815260200190815260200160002060070160009054906101000a900473ffffffffffffffffffffffffffffffffffffffff1690508073ffffffffffffffffffffffffffffffffffffffff166108fc60046000878152602001908152602001600020600501549081150290604051600060405180830381858888f193505050501580156112e4573d6000803e3d6000fd5b5050505050565b60016004600083815260200190815260200160002060090160006101000a81548160ff02191690831515021790555050565b600047905090565b565b61132f61141e565b73ffffffffffffffffffffffffffffffffffffffff1661134d610fc9565b73ffffffffffffffffffffffffffffffffffffffff16146113a3576040517f08c379a000000000000000000000000000000000000000000000000000000000815260040161139a906123ef565b60405180910390fd5b600073ffffffffffffffffffffffffffffffffffffffff168173ffffffffffffffffffffffffffffffffffffffff1603611412576040517f08c379a0000000000000000000000000000000000000000000000000000000008152600401611409906125d9565b60405180910390fd5b61141b81611426565b50565b600033905090565b60008060009054906101000a900473ffffffffffffffffffffffffffffffffffffffff169050816000806101000a81548173ffffffffffffffffffffffffffffffffffffffff021916908373ffffffffffffffffffffffffffffffffffffffff1602179055508173ffffffffffffffffffffffffffffffffffffffff168173ffffffffffffffffffffffffffffffffffffffff167f8be0079c531659141344cd1fd0a4f28419497f9722a3daafe3b4186f6b6457e060405160405180910390a35050565b8280546114f690612372565b90600052602060002090601f016020900481019282611518576000855561155f565b82601f1061153157805160ff191683800117855561155f565b8280016001018555821561155f579182015b8281111561155e578251825591602001919060010190611543565b5b50905061156c9190611608565b5090565b604051806101a00160405280600081526020016060815260200160608152602001606081526020016000815260200160008152602001600073ffffffffffffffffffffffffffffffffffffffff168152602001600073ffffffffffffffffffffffffffffffffffffffff1681526020016000815260200160001515815260200160001515815260200160608152602001600081525090565b5b80821115611621576000816000905550600101611609565b5090565b6000604051905090565b600080fd5b600080fd5b6000819050919050565b61164c81611639565b811461165757600080fd5b50565b60008135905061166981611643565b92915050565b6000602082840312156116855761168461162f565b5b60006116938482850161165a565b91505092915050565b600073ffffffffffffffffffffffffffffffffffffffff82169050919050565b60006116c78261169c565b9050919050565b6116d7816116bc565b81146116e257600080fd5b50565b6000813590506116f4816116ce565b92915050565b600080604083850312156117115761171061162f565b5b600061171f858286016116e5565b92505060206117308582860161165a565b9150509250929050565b60008115159050919050565b61174f8161173a565b82525050565b600060208201905061176a6000830184611746565b92915050565b600080fd5b600080fd5b6000601f19601f8301169050919050565b7f4e487b7100000000000000000000000000000000000000000000000000000000600052604160045260246000fd5b6117c38261177a565b810181811067ffffffffffffffff821117156117e2576117e161178b565b5b80604052505050565b60006117f5611625565b905061180182826117ba565b919050565b600067ffffffffffffffff8211156118215761182061178b565b5b61182a8261177a565b9050602081019050919050565b82818337600083830152505050565b600061185961185484611806565b6117eb565b90508281526020810184848401111561187557611874611775565b5b611880848285611837565b509392505050565b600082601f83011261189d5761189c611770565b5b81356118ad848260208601611846565b91505092915050565b6000806000606084860312156118cf576118ce61162f565b5b600084013567ffffffffffffffff8111156118ed576118ec611634565b5b6118f986828701611888565b935050602084013567ffffffffffffffff81111561191a57611919611634565b5b61192686828701611888565b925050604084013567ffffffffffffffff81111561194757611946611634565b5b61195386828701611888565b9150509250925092565b600081519050919050565b600082825260208201905092915050565b6000819050602082019050919050565b61199281611639565b82525050565b600081519050919050565b600082825260208201905092915050565b60005b838110156119d25780820151818401526020810190506119b7565b838111156119e1576000848401525b50505050565b60006119f282611998565b6119fc81856119a3565b9350611a0c8185602086016119b4565b611a158161177a565b840191505092915050565b611a29816116bc565b82525050565b611a388161173a565b82525050565b600081519050919050565b600082825260208201905092915050565b6000819050602082019050919050565b6000611a768383611a20565b60208301905092915050565b6000602082019050919050565b6000611a9a82611a3e565b611aa48185611a49565b9350611aaf83611a5a565b8060005b83811015611ae0578151611ac78882611a6a565b9750611ad283611a82565b925050600181019050611ab3565b5085935050505092915050565b60006101a083016000830151611b066000860182611989565b5060208301518482036020860152611b1e82826119e7565b91505060408301518482036040860152611b3882826119e7565b91505060608301518482036060860152611b5282826119e7565b9150506080830151611b676080860182611989565b5060a0830151611b7a60a0860182611989565b5060c0830151611b8d60c0860182611a20565b5060e0830151611ba060e0860182611a20565b50610100830151611bb5610100860182611989565b50610120830151611bca610120860182611a2f565b50610140830151611bdf610140860182611a2f565b50610160830151848203610160860152611bf98282611a8f565b915050610180830151611c10610180860182611989565b508091505092915050565b6000611c278383611aed565b905092915050565b6000602082019050919050565b6000611c478261195d565b611c518185611968565b935083602082028501611c6385611979565b8060005b85811015611c9f5784840389528151611c808582611c1b565b9450611c8b83611c2f565b925060208a01995050600181019050611c67565b50829750879550505050505092915050565b60006020820190508181036000830152611ccb8184611c3c565b905092915050565b60008060008060008060c08789031215611cf057611cef61162f565b5b600087013567ffffffffffffffff811115611d0e57611d0d611634565b5b611d1a89828a01611888565b965050602087013567ffffffffffffffff811115611d3b57611d3a611634565b5b611d4789828a01611888565b955050604087013567ffffffffffffffff811115611d6857611d67611634565b5b611d7489828a01611888565b9450506060611d8589828a0161165a565b9350506080611d9689828a016116e5565b92505060a0611da789828a0161165a565b9150509295509295509295565b611dbd816116bc565b82525050565b6000602082019050611dd86000830184611db4565b92915050565b611de781611639565b82525050565b6000602082019050611e026000830184611dde565b92915050565b600060208284031215611e1e57611e1d61162f565b5b6000611e2c848285016116e5565b91505092915050565b600067ffffffffffffffff821115611e5057611e4f61178b565b5b602082029050602081019050919050565b600080fd5b600080fd5b600080fd5b600081519050611e7f81611643565b92915050565b6000611e98611e9384611806565b6117eb565b905082815260208101848484011115611eb457611eb3611775565b5b611ebf8482856119b4565b509392505050565b600082601f830112611edc57611edb611770565b5b8151611eec848260208601611e85565b91505092915050565b600081519050611f04816116ce565b92915050565b600060a08284031215611f2057611f1f611e66565b5b611f2a60a06117eb565b90506000611f3a84828501611e70565b600083015250602082015167ffffffffffffffff811115611f5e57611f5d611e6b565b5b611f6a84828501611ec7565b602083015250604082015167ffffffffffffffff811115611f8e57611f8d611e6b565b5b611f9a84828501611ec7565b6040830152506060611fae84828501611ef5565b6060830152506080611fc284828501611e70565b60808301525092915050565b6000611fe1611fdc84611e35565b6117eb565b9050808382526020820190506020840283018581111561200457612003611e61565b5b835b8181101561204b57805167ffffffffffffffff81111561202957612028611770565b5b8086016120368982611f0a565b85526020850194505050602081019050612006565b5050509392505050565b600082601f83011261206a57612069611770565b5b815161207a848260208601611fce565b91505092915050565b6000602082840312156120995761209861162f565b5b600082015167ffffffffffffffff8111156120b7576120b6611634565b5b6120c384828501612055565b91505092915050565b7f4e487b7100000000000000000000000000000000000000000000000000000000600052603260045260246000fd5b7f4e487b7100000000000000000000000000000000000000000000000000000000600052601160045260246000fd5b600061213582611639565b91507fffffffffffffffffffffffffffffffffffffffffffffffffffffffffffffffff8203612167576121666120fb565b5b600182019050919050565b600082825260208201905092915050565b7f596f7520617265206e6f74206120676f7665726e6f7200000000000000000000600082015250565b60006121b9601683612172565b91506121c482612183565b602082019050919050565b600060208201905081810360008301526121e8816121ac565b9050919050565b7f596f75206861766520616c726561647920766f746564206f6e2070726f706f7360008201527f616c000000000000000000000000000000000000000000000000000000000000602082015250565b600061224b602283612172565b9150612256826121ef565b604082019050919050565b6000602082019050818103600083015261227a8161223e565b9050919050565b7f50726f706f73616c206973206e6f742061637469766500000000000000000000600082015250565b60006122b7601683612172565b91506122c282612281565b602082019050919050565b600060208201905081810360008301526122e6816122aa565b9050919050565b60006122f882611639565b915061230383611639565b9250827fffffffffffffffffffffffffffffffffffffffffffffffffffffffffffffffff03821115612338576123376120fb565b5b828201905092915050565b7f4e487b7100000000000000000000000000000000000000000000000000000000600052602260045260246000fd5b6000600282049050600182168061238a57607f821691505b60208210810361239d5761239c612343565b5b50919050565b7f4f776e61626c653a2063616c6c6572206973206e6f7420746865206f776e6572600082015250565b60006123d9602083612172565b91506123e4826123a3565b602082019050919050565b60006020820190508181036000830152612408816123cc565b9050919050565b600061241a82611639565b915061242583611639565b925082821015612438576124376120fb565b5b828203905092915050565b7f546869732070726f706f73616c20686173206e6f74206265656e20706173736560008201527f6400000000000000000000000000000000000000000000000000000000000000602082015250565b600061249f602183612172565b91506124aa82612443565b604082019050919050565b600060208201905081810360008301526124ce81612492565b9050919050565b7f546869732070726f706f73616c20686173206265656e20617070726f7665642060008201527f616c726561647900000000000000000000000000000000000000000000000000602082015250565b6000612531602783612172565b915061253c826124d5565b604082019050919050565b6000602082019050818103600083015261256081612524565b9050919050565b7f4f776e61626c653a206e6577206f776e657220697320746865207a65726f206160008201527f6464726573730000000000000000000000000000000000000000000000000000602082015250565b60006125c3602683612172565b91506125ce82612567565b604082019050919050565b600060208201905081810360008301526125f2816125b6565b905091905056fea26469706673582212208f49c3b1400837b75b358a312f2a7e6bffd5e99440035de4d74cd662189489b464736f6c634300080e0033",
  "immutableReferences": {},
  "source": "//SPDX-License-Identifier: UNLICENSED\r\npragma solidity >=0.8.0 <0.9.0;\r\n\r\nimport \"./GovernorElection.sol\";\r\nimport \"@openzeppelin/contracts/access/Ownable.sol\";\r\n\r\nimport { DataTypes } from './libraries/DataTypes.sol';\r\n\r\ncontract ProposalElection is Ownable {\r\n    ///////////////////////////////////////////////////////////////////////////\r\n    /////////STRUCTS\r\n    ///////////////////////////////////////////////////////////////////////////\r\n    struct Proposal {\r\n        uint id;\r\n        string title;\r\n        string description;\r\n        string eventId;\r\n        uint256 governerId;\r\n        uint256 donation; //stored in wei\r\n        address owner;\r\n        address targetAddress;\r\n\r\n        uint votes;\r\n        bool passed;\r\n        bool transfered;\r\n        address[] alreadyVoted;\r\n        uint256 lastsFor;\r\n    }\r\n\r\n    ///////////////////////////////////////////////////////////////////////////\r\n    /////////CONSTANTS\r\n    ///////////////////////////////////////////////////////////////////////////\r\n    uint PROPOSAL_LASTS_FOR = 60*60; // 1 minute \r\n    //60*60*24*7; // 7 days\r\n    \r\n\r\n    ///////////////////////////////////////////////////////////////////////////\r\n    /////////PROPERTY VARIABLES\r\n    ///////////////////////////////////////////////////////////////////////////\r\n    GovernorElection governorElection;\r\n\r\n    uint256 proposalNum = 0;\r\n    mapping(uint256 => Proposal) proposals;\r\n    \r\n\r\n    ///////////////////////////////////////////////////////////////////////////\r\n    /////////CONSTRUCTOR\r\n    ///////////////////////////////////////////////////////////////////////////\r\n    constructor(GovernorElection _governorElection) {\r\n        governorElection = _governorElection;\r\n    }\r\n    \r\n\r\n    ///////////////////////////////////////////////////////////////////////////\r\n    /////////MODIFIERS\r\n    ///////////////////////////////////////////////////////////////////////////\r\n    modifier onlyWhenEligibleToVote(uint256 proposalId) {\r\n        require(hasAddressAlreadyVoted(msg.sender, proposalId) == false, \"You have already voted on proposal\");\r\n        _;\r\n    }\r\n\r\n    modifier onlyWhenProposalIsActive(uint256 proposalId) {\r\n        require(proposals[proposalId].lastsFor >= block.timestamp && proposals[proposalId].passed == false, \"Proposal is not active\");\r\n        _;\r\n    }\r\n\r\n    modifier beAGovernor() {\r\n        DataTypes.Governor[] memory governors = governorElection.getLastElectionWinners();\r\n\r\n        bool foundGovernor = false;\r\n        for(uint i = 0; i < governors.length; i++) {\r\n            if(governors[i].owner == msg.sender){\r\n                foundGovernor = true;\r\n            }\r\n        }\r\n        require(foundGovernor == true, \"You are not a governor\");\r\n        _;\r\n    }\r\n\r\n\r\n    ///////////////////////////////////////////////////////////////////////////\r\n    /////////FUNCTIONS\r\n    ///////////////////////////////////////////////////////////////////////////\r\n    //Donate function let's people donate some money to the vault.\r\n    function donate() public payable {}\r\n\r\n    function hasAddressAlreadyVoted(address addr, uint256 proposalId) public view returns (bool) {\r\n        for (uint i = 0; i < proposals[proposalId].alreadyVoted.length; i++) {\r\n            if (proposals[proposalId].alreadyVoted[i] == addr) {\r\n                return true;\r\n            }\r\n        }\r\n        return false;\r\n    }\r\n\r\n    \r\n    //This method transfers the requested amount to the victim only if the request has been voted YES by the majority of the angels\r\n    //TODO add check that only the proposal owner can call this function\r\n    function approveProposal(uint256 proposalId) public beAGovernor{\r\n        require(proposals[proposalId].passed == true, \"This proposal has not been passed\");\r\n        require(proposals[proposalId].transfered == false, \"This proposal has been approved already\");\r\n        \r\n        proposals[proposalId].transfered = true;\r\n        address payable targetAddress = payable (proposals[proposalId].targetAddress);\r\n        targetAddress.transfer(proposals[proposalId].donation);\r\n    }\r\n\r\n    function createProposal(\r\n        string memory eventId, \r\n        string memory title, \r\n        string memory description,\r\n        uint256 governorId,\r\n        address targetAddress,\r\n        uint256 donation\r\n        ) public {\r\n        //TODO only governors can create proposals\r\n        Proposal storage newProposal = proposals[proposalNum++];\r\n\r\n        newProposal.id = proposalNum-1;\r\n        newProposal.title = title;\r\n        newProposal.description = description;\r\n        newProposal.eventId = eventId;\r\n        newProposal.donation = donation;\r\n        newProposal.governerId = governorId;\r\n        newProposal.owner = msg.sender;\r\n        newProposal.targetAddress = targetAddress;\r\n\r\n        newProposal.votes = 1;\r\n        newProposal.passed = false;\r\n        newProposal.transfered = false;\r\n        newProposal.alreadyVoted.push(msg.sender);\r\n        newProposal.lastsFor = block.timestamp + PROPOSAL_LASTS_FOR;\r\n    }\r\n\r\n    function vote(uint256 proposalId) public beAGovernor onlyWhenEligibleToVote(proposalId) onlyWhenProposalIsActive(proposalId) {\r\n        proposals[proposalId].votes++;\r\n        proposals[proposalId].alreadyVoted.push(msg.sender);\r\n        //TODO instead of 1 votes, use the half of the total number of governors + 1\r\n        if(proposals[proposalId].votes >= 1) {\r\n            proposals[proposalId].passed = true;\r\n        }\r\n    }\r\n\r\n    function getProposals() public view returns(Proposal[] memory) {\r\n        //count the active proposals\r\n        uint activeProposalNum = 0;\r\n        for(uint i = 0; i < proposalNum; i++) {\r\n            //return only active proposals\r\n            if(proposals[i].lastsFor >= block.timestamp && proposals[i].transfered == false) {\r\n               activeProposalNum++;\r\n            }\r\n        }\r\n\r\n        //create an array of active proposals\r\n        Proposal[] memory activeProposals = new Proposal[](activeProposalNum);\r\n\r\n        uint j = 0;\r\n        //copy the active proposals to the array\r\n        for(uint i = 0; i < proposalNum; i++) {\r\n            //return only active proposals\r\n            if(proposals[i].lastsFor >= block.timestamp && proposals[i].transfered == false) {\r\n                activeProposals[j++] = proposals[i];\r\n            }\r\n        }\r\n\r\n        return activeProposals; //return the array\r\n    }\r\n\r\n    //This method gets back the current vault balance\r\n    function getVaultBalance() public view returns (uint256){\r\n        return address(this).balance; \r\n    }\r\n\r\n\r\n    ///////////////////////////////////////////////////////////////////////////\r\n    /////////ONLY OWNER FUNCTIONS FOR DEBUGGING\r\n    ///////////////////////////////////////////////////////////////////////////\r\n    function setProposalLastsFor(uint256 proposalLastsFor) public{\r\n        PROPOSAL_LASTS_FOR = proposalLastsFor;\r\n    }\r\n\r\n    function passProposal(uint256 proposalId) public{\r\n        proposals[proposalId].passed = true;\r\n    }\r\n\r\n    function forceApplyAsCandidate(string memory eventId, string memory title, string memory description) public {\r\n        Proposal storage newProposal = proposals[proposalNum++];\r\n\r\n        newProposal.id = proposalNum++;\r\n        newProposal.title = title;\r\n        newProposal.description = description;\r\n        newProposal.eventId = eventId;\r\n        newProposal.owner = msg.sender;\r\n        newProposal.votes = 1;\r\n        newProposal.passed = false;\r\n        newProposal.alreadyVoted.push(msg.sender);\r\n        newProposal.lastsFor = block.timestamp + PROPOSAL_LASTS_FOR;\r\n    }\r\n}",
  "sourcePath": "C:\\Users\\Riki\\Desktop\\Solidity + React\\hackathon-rome-nuxt\\contracts\\ProposalElection.sol",
  "compiler": {
    "name": "solc",
    "version": "0.8.14+commit.80d49f37.Emscripten.clang"
  },
  "schemaVersion": "3.4.7",
  "updatedAt": "2022-06-22T20:29:49.638Z",
  "networkType": "ethereum",
  "devdoc": {
    "kind": "dev",
    "methods": {
      "owner()": {
        "details": "Returns the address of the current owner."
      },
      "renounceOwnership()": {
        "details": "Leaves the contract without owner. It will not be possible to call `onlyOwner` functions anymore. Can only be called by the current owner. NOTE: Renouncing ownership will leave the contract without an owner, thereby removing any functionality that is only available to the owner."
      },
      "transferOwnership(address)": {
        "details": "Transfers ownership of the contract to a new account (`newOwner`). Can only be called by the current owner."
      }
    },
    "version": 1
  },
  "userdoc": {
    "kind": "user",
    "methods": {},
    "version": 1
  }
}