{
  "contractName": "RomeElection",
  "abi": [
    {
      "inputs": [],
      "stateMutability": "nonpayable",
      "type": "constructor"
    },
    {
      "inputs": [
        {
          "internalType": "uint256",
          "name": "",
          "type": "uint256"
        }
      ],
      "name": "candidateVotes",
      "outputs": [
        {
          "internalType": "uint256",
          "name": "",
          "type": "uint256"
        }
      ],
      "stateMutability": "view",
      "type": "function"
    },
    {
      "inputs": [
        {
          "internalType": "uint256",
          "name": "",
          "type": "uint256"
        }
      ],
      "name": "elections",
      "outputs": [
        {
          "internalType": "uint256",
          "name": "electionStartsAt",
          "type": "uint256"
        },
        {
          "internalType": "uint256",
          "name": "electionEndsAt",
          "type": "uint256"
        },
        {
          "internalType": "uint256",
          "name": "candidateNum",
          "type": "uint256"
        }
      ],
      "stateMutability": "view",
      "type": "function"
    },
    {
      "inputs": [
        {
          "internalType": "address",
          "name": "addr",
          "type": "address"
        }
      ],
      "name": "hasCandidateByAddress",
      "outputs": [
        {
          "internalType": "bool",
          "name": "",
          "type": "bool"
        }
      ],
      "stateMutability": "view",
      "type": "function"
    },
    {
      "inputs": [
        {
          "internalType": "address",
          "name": "addr",
          "type": "address"
        }
      ],
      "name": "hasAddressAlreadyVoted",
      "outputs": [
        {
          "internalType": "bool",
          "name": "",
          "type": "bool"
        }
      ],
      "stateMutability": "view",
      "type": "function"
    },
    {
      "inputs": [
        {
          "internalType": "uint256",
          "name": "secondsToLast",
          "type": "uint256"
        }
      ],
      "name": "setElectionLastsFor",
      "outputs": [],
      "stateMutability": "nonpayable",
      "type": "function"
    },
    {
      "inputs": [
        {
          "components": [
            {
              "internalType": "string",
              "name": "name",
              "type": "string"
            },
            {
              "internalType": "string",
              "name": "description",
              "type": "string"
            }
          ],
          "internalType": "struct RomeElection.CandidateInput",
          "name": "input",
          "type": "tuple"
        }
      ],
      "name": "applyAsCandidate",
      "outputs": [],
      "stateMutability": "nonpayable",
      "type": "function"
    },
    {
      "inputs": [
        {
          "internalType": "uint256",
          "name": "voteForId",
          "type": "uint256"
        }
      ],
      "name": "vote",
      "outputs": [],
      "stateMutability": "nonpayable",
      "type": "function"
    },
    {
      "inputs": [],
      "name": "checkElection",
      "outputs": [],
      "stateMutability": "nonpayable",
      "type": "function"
    }
  ],
  "bytecode": "0x60806040526201518060005562093a8060015560006002553480156200002457600080fd5b50600060046000600360008154809291906200004090620000d3565b91905055815260200190815260200160002090506000544262000064919062000120565b81600001819055506001546000546200007e919062000120565b426200008b919062000120565b8160010181905550506200017d565b7f4e487b7100000000000000000000000000000000000000000000000000000000600052601160045260246000fd5b6000819050919050565b6000620000e082620000c9565b91507fffffffffffffffffffffffffffffffffffffffffffffffffffffffffffffffff82036200011557620001146200009a565b5b600182019050919050565b60006200012d82620000c9565b91506200013a83620000c9565b9250827fffffffffffffffffffffffffffffffffffffffffffffffffffffffffffffffff038211156200017257620001716200009a565b5b828201905092915050565b61103b806200018d6000396000f3fe608060405234801561001057600080fd5b50600436106100885760003560e01c80639690382e1161005b5780639690382e14610127578063d1bdd4d314610143578063eff41bb31461014d578063f49e323e1461017d57610088565b80630121b93f1461008d57806333c5226b146100a95780635e6fef01146100d957806382f973d31461010b575b600080fd5b6100a760048036038101906100a2919061091e565b6101ad565b005b6100c360048036038101906100be91906109a9565b610371565b6040516100d091906109f1565b60405180910390f35b6100f360048036038101906100ee919061091e565b610458565b60405161010293929190610a1b565b60405180910390f35b61012560048036038101906101209190610c2a565b610482565b005b610141600480360381019061013c919061091e565b610669565b005b61014b610673565b005b610167600480360381019061016291906109a9565b61076b565b60405161017491906109f1565b60405180910390f35b6101976004803603810190610192919061091e565b610819565b6040516101a49190610c73565b60405180910390f35b426004600060016003546101c19190610cbd565b815260200190815260200160002060000154111580156102055750426004600060016003546101f09190610cbd565b81526020019081526020016000206001015410155b610244576040517f08c379a000000000000000000000000000000000000000000000000000000000815260040161023b90610d4e565b60405180910390fd5b6000151561025133610371565b151514610293576040517f08c379a000000000000000000000000000000000000000000000000000000000815260040161028a90610de0565b60405180910390fd5b600015156102a03361076b565b1515146102e2576040517f08c379a00000000000000000000000000000000000000000000000000000000081526004016102d990610e4c565b60405180910390fd5b60056000828152602001908152602001600020600081548092919061030690610e6c565b91905055506006339080600181540180825580915050600190039060005260206000200160009091909190916101000a81548173ffffffffffffffffffffffffffffffffffffffff021916908373ffffffffffffffffffffffffffffffffffffffff16021790555050565b600080600090505b60046000600160035461038c9190610cbd565b81526020019081526020016000206002015481101561044d578273ffffffffffffffffffffffffffffffffffffffff166004600060016003546103cf9190610cbd565b8152602001908152602001600020600301600083815260200190815260200160002060030160009054906101000a900473ffffffffffffffffffffffffffffffffffffffff1673ffffffffffffffffffffffffffffffffffffffff160361043a576001915050610453565b808061044590610e6c565b915050610379565b50600090505b919050565b60046020528060005260406000206000915090508060000154908060010154908060020154905083565b426004600060016003546104969190610cbd565b81526020019081526020016000206000015411806104d75750426004600060016003546104c39190610cbd565b815260200190815260200160002060010154105b610516576040517f08c379a000000000000000000000000000000000000000000000000000000000815260040161050d90610f00565b60405180910390fd5b60405180608001604052806002600081548092919061053490610e6c565b91905055815260200182600001518152602001826020015181526020013373ffffffffffffffffffffffffffffffffffffffff1681525060046000600160035461057e9190610cbd565b815260200190815260200160002060030160006004600060016003546105a49190610cbd565b815260200190815260200160002060020160008154809291906105c690610e6c565b9190505581526020019081526020016000206000820151816000015560208201518160010190805190602001906105fe929190610831565b50604082015181600201908051906020019061061b929190610831565b5060608201518160030160006101000a81548173ffffffffffffffffffffffffffffffffffffffff021916908373ffffffffffffffffffffffffffffffffffffffff16021790555090505050565b8060018190555050565b426004600060016003546106879190610cbd565b815260200190815260200160002060000154111580156106cb5750426004600060016003546106b69190610cbd565b81526020019081526020016000206001015410155b610769576004600060016003546106e29190610cbd565b815260200190815260200160002060010154421115610767576000600460006003600081548092919061071490610e6c565b9190505581526020019081526020016000209050600054426107369190610f20565b816000018190555060015460005461074e9190610f20565b426107599190610f20565b816001018190555050610768565b5b5b565b600080600090505b60068054905081101561080e578273ffffffffffffffffffffffffffffffffffffffff16600682815481106107ab576107aa610f76565b5b9060005260206000200160009054906101000a900473ffffffffffffffffffffffffffffffffffffffff1673ffffffffffffffffffffffffffffffffffffffff16036107fb576001915050610814565b808061080690610e6c565b915050610773565b50600090505b919050565b60056020528060005260406000206000915090505481565b82805461083d90610fd4565b90600052602060002090601f01602090048101928261085f57600085556108a6565b82601f1061087857805160ff19168380011785556108a6565b828001600101855582156108a6579182015b828111156108a557825182559160200191906001019061088a565b5b5090506108b391906108b7565b5090565b5b808211156108d05760008160009055506001016108b8565b5090565b6000604051905090565b600080fd5b600080fd5b6000819050919050565b6108fb816108e8565b811461090657600080fd5b50565b600081359050610918816108f2565b92915050565b600060208284031215610934576109336108de565b5b600061094284828501610909565b91505092915050565b600073ffffffffffffffffffffffffffffffffffffffff82169050919050565b60006109768261094b565b9050919050565b6109868161096b565b811461099157600080fd5b50565b6000813590506109a38161097d565b92915050565b6000602082840312156109bf576109be6108de565b5b60006109cd84828501610994565b91505092915050565b60008115159050919050565b6109eb816109d6565b82525050565b6000602082019050610a0660008301846109e2565b92915050565b610a15816108e8565b82525050565b6000606082019050610a306000830186610a0c565b610a3d6020830185610a0c565b610a4a6040830184610a0c565b949350505050565b600080fd5b6000601f19601f8301169050919050565b7f4e487b7100000000000000000000000000000000000000000000000000000000600052604160045260246000fd5b610aa082610a57565b810181811067ffffffffffffffff82111715610abf57610abe610a68565b5b80604052505050565b6000610ad26108d4565b9050610ade8282610a97565b919050565b600080fd5b600080fd5b600080fd5b600067ffffffffffffffff821115610b0d57610b0c610a68565b5b610b1682610a57565b9050602081019050919050565b82818337600083830152505050565b6000610b45610b4084610af2565b610ac8565b905082815260208101848484011115610b6157610b60610aed565b5b610b6c848285610b23565b509392505050565b600082601f830112610b8957610b88610ae8565b5b8135610b99848260208601610b32565b91505092915050565b600060408284031215610bb857610bb7610a52565b5b610bc26040610ac8565b9050600082013567ffffffffffffffff811115610be257610be1610ae3565b5b610bee84828501610b74565b600083015250602082013567ffffffffffffffff811115610c1257610c11610ae3565b5b610c1e84828501610b74565b60208301525092915050565b600060208284031215610c4057610c3f6108de565b5b600082013567ffffffffffffffff811115610c5e57610c5d6108e3565b5b610c6a84828501610ba2565b91505092915050565b6000602082019050610c886000830184610a0c565b92915050565b7f4e487b7100000000000000000000000000000000000000000000000000000000600052601160045260246000fd5b6000610cc8826108e8565b9150610cd3836108e8565b925082821015610ce657610ce5610c8e565b5b828203905092915050565b600082825260208201905092915050565b7f456c656374696f6e206973206e6f742061637469766500000000000000000000600082015250565b6000610d38601683610cf1565b9150610d4382610d02565b602082019050919050565b60006020820190508181036000830152610d6781610d2b565b9050919050565b7f596f7520617265206e6f7420656c696769626c6520746f20766f74652c20626560008201527f636175736520796f752061726520612063616e64696461746500000000000000602082015250565b6000610dca603983610cf1565b9150610dd582610d6e565b604082019050919050565b60006020820190508181036000830152610df981610dbd565b9050919050565b7f596f75206861766520616c726561647920766f74656400000000000000000000600082015250565b6000610e36601683610cf1565b9150610e4182610e00565b602082019050919050565b60006020820190508181036000830152610e6581610e29565b9050919050565b6000610e77826108e8565b91507fffffffffffffffffffffffffffffffffffffffffffffffffffffffffffffffff8203610ea957610ea8610c8e565b5b600182019050919050565b7f456c656374696f6e206973206163746976650000000000000000000000000000600082015250565b6000610eea601283610cf1565b9150610ef582610eb4565b602082019050919050565b60006020820190508181036000830152610f1981610edd565b9050919050565b6000610f2b826108e8565b9150610f36836108e8565b9250827fffffffffffffffffffffffffffffffffffffffffffffffffffffffffffffffff03821115610f6b57610f6a610c8e565b5b828201905092915050565b7f4e487b7100000000000000000000000000000000000000000000000000000000600052603260045260246000fd5b7f4e487b7100000000000000000000000000000000000000000000000000000000600052602260045260246000fd5b60006002820490506001821680610fec57607f821691505b602082108103610fff57610ffe610fa5565b5b5091905056fea264697066735822122002e20a443b13ca3894823eaf9841c7263f7ca1517684c67564da61b17704548564736f6c634300080e0033",
  "immutableReferences": {},
  "source": "//SPDX-License-Identifier: UNLICENSED\npragma solidity >=0.8.0 <0.9.0;\n\ncontract RomeElection {\n    ///////////////////////////////////////////////////////////////////////////\n    /////////STRUCTS\n    ///////////////////////////////////////////////////////////////////////////\n    struct CandidateInput {\n        string name;\n        string description;\n    }\n\n    struct Candidate {\n        uint id;\n        string name;\n        string description;\n        address owner;\n    }\n\n    struct Election {\n        uint256 electionStartsAt;\n        uint256 electionEndsAt;\n        uint candidateNum;\n        mapping(uint => Candidate) candidates;\n    }\n\n\n    ///////////////////////////////////////////////////////////////////////////\n    /////////CONSTANTS\n    ///////////////////////////////////////////////////////////////////////////\n    uint ELECTION_START_IN = 60*60*24*1; // 1 days\n    uint ELECTION_LASTS_FOR = 60*60*24*7; // 7 days\n    \n\n    ///////////////////////////////////////////////////////////////////////////\n    /////////PROPERTY VARIABLES\n    ///////////////////////////////////////////////////////////////////////////\n    uint256 candidateNumber = 0;\n\n    uint256 electionNum;\n    mapping(uint256 => Election) public elections;\n\n    // The mapping of the current candidate votes id => votes\n    mapping(uint => uint) public candidateVotes;\n\n    address[] alreadyVoted;\n\n    \n\n    ///////////////////////////////////////////////////////////////////////////\n    /////////CONSTRUCTOR\n    ///////////////////////////////////////////////////////////////////////////\n    constructor() {\n        Election storage election = elections[electionNum++];\n        election.electionStartsAt = block.timestamp + ELECTION_START_IN; //first election starts ELECTION_LASTS_FOR from now\n        election.electionEndsAt = block.timestamp + (ELECTION_START_IN+ELECTION_LASTS_FOR); //and ends 2*ELECTION_LASTS_FOR from now\n    }\n    \n\n    ///////////////////////////////////////////////////////////////////////////\n    /////////MODIFIERS\n    ///////////////////////////////////////////////////////////////////////////\n    modifier onlyWhenElectionIsActive() {\n        require(elections[electionNum-1].electionStartsAt <= block.timestamp && elections[electionNum-1].electionEndsAt >= block.timestamp, \"Election is not active\");\n        _;\n    }\n\n    modifier onlyWhenElectionIsNotActive() {\n        require(elections[electionNum-1].electionStartsAt > block.timestamp || elections[electionNum-1].electionEndsAt < block.timestamp, \"Election is active\");\n        _;\n    }\n\n    modifier onlyWhenEligibleToVote() {\n        require(hasCandidateByAddress(msg.sender) == false, \"You are not eligible to vote, because you are a candidate\");\n        require(hasAddressAlreadyVoted(msg.sender) == false, \"You have already voted\");\n        _;\n    }\n\n    ///////////////////////////////////////////////////////////////////////////\n    /////////FUNCTIONS\n    ///////////////////////////////////////////////////////////////////////////\n    function hasCandidateByAddress(address addr) public view returns (bool) {\n        for (uint i = 0; i < elections[electionNum-1].candidateNum; i++) {\n            if (elections[electionNum-1].candidates[i].owner == addr) {\n                return true;\n            }\n        }\n        return false;\n    }\n\n    function hasAddressAlreadyVoted(address addr) public view returns (bool) {\n        for (uint i = 0; i < alreadyVoted.length; i++) {\n            if (alreadyVoted[i] == addr) {\n                return true;\n            }\n        }\n        return false;\n    }\n\n    function setElectionLastsFor(uint256 secondsToLast) public{\n        //TODO require that only the owner can call this function\n        ELECTION_LASTS_FOR = secondsToLast;\n    }\n\n    function applyAsCandidate(CandidateInput memory input) public onlyWhenElectionIsNotActive {\n        elections[electionNum-1].candidates[elections[electionNum-1].candidateNum++] = Candidate({\n            id: candidateNumber++,\n            name: input.name,\n            description: input.description,\n            owner: msg.sender\n        });\n    }\n\n    function vote(uint256 voteForId) public onlyWhenElectionIsActive onlyWhenEligibleToVote {\n        candidateVotes[voteForId]++;\n        alreadyVoted.push(msg.sender);\n    }\n\n    // this methods should be called every time when someone visits the site\n    function checkElection() public {\n        if (elections[electionNum-1].electionStartsAt <= block.timestamp && elections[electionNum-1].electionEndsAt >= block.timestamp) {\n            // election is active => do nothing\n        } else {\n            // election is not active\n            if(block.timestamp > elections[electionNum-1].electionEndsAt){\n                // election is over => close it\n                //craete new election by incrementing the election num\n                Election storage election = elections[electionNum++];\n\n                election.electionStartsAt = block.timestamp + ELECTION_START_IN;\n                election.electionEndsAt = block.timestamp + (ELECTION_START_IN+ELECTION_LASTS_FOR);\n            } else {\n                // election has not yet started => do nothing\n            }\n        }\n    }\n\n\n}",
  "sourcePath": "/Users/kt/Revext bt/development/hackathon-rome-nuxt/contracts/RomeElection.sol",
  "compiler": {
    "name": "solc",
    "version": "0.8.14+commit.80d49f37.Emscripten.clang"
  },
  "schemaVersion": "3.4.7",
  "updatedAt": "2022-06-13T11:56:29.373Z",
  "devdoc": {
    "kind": "dev",
    "methods": {},
    "version": 1
  },
  "userdoc": {
    "kind": "user",
    "methods": {},
    "version": 1
  }
}